:020000040800F2
:10000000700B0020950100082B1D0008851B0008BF
:10001000291D000881050008652200080000000075
:100020000000000000000000000000002F1D00087C
:10003000EB060008000000002D1D0008311D00081F
:10004000AF010008AF010008AF010008AF010008D0
:10005000AF010008AF010008AF010008AF010008C0
:10006000AF010008AF010008F5060008AF01000865
:10007000AF010008AF010008910600089D060008C6
:10008000A9060008B5060008AF010008AF01000886
:10009000AF010008AF010008AF010008AF01000880
:1000A000AF010008951D0008AF010008AF0100086E
:1000B000A11D0008AF010008AF010008AF01000852
:1000C000AF010008AF010008AF010008AF01000850
:1000D000AF0100084D22000859220008AF010008B6
:1000E000ED060008AF010008AF01000800F002F8BB
:1000F00000F041F80AA090E8000C82448344AAF181
:100100000107DA4501D100F036F8AFF2090EBAE87E
:100110000F0013F0010F18BFFB1A43F0010318473B
:100120001826000038260000103A24BF78C878C18D
:10013000FAD8520724BF30C830C144BF04680C60ED
:10014000704700000023002400250026103A28BF35
:1001500078C1FBD8520728BF30C148BF0B60704739
:100160001FB59DE8030000F0F3F81FBD10B5002097
:1001700000F0A5F810BD00F06BF91146FFF7F0FF95
:1001800002F000FA00F0A3F903B4FFF7EFFF03BC9D
:1001900000F058F90948804709480047FEE7FEE7A4
:1001A000FEE7FEE7FEE7FEE7FEE7FEE7FEE7FEE727
:1001B00004480549054A064B70470000911D000898
:1001C000ED00000870050020700B00207007002073
:1001D000700700202DE9F041074615460E46102015
:1001E00000F03EF804000AD06760C4E9026500F040
:1001F00033F80168216004600020BDE8F08101202F
:10020000FBE74FF0000200B51346944696462039AE
:1002100022BFA0E80C50A0E80C50B1F12001BFF4BF
:10022000F7AF090728BFA0E80C5048BF0CC05DF825
:1002300004EB890028BF40F8042B08BF704748BF73
:1002400020F8022B11F0804F18BF00F8012B7047E7
:10025000704770477047000000487047480500200D
:1002600070B5064600F058F8056806F10B0020F05E
:100270000704B4429CBF002070BD2B466A68BAB127
:100280001068A04210D304F1080188423CBF5068B6
:10029000586007D35168101941601168091B01604B
:1002A00058601460101D70BD13465268002AE7D1D3
:1002B0002146284600F038F80028DED170BD2DE92F
:1002C000F0410646FFF7C8FF8046454613E016B1E9
:1002D000E068B0420ED120682860D4E90101D8F866
:1002E00000708847204600F069F8D8F80000B8424E
:1002F000EBD100E025462C68002CE8D1BDE8F08168
:1003000010B500F087F8BDE8104000F07EB800009E
:10031000004870471005002000487047180500206D
:10032000704770477047704738B504460A4600204A
:100330006946AFF30080002808BF38BD0246009927
:10034000204600F0AAF8012038BD012000F0E1B8F5
:10035000F8B5AFF30080054600200C46102000BF22
:100360000646A819A0420DD9324669460020AFF3CF
:100370000080070008BF00F0CCF80098A04218BF2A
:100380000546C419FFF7C8FF05600746F01D20F0B9
:1003900007004619284600F00AF8B44208BFF8BD25
:1003A000A21B31463868BDE8F84000F076B800215D
:1003B0000160C0E9011070471020704770B5044615
:1003C000051FFFF7A9FF0068002C14BF446870BD2B
:1003D000002C18BFAC423CBF20466468F8D30168CB
:1003E0000A18AA4218BF456003D12A68054611447D
:1003F000016028684119A1421CBF6C6070BD616832
:10040000696021680844286070BD002801D000F0B0
:1004100019B8704710B5002102A000F061F8012062
:1004200010BD00005349475056464E3A2050757251
:1004300065207669727475616C20666E2063616CEC
:100440006C65640001491820ABBEFEE7260002007F
:100450007546FFF75DFFAE4605006946534620F03E
:100460000700854618B020B5FFF7A2FEBDE8204082
:100470004FF000064FF000074FF000084FF0000B60
:1004800021F00701AC46ACE8C009ACE8C009ACE813
:10049000C009ACE8C0098D467047034640688C46E9
:1004A000002818BF88423CBF03464068F8D318684C
:1004B0001844884207D00CF1030020F00700001D0B
:1004C000411A521A0146081D0A60FFF777BF10B59E
:1004D0000446AFF300802046BDE81040FFF754BE4D
:1004E00070B505460C460A2000E06D1C00F018F8B7
:1004F00035B128780028F8D102E0641C00F010F82B
:1005000014B120780028F8D1BDE870400A2000F02E
:1005100007B810B500F00CF8BDE81040FFF775BF44
:1005200008B569468DF800000320ABBE08BD7047D2
:1005300010B5012805D0002103A0FFF7D1FF01204D
:1005400010BD09A1F8E7000053494752544D454DED
:100550003A204F7574206F662068656170206D6564
:100560006D6F7279000000003A2048656170206D5F
:10057000656D6F727920636F727275707465640057
:10058000FEE70000084A10B51368002B0AD00022CD
:1005900003EB4204248E20F81240521C042AF7DB9D
:1005A000188F088010BD00001C000020FEB5184DFB
:1005B00006460C462868002829D12879C0071BD197
:1005C000281D01F0D4FFB8B11248314600F59E76DF
:1005D00000F5BE7700F51F7C8DE8C010224600F1C3
:1005E0003C0301F07DFF0C4901600C4A0C49FFF708
:1005F000F1FD281DAFF300800648286000F51F714B
:1006000003B02046BDE8F040402201F024B8FEBD12
:100610001C000020540200202827000800000008C9
:100620004B250008034604480068002803D00A460A
:10063000194601F06DBE70471C0000202DE9FF41F6
:1006400004460848DDE90B7500680A9E002807D0BB
:1006500003958DE8C80013460A46214601F0B2FE14
:10066000BDE8FF811C00002003480068002801D07D
:1006700001F006BE704700001C0000200146034840
:100680000068002801D001F063BE70471C00002004
:10069000014800F0A3B8000040010020014800F02C
:1006A0009DB80000FC000020014800F097B8000051
:1006B00084010020014800F091B80000C80100202A
:1006C00030B590F840500124AC40C56B6C600468B4
:1006D00063604368102B036803D099600068C260B0
:1006E00030BD9A600068C16030BD70474FF4006053
:1006F00000F08EB9102000F08BB972B6FEE710B58D
:1007000090F821100022022905D00421816380F88D
:100710002020012010BD01680B6823F00E030B6040
:1007200001680B6823F001030B6090F84030C46B44
:10073000012101FA03F3636080F8211080F8202082
:10074000104610BD10B590F821100024022903D0E6
:100750000421816301243DE001680A6822F00E0251
:100760000A6001680A6822F001020A601A4A0168F8
:10077000914201D1012121E0174A1432914201D165
:1007800010211BE0144A2832914201D1891515E04D
:10079000114A3C32914201D189140FE00E4A503285
:1007A000914202D14FF4803108E00B4A6432914209
:1007B00002D14FF4801101E04FF08071064A083AEF
:1007C0005160012180F82110002180F82010416B38
:1007D00001B18847204610BD080002402DE9F05FB6
:1007E000C16B0C6801680B68D0F840C0042202FAA3
:1007F0000CF2494DDFF824A1494E4A4FDFF828B1E9
:10080000DFF828E122422CD05A072AD50A6892063E
:1008100003D40A6822F004020A600168A94201D1E7
:10082000042219E0514501D1402215E0B14202D124
:100830004FF4806210E0B94202D14FF480420BE0E5
:10084000594502D14FF4802206E0714502D14FF4A0
:10085000800201E04FF080622F4908394A60C16A86
:100860003BE04FF0020808FA0CF818EA040F4FF0CA
:1008700000094FF0010235D05FEA837832D50B686A
:100880009B0605D40B6823F00A030B6080F8212037
:100890000168A94201D1022219E0514501D120226B
:1008A00015E0B14202D14FF4007210E0B94202D11A
:1008B0004FF400520BE0594502D14FF4003206E0EC
:1008C000714502D14FF4001201E04FF0007212495D
:1008D00008394A6080F82090816A00291AD0BDE862
:1008E000F05F0847082505FA0CF5254212D01B07D2
:1008F00010D50B6823F00E030B6090F84010C36B0B
:1009000002FA01F15960826380F8212080F820907A
:10091000016BE2E7BDE8F09F080002401C000240C6
:100920003000024044000240580002406C00024087
:1009300030B528B308C8134914221944B1FBF2F1A9
:100940008900C16310498163022141771A6843F627
:10095000F0718A43D0E900142143D0E902452C43C9
:10096000214304692143446921438469214311439C
:10097000196000214163012242770177084630BDAA
:10098000012030BDF8FFFDBF0000024070B50446F5
:1009900090F82000002501280CD0012084F82000C8
:1009A00094F821600020012E06D084F82000022552
:1009B000284670BD022070BD022684F82160A06325
:1009C0002068066826F0010606602046FFF778FEDC
:1009D000E06A00282068016802D041F00E0106E0BC
:1009E00021F0040101602068016841F00A01016002
:1009F0002068016841F001010160D9E7B0F5006F9E
:100A000002D10248FFF73ABE704700006C00002098
:100A1000044910B50A68024202D00860FFF7EEFFF1
:100A200010BD0000140401402DE9F84FDFF8B89123
:100A30000024A9F1040B23460F2709F1040AABF1A6
:100A4000040EC9E00125A5402A40AA427DD1674E87
:100A5000D1F804C0ACEB0608B44532D014DCBCF1CC
:100A6000030F3AD009DCBCF1000F2AD0BCF1010F12
:100A70001CD0BCF1020F31D11DE0BCF1110F17D019
:100A8000BCF1120F2AD119E0B8F5881F19D006DC85
:100A9000B8F5803F15D0B8F5801F1FD111E0B8F52B
:100AA000001F0ED0B8F5041F18D10AE0CB6815E07E
:100AB000CB681B1D12E0CB6808330FE0CB680C330A
:100AC0000CE08B682BB1012B4FF0080303D045617C
:100AD00004E0042302E0056100E00023FF2A01D8BE
:100AE000064601E000F104064FEA840501D9A5F1AC
:100AF0002005D6F8008007FA05FC28EA0C0803FA5E
:100B000005F548EA0508C6F800804D68ED0062D595
:100B1000374DAE6946F00106AE61AD6924F00306BB
:100B200005F001050095334D06EB050CDCF8085087
:100B3000A607360F07FA06F825EA0805DFF8B88099
:100B4000404503D14FF0000817E044E0DFF8AC80E7
:100B5000404502D14FF001080FE0DFF8A480404586
:100B600002D14FF0020808E0DFF89880404502D13A
:100B70004FF0030801E04FF0040808FA06F848EACD
:100B80000508CCF808804D68D9F80060ED024D46A4
:100B900001D5164300E096432E604D68DAF80060F8
:100BA000AD02554601D5164300E096432E604D68D0
:100BB000DBF80060AD035D4601D5164300E09643C7
:100BC0002E604D68DEF80060ED03754601D51643D2
:100BD00000E096432E60641C0D682A46E5407FF4D1
:100BE00031AFBDE8F88F000008040140000011108B
:100BF000001002400000014000080140000C0140CC
:100C000000100140001401408068084000D001201D
:100C10007047000001488068704700000C00002009
:100C20000248816802781144816070470C000020FE
:100C3000074810B5016841F010010160032000F081
:100C40009BF80F2000F006F800F04AF8002010BDD5
:100C50000020024030B505461C4887B0816941F448
:100C600000618161806906A900F40060009001A81C
:100C700000F02AF900F058F91549164AB0FBF1F1D5
:100C80001548491E0260416040F2E7320021C0E988
:100C900003218160816100F043FB040012D10E4802
:100CA00000F088FB04000DD1192000F037F8102D5A
:100CB00007D200222946192000F03EF807480560B7
:100CC00000E0012407B0204630BD000000100240C3
:100CD00040420F00002C01400C02002010000020B8
:100CE0000C4808B5816941F001018161816901F019
:100CF00001010091C16941F08051C161C06900F0FA
:100D0000805000900448416821F0E06141F000719A
:100D1000416008BD0010024000000140002809DBCE
:100D200000F01F02012191404009800000F1E02005
:100D3000C0F8001170470000F0B40E4B1B680C4661
:100D4000C3F30223C3F10705042D00D90425191D9F
:100D5000072901D2002300E0DB1E012606FA05F177
:100D6000491E214099409E40761E16403143F0BCFA
:100D700001F0EDBB0CED00E0064900F00702086849
:100D80004FF6FF03184040EA0220034A1043086070
:100D9000704700000CED00E00000FA052DE9F04777
:100DA0000F46050061D0434E306800F00700B8429E
:100DB00009D2306820F0070038433060306800F016
:100DC0000700B84251D128683B4C810712D5400733
:100DD00003D5606840F4E06060602878000703D5C0
:100DE000606840F4605060606068A96820F0F000BE
:100DF000084360602878C00728D06868012810D0B0
:100E00002168022810D0890700292EDA616821F0B4
:100E1000030101436160FFF7FDFE804641F288391E
:100E20000DE021688903EFE78901EDE7FFF7F2FEA6
:100E3000A0EB0801494502D90320BDE8F0876068AE
:100E4000696800F00C00B0EB810FEFD1306800F062
:100E50000700B8420BD9306820F0070038433060F3
:100E6000306800F00700B84201D00120E5E728789B
:100E7000400705D56068E96820F4E06008436060D9
:100E80002878000706D56068296920F4605040EA98
:100E9000C100606000F058F86168084AC1F30311AE
:100EA000515CC8400649086006480068FFF7D2FE5A
:100EB0000020C2E700200240001002400626000881
:100EC00018000020100000200F2202600C4A536816
:100ED00003F003034360536803F0F0038360536837
:100EE00003F4E063C36052684FF4E06303EAD202A4
:100EF00002610448006800F00700086070470000C5
:100F0000001002400020024004480549006849687A
:100F1000044AC1F30221515CC84070471800002008
:100F20000010024016260008044805490068496878
:100F3000044AC1F3C221515CC84070471800002028
:100F400000100240162600080E4A51680E4801F0B3
:100F50000C03042B11D0082B0FD10C48C1F3834391
:100F6000C903C05C0AD55168084AC1F34041921ECA
:100F7000515C054A5043B0FBF1F0704704494843C7
:100F8000704700000010024000127A00F6250008A9
:100F900000093D002DE9F84F040070D02078C04DC5
:100FA000C00749D06868C0F38100012807D068688D
:100FB000C0F38100022809D16868C00306D52868FB
:100FC000800339D560680028E7D035E06068B0F567
:100FD000803F0BD010B1B0F5A02F11D0286820F4BD
:100FE00080302860286820F4802002E0286840F4DF
:100FF00080302860606890B1FFF70CFE06460AE07A
:10100000286840F480202860F0E700BFFFF702FE68
:10101000801B642873D828688003F7D50CE0FFF79D
:10102000F9FD064605E000BFFFF7F4FD801B6428CC
:10103000F0D828688003F7D420789A4E80074FF0C4
:1010400001094FF0000839D5686810F00C0F07D07F
:101050006868C0F38100022809D16868C00306D41B
:101060002868800714D52069012808D110E020697C
:10107000B0B1C6F80090FFF7CDFD074605E00AE1E4
:10108000FFF7C8FDC01B0228C4D828688007F7D521
:101090002868616920F0F80040EAC10028600DE08E
:1010A000C6F80080FFF7B6FD074604E0FFF7B2FD83
:1010B000C01B022823D828688007F7D420780007AF
:1010C0002CD57948A169D9B1C0F80090FFF7A2FDED
:1010D000074604E0FFF79EFDC01B02280FD8686A90
:1010E0008007F7D571484FF4FA510068B0FBF1F072
:1010F000009000BF0098411E0091FAD20EE080E0FF
:10110000C0F80080FFF786FD074604E0FFF782FD88
:10111000C01B022875D8686A8007F7D4207840077A
:1011200060D5E8690027C00008D4E86940F0805025
:10113000E861E869012700F0805000905C48016890
:10114000C90513D40168834641F480710160FFF73B
:1011500061FD824606E000BFFFF75CFDA0EB0A00E0
:1011600064284ED8DBF80000C005F5D5E0680128FA
:101170000AD008B1052813D0286A20F0010028629F
:10118000286A20F0040002E0286A40F0010028628A
:10119000E06841F2883B98B1FFF73CFD82460BE0E6
:1011A000286A40F004002862EEE700BFFFF732FD36
:1011B000A0EB0A0159455AD8286A8007F6D50CE0F9
:1011C000FFF728FD824605E0FFF724FDA0EB0A01AA
:1011D00059454CD8286A8007F6D41FB1E86920F039
:1011E0008050E861E06988B36968C1F38101022930
:1011F00044D00228C6F8608004D0FFF70BFD0446F7
:1012000038E034E0FFF706FD074604E0FFF702FD93
:10121000C01B02282BD828688001F7D4206AB0F5BB
:10122000803F05D16868A16820F4003008436860F9
:10123000D4E908010843696821F47411084368601F
:10124000C6F86090FFF7E6FC044606E025E000BF24
:10125000FFF7E0FC001B022809D828688001F7D5B9
:101260001BE000BFFFF7D6FC001B022802D90320B9
:10127000BDE8F88F28688001F4D40EE00128F7D08B
:101280006868226A00F48031914204D1616A00F4F6
:101290007010884201D00120EAE70020E8E7000052
:1012A0000010024000004242800442421800002028
:1012B000007000407047704770B590F83C20012ADC
:1012C00026D0012480F83C40022280F83D200368AB
:1012D0005A689D6822F070060A6832435A600D4BC6
:1012E00002689A4208D0B2F1804F05D00A4B9A4268
:1012F00002D00A4B9A4204D1496825F08003194371
:10130000916080F83D40002180F83C10084670BD97
:10131000022070BD002C0140000400400008004085
:1013200010B5040003D094F83D0010B107E001208F
:1013300010BD002084F83C00204600F01FF8022079
:1013400084F83D00211D206800F030FD012084F864
:10135000460084F83E0084F83F0084F8400084F89A
:10136000410084F8420084F8430084F8440084F883
:10137000450084F83D00002010BD000008B500685D
:10138000B0F1804F12D10A48C16941F00101C16139
:10139000C069002200F00100009011461C20FFF7F8
:1013A000CBFCBDE808401C20FFF7B8BC08BD00001E
:1013B0000010024090F83D10012901D00120704733
:1013C000022180F83D100168CA6842F00102CA603B
:1013D00000680B49884208D0B0F1804F05D0094918
:1013E000884202D00849884204D1816801F007018F
:1013F000062903D0016841F0010101600020704717
:10140000002C0140000400400008004070B5044674
:1014100090F83C000025012817D0012684F83C6094
:10142000022084F83D002068826822F0770222F4CE
:101430007F4282600868502838D00DDC20284FD0C9
:1014400005DC90B3102811D14AE0022070BD30288D
:1014500046D040280AD13BE060282FD070280DD01C
:10146000B0F5805F03D0B0F5005F12D0012584F89D
:101470003D60002084F83C00284670BDCB68D1E96F
:101480000121206800F0CEFC2068816841F07701DE
:1014900009E0CB68D1E90121206800F0C3FC206895
:1014A000816841F480418160E1E719E0CA684968D8
:1014B000206800F0C9FC5021206806E0CA6849682D
:1014C000206800F0D2FC6021206800F0B5FCCEE777
:1014D000CA684968206800F0B7FC40212068F4E73A
:1014E000226801461046F0E770472DE9F0410446B6
:1014F0000068C66805694FF00007A90713D5B10752
:1015000011D5F91E016101202077206880698007CC
:10151000204602D0FFF7E8FF04E000F07EF8204606
:1015200000F07CF82777680716D5700714D5216876
:101530006FF004000861022020772068806910F4B1
:10154000407F204602D0FFF7CFFF04E000F065F8AF
:10155000204600F063F82777280715D5300713D504
:1015600021686FF008000861042020772068C069B6
:101570008007204602D0FFF7B7FF04E000F04DF8E7
:10158000204600F04BF82777E80616D5F00614D56C
:1015900021686FF010000861082020772068C0697A
:1015A00010F4407F204602D0FFF79EFF04E000F0D9
:1015B00034F8204600F032F82777E80708D0F00723
:1015C00006D021686FF001000861204600F028F87D
:1015D000280608D5300606D521686FF0800008611E
:1015E0002046FFF767FE680608D5700606D5216815
:1015F0006FF040000861204600F02CF8A8060AD5DC
:10160000B00608D521686FF0200008612046BDE8CB
:10161000F041FFF750BEBDE8F08170477047000011
:101620000EB500680A49884203D1BDE80E40FFF7B5
:10163000F7BAB0F1804F0AD1DD22CC21BB208DE872
:101640000700AA23052202210120FEF7F7FF0EBDA5
:10165000002C0140704738B5044690F8420020281D
:1016600001D0022038BD51B14AB1012020630020D1
:101670006063204600F0A2FD216B012901D001200A
:1016800038BD21680A684968009121680C3151E829
:10169000002F42F0100241E80023002BF5D138BDA5
:1016A000FEF7C0BF70470000F8B50168044608683F
:1016B000CA684B6910F00F0F4FF0000559D003F0C6
:1016C000010602F49077374365D0C10705D0D105F4
:1016D00003D5616C41F001016164410705D5D9076B
:1016E00003D0616C41F002016164810705D5D9071F
:1016F00003D0616C41F004016164010707D502F079
:101700002001314303D0616C41F008016164616CD8
:1017100000293AD0800604D5900602D5204600F074
:1017200090FC20684069616CC0F38010090700D408
:1017300060B3204600F050FC20684069400621D587
:101740002068143050E8001F21F0400140E80012EA
:10175000002AF5D1E06BA8B16D494163E06BFEF75B
:10176000F1FF002811D0E06B416B01B0BDE8F04003
:10177000084783060FD593060DD52046BDE8F840EF
:1017800000F05FBC2046FFF78DFFF8BD2046FFF755
:1017900089FF6564F8BD266B2023012E7CD1C60627
:1017A0007AD5D60678D508684868009048694FF021
:1017B0000206400640D5E16B086840680004000C52
:1017C000E8D0A28D8242E5D9E085886920282DD015
:1017D00020680C3050E8001F21F4807140E80012AE
:1017E000002AF5D12068143050E8001F21F00101D3
:1017F00040E80012002AF5D12068143050E8001F9C
:1018000021F0400140E80012002AF5D184F842306E
:10181000256320680C3050E8001F21F0100140E8DB
:101820000012002AF5D1E06BFEF769FF6663A08D18
:10183000E18D401A81B22AE0A08DE18D401A81B27B
:10184000E08D0028A6D00029A4D022680C3252E8EE
:10185000000F20F4907042E80007002FF5D12068B7
:10186000143050E8002F22F0010240E80027002F3A
:10187000F5D184F84230256320680C3050E8002F01
:1018800022F0100240E80023002BF5D166632046C9
:10189000FFF706FFF8BDFFE705062BD5150629D58E
:1018A00094F841002128F5D1A068B0F5805F01D1FE
:1018B0002069B0B1206A411C21622168007848602B
:1018C000E08C401E0004000CE084E3D12068C16875
:1018D00021F08001C1602068C16841F04001C16011
:1018E000D8E7206A0088C0F308004860206A801C9E
:1018F0002062E5E74006CDD55006CBD5CA68204624
:1019000022F04002CA6084F8413000F039F9C1E7A2
:101910008F1E000870B5040004D094F84100002523
:1019200010B106E0012070BD84F84050204600F060
:1019300023F8242084F841002068C16821F4005174
:10194000C160204600F0DEFB2068016921F490416F
:1019500001612068416921F02A0141612068C16864
:1019600041F40051C1606564202084F8410084F88E
:1019700042006563002070BD2DE9F04186B000256E
:1019800000950195029503950446DFF860C1036850
:10199000574802210322574F80264FF01008634515
:1019A0004CD1836943F480438361836903F48043AA
:1019B0000493836943F0040383618069039200F018
:1019C000040004900802CDE9000169463846FFF79B
:1019D0002BF8F000CDE90005694638460295FFF77F
:1019E00023F8464F4448C7E90005C7E902563D6160
:1019F0007D61BD613846FD61FEF79AFF08B1FEF7D3
:101A00007CFEE7637C623D4F3B4844371438C7E9AE
:101A100002563D617D61BD61FD61C7E90008384640
:101A2000FEF786FF08B1FEF768FEA76300220521D6
:101A300025207C62FFF780F9252051E0DFF8C0C047
:101A400063454FD1C36943F40033C361C36903F4F1
:101A500000330493836943F0040383618069039234
:101A600000F0040004900420CDE9000169463846E6
:101A7000FEF7DAFF0820CDE90005694638460295F1
:101A8000FEF7D2FF1D4F1C4888371430C7E9000508
:101A9000C7E902563D617D61BD613846FD61FEF7D3
:101AA00047FF08B1FEF729FEE7637C62134F124837
:101AB000CC372830C7E902563D617D61BD61FD61CB
:101AC000C7E900083846FEF733FF08B1FEF715FEF8
:101AD000A7630022052126207C62FFF72DF926202E
:101AE000FFF71CF906B0BDE8F081000000380140A6
:101AF000001002400008014058000240FC00002095
:101B0000004400407047704770B5044690F84100AB
:101B1000202801D0022070BD49B342B32162A284C3
:101B2000E28400206064212384F84130A56B114BCE
:101B3000AB62A56B104BEB62A56B104B2B63A36BD9
:101B40005863256813462A1DA06BFEF71FFF216806
:101B50006FF0400008602068143050E8001F41F02A
:101B6000800140E80012002AF5D1002070BD01205C
:101B700070BD00008D1F0008CF1F00089F1E0008C9
:101B800070477047FEE70000154808B5416941F00D
:101B9000010141614069002200F0010000901146FE
:101BA0000E20FFF7C9F80E20FFF7B8F80022114603
:101BB0000F20FFF7C1F80F20FFF7B0F80022114601
:101BC0001020FFF7B9F81020FFF7A8F800221146FF
:101BD0001120FFF7B1F8BDE808401120FFF79EB8CB
:101BE0000010024000B585B00020039016488169BE
:101BF00041F020018161816901F020010491816936
:101C000041F0040181618069694600F0040004909C
:101C10004FF4016000900D480190022002900C48A2
:101C2000FEF702FF002211460A20FFF785F80A207E
:101C3000FFF774F8002211462820FFF77DF82820CE
:101C4000FFF76CF805B000BD001002400000111055
:101C50000008014010B586B0002416480094019495
:101C60000294039404944FF080410594016041F67E
:101C70001F41C0E901146321C0E903148461FFF727
:101C80004FFB08B1FEF739FD4FF4805000906946D4
:101C90000848FFF7BBFB08B1FEF72FFD049404A929
:101CA00004480594FFF708FB002801D0FEF725FD46
:101CB00006B010BD240000200C4810B50A49016090
:101CC0004FF4E1314160002181600C22C160C0E924
:101CD00004128161C161FFF71DFE002803D0BDE839
:101CE0001040FEF70ABD10BD003801406C00002016
:101CF0000C4810B50A4901604FF4E1314160002100
:101D000081600C22C160C0E904128161C161FFF7EA
:101D100001FE002803D0BDE81040FEF7EEBC10BD68
:101D200000440040B4000020FEE7FEE77047704723
:101D3000704730B58FB028216846FEF762FA14214B
:101D40000AA8FEF75EFA01210804CDE9001000247C
:101D5000029402250491CDE907504FF4E010099058
:101D60006846FFF717F908B172B6FEE70F20CDE914
:101D70000A054FF48060CDE90C4002210AA80E94B8
:101D8000FFF70CF8002801D072B6FEE70FB030BDA7
:101D9000704700000148FFF7A8BB00000C020020BC
:101DA0000148FFF7A2BB000024000020F0B5026844
:101DB000194B1A4C1A4D4FF08047984205D0B84243
:101DC00003D0A04201D0A84203D122F070064A6895
:101DD0003243984205D0B84203D0A04201D0A84275
:101DE00003D122F44074CA6822434C6922F0800275
:101DF000224302608A68C2620A688262984201D104
:101E000009690163012141610169C90703D00169C1
:101E100021F001010161F0BD002C014000040040EF
:101E20000008004010B5846842EA032224F47F448D
:101E30000A432243826010BD826822F070020A4386
:101E400042F007018160704710B5036A046A24F00C
:101E500001040462846924F0F00444EA021423F0CB
:101E60000A020A438461026210BD10B5036A046A63
:101E700024F010040462846923F0A00324F4704465
:101E800044EA023243EA01118261016210BD10B5D9
:101E9000406A0021C185C184FFF704FC10BD70B504
:101EA000446A2068406994F84110C0F3C0100025CE
:101EB000212904D118B1E584204600F0B4F8206847
:101EC000406994F84210C0F38010222904D118B15F
:101ED000E585204600F080F8606C40F010006064FA
:101EE0002046FFF7DFFB70BD10B50146406A096868
:101EF00009684FF0000289062ED4C28501680C31B2
:101F000051E8003F23F4807341E80034002CF5D100
:101F10000168143151E8003F23F0010341E8003427
:101F2000002CF5D10168143151E8003F23F0400343
:101F300041E80034002CF5D1202180F84210016BDB
:101F4000012909D101680C3151E8003F23F0100349
:101F500041E80034002CF5D14263016B012902D025
:101F6000FFF7D0FD10BD818DFFF79AFB10BD10B5B6
:101F7000406A01214163016B012902D0FFF7C3FDD3
:101F800010BD818D4908FFF78BFB10BD10B50146D0
:101F9000406A09680968890616D40021C18401686D
:101FA000143151E8002F22F0800241E80023002B79
:101FB000F5D101680C3151E8002F42F0400241E8B0
:101FC0000023002BF5D110BDFFF7DAFD10BD10B5D1
:101FD000406AFFF7D6FD10BD01680C3151E8002FB3
:101FE00022F4907241E80023002BF5D101681431EE
:101FF00051E8002F22F0010241E80023002BF5D127
:10200000016B012909D101680C3151E8002F22F040
:10201000100241E80023002BF5D1202180F8421066
:1020200000210163704701680C3151E8002F22F054
:10203000C00241E80023002BF5D1202180F8411097
:10204000704708B590F84210222901D0022008BD3F
:1020500082684FF480539A4201D1016921B1816AAB
:102060009A421BD04AB10AE00268816A5268C2F300
:1020700008020A80816A891C08E0026972B102685C
:10208000526802F07F020A70816A491C8162C18D28
:10209000491E0904090CC18503D01BE0026852687F
:1020A000F1E70168CA6822F02002CA600168CA68C4
:1020B00022F48072CA6001684A6922F001024A6112
:1020C000202180F8421000214163026B012A03D0D5
:1020D000FFF718FD002008BD016301680C3151E8CD
:1020E000002F22F0100241E80023002BF5D10168F7
:1020F0000A68D20602D50A6849680091818DFFF707
:10210000CFFAE7E770B5044600680169E26821F498
:102110004051114301612169A06808436169084386
:102120002168CA6841F20C639A430243CA6020687E
:102130004169A26921F44071114341611E4920683F
:10214000884202D1FEF7F0FE01E0FEF7DDFE00EB73
:10215000C00101EB0012606864218000B2FBF0F363
:10216000B3FBF1F36FF018067343B2FBF0F5B2FB6B
:10217000F0F605EB8305322303EB0515B5FBF1F50E
:10218000B6FBF1F605F0F00505EB0615B2FBF0F62F
:10219000B2FBF0F0B0FBF1F06FF01802504306EB29
:1021A000800003EB0010B0FBF1F0216800F00F009D
:1021B0002844886070BD00000038014038B5816255
:1021C00004468285002013466064222284F842205F
:1021D000E56B1B4AAA62E56B1A4AEA62E56B1A4A8A
:1021E0002A63E26B50630A462168E06B091DFEF723
:1021F000CDFB2068016840680090206948B12068E4
:102200000C3050E8001F41F4807140E80012002AB1
:10221000F5D12068143050E8001F41F0010140E87A
:102220000012002AF5D12068143050E8001F41F058
:10223000400140E80012002AF5D1002038BD00001E
:10224000E91E00086F1F00089F1E00080148FFF7E5
:102250002BBA00006C0000200148FFF725BA0000EF
:10226000B4000020FEE7C8888988401A00F5807015
:10227000C11700EB116121F0FF01401A80B27047D5
:102280002DE9FF41044600276E4600F1140835E0B1
:10229000258B61696A1CD2B2485D895CAA2829D164
:1022A000552927D100206169495D31546D1C401CBE
:1022B000EDB20E28F7D39DF80D00DE281AD10A22C0
:1022C000B11C204600F0E0F89DF80C10884211D1B6
:1022D000BDF802002086BDF804006086BDF8060047
:1022E000A086BDF80800E086BDF80A002087258397
:1022F000012703E0208B401CC0B2208341462046CA
:10230000FFF7B1FF0E28C3D204B03846BDE8F08114
:102310002DE9F041044680680E461746B04214D1BC
:10232000002504F1140807E0E0684146425D2046BC
:1023300000F0CAF86D1CADB2BD42F5D33046E1687D
:10234000BDE8F0414022FFF786B9BDE8F08100000A
:102350002DE9F0410446406888422FD14FF40061D6
:102360001748FEF751FC002828D004F11C010F4645
:102370002046FFF778FF05001DD0402D02D94025EB
:10238000002601E0002607E0206939468219204630
:1023900000F08AF8761CB6B2AE42F5D3012084F87C
:1023A0002400D4E90001226906682B462046B44681
:1023B000BDE8F0416047002084F82400BDE8F081CA
:1023C000000801402DE9FF410DF12808044698E876
:1023D000E100E1842285638584F82D0084F82C5087
:1023E00084F82E6084F82F7055208DF80000AA2004
:1023F0008DF80100E08CADF80200208DADF80400EE
:10240000608DADF8060094F82D008DF8080094F862
:102410002C008DF8090094F82E008DF80A0094F82D
:102420002F008DF80B000A2220460DF1020100F06A
:102430002BF88DF80C00ED208DF80D006F4600256F
:1024400004F11C067A5D3146204600F03DF86D1C13
:102450000E2DF7D394F82400002810D131462046E1
:10246000FFF701FF00280AD04FF400610548FEF78E
:10247000CBFB012803D120466168FFF769FFBDE867
:10248000FF8100000008014030B500200346054CE4
:1024900004E0CD5C45405B1C605DDBB29342F8D349
:1024A00030BD00001E2600088888CB88984201D1E4
:1024B000002070478B880868C05C10708888401CBA
:1024C000C0B288800120704710B5C8888B88401C36
:1024D000C0B2834203D0CC880B681A55C88010BDA7
:1024E000F0B505AF00F1040C97E87000114F0760DC
:1024F0000461C3618CE84600002101844184456188
:102500000183418380F824104AF6CB11C18446F23E
:102510008751018542F243114185AA2180F82C1090
:10252000BB2180F82D10CC2180F82E10DD2180F801
:102530002F10F0BD34270008704730B41446084609
:10254000214630BC1A46FFF7DFBAFFF7F5BF09078F
:10255000090E002804DB00F1E02080F80014704729
:1025600000F00F0000F1E02080F8141D70470168B2
:1025700009B1002070470121016008467047002022
:10258000FDF7BEBE1CB5FEF753FBFFF7D2FBFFF70E
:1025900029FBFFF7F9FAFFF78FFBFFF7A9FBFFF71E
:1025A00059FB1048FEF706FF0F491048FDF7FEFFE4
:1025B00000250F4CFEF758F80028FBD00C49009579
:1025C000083168460195FDF7DDFFBDF80000208069
:1025D000BDF802006080BDF80400A080BDF80600D0
:1025E000E080E7E724000020B40000206C00002019
:1025F00000000020010202030405060708090A0B77
:102600000C0D0E0F10100000000000000000010271
:10261000030406070809000000000102030400D5B6
:102620007FAAFE2B815429FC5683D702A87D5287AE
:102630002DF8AC79D3067BAE04D18550FA2FA47166
:10264000DB0E5A8F25F08D58F22773A60CD9F6238E
:10265000895C08DD77A2DF0AA07521F45E8B9D48B6
:10266000E23763B61CC9B461CB1E4A9F35E0CF1A6E
:10267000B06531E44E9BE633994C18CD67B239EC26
:102680004693C712B86D10C56FBAEE3B91446BBE4E
:1026900014C19540EA3F42973DE8BC69C316EF3A42
:1026A000904511C46EBBC613B96C38ED4792BD6836
:1026B000C21743963CE99441EB3E6ABF15C04B9E5E
:1026C00034E1B560CA1F62B71DC89C49E33619CC16
:1026D00066B3E732984D30E54F9ACE1BB16472A7CE
:1026E0000DD88C59F3265B8E24F1A570DA0F20F5F6
:1026F0005F8ADE0BA17409DC76A3F722885DD6031E
:10270000A97C28FD5782FF2A805501D47EAB8451D5
:10271000FB2E7AAF05D0AD78D20753862CF9000096
:1027200000000000000000003B2500080000000041
:10273000000000007F250008582700080000002046
:1027400024000000280100087C2700082400002045
:102750004C0B0000440100080000000000000000D5
:102760000000000001000000100000000000000058
:0C27700000127A000000000000000000D1
:04000005080000ED02
:00000001FF
