:020000040800F2
:10000000B80E002489030008CB3E000859380008C8
:10001000C93E00087F0A0008814C0008000000006B
:100020000000000000000000000000001141000876
:10003000810A000800000000CD3E000813410008BE
:10004000A7030008A7030008A7030008A7030008E8
:10005000A7030008A7030008A7030008A7030008D8
:10006000A7030008A7030008A7030008A7030008C8
:10007000A7030008A7030008A7030008A7030008B8
:10008000A7030008A7030008A7030008D90A00086F
:10009000F10A0008E50A0008FD0A0008A7030008A5
:1000A000A7030008A7030008A7030008A703000888
:1000B000A7030008A7030008A7030008A703000878
:1000C000A7030008A7030008A7030008A703000868
:1000D000A7030008A7030008A7030008A703000858
:1000E000A7030008A703000800000000A7030008FA
:1000F000A7030008A7030008A7030008A703000838
:10010000A7030008A7030008A7030008A703000827
:10011000A7030008A703000885420008A7030008FA
:10012000A7030008A7030008A7030008A703000807
:10013000A7030008A7030008A7030008A7030008F7
:1001400000000000000000000000000000000000AF
:10015000A7030008A7030008A7030008A7030008D7
:10016000A7030008A7030008A7030008A7030008C7
:10017000A7030008A7030008A70300080000000069
:10018000A7030008A7030008A7030008A7030008A7
:10019000A7030008A7030008A7030008A703000897
:1001A000A7030008A7030008A70300080000000039
:1001B000A7030008A7030008A7030008A703000877
:1001C000A7030008A70300080000000000000000CB
:1001D0000000000000000000A7030008000000006D
:1001E000000000000000000000000000000000000F
:1001F0000000000000000000A7030008A70300089B
:10020000A7030008A703000800000000A7030008D8
:10021000A7030008A7030008A7030008A703000816
:10022000A703000800000000A7030008000000006A
:10023000A7030008A703000800000000A7030008A8
:10024000A7030008A7030008A7030008A7030008E6
:10025000A7030008A7030008A7030008A7030008D6
:10026000A7030008A7030008A7030008A7030008C6
:10027000A7030008A7030008A70300080000000068
:10028000A7030008A7030008A7030008A7030008A6
:1002900000000000A7030008A703000800000000FA
:1002A00000000000A7030008A7030008A703000838
:1002B000A7030008A7030008A7030008090B00080C
:1002C000150B0008A7030008A703000800F002F8B8
:1002D00000F04AF80AA090E8000C82448344AAF196
:1002E0000107DA4501D100F03FF8AFF2090EBAE894
:1002F0000F0013F0010F18BFFB1A43F0010318475A
:10030000184F0000384F0000103A24BF78C878C159
:10031000FAD8520724BF30C830C144BF04680C600B
:10032000704700000023002400250026103A28BF53
:1003300078C1FBD8520728BF30C148BF0B60704757
:10034000642900F02781752900F02481782900F0C4
:100350005D81732900F05583002070471FB504F0BC
:10036000EDFE1FBD10B510BD00F04FFB1146FFF7AD
:10037000F5FF04F09FFC00F06DFB03B4FFF7F2FF04
:1003800003BC00F075FB00000A4880470A4880471C
:100390000A480047FEE7FEE7FEE7FEE7FEE7FEE766
:1003A000FEE7FEE7FEE7FEE705480649064A074B7B
:1003B00070470000BD0A0008AD410008CD020008EA
:1003C000B8080024B80E0024B80A0024B80A002493
:1003D00053EA020C00F069802DE9F04B4FF0000663
:1003E000002B1FBFB3FA83F503FA05F424FA05F6D0
:1003F0005E4012BF1643B2FA82F502FA05F4C5F167
:1004000020051EBF22FA05FC44EA0C04203556EAFA
:10041000044C4FEA144418BF641C4FF000084FF01E
:100420000009904271EB030C39D3002919BFB1FACE
:1004300081F701FA07F6B0FA80F700FA07F6C7F17C
:1004400020071EBF20FA07FC46EA0C062037B6FB41
:10045000F4FCA7EB0507103F07F01F0BCBF12006BC
:100460000CFA0BFB2CFA06F644BFB3460026202FED
:10047000A4BF5E464FF0000B5BEA060C08BF4FF0CE
:10048000010B19EB0B09ABFB027C48EB0608C01B08
:1004900006FB02CC0BFB03CC71EB0C01C1E70B4656
:1004A000024641464846BDE8F08B13B54FF00000C8
:1004B0004FF00001AFF30080BDE81C407047000022
:1004C0000FB41CB50C0007AA009001D02044401EB8
:1004D000074B7B4469460190069800F060FA002CB7
:1004E00003D06946002000F06DFA1CBC5DF814FBD7
:1004F000F904000070B5044685690068C10601D59D
:10050000302600E02026C00707D070BDD4E90121C5
:1005100030469047206A401C20626D1EF6D570BDA3
:1005200070B5044685690078C00707D170BDD4E96D
:10053000012120209047206A401C20626D1EF6D5C4
:1005400070BD70B50C460546012A05D02878800696
:1005500000D5EA69002302E0012305E05B1C934219
:1005600002D2E05C0028F9D1A869E618C01AA86197
:10057000286A184428622846FFF7BCFF04E0D5E942
:10058000012114F8010B9047B442F8D32846FFF735
:10059000C7FF70BD2DE9F04106460024106875299B
:1005A000314616A510D0AFF30080002802DA404291
:1005B00013A507E031688A0701D512A502E04907B3
:1005C00004D511A5012401E0AFF3008000210A2227
:1005D00006F1240709E0B0FBF2FCB0FBF2F302FBEA
:1005E0001C00303078541846491C0028F3D12346AB
:1005F0002A463046BDE8F04100F073B90000000023
:100600002D0000002B0000002000000070B5044603
:100610000D4621461068AFF300802188090502D5F8
:100620000F4A7A4402E00E4A7A440E32002104F165
:10063000240305E000F00F060009965D5E54491C96
:100640000028F7D120780023000704D5702D02D0B0
:1006500009B1022311322046BDE8704000F041B9D3
:10066000B64B00002DE9F05F894604464FF0000AC2
:10067000DFF874B1FB44C0F820A02046E168884749
:10068000002874D0252806D0D4E901219047206A9B
:10069000401C2062F1E700265F462046E16888475B
:1006A0002028054607DB312D05D2781910F8200CDB
:1006B00008B10643F1E7B00701D526F00406C4F8F7
:1006C0001CA00027C4F818A02A2D09D0284604F041
:1006D000E9FA38B304EB8708303DC8F8185019E040
:1006E00059F8041B204604EB87029161E1688847B2
:1006F000012F054618D1E069002820DA26F02006EF
:100700001DE0D8F8180000EB800005EB4000303801
:10071000C8F818002046E1688847054604F0C2FA88
:100720000028EED1012F0AD02E2D08D12046E168F5
:1007300088477F1C0546022F46F02006C4DBA069CF
:10074000002803DA404246F00106A061F00701D01C
:1007500026F010066C2D0BD0682D09D04C2D39D009
:100760006A2D35D0742D35D07A2D33D016E038E08F
:10077000E1682F4620468847B842054609D16C2FCC
:1007800026D04FF48060E16806432046884705463E
:1007900004E06C2F1AD04FF4807006430DB3A5F11E
:1007A0004100192802D8203546F400664A462946F9
:1007B000204626604E46FFF7C3FD80B101280BD0CE
:1007C000F61D26F0070000F1080956E74020E4E78F
:1007D0008020D8E70020D6E706F104094DE7284637
:1007E00052E7206ABDE8F09F8C4B000010B5431C17
:1007F00002E010F8011B71B18107FAD14FF001320C
:1008000002C88C1A8C4314EAC211F9D0C01A0A0625
:1008100003D0C01E10BDC01A10BD0A0401D0801E36
:1008200010BD0902FCD0401E10BD10B5203AC0F02A
:100830000B80B1E81850203AA0E81850B1E81850E1
:10084000A0E81850BFF4F5AF5FEA027C24BFB1E81E
:100850001850A0E8185044BF18C918C0BDE810408F
:100860005FEA827C24BF51F8043B40F8043B08BF98
:100870007047D20728BF31F8023B48BF11F8012B5F
:1008800028BF20F8023B48BF00F8012B70474FF00B
:10089000000200B5134694469646203922BFA0E8D0
:1008A0000C50A0E80C50B1F12001BFF4F7AF0907DC
:1008B00028BFA0E80C5048BF0CC05DF804EB8900CD
:1008C00028BF40F8042B08BF704748BF20F8022B10
:1008D00011F0804F18BF00F8012B70477047704728
:1008E00070472DE9F0470D4699469246044600F1BF
:1008F00024080168880604D5E06921F01001216010
:1009000000E00120A84201DD471B00E00027A169AB
:100910007A1902EB0900081AA0612078C00602D4F7
:100920002046FFF7E7FD002608E0D4E901211AF888
:1009300006009047206A401C761C20624E45F4DB7E
:100940002078C0060AD52046FFF7D4FD06E0D4E99A
:10095000012130209047206A401C2062381EA7F1F8
:100960000107F4DC07E0D4E9012118F805009047FD
:10097000206A401C2062281EA5F10105F3DC2046F8
:10098000FFF7CEFD2078000602D50220BDE8F087F3
:100990000120FBE701694A1C02610878704700B535
:1009A0008FB0CDE901310021059105497944CDE9A8
:1009B000031011466846FFF755FE0FB000BD00005A
:1009C000E5FFFFFF0A6802F8010B0A607047D1E9F2
:1009D00000239A4202D2531C0B601070704710B56E
:1009E000436913B1AFF3008001E0FFF7AAFD0120D6
:1009F00010BD127800F124010A7000224A70012211
:100A0000EDE711684FF0FF32E9E7754600F02CF88A
:100A1000AE4605006946534620F00700854618B0EB
:100A200020B5FFF7C1FCBDE820404FF000064FF0B5
:100A300000074FF000084FF0000B21F00701AC4613
:100A4000ACE8C009ACE8C009ACE8C009ACE8C00932
:100A50008D46704710B50446AFF300802046BDE8D0
:100A60001040FFF78ABC000000487047540800247B
:100A700001491820ABBEFEE7260002007047FEE7E2
:100A80007047000010B50446FFF7B0FE2146BDE8F0
:100A9000104082B202484FF47A7302F081BE000027
:100AA00040020024034A116813685B1A8342FBD397
:100AB000704700001400002472B6FEE7054805499F
:100AC0000839026842F00202026008688004FCD51E
:100AD000704700000C480258014800F0ADB9000012
:100AE00060000024014800F0A7B900006000002465
:100AF000014800F0A1B9000000010024014800F005
:100B00009BB9000000010024014800F095B90000E5
:100B1000A0010024014800F08FB90000A0010024CA
:100B2000F0B503684FF6FC716D4C426BD3F88450FE
:100B30008D4345EA8205C3F88450036853F8845F07
:100B4000068F25F47F0545EA06451D60836B654DDC
:100B50009F180268D2F888308B4343EA8703C2F8B3
:100B60008830026852F8883F868F23F4FE0343EAF8
:100B700006431360066856F8A03FC26B8B4307EB31
:100B8000420243EA82033360076857F8A03FB0F897
:100B9000406023F4FE0343EA06433B60D0E910368D
:100BA00003FB06220368D3F8B0608E4346EA820650
:100BB000C3F8B0600368B0F84860D3F8B07027F4A9
:100BC000FE0747EA0646C3F8B060D0E9126703683B
:100BD00006FB0722D3F8AC608E4346EA8206C3F8D0
:100BE000AC60D0E91467036806FB0722D3F8F06015
:100BF0008E4346EA8206C3F8F0600368B0F8586096
:100C0000D3F8F07027F47C1747EA0646C3F8F06083
:100C10000368876D53F8C06F02EB47028E4346EAC4
:100C2000820119600168B0F85C20D1F8C03023F46B
:100C30007C1343EA0242C1F8C020016890F86020AA
:100C4000D1F8C03023F07C5343EA0262C1F8C020DF
:100C5000416B04EB8101C166826B01EB820202678A
:100C6000C36B02EBC3024267D0E91034634302EB6B
:100C700083028267D0E91234634302EB8302C267C6
:100C8000D0E91434634302EB8302C0F88020836D03
:100C900002EBC303C0F88430C46D826E544303EB8F
:100CA0008403C0F88830046E544303EB8402C0F818
:100CB0009020AA420AD9D0F89C20032142F02002B9
:100CC000C0F89C2080F898100120F0BD002200E0C0
:100CD00004C1D0F890308B42FAD80020F0BD00005B
:100CE00000AC0040FCD30040F0B58E680C69D1E93F
:100CF000005744EA0604DFB145F080452C43866E78
:100D0000D1E906C54F695E4391F8203045EA0C05EC
:100D1000B1F80CC0D0F884E0002047EA03630C4F20
:100D20001D430EEB860345EA0C45E3E802450AE065
:100D300044EA8544E3E71418155C001DD4F801402B
:100D400045EA042410C3CC683C5D8442F3D8F0BD6E
:100D50004851000890F89820022A07D0D0F89C103B
:100D600041F00801C0F89C10012070470068C0F8ED
:100D7000D4100020704770B5044690F898000228FF
:100D800004D0D4F89C0040F008000DE02068D0F8B2
:100D9000C03013F07C5F0BD0D0F8C4309B020CD570
:100DA000D4F89C0040F40070C4F89C00012070BD91
:100DB000D4F89C0040F02000F6E7D0F8C400C0F35F
:100DC000044520462B46FFF78FFF21680120A840ED
:100DD000C1F8D000C4F89400002070BD704770477F
:100DE0007047D0F89C007047D0F894007047F0B579
:100DF0000068406C00F007020A60C0F302234B60F9
:100E000000F01804C0F34015C0F38016C0F3C017FB
:100E1000C0F3C02CC0F3003EC0F34032C0F38033B7
:100E2000C0F30640C1E90930C1E907E208310020FA
:100E300081E8F010F0BD70472DE9FF5FDFF80CB3DB
:100E400004460BF10401DBF8000025680F68AA4690
:100E50008007D5F85090696DD5F850806E6D2A6D79
:100E6000D5F854C02B6D00EA8770009009F47049E2
:100E70006F6D286D01EA09010191DAF85410DAF872
:100E80005490DAF8505008F00F0806EA0806029667
:100E900002F0F00203F071536FEA09061F4000F000
:100EA00060700CEA020CCDF80CC0F20501EA0009F2
:100EB0000CD4E843C00509D400214FF48073CAF86C
:100EC0005030CBF800102046FFF7B5FF700512D464
:100ED000E84340050FD4206800234FF48068D0F821
:100EE000DC20D0F8E410C0F85080CBF8003011407E
:100EF000204600F063FBDFF858A2009850B122684A
:100F0000830F00EA0A001065CBF8003020460099F4
:100F1000FFF764FF019850B12268830F00EA0A00CE
:100F20001065CBF800302046019900F049FB02988B
:100F300050B12268830F00EA0A001065CBF8003038
:100F40002046029900F019FB039850B12268830FE4
:100F500000EA0A001065CBF800302046039900F043
:100F60000DFB30050CD4E843000509D423680020AC
:100F70004FF400621A65CBF80000204600F021FB18
:100F8000B00512D4E84380050FD4206800234FF445
:100F90000078D0F8D820D0F8E010C0F85080CBF816
:100FA00000301140204600F00AFB30030CD4E84327
:100FB000000309D4236800204FF400221A65CBF8FF
:100FC0000000204600F0D8FAF0030CD4E843C00338
:100FD00009D4236800204FF480321A65CBF8000052
:100FE000204600F0EAFA70030CD4E843400309D429
:100FF000226800204FF480231365CBF800002046C0
:1010000000F0DAFAB0030FD4E84380030CD423686D
:1010100000204FF400321A65CBF80000D4F89C0091
:1010200040F08000C4F89C00B9F1000F0BD022689A
:101030004FEA997309EA0A001065CBF80030494677
:101040002046FFF7CDFE5FB12268BB0F07EA0A001A
:101050001065CBF80030D4F89C003843C4F89C00ED
:101060003C492068884268D1606881468068800772
:1010700063D0D9F82060D9F82410D9F82080D9F8A5
:101080002400D9F820C0D9F82470D9F82030D9F834
:101090002450D9F8202003F4FC4306F00F0AD9F8B5
:1010A00024601D40D9F824B008F030080CF4C07C4E
:1010B00002F4F02211EA0A0100EA080807EA0C0724
:1010C00006EA0206D9F820A004D0C9F8201020466C
:1010D00000F06FFAB8F1000005D06168086241467F
:1010E000204600F068FA6FEA0B0040060ED46FEA63
:1010F0000A0040060AD460684021C36BC26B0162DB
:101100002046190C02F03F0200F054FA2FB160683B
:1011100007623946204600F04BFA35B16068056237
:10112000D4F89C002843C4F89C0036B1606806627D
:10113000D4F89C003043C4F89C00D4F89C000028EC
:1011400002D02046FFF74BFEBDE8FF9F10A80040ED
:10115000FFFFCF3F00A000402DE9F04194B08D4942
:101160004C2204466846FFF760FB64B18A4D206854
:10117000A84202D100F58070606094F898004FF0AA
:10118000000820B108E0012014B0BDE8F08120463D
:1011900084F8998000F00AF92068816921F0100133
:1011A000816100F021FB0327064604E000F01CFBF0
:1011B000801B0A2811D8206880690007F6D42068AF
:1011C000816941F00101816100F00EFB06460DE0EE
:1011D00000F00AFB801B0A2808D9D4F89C0040F0D4
:1011E0000100C4F89C0084F89870CCE720688069FE
:1011F000C007EDD02068816941F002018161207C47
:1012000001282068816937D041F040018161607C0C
:1012100001282068816932D021F480418161A07C5D
:101220000128206881692DD041F4805181612068B6
:10123000A268816921F4407111438161206881694C
:1012400021F0A40181612068016921F01001016190
:10125000E068012819D010B302281BD020688169EA
:1012600041F0800181612068016941F01001016154
:10127000E06803280ED012E021F04001C6E741F4F7
:101280008041CBE721F48051D0E72068816941F0AB
:10129000040103E02068816941F020018161207E22
:1012A0006FF0FF02D4E90773A68A1102400602EB31
:1012B0000727A0F10070384327685B1E184301EB35
:1012C00006463043F861A068B0F5407F11D104F1C3
:1012D0002800A68C6FF00F0C89C801EB0641401E58
:1012E00002EB0322104322680CEB07131843084358
:1012F000D060206E30B12068626ED0F8C01011430B
:10130000C0F8C010D4E917126846D14209D021684C
:10131000A36E51F8C82F50F8233022F007021A4369
:101320000A60216C49B12168626C51F8BC3F50F8E9
:10133000226023F0070232430A60A16C51B1216898
:10134000E36C51F8BC2F50F8233022F0700242EACF
:1013500003120A60216D51B12168626D51F8BC3FE2
:1013600050F8220023F4E06242EA0020086020687E
:10137000A84204D16068816821F003018160C4F84B
:1013800094800121C4F89C8084F898102046FFF7CF
:10139000C7FBF9E65851000800A000400068D0F8EB
:1013A000CC00084000D00120704700002DE9F04338
:1013B000B5B0804614212EA8FFF769FAB821684617
:1013C000FFF765FA654C0026D8F800004FF0805111
:1013D000634A0C3C604F4FF00208604D90424FF062
:1013E000090939D100201B914A13CDE90020684634
:1013F00000F098FC08B1FFF75FFB3868401C3860CC
:10140000012807D1286840F480702860286800F41B
:1014100080703390206840F00100206020684FF415
:10142000C0522E922EA900F00100CDE92F863196F0
:10143000CDE932904B4800F0C5F800221320114648
:1014400000F0BEFA132000F0ADFA0022152011467C
:1014500000F0B6FA15203CE0434A90423ED100200D
:101460001B914FF40042CDE90020684600F05AFC81
:1014700008B1FFF721FB3868401C3860012807D10C
:10148000286840F480702860286800F480703390E9
:10149000206840F00200206020684FF440522E92F5
:1014A0002EA900F00200CDE92F863196CDE93290C9
:1014B0002E4800F087F800221420114600F080FA30
:1014C000142000F06FFA00221620114600F078FA7E
:1014D000162000F067FA35B0BDE8F083244A904248
:1014E000F9D100201B914FF40042CDE9002068465D
:1014F00000F018FC08B1FFF7DFFA3868401C3860CC
:10150000012807D1286840F480702860286800F41A
:1015100080703390206840F0200020602068C02157
:101520002E912EA900F020003390CDE92F8611488E
:10153000CDE9316800F046F800229F20114600F006
:101540003FFA9F2000F02EFA0022A020114600F062
:1015500037FAA020BDE7000008000024EC44025840
:1015600000A000400000025800A4004000040258FF
:1015700000D400400014025870477047704790F83C
:101580009810012907D0D0F89C1041F00401C0F850
:101590009C1001207047022180F8981000220168F9
:1015A0008B6923F001038B61C0F89C2010467047C3
:1015B0007047704770477047704770477047704773
:1015C000704770472DE9F84F03247C4D00234FF0FE
:1015D00001094FF0B04B4FF00F0AE7E009FA03F6AC
:1015E00032407BD00F7907F00307012F01D0022F83
:1015F0001AD187684FEA430ED1F80CC004FA0EF8EE
:1016000027EA08070CFA0EFC4CEA070CC0F808C0E1
:10161000476891F804C0B743CCF3001C0CFA03FCF4
:101620004CEA070CC0F804C00E79F643B60702D1A5
:101630008E68012E0BD0C7684FEA43088E6804FA03
:1016400008FC27EA0C0706FA08F63E43C6600E7946
:1016500006F00306022E12D1DE080F694FEA437C22
:1016600000EB8606B646366A4FEADC6C0AFA0CF8DE
:1016700007FA0CF726EA08063743CEF820700F79F0
:1016800006684FEA430807F0030704FA08FC07FA64
:1016900008F726EA0C06374307604E6816F4403F09
:1016A0001CD0474E376847F00207376036689F07FF
:1016B00006F00206009623F0030606F1B046B64691
:1016C0003F0FD6F80864DFF8FC800AFA07FC4045B3
:1016D00026EA0C0603D14FF0000C3AE065E0DFF893
:1016E000E8C0604502D14FF0010C32E0DFF8DCC009
:1016F000604502D14FF0020C2BE0DFF8D4C060450A
:1017000002D14FF0030C24E0DFF8C8C0604502D1DD
:101710004FF0040C1DE0DFF8C0C0604502D14FF06F
:10172000050C16E0DFF8B4C0604502D14FF0060C9E
:101730000FE0DFF8ACC0604502D14FF0070C08E0C5
:10174000DFF8A0C0604502D14FF0090C01E04FF076
:101750000A0C0CFA07FC4CEA060CCEF808C44F68D9
:10176000DBF80060FF0226EA020600D516435F465A
:10177000CBF80060D1F804C0DBF804605FEA8C2C81
:1017800026EA020600D516437E606E684F6826EA98
:101790000206BF0300D516436E602E684F6826EA26
:1017A0000206FF0300D516432E605B1C0A6832FA5E
:1017B00003F67FF413AFBDE8F88F000080000058F7
:1017C000F44402580000025800040258000802586D
:1017D000000C025800100258001402580018025859
:1017E000001C02580024025801488068704700001D
:1017F0000C0000240248816802781144816070471F
:101800000C000024032010B500F0FAF801F0CAF82B
:101810000F4A104914681368C4F3032203F00F033E
:101820008A5CC95C02F01F0201F01F01D0400A4A25
:1018300020FA01F11160094908600F2000F010F84A
:1018400008B1012010BD00F09FF8002010BD00007D
:1018500018440258CC5100081C0000241800002431
:1018600010B5102804468AB02CD20022014636203A
:1018700000F0A6F8362000F095F8174804601748E5
:10188000016841F010010160006809A900F0100032
:101890000890684601F012F80598B0B101F05EF8C2
:1018A00040000F4900220F4CB0FBF1F10E4840F20E
:1018B000E7330460C0E90332491EC0E9011201F0B8
:1018C000A3FB28B101200AB010BD01F047F8E8E7FA
:1018D000054801F0CBFBF6E710000024E84402586D
:1018E00040420F000010004008080024154BF0B5DE
:1018F000083B427813491A600B680A1F23F0010362
:101900000B6043681360057BC67A827A437B2D07A0
:10191000847B45EA0665C77B90F809C0067A90F893
:1019200000E045EAC24040EA834040EA444040EAE1
:10193000074040EA0C2040EA460040EA0E000860FA
:10194000F0BD0000A0ED00E0BFF35F8F0448002170
:101950000368034A23F480330360703211607047D8
:1019600024ED00E0074A40F00100064970321060A3
:10197000086840F480300860BFF34F8FBFF36F8F6B
:101980007047000024ED00E0054808B5016841F00B
:1019900002010160006800F00200009008BD000034
:1019A000F4440258002809DB410900F01F028900B5
:1019B000012001F1E0219040C1F8000170470000D2
:1019C0000E4BF0B41B680D46C3F30223C3F10706A8
:1019D000042E00D90426191D072901D2002300E096
:1019E000DB1E012404FA06F19C40491E2940641EB6
:1019F000994014402143F0BC03F043B90CED00E0E2
:101A0000064900F0070210B54FF6FF040868044BC2
:101A1000204040EA02201843086010BD0CED00E0B1
:101A20000000FA05134970B50A68D243520705D57C
:101A3000096801F00701814213D118E00A6822F019
:101A4000070202430A60FFF7CFFE0A4D4FF47A7691
:101A50000446083D07E000BFFFF7C6FE001BB0428A
:101A600001D9012070BD2868C0438004F4D400204F
:101A700070BD00000C48025810B500F04DFF05493C
:101A80000968054AC1F30211515C01F01F01C84009
:101A900010BD000020440258CC510008494930B51F
:101AA000484C0B1D0A68143409681D68246802F04C
:101AB0000303C5F30012C1F30531C4F3CC040029BC
:101AC00014FB02F200EE102AF8EE400A75D03F4AED
:101AD0009FED3D1AB7EE000A6BB1DFED3D1A012B09
:101AE00001D0022B64D002EE101A1168F8EE422ADF
:101AF00081EEA22A21E0334C283C23689B0612D5B4
:101B0000344B246801EE901A1168C4F3C104F8EE56
:101B1000612AE34001EE903AC1F30801F8EE611A40
:101B200081EEA22A0BE001EE901ADFED2B2A00BF16
:101B3000F8EE611A116882EEA12AC1F3080101EEE4
:101B4000901A1168F8EE611A40EE811A71EE800A5F
:101B500062EE200AC1F3462101EE101AB8EE411AD6
:101B600031EE001AC0EE811ABCEEE11A80ED001AC7
:101B70001168C1F3064101EE101AB8EE411A31EEB8
:101B8000001AC0EE811ABCEEE11A80ED011A11684C
:101B9000C1F3066101EE101AB8EE411A31EE000AE7
:101BA00080EE801ABCEEC10A80ED020A30BD04E06E
:101BB00001EE901ADFED092ABAE7002101604160C9
:101BC0008160F3E728440258000000393844025885
:101BD0000024744A0090D0030024744C20BCBE4BF7
:101BE000494930B5484C0B1D0A681C3409681D680A
:101BF000246802F00303C5F30022C1F30551C4F3C6
:101C0000CC04002914FB02F200EE102AF8EE400A80
:101C100075D03F4A9FED3D1AB7EE000A6BB1DFED7C
:101C20003D1A012B01D0022B64D002EE101A11686C
:101C3000F8EE422A81EEA22A21E0334C283C2368A8
:101C40009B0612D5344B246801EE901A1168C4F338
:101C5000C104F8EE612AE34001EE903AC1F30801B5
:101C6000F8EE611A81EEA22A0BE001EE901ADFED88
:101C70002B2A00BFF8EE611A116882EEA12AC1F387
:101C8000080101EE901A1168F8EE611A40EE811A0F
:101C900071EE800A62EE200AC1F3462101EE101AAD
:101CA000B8EE411A31EE001AC0EE811ABCEEE11A0C
:101CB00080ED001A1168C1F3064101EE101AB8EE6A
:101CC000411A31EE001AC0EE811ABCEEE11A80ED25
:101CD000011A1168C1F3066101EE101AB8EE411A3B
:101CE00031EE000A80EE801ABCEEC10A80ED020AD5
:101CF00030BD04E001EE901ADFED092ABAE70021B9
:101D0000016041608160F3E7284402580000003917
:101D1000404402580024744A0090D0030024744CBC
:101D200020BCBE4B2DE9FE4F0546DFF800A450F85D
:101D3000081B0024FD4FC943019005F128002646E9
:101D40000AF1240A009008011DD4686E50B1B0F564
:101D5000801F0CD0B0F5001F0ED0B0F5401F1ED074
:101D600001240FE0386840F40030386017E0019833
:101D7000022102F0ADF803E00098022102F038F9E8
:101D800004000CD026462888C043C00523D4A86D83
:101D900005281ED2DFE800F00C11161B1B006A6E2E
:101DA000DAF8001021F440111143CAF80010EAE7F4
:101DB000386840F40030386009E00198002102F0F2
:101DC00087F803E00098002102F012F90446C4B13C
:101DD00000E0012426462888DFF85083C04308F13C
:101DE0002C0840052FD4D5F8A400B0F5C00F28D09A
:101DF00010DCB8B1B0F5001F19D0B0F5800F0FD1CD
:101E00001AE0AA6DDAF8001021F007011143CAF8B0
:101E10000010E0E7B0F5000F13D0B0F5200F10D0A0
:101E200001240FE0386840F40030386009E0019880
:101E3000002102F04DF803E00098002102F0D8F8EC
:101E4000044694B126462888C043000530D4D5F80E
:101E5000A800B0F1407F29D011DCC0B1B0F1807F83
:101E60001AD0B0F1007F10D11BE0D5F8A420D8F82B
:101E7000001021F460011143C8F80010E3E7B0F14D
:101E8000806F13D0B0F1A06F10D001240FE038683C
:101E900040F40030386009E00198002102F018F8A1
:101EA00003E00098002102F0A3F8044694B126460E
:101EB0002868DFF878B2C0430BF1200B80011FD4F3
:101EC000E86CD8B110280FD0202812D0302815D0B7
:101ED000012414E0D5F8A820D8F8001021F0E06122
:101EE0001143C8F80010E3E7386840F40030386068
:101EF00004E00198022101F0EBFF044674B126468C
:101F00002888C043C0042BD4E86DB0F5005F20D012
:101F10000DDCA0B1B0F5805F0FD115E0EA6CDBF805
:101F2000001021F030011143CBF80010E8E7B0F5C4
:101F3000405F13D0B0F5804F10D001240FE0386817
:101F400040F40030386009E00198002101F0C0FF42
:101F500003E00098002102F04BF804468CB12646BD
:101F60002888C043800429D4286EB0F5403F23D090
:101F700010DC08B3B0F5803F14D0B0F5003F0FD1AE
:101F800015E0EA6DDAF8001021F4E0411143CAF8D7
:101F90000010E5E7B0F5802F0ED0B0F5A02F0BD0E4
:101FA00001240AE00198012101F092FF03E000986A
:101FB000012102F01DF8044694B126462888C0434A
:101FC00040042AD4D5F8AC00B0F1405F23D010DC37
:101FD00008B3B0F1805F14D0B0F1005F0FD115E00D
:101FE0002A6EDAF8001021F4E0211143CAF800103B
:101FF000E4E7B0F1804F0ED0B0F1A04F0BD0012438
:102000000AE00198012101F063FF03E0009801213B
:1020100001F0EEFF044674B126462888C043000450
:102020001FD4E86ED8B1B0F1805F0ED0B0F1005F80
:1020300010D0012414E0D5F8AC20D8F8001021F01D
:10204000E0411143C8F80010E7E7386840F4003079
:10205000386004E00198012101F03AFF044674B1B0
:1020600026462868C043C0011ED4A86CD0B1012800
:102070000ED0022811D0032814D0012413E0EA6EF8
:10208000DAF8001021F040511143CAF80010E8E7D7
:10209000386840F40030386004E00198022101F013
:1020A00017FF04466CB126462868C043400255D449
:1020B0001F48016841F480710160FFF795FB81467C
:1020C0000EE0AA6CDBF8001021F003011143CBF8FD
:1020D0000010E9E7FFF788FBA0EB090064283BD874
:1020E00013480068C005F5D5BCBBDFF84090B5F8D3
:1020F000B01009F14409D9F8000001F4407100F46E
:102100004070884211D0D9F80010D9F8002021F48D
:10211000407142F48032C9F80020D9F8002022F43E
:102120008032C9F80020C9F8001003E02C4402589E
:1021300000480258D5F8B000B0F5807F19D1FFF7FC
:1021400053FB029011E000BFFFF74EFB0299411ACA
:1021500041F28830814208D9032426462878DFF8E6
:102160001494C043C00721D03CE0D9F80000800798
:10217000EAD5D5F8B010C1F301200328FE480DD0F0
:10218000016821F47C510160B5F8B020D9F8001045
:10219000C2F30B021143C9F80010DFE7F74A0368E6
:1021A00002EA111223F47C511143ECE7A86F1828BE
:1021B00016D005DCA0B1082808D0102804D10AE008
:1021C00020280DD028280BD001240AE001980121F5
:1021D00001F07EFE03E00098012101F009FF0446B2
:1021E00064B126462878C04380071ED4686F06284D
:1021F00019D2DFE800F0160C11161616AA6FD9F8DE
:10220000001021F038011143C9F80010EAE70198E5
:10221000012101F05DFE03E00098012101F0E8FEDC
:1022200004467CB100E0012426462878C0434007DC
:102230001FD4D5F89000062819D2DFE800F0160C5C
:10224000111616166A6FD9F8001021F00701114314
:10225000C9F80010E9E70198012101F039FE03E017
:102260000098012101F0C4FE0446A4B100E001245D
:1022700026462878C04380062BD4D5F88C00B0F1D0
:10228000405F24D011DC10B3B0F1805F15D0B0F105
:10229000005F10D116E0D5F89020D8F8001021F09A
:1022A00007011143C8F80010E3E7B0F1804F0ED0EA
:1022B000B0F1A04F0BD001240AE00198002101F0F9
:1022C00007FE03E00098022101F092FE044694B15B
:1022D00026462878C04340062BD4D5F89800B0F5A0
:1022E000406F24D011DC10B3B0F5806F15D0B0F57D
:1022F000006F10D116E0D5F88C20D9F8001021F02D
:10230000E0411143C9F80010E3E7B0F5805F0ED05B
:10231000B0F5A05F0BD001240AE00198002101F084
:10232000D7FD03E00098022101F062FE044694B15B
:1023300026462878C04300062BD4D5F89C00B0F57B
:10234000C04F24D011DC10B3B0F5005F15D0B0F54C
:10235000804F10D116E0D5F89820D8F8001021F45D
:10236000E0511143C8F80010E3E7B0F5004F0ED07C
:10237000B0F5204F0BD001240AE00198002101F0B4
:10238000A7FD03E00098022101F032FE044654B19B
:1023900026462878C04300071ED4D5F88000B0F543
:1023A000805F0AD00FE0D5F89C20D8F8001021F407
:1023B00060411143C8F80010EBE70098022101F0DA
:1023C00017FE00B10126D5F88020D9F8001021F4BD
:1023D00040511143C9F800102878C043C00613D4F7
:1023E000D5F89400B0F5807F05D10098022101F066
:1023F000FFFD00B10126D5F89420D8F8001021F493
:1024000040711143C8F800102868C043000316D477
:10241000D5F8A00038B1B0F5803F09D0B0F5003F45
:102420000BD001240AE00198002101F051FD03E0E6
:102430000098022101F0DCFD04468CB12646286894
:10244000C043400322D4D5F88400B0F5801F11D0DA
:10245000B0F5001F13D0B0F5401F15D0012414E0D3
:10246000D5F8A020D8F8001021F440311143C8F865
:102470000010E4E7386840F40030386004E0009869
:10248000012101F0B5FD04465CB126462868C04331
:10249000C0031CD4286D70B1B0F5803F10D001246A
:1024A00014E0D5F88420D9F8001021F4401111432C
:1024B000C9F80010EAE7386840F40030386004E0FA
:1024C0000198022101F004FD0446DCB1264628688B
:1024D000C043800005D40098022101F089FD00B1BD
:1024E00001262868C04380031BD4E86FB8B1B0F55B
:1024F000807F10D0B0F5007F11D0B0F5407F0ED0B6
:1025000001240DE02A6DDBF8001021F48031114325
:10251000CBF80010DBE7386840F4003038607CB35B
:1025200026462868C043C00207D42A6FDAF8001094
:1025300021F000411143CAF800102868C04380020E
:1025400007D4AA6EDAF8001021F080711143CAF89E
:1025500000102868C043400009D40748016821F4EE
:10256000004101600168D5F8B4201143016028687A
:10257000C04306E05444025810440258CFFFFF0005
:102580001DE007D46A6DDBF8001021F040511143C3
:10259000CBF800102868C043000208D4D5F8882082
:1025A000D9F8001021F440011143C9F8001028792E
:1025B0000024C04300F00100204309D00EE0EA6F80
:1025C000D9F8001021F440711143C9F80010A8E7B0
:1025D0000198002101F07CFC00B106462879C04337
:1025E00000F00200204305D10198012101F070FCA8
:1025F00000B106462879C04300F00400204305D10D
:102600000198022101F064FC00B106462879C0431C
:1026100000F00800204305D10098002101F0E8FCFB
:1026200000B106462879C04300F01000204305D1D0
:102630000098012101F0DCFC00B106462879C04376
:1026400000F02000044304D10098022101F0D0FCE6
:1026500000B916B10120BDE8FE8F0020FBE70000A5
:102660002DE9F05F04000F467ED0DFF83882D8F8FD
:10267000000000F00F00B8420CD2D8F8001021F092
:102680000F013943C8F80010D8F8000000F00F001F
:10269000B84269D12078844D40070AD5206929685D
:1026A00001F07001884204D9296821F070010143CA
:1026B000296020787C4E361D00070AD56069316894
:1026C00001F07001884204D9316821F070010143A2
:1026D00031602078C0060AD5A069316801F4E06154
:1026E000884204D9316821F4E061014331602078E7
:1026F000DFF8B4B180060BF1080B0CD5E169584640
:10270000DBF8002002F07002914204D9026822F046
:1027100070020A430260207880070AD5E0682968C1
:1027200001F00F01884204D9296821F00F0101430B
:1027300029602078C0073ED05B49A2682868183914
:1027400020F47060104328606068022818D00328C5
:1027500019D00968012819D0490700294ADADFF899
:1027600048A1AAF1080A00E044E0DAF8002022F0CB
:1027700007020243CAF80020FFF736F8814612E04C
:1027800009688903E9E709688901E6E7C905E4E71B
:10279000FFF72AF8A0EB090141F28830814202D903
:1027A0000320BDE8F09F6168DAF8000000F038000F
:1027B000B0EBC10FECD1207880070AD5E06829681A
:1027C00001F00F01884204D2296821F00F01014372
:1027D0002960D8F80010404601F00F01B9420BD92A
:1027E000016821F00F0139430160006800F00F001B
:1027F000B84201D00120D4E7207840070AD52069EB
:10280000296801F07001884204D2296821F0700122
:1028100001432960207800070AD56069316801F01A
:102820007001884204D2316821F0700101433160A7
:102830002078C0060AD5A069316801F4E0618842B9
:1028400004D2316821F4E0610143316020788006D0
:102850000CD5E1695846DBF8002002F07002914285
:1028600004D2026822F070020A43026000F09AF873
:102870000E492A682B68C2F3032203F00F038A5C17
:10288000C95C02F01F0201F01F01D040084A20FA83
:1028900001F111600749086007480068BDE8F05F72
:1028A000FEF7DEBF0020005218440258CC51000849
:1028B0001C000024180000241000002470B5144CE3
:1028C0003F220260124A24680832131D114D04F0A1
:1028D0000704446016681C1D06F47066866016685E
:1028E00006F00F06C660126802F0700202611A68F4
:1028F00002F0700242611A6802F4E06282612268AA
:1029000002F07002C261286800F00F00086070BD1C
:10291000104402580020005230B500F043F80B4A32
:102920000B490C4B15681468C5F3032204F00F041F
:102930008A5C095D02F01F0201F01F01D040064AC7
:1029400020FA01F119601060084630BD18440258A1
:10295000CC5100081C0000241800002400B5FFF72B
:10296000DBFF05490968054AC1F30211515C01F01A
:102970001F01C84000BD00001C440258CC51000893
:1029800000B5FFF7C9FF05490968054AC1F30221EF
:10299000515C01F01F01C84000BD00001C440258FA
:1029A000CC510008454970B545480968434B103B78
:1029B00011F0380208D00111082A03D0102A0BD0D8
:1029C000182A0BD0084670BD19688906FBD519680E
:1029D000C1F3C101C84070BD3A4870BD3749374D99
:1029E00018310C1D24350A68096826682D6802F024
:1029F000030406F00102C1F30511C5F3CC0515FB74
:102A000002F200EE102AB8EE400AE9B32F4ADFEDD9
:102A10002E0AB7EE001A6CB1DFED2D1A012C01D091
:102A2000022C43D002EE101A1068F8EE422A81EE12
:102A3000A22A1EE01C68A40611D51B6801EE901A9C
:102A40001168C3F3C103F8EE612AD84001EE900A81
:102A5000C1F30800F8EE611A81EEA22A0BE001EE44
:102A6000901ADFED1C2A00BFF8EE611A106882EEA2
:102A7000A12AC0F3080001EE900AF8EE611A40EEB8
:102A8000201A31EE810A00E015E022EE000A1068FB
:102A9000C0F34620401C00EE900AF8EE600A80EE7B
:102AA000201ABCEEC10A10EE100A70BD01EE901A99
:102AB000DFED092AD8E7002070BD0000104402585D
:102AC0000090D00340787D01000000393044025866
:102AD0000024744A0024744C20BCBE4B2DE9F05FE6
:102AE00004007DD0FF4F2078FE4D1837DFF8F483C7
:102AF000103DC00748D0D8F80000396800F0380011
:102B0000102815D0182803D101F0030002280FD097
:102B10006068B0F5803F12D010B1B0F5A02F18D08A
:102B2000286820F480302860286820F4802009E09C
:102B30002868800328D560680028D2D024E028685F
:102B400040F480302860606888B1FEF74DFE06468C
:102B500009E0286840F480202860F0E7FEF744FE92
:102B6000801B64287ED828688003F7D50CE0FEF728
:102B70003BFE064605E000BFFEF736FE801B6428DC
:102B8000F0D828688003F7D42078800756D5D8F885
:102B90000000DFF85093396810F03800A9F10C09F3
:102BA0000ED0182801D188070AD0E068A8B3296898
:102BB00021F0190101432960FEF716FE064628E0C0
:102BC0002868400702D5E06800288AD0E1682868B4
:102BD00020F0190008432860FEF706FE064606E0CE
:102BE000D2E000BFFEF700FE801B0228BAD828689A
:102BF0004007F7D5217CD9F8002022F0FE4242EAB6
:102C00000161C9F8001019E0FEF7EEFD801B0228F3
:102C1000A8D828684007F7D5ECE7FFE7286820F038
:102C200001002860FEF7E0FD064604E0FEF7DCFD4B
:102C3000801B022896D828684007F7D42078C00661
:102C400046D5D8F80000DFF89C92396800F03800CB
:102C5000A9F10409082812D0182805D101F00300B1
:102C6000012800E0CEE00AD0E0690028286820D0E2
:102C700040F080002860FEF7B7FD064615E02868A2
:102C8000C00502D5E06980287ED194F82010D9F8DB
:102C9000002022F07C5242EA0161C9F8001017E0DE
:102CA000FEF7A2FD801B0228A0D82868C005F7D532
:102CB000EBE720F080002860FEF796FD064604E072
:102CC000FEF792FD801B022890D82868C005F7D433
:102CD0002078000729D5834861696430002981463E
:102CE000016811D041F001010160FEF77DFD06464B
:102CF00005E000BFFEF778FD801B022888D8D9F8D0
:102D000000008007F6D510E021F001010160FEF718
:102D10006BFD064605E000BFFEF766FD801B02283E
:102D200070D8D9F800008007F6D42078800623D523
:102D3000A0690028286810D040F480502860FEF771
:102D400053FD064605E000BFFEF74EFD801B02283E
:102D500058D828688004F7D50EE020F48050286009
:102D6000FEF742FD064604E0FEF73EFD801B02280A
:102D700048D828688004F7D42078400751D5DFF878
:102D80006891D9F8001000E015E141F48071C9F8AC
:102D90000010FEF729FD064605E000BFFEF724FD02
:102DA000801B64282ED8D9F80000C005F6D54D4EFA
:102DB000A068603601280AD008B1052813D0306811
:102DC00020F001003060306820F0040002E030683C
:102DD00040F001003060A06841F2883A98B1FEF7F7
:102DE00003FD81460AE0306840F004003060EEE701
:102DF000FEF7FAFCA0EB0901514503D830688007C3
:102E0000F6D50EE072E0FEF7EFFC814606E000BF6B
:102E1000FEF7EAFCA0EB0901514567D8306880074E
:102E2000F6D4606A00287CD0DFF8B8A0D8F800108B
:102E30000AF1200A4FF6F87B0AF10408C1F3C20137
:102E40000329AAF104096DD00228286820F08070B7
:102E5000286003D0FEF7C8FC044681E0FEF7C4FCFE
:102E6000064604E0FEF7C0FC801B022875D82868DF
:102E70008001F7D4E26A40F2F331386854F8283F11
:102E8000884340EA021018433860217B4FF4FE0C5F
:102E900022894FF0FE47208A4902267D521E401E9D
:102EA000A1F5007189B2C2F308021143761E0CEA43
:102EB00000400143484607EA06621143CAF8001081
:102EC000D9F8001021F00101C9F80010D8F800303D
:102ED000266A23EA0B0343EAC601C8F80010D9F8B2
:102EE000001004E0104402580048025835E0A2697E
:102EF00021F00C011143C9F800100168E26921F0CA
:102F0000020111430160016841F4803101600168F0
:102F100041F400310160016841F4802101600168E1
:102F200001E06CE020E041F001010160286840F020
:102F300080702860FEF758FC044604E0FEF754FC5D
:102F4000001B022809D828688001F7D557E000BF88
:102F5000FEF74AFC001B022802D90320BDE8F09FBF
:102F600028688001F4D44AE039680128DAF80000C2
:102F700021D0A26A01F0030393421CD1E26AC1F39B
:102F800005118A4217D1216BC0F30802491E8A42FB
:102F900011D1616BC0F34622491E91420BD1A16B46
:102FA000C0F30642491E914205D1E16BC0F30660B1
:102FB000491E814201D00120D0E7A16C4646D8F8D5
:102FC0000000C0F3CC00814219D0D9F800004D4672
:102FD00020F00100C9F80000FEF706FC4FEA0007E8
:102FE000FEF702FCB842FBD0A26C306820EA0B006E
:102FF00040EAC2003060286840F0010028600020EC
:10300000ACE770477047704710B5040003D094F8E0
:103010003D0010B107E0012010BD002084F83C0005
:10302000204600F022F8022084F83D002068211D8F
:1030300001F02EF9012084F8480084F83E0084F85D
:103040003F0084F8400084F8410084F8420084F88E
:10305000430084F8440084F8450084F8460084F86E
:10306000470084F83D00002010BD704790F83D10E7
:10307000012901D0012070471A4A022180F83D1031
:103080000168CB6843F00103CB60006890421AD01E
:10309000B0F1804F17D01449884214D013498842A8
:1030A00011D0134988420ED0124988420BD01249E0
:1030B000884208D01149884205D01149884202D07F
:1030C0001049884207D181680F4A1140062906D06D
:1030D000B1F5803F03D0016841F00101016000209B
:1030E000704700000000014000040040000800405C
:1030F000000C004000040140001800400040014066
:1031000000E0004000E400400700010070472DE9A6
:10311000F041044600680027C6680569A90713D571
:10312000B10711D5FA1E026101212177206880695B
:103130008007204602D0FFF7E9FF04E000F08BF89B
:10314000204600F089F82777680716D5700714D550
:10315000226802206FF004011161207720688069E5
:1031600010F4407F204602D0FFF7D0FF04E000F0CB
:1031700072F8204600F070F82777280715D5300739
:1031800013D5226804206FF00801116120772068B0
:10319000C0698007204602D0FFF7B8FF04E000F0C6
:1031A0005AF8204600F058F82777E80616D5F006BA
:1031B00014D5226808206FF0100111612077206873
:1031C000C06910F4407F204602D0FFF79FFF04E063
:1031D00000F041F8204600F03FF82777E80708D0D4
:1031E000F00706D021686FF001000861204600F06A
:1031F00035F8280601D4A80408D5300606D521687C
:103200006FF4025008612046FFF7FCFEE80508D580
:10321000300606D521686FF4807008612046FFF7FC
:10322000F0FE680608D5700606D521686FF04000EC
:103230000861204600F01CF8A8060AD5B00608D59B
:1032400021686FF0200008612046BDE8F041FFF7DB
:10325000DABEBDE8F081704770470000006803499E
:10326000884201D1FEF7C6BA704700000010004046
:10327000704730B590F88410012918D0012280F8E9
:1032800084202421C0F888100022202401680B68C3
:103290000D6823F0005325F001050D6042660168BA
:1032A0000B60C0F8884080F88420104630BD0220B2
:1032B00030BD70B5044690F8840001281DD001226D
:1032C00084F884202420C4F88800206805680268F7
:1032D00022F0010202602068826822F060620A43E4
:1032E0008260204601F08EF92268202100201560BE
:1032F000C4F8881084F8840070BD022070BD70B5D9
:10330000044690F8840001281DD0012284F884200E
:103310002420C4F8880020680568026822F00102B1
:1033200002602068826822F060420A438260204680
:1033300001F068F92268202100201560C4F8881087
:1033400084F8840070BD022070BD10B5040003D065
:10335000D4F8880010B107E0012010BD002084F8E7
:103360008400204600F026F82420C4F88800206855
:10337000016821F001010160A06A10B1204601F04E
:1033800063F9204601F044FA0128E6D0206841683C
:1033900021F4904141602068816821F02A01816018
:1033A0002068016841F0010101602046BDE810403D
:1033B00001F0AEB92DE9F04FB5B0064614212EA8A4
:1033C000FDF765FAB8216846FDF761FAE24C02277D
:1033D000E2494FF008093068083CDF4D4FF0000823
:1033E000884221D10020CDF874800221CDE900105F
:1033F0006846FEF797FC08B1FDF75EFB286840F4CD
:1034000000202860286800F400203390206840F0F5
:103410000100206020682EA900F0010033900320F5
:1034200081E88101CE4890E0CE494FF0040B8842FC
:103430003BD10020CDF874800221CDE90010684610
:10344000FEF770FC08B1FDF737FB286840F48010E8
:103450002860286800F480103390206840F0040051
:103460002060206800F004003390206840F00800DD
:10347000206020682EA94C4600F0080033904FF4DD
:10348000805081E88101B848CDE93189FEF79AF88A
:10349000CDF8B8B02EA9CDE92F78B448CDE9318464
:1034A000FEF790F835B0BDE8F08FB1494FF0070A4C
:1034B000884226D10020CDF874800221CDE9001089
:1034C0006846FEF72FFC08B1FDF7F6FA286840F0D1
:1034D00080402860286800F080403390206840F0E9
:1034E0001000206020682EAA4FF4C07100F0100078
:1034F00082E88201CDE932A09E482EA9CDF8C48091
:10350000CEE79D49884223D10020CDF87480022166
:10351000CDE900106846FEF705FC08B1FDF7CCFACE
:10352000286840F000402860286800F00040339090
:10353000206840F01000206020682EA900F01000E4
:103540003390032081E881018A48CDE93189A7E7DA
:103550008A498B4E884225D10020CDF87880012100
:10356000CDE900106846FEF7DDFB08B1FDF7A4FACF
:10357000306840F040003060306800F04000339028
:10358000206840F04000206020682EAA00F0400033
:10359000339003200B2182E88101CDE93181794804
:1035A0002EA97DE77849884225D10021CDF8788081
:1035B0000120CDE900016846FEF7B4FB08B1FDF734
:1035C0007BFA306840F010003060306800F0100086
:1035D0003390206840F00200206020682EAA4FF44B
:1035E000404100F0020082E88201CDE932B02EA90C
:1035F000CDF8C48050E06549884225D10020CDF83F
:1036000074800221CDE900106846FEF78BFB08B1FB
:10361000FDF752FA286840F400302860286800F46A
:1036200000303390206840F00100206020682EAA0E
:103630000C2100F0010082E88201CDE932A0484867
:103640002EA9CDF8C4802BE75149884226D100200D
:10365000CDF874800221CDE900106846FEF762FBC8
:1036600008B1FDF729FA286840F48020286028680E
:1036700000F480203390206840F002002060206831
:103680002EAA4FF4406100F0020082E88201CDE9E9
:1036900032A02EA9CDF8C4803E4801E73E498842B9
:1036A00025D10020CDF878800121CDE900106846B1
:1036B000FEF738FB08B1FDF7FFF9306840F0200055
:1036C0003060306800F020003390206840F0040043
:1036D000206020682EAAC02100F0040082E8820148
:1036E000CDE932A020482EA9CDF8C480D8E62B49D8
:1036F00088427FF4D7AE0020CDF878800121CDE953
:1037000000106846FEF70EFB08B1FDF7D5F93068EA
:1037100040F080003060306800F080003390206816
:1037200040F01000206020682EA9124C00F010001C
:103730003390584681E88101CDE9318B2046FDF771
:1037400041FF0B21CDF8B890CDE92F782046CDE987
:1037500031812EA9A4E60000E8440258004C004044
:10376000000002580050004000080258000C0258A7
:103770000078004000100258007C00400018014012
:10378000F044025800180258001001400044004064
:10379000004800400004025800140140001C014091
:1037A0002DE9F84F0446D0F88800984615460E4695
:1037B000202802D00220BDE8F88F96B38DB30021F7
:1037C0004FF02109C4F89010C4F888901834FEF71F
:1037D0000BF8824654F8100CA587E587183CB0F525
:1037E000805F01D1206910B13546002600E0002538
:1037F0005FF02007B4F8560053464FF00002CDF8B2
:103800000080E0B18021204601F0F0F9E0B955B127
:1038100015F8010B21688862D4F8881039EA010094
:1038200007D00120C7E736F8020B2168C0F3080073
:10383000F1E7B4F85600401EA4F85600DAE740213C
:10384000204601F0D3F918B1C4F888700320B2E71C
:10385000C4F888700020AEE7FEE77FB5002400942E
:10386000019402940394FEF76FF801258DF80C5033
:103870001F208DF8080087218DF809108DF80D5054
:1038800068468DF800508DF80A408DF80E408DF88E
:10389000014001948DF80B408DF80F40FEF726F89B
:1038A00013218DF808108DF80940E8068DF80C40BA
:1038B0008DF80A508DF80D408DF801500190684642
:1038C0008DF80B508DF80E50FEF710F802208DF891
:1038D0000C5012228DF801000107684601918DF805
:1038E00008208DF80F50FEF701F80420FEF73AF893
:1038F0007FBD00001848002170B5164C0825816076
:10390000012204601926C160022401740423417459
:1039100081744661C0E90625C0E908428262C2623C
:10392000C0E90C2181630322C163C0E91013C0E91F
:103930001213C0E914138165C0E91712C0E9191305
:10394000FDF70AFC002803D0BDE87040FDF7B4B8CD
:1039500070BD000000A00040600000241848002155
:1039600070B5164C01220460192481600826C160DC
:1039700002250174042341748174C0E90542C661C3
:103980004024C0E908528262C26202630322C0E995
:103990000D41C163C0E91013C0E91213C0E914134B
:1039A0008165C0E91712C0E91913FDF7D5FB00289E
:1039B00003D0BDE87040FDF77FB870BD00A40040A3
:1039C000000100241848002170B5164C0122046043
:1039D000192481600826C160022501740423417402
:1039E0008174C0E90542C6618024C0E90852826240
:1039F000C26202630322C0E90D41C163C0E9101332
:103A0000C0E91213C0E914138165C0E91712C0E9B7
:103A10001913FDF7A1FB002803D0BDE87040FDF7A6
:103A20004BB870BD00D40040A0010024214808B567
:103A3000016841F010010160016801F0100100917E
:103A4000016841F020010160016801F0200100914E
:103A5000016841F080010160016801F0800100917E
:103A6000016841F001010160016801F0010100916C
:103A7000016841F040010160016801F040010091DE
:103A8000016841F002010160016801F0020100914A
:103A9000016841F004010160016801F00401009136
:103AA000016841F008010160006800F00800009022
:103AB00008BD0000E04402581848002110B5164C1B
:103AC0000C224FF4E1330460C0E90131C160C0E968
:103AD00004128161C161016241628162FFF735FCBC
:103AE00008B1FCF7E9FF0D480021FFF708FC08B119
:103AF000FCF7E2FF09480021FFF7DBFB08B1FCF708
:103B0000DBFF0648FFF7B5FB002803D0BDE81040F7
:103B1000FCF7D2BF10BD0000004C00404002002462
:103B20001848002110B5164C0C224FF4E133046004
:103B3000C0E90131C160C0E904128161C161016263
:103B400041628162FFF701FC08B1FCF7B5FF0D4847
:103B50000021FFF7D4FB08B1FCF7AEFF09480021B4
:103B6000FFF7A7FB08B1FCF7A7FF0648FFF781FBAB
:103B7000002803D0BDE81040FCF79EBF10BD000038
:103B800000500040D40200241848002110B5164C03
:103B90000C224FF4E1330460C0E90131C160C0E997
:103BA00004128161C161016241628162FFF7CDFB54
:103BB00008B1FCF781FF0D480021FFF7A0FB08B119
:103BC000FCF77AFF09480021FFF773FB08B1FCF707
:103BD00073FF0648FFF74DFB002803D0BDE81040F7
:103BE000FCF76ABF10BD00000078004068030024A5
:103BF0001848002110B5164C0C224FF4E133046034
:103C0000C0E90131C160C0E904128161C161016292
:103C100041628162FFF799FB08B1FCF74DFF0D4847
:103C20000021FFF76CFB08B1FCF746FF09480021B3
:103C3000FFF73FFB08B1FCF73FFF0648FFF719FB12
:103C4000002803D0BDE81040FCF736BF10BD0000CF
:103C5000007C0040FC0300241848002110B5164CDD
:103C60000C224FF4E1330460C0E90131C160C0E9C6
:103C700004128161C161016241628162FFF765FBEB
:103C800008B1FCF719FF0D480021FFF738FB08B118
:103C9000FCF712FF09480021FFF70BFB08B1FCF706
:103CA0000BFF0648FFF7E5FA002803D0BDE81040F7
:103CB000FCF702BF10BD0000001801409004002472
:103CC0001848002110B5164C0C224FF4E133046063
:103CD000C0E90131C160C0E904128161C1610162C2
:103CE00041628162FFF731FB08B1FCF7E5FE0D4848
:103CF0000021FFF704FB08B1FCF7DEFE09480021B4
:103D0000FFF7D7FA08B1FCF7D7FE0648FFF7B1FA7C
:103D1000002803D0BDE81040FCF7CEBE10BD000067
:103D2000001C0140740700241848002110B5164CEF
:103D30000C224FF4E1330460C0E90131C160C0E9F5
:103D400004128161C161016241628162FFF7FDFA83
:103D500008B1FCF7B1FE0D480021FFF7D0FA08B119
:103D6000FCF7AAFE09480021FFF7A3FA08B1FCF707
:103D7000A3FE0648FFF77DFA002803D0BDE81040F7
:103D8000FCF79ABE10BD000000100140240500247D
:103D90001848002110B5164C0C224FF4E133046092
:103DA000C0E90131C160C0E904128161C1610162F1
:103DB00041628162FFF7C9FA08B1FCF77DFE0D4848
:103DC0000021FFF79CFA08B1FCF776FE09480021B4
:103DD000FFF76FFA08B1FCF76FFE0648FFF749FAE4
:103DE000002803D0BDE81040FCF766BE10BD0000FF
:103DF00000440040B80500241848002110B5164CB6
:103E00000C224FF4E1330460C0E90131C160C0E924
:103E100004128161C161016241628162FFF795FA1A
:103E200008B1FCF749FE0D480021FFF768FA08B118
:103E3000FCF742FE09480021FFF73BFA08B1FCF706
:103E40003BFE0648FFF715FA002803D0BDE81040F6
:103E5000FCF732BE10BD0000004800404C060024B4
:103E60001848002110B5164C0C224FF4E1330460C1
:103E7000C0E90131C160C0E904128161C161016220
:103E800041628162FFF761FA08B1FCF715FE0D4847
:103E90000021FFF734FA08B1FCF70EFE09480021B3
:103EA000FFF707FA08B1FCF707FE0648FFF7E1F94C
:103EB000002803D0BDE81040FCF7FEBD10BD000097
:103EC00000140140E0060024FEE7FEE77047000012
:103ED0002DE9F047454D044689464FF0000A286811
:103EE000C04380070AD0414E283E306820F08060F1
:103EF0003060FDF779FC0746B04608E00120BDE8D8
:103F0000F08700BFFDF770FCC01B022867D8D8F807
:103F100000000001F6D4206829684FF4FE0721F460
:103F20007C313E0241EA00302860207AA389B4F84F
:103F300004C040022D4D2D495B1E227CACF1010CCA
:103F40001035091DA0F5007080B2521ECCF3080C8C
:103F500007EA034340EA0C00184306EA02621043F2
:103F600028600868626920F0C000104308600A6891
:103F7000A06922F0200202430A60281D0A6822F08C
:103F800010020A6002684FF6F873E4699A4342EA45
:103F9000C40202600868B9F1000F40F010020A6024
:103FA00011D00868B9F1010F11D040F40010086079
:103FB000D8F80000444640F08060C8F80000FDF7E3
:103FC00013FC05460DE0086840F40020EFE740F4DC
:103FD0008010ECE7FDF708FC401B022801D9032004
:103FE0008DE720680001F5D5504688E7284402583F
:103FF0002DE9F047454D044689464FF0000A2868F0
:10400000C04380070AD0414E283E306820F08050DF
:104010003060FDF7E9FB0746B04608E00120BDE847
:10402000F08700BFFDF7E0FBC01B022867D8D8F877
:1040300000008000F6D4208829684FF4FE0721F0A4
:104040007C713E0241EA00502860207AA389B4F8CE
:1040500004C040022D4D2D495B1E227CACF1010CA9
:104060001835091DA0F5007080B2521ECCF3080C63
:1040700007EA034340EA0C00184306EA02621043D1
:1040800028600868626920F44060104308600A688C
:10409000A06922F4007202430A60281D0A6822F413
:1040A00080720A6002684FF6F873E4699A4342EA44
:1040B000C40202600868B9F1000F40F480720A601F
:1040C00011D00868B9F1010F11D040F0807008607C
:1040D000D8F80000444640F08050C8F80000FDF7D2
:1040E00083FB05460DE0086840F48000EFE740F4EC
:1040F0000000ECE7FDF778FB401B022801D9032004
:104100008DE720688000F5D5504688E7284402589E
:104110007047704770B59CB04C216846FCF7B7FB00
:10412000202113A8FCF7B3FB0220FDF77BFC1E48FF
:10413000016821F4404101600168002401F440411C
:104140001B9101688904FCD502200A902C23099058
:10415000C20301210D910425CDE90012CDE90B0325
:104160000C261294CDE90E50CDE910646846FEF796
:10417000B5FC08B172B6FEE740201A90082305018D
:10418000CDE9163013ABCDE918053F21032283E8B2
:10419000160013A81146FEF763FA002801D072B684
:1041A000FEE71CB070BD0000184802582D48F0B55D
:1041B0002D4A016841F470010160106800F00F00A1
:1041C000072804D2106820F00F00C01D1060274996
:1041D0000020264C10340B68254D43F001030B6082
:1041E00020600B682B400B60136803F00F03072B54
:1041F00004D9136823F00F03DB1D13601B4C1D4A09
:1042000018341D4B261D371D2060184C1B4D2834BB
:104210003060261D3860371D23603B1D35601C1D36
:104220003A60251D2E1D1860331D22602860326003
:1042300018600B680D4A0D4C23F48023D4320B60B8
:10424000603420601068C0040BD4136843F2D200BD
:104250000B4943F4805313600860106820F48050C9
:104260001060F0BD88ED00E00020005200440258CC
:104270007FEDF6EA80020101000202020000FF0168
:10428000004000520148FEF742BF00000808002429
:104290002DE9F0472C4B4FF0804A2C4D0268984294
:1042A0002B4E2C4F2C4C09D0504507D0A84205D09E
:1042B000B04203D0B84201D0A04205D1D1F804C029
:1042C00022F070024CEA0202DFF890C0DFF8908022
:1042D0009842DFF8909015D0504513D0A84211D0E5
:1042E000B0420FD0B8420DD0A0420BD0604509D0EB
:1042F000404507D0484505D01B4DA84202D01B4D74
:10430000A84203D1CD6822F440722A438E684D69D9
:1043100022F08002C6620E682A439842866207D065
:10432000A04205D0604503D0404501D0484501D1A9
:10433000096901630368012143F0040303604161DB
:104340000260BDE8F087000000000140000400406A
:1043500000080040000C0040000401400040014003
:10436000004401400048014000E0004000E40040FB
:104370002DE9F04198B015460C4680462C2102A844
:10438000FCF785FA3BA0D0E90010CDE91610E5B1A5
:10439000002040F22315082116AACDE90D50CDE9E1
:1043A0000F010DA9119012901390149015902046B2
:1043B000FCF7E1FC060020460ED0FCF712FD402180
:1043C0004346CDE900602DA222E04248402135A2BB
:1043D0004346FCF775F81EE0FCF706FD0646FDF7C0
:1043E00003FA07461DE000BFFDF7FEF9C01B642875
:1043F00017D331462046FCF7ADFC02A92046FCF756
:10440000F6FC079934A202984346CDE90001402109
:104410003048FCF755F82F48FCF734FB18B0BDE8DE
:10442000F08131462046FCF7B9FF0028DCD102A913
:104430002046FCF7DCFC2068D0F8D800304207D0DA
:104440002448402131A243460095FCF739F809E0A1
:10445000079938A202984346CDE900011D48402142
:10446000FCF72EF81B48FCF70DFB6420FCF71AFB49
:10447000D4E70000524332365F43414E2020252DC1
:1044800038733A205155455545205B4641494C3AD1
:1044900025645D206572723D30782530386C580D8A
:1044A0000A0000002020252D38733A20515545552B
:1044B00045205B534B49505D2C205458205B4641AE
:1044C000494C3A204E4F5420535441525445445D78
:1044D0000D0A0000200000242020252D38733A20EA
:1044E0005155455545205B4F4B5D2C205458205B62
:1044F00054494D454F55545D204C45433D256C7501
:1045000020424F3D256C750D0A0000002020252D0E
:1045100038733A205155455545205B4F4B5D2C2053
:104520005458205B4F4B5D2049443D307825303353
:10453000580D0A002020252D38733A205155455535
:1045400045205B4F4B5D2C205458205B4641494C25
:104550005D204C45433D256C7520424F3D256C75D3
:104560000D0A000030B593B00C464021054613A259
:10457000034602A8FBF7A4FF02A8FCF737F982B2B2
:1045800020464FF47A7302A9FFF70AF9044602A8FD
:10459000FCF72CF984B10FA12B4610A2CDE9000144
:1045A00015484021FBF78CFF1348FCF76BFA3220CB
:1045B000FCF778FA13B030BD10A1EDE75243323664
:1045C000205541525420546573743A2025730D0AC6
:1045D000000000005B4641494C5D00002020252D75
:1045E00038733A20545828256420627974657329F9
:1045F0002025730D0A000000200000245B4F4B5D56
:104600000000000030B5416EB9B101680D4B03F1F7
:1046100008048A688968C2F34262490F5D5C615C84
:104620002D01B5FBF1F1A0F86A10995CA25C0901BB
:10463000B1FBF2F1A0F8681030BD0121A0F86A10BA
:10464000F8E70000BC51000890F82810090706D5CB
:104650000168836B4A6822F400421A434A6090F86A
:104660002810C90706D00168C36A4A6822F40032DC
:104670001A434A6090F82810890706D50168036B31
:104680004A6822F480321A434A6090F82810490799
:1046900006D50168436B4A6822F480221A434A60B7
:1046A00090F82810C90606D50168C36B8A6822F401
:1046B00080521A438A6090F82810890606D501684E
:1046C000036C8A6822F400521A438A6090F828101A
:1046D000490611D50168436C4A6822F480121A43D6
:1046E0004A60416CB1F5801F06D10168836C4A684D
:1046F00022F4C0021A434A6090F82810090606D531
:104700000168C26C486820F400201043486070477C
:104710002DE9F84300250446C0F89050FDF764F8F1
:104720008046206820266FF07E470068000713D57A
:104730000022434631042046009700F057FA58B152
:10474000216851E8000F20F0800041E80002002AB3
:10475000F6D1C4F8886021E020680068400722D5BF
:10476000002243464FF480012046009700F03EFAB5
:10477000C8B1206850E8001F21F4907140E8001291
:10478000002AF6D12068083050E8001F21F001010E
:1047900040E80012002AF5D1C4F88C60032084F8A8
:1047A0008450BDE8F883C4F88860C4F88C60E5667E
:1047B0002567002084F88450F3E7000010B50268F4
:1047C00052E8001F21F4907142E80013002BF6D14B
:1047D0000E4B0268083252E8001F194042E80014EC
:1047E000002CF6D1C16E012908D1026852E8001FE1
:1047F00021F0100142E80013002BF6D10021202205
:10480000C0F88C20C166416710BD0000FEFFFFEFBD
:104810002DE9F04304468068E24E87B0E24B216800
:10482000D4E90427D4F81CC010430A68002547EADD
:104830000C073843324002430A602068E26841684E
:1048400021F44051114341602268A1699A4201D08C
:10485000206A01439668DFF854C3D54FD54806EA6D
:104860000C060E4396602168666ACA6A22F00F023F
:104870003243CA622268BA420ED1006800F03800A2
:1048800018286FD07ADCB8B308286CD010286BD108
:104890008BE0282868D18EE0C7498A4209D1006898
:1048A00000F0070006285FD2DFE800F0507D7F812E
:1048B0008385C2498A4209D1006800F007000628B2
:1048C0007BD2DFE800F0437072747678BC498A428C
:1048D00009D1006800F0070006286ED2DFE800F07A
:1048E00036636567696BB7498A420BD1006800F08F
:1048F0000700062861D200E043E0DFE800F027541B
:1049000056585A5CB0498A4206D1006800F0380017
:1049100018284CD0B7DD31E0AC498A4209D1006893
:1049200000F00700062848D2DFE800F0103D3F41C4
:104930004345A7498A420BD1006800F007000628CA
:104940003BD2DFE800F0033032343638002035E067
:10495000A0498A4209D1006800F03800182826D002
:1049600091DD0BE023E01EE027E09B498A420AD15B
:10497000006800F03800182819D084DD202888D17C
:104980001CE001201AE09A4217D18A48001D0068F5
:1049900000F00700062810D2DFE800F00305070941
:1049A0000B0D02200AE0042008E0082006E0102099
:1049B00004E0202002E0402000E080208749DFF86A
:1049C00020829A42874A4FF400434FEA21174FF062
:1049D00000064ED110281AD006DC022809D004287F
:1049E0000BD008287ED10DE020283ED0402879D178
:1049F0003DE0FDF741F8014610E06846FDF74EF84E
:104A000001990BE003A8FDF7EBF8049906E01068A4
:104A1000800605D51068C0F3C100C140002970D0E0
:104A2000606A676838F8102007EB4703B1FBF2F0C3
:104A3000834257D8B0EB073F54D8002308461946A5
:104A4000FBF7C6FC02467808130E120243EA012166
:104A500010183A4671410023FBF7BAFC624AA0F5F0
:104A6000407191423ED821688FE03946D8E7194617
:104A7000D6E7D4F81CC04FF6EF799C4546D10828FC
:104A800019D005DC58B101280CD0042875D10DE0EF
:104A9000102815D0202835D040286ED134E0FDF7FD
:104AA0005DFF01E0FDF76CFF014610E06846FCF792
:104AB000F5FF01990BE003A8FDF792F8049906E0D1
:104AC0001068800604D51068C0F3C100C140C1B1B0
:104AD000636A606838F81330B1FBF3F1490001EB09
:104AE000500100E049E0B1FBF0F0A0F110014945B0
:104AF00043D84FF6F0732168C0F3420218401043C8
:104B000043E043E03946E3E71946E1E7082819D0D6
:104B100005DC58B101280CD004282ED10DE0102856
:104B200015D020282BD0402827D12AE0FDF716FFEA
:104B300001E0FDF725FF014610E06846FCF7AEFFF7
:104B400001990BE003A8FDF74BF8049906E0106803
:104B5000800604D51068C0F3C100C140B1B1636ADA
:104B6000606838F81330B1FBF3F101EB5001B1FB91
:104B7000F0F0A0F11001494505D9012506E03946BC
:104B8000EDE71946EBE7216880B2C8600120A4F880
:104B90006A00A4F8680028466667A66707B0BDE803
:104BA000F0830000F369FFCF000C0058FFF4FF1101
:104BB00000100140544402580044004000480040A6
:104BC000004C0040005000400014014000780040BC
:104BD000007C004000180140001C01400090D00300
:104BE000A451000800440258FFFC0F002DE9F047D3
:104BF000994617460D460446089E4FF0000833E0DC
:104C0000701C31D0FCF7F0FDA0EB0900B04218D8C1
:104C1000BEB120680168490726D5802D24D0402DDB
:104C200022D0C169C94309070DD408250562204671
:104C3000FFF7C4FDC4F89050012084F88480BDE8DB
:104C4000F0870320FBE7C069C04300050CD421684E
:104C50004FF4006008622046FFF7B0FD2021C4F841
:104C6000901084F88480ECE72068C06935EA000081
:104C700004D00020B842C3D00020E0E70120F9E7CB
:104C8000FEE7090700284FEA116104DB00F1E0208C
:104C900080F80014704700F00F0000F1E02080F869
:104CA000141D704730380A2801D2012070470020B7
:104CB0007047000008B5FEF7D0FD9D4A002011683E
:104CC000890311D4BFF34F8FBFF36F8F99490860E9
:104CD000BFF34F8FBFF36F8F116841F40031116044
:104CE000BFF34F8FBFF36F8F1168C90323D490496F
:104CF00070310860BFF34F8F081F43F6FF740068E0
:104D00008C4D1035C0F34E31C0F3C90304EA41168F
:104D1000184600BF46EA80772F60401EFAD2491E2F
:104D2000F4D2BFF34F8F106840F480301060BFF3AF
:104D30004F8FBFF36F8FFCF765FDFFF7EBF9FEF7C1
:104D400075FEFEF7D7FDFEF709FEFEF73BFEFEF708
:104D5000B3FEFEF7E5FEFEF717FFFEF749FFFEF78D
:104D60007BFFFEF7E1FFFFF713F8FFF745F8FFF7CA
:104D700077F8FEF7A5FF70A0FBF784FE7AA0FBF79B
:104D800081FE80A0FBF77EFE84A0FBF77BFE8E48B1
:104D9000FCF7F5FBB0B100208C4D28708C48FCF777
:104DA000EEFB88B1002068708A48FCF7E8FB68B128
:104DB0000020A8708448FCF714F80090287838B1D7
:104DC00085A306E00120E7E70120ECE70120F0E7FA
:104DD00083A38E48402184A2FBF772FB8B48FBF72C
:104DE00051FE7B48FBF7FDFF0090687808B17AA37D
:104DF00000E07BA38548402185A2FBF761FB834847
:104E0000FBF740FE7348FBF7ECFF0090A87808B171
:104E100071A300E072A37D48402186A2FBF750FBFE
:104E20007A48FBF72FFE694C4FF47A76A41E60781F
:104E30000028FCD120781028F9D2DFE800F0080A19
:104E400012161C2B2E3134373A3D4043464B82A27A
:104E500012E02A7887A05C490AE02078401C207084
:104E6000E5E76A7885A05A4902E0AA7885A0594901
:104E7000FFF77EFAF1E785A264484021FBF720FBAB
:104E80006248FBF7B3FC82B2604987483346FEF7BD
:104E900087FCE2E7844985A019E0864986A016E0F0
:104EA000874988A013E0894989A010E08A498BA02E
:104EB0000DE08C498CA00AE08D498EA007E08F4957
:104EC0008FA004E0904991A001E0924992A0FFF7E1
:104ED00049FBC2E74D48402117A2FBF7F1FA4B48C6
:104EE000FBF784FC82B249496F483346FEF758FC11
:104EF000464840218AA2FBF7E3FA4448FBF776FCD8
:104F000082B2424968483346FEF74AFC3F48402196
:104F100022A2FBF7D5FA3D48FBF768FC82B23B4979
:104F200061483346FEF73CFC012060707FE70000DB
:104F300014ED00E050EF00E00D0A3D3D3D3D3D3DEC
:104F40003D3D3D3D3D3D3D3D3D3D3D3D3D3D3D3D91
:104F50003D3D3D3D3D3D3D3D3D3D3D3D3D3D3D3D81
:104F60003D3D0D0A00000000202052433236204211
:104F70006F61726420546573742050726F67726140
:104F80006D0D0A0020204D43553A2053544D3332C5
:104F9000483732335A4754780D0A00003D3D3D3DB5
:104FA0003D3D3D3D3D3D3D3D3D3D3D3D3D3D3D3D31
:104FB0003D3D3D3D3D3D3D3D3D3D3D3D3D3D3D3D21
:104FC0003D3D3D3D0D0A000060000024020000242C
:104FD00000010024A00100245B4F4B5D0000000095
:104FE0005B4641494C5D00002020464443414E3120
:104FF0002073746172743A202573206572723D309B
:10500000782530386C580D0A00000000200000247C
:105010002020464443414E322073746172743A201A
:105020002573206572723D30782530386C580D0A32
:10503000000000002020464443414E332073746139
:1050400072743A202573206572723D3078253038AD
:105050006C580D0A000000000D0A2D2D2D20434133
:105060004E2054657374205374617274202D2D2D5D
:105070000D0A0000464443414E310000464443417E
:105080004E320000464443414E3300000D0A2D2DA0
:105090002D2055415254205465737420537461720D
:1050A00074202D2D2D0D0A0040020024554152542C
:1050B00034000000D4020024554152543500000051
:1050C000680300245541525437000000FC030024BB
:1050D0005541525438000000900400245541525468
:1050E000390000002405002455534152543100007A
:1050F000B805002455534152543200004C06002498
:105100005553415254330000E00600245553415298
:105110005436000074070024555341525431300076
:105120002020414C4C20544553545320434F4D5064
:105130004C45544544210D0A000000004FF04070DA
:10514000E1EE100A704700000001020304050607A3
:10515000080C10141820304000000000000000006F
:10516000000000000000000000000000010000003E
:105170000200000003000000040000000000000026
:10518000050000000000000000000000000000001A
:105190000600000000000000000000000000000009
:1051A00007000000010002000400060008000A00D9
:1051B0000C001000200040008000000101010103EC
:1051C00007010000080402040801010100000000BA
:1051D00001020304010203040607080930313233D7
:1051E000343536373839414243444546403058001B
:1051F000303132333435363738396162636465664D
:1052000040307800040000080000000000000002A8
:1052100000010000100000003852000800000024C7
:105220002000000008030008585200082000002455
:10523000980E000024030008000000000000000099
:10524000000000000100000010000000000000004D
:085250000090D0030090D00390
:04000005080002CD20
:00000001FF
