:020000040800F2
:100000005861002055020008B9600008415B0008F3
:10001000B5600008D9050008316C00080000000038
:100020000000000000000000000000005161000816
:10003000D51A000800000000C16000087D610008BA
:100040006F0200086F0200086F0200086F020008CC
:100050006F0200086F0200086F0200086F020008BC
:100060006F0200086F0200086F0200086F020008AC
:10007000811A00086F0200088D1A00086F0200083C
:10008000991A0008A51A00086F0200086F020008FC
:100090006F0200086F0200086F0200086F0200087C
:1000A0006F020008596200086F0200086F02000822
:1000B000656200086F0200086F0200086F02000806
:1000C0006F0200086F0200086F0200086F0200084C
:1000D0006F0200086F0200080D6C0008196C000820
:1000E000F11A00086F0200086F0200086F02000892
:1000F0006F0200086F0200086F0200086F0200081C
:100100006F0200086F0200086F0200086F0200080B
:100110006F0200086F0200086F0200086F020008FB
:100120006F020008B11A0008BD1A00086F0200082B
:100130006F0200086F0200086F0200086F020008DB
:100140006F0200086F0200086F0200086F020008CB
:100150006F020008C91A00086F020008256C000829
:100160006F0200086F0200086F0200086F020008AB
:100170006F0200086F0200086F0200080000000014
:100180006F0200086F02000800F002F800F052F859
:1001900014A696E8000CB244B344DA4501D100F04D
:1001A00049F8BAE80F000FA696E83000A5EB040561
:1001B00004EB0607AAEB0704A7F101074FEA1515A0
:1001C0004FEA3414A4F10104AC4201D300F032F838
:1001D00013F0010F18BFFB1A43F0010300F001F800
:1001E000DBE71847B08E0000D08E0000103A24BF25
:1001F00078C878C1FAD8520724BF30C830C144BF8C
:1002000004680C6070470000704700000023002461
:1002100000250026103A28BF78C1FBD8520728BF16
:1002200030C148BF0B6070471FB508F01BFE1FBDF3
:1002300010B510BD00F04FF91146FFF7F5FF06F0BD
:10024000F9FC00F06DF903B4FFF7F2FF03BC00F016
:1002500075F900000948804709480047FEE7FEE7B6
:10026000FEE7FEE7FEE7FEE7FEE7FEE7FEE7FEE766
:1002700004480549054A064B7047000045620008DE
:1002800089010008585B002058610020585D00205B
:10029000585D002053EA020C00F069802DE9F04B14
:1002A0004FF00006002B1FBFB3FA83F503FA05F4E5
:1002B00024FA05F65E4012BF1643B2FA82F502FA3E
:1002C00005F4C5F120051EBF22FA05FC44EA0C0422
:1002D000203556EA044C4FEA144418BF641C4FF012
:1002E00000084FF00009904271EB030C39D300294C
:1002F00019BFB1FA81F701FA07F6B0FA80F700FAF0
:1003000007F6C7F120071EBF20FA07FC46EA0C06D5
:100310002037B6FBF4FCA7EB0507103F07F01F0BD7
:10032000CBF120062CFA06F60CFA0BFB44BFB346C1
:100330000026202FA4BF5E464FF0000B5BEA060CA0
:1003400008BF4FF0010B19EB0B0948EB0608ABFB9C
:10035000027C06FB02CC0BFB03CCC01B71EB0C0137
:10036000C1E70B46024641464846BDE8F08B13B54F
:10037000084318BF4FF0FF300146AFF30080BDE8DF
:100380001C407047032A40F2308010F0030C00F04C
:10039000158011F8013BBCF1020F624498BF11F8BF
:1003A00001CB00F8013B38BF11F8013BA2F1040278
:1003B00098BF00F801CB38BF00F8013B11F00303F0
:1003C00000F05780083AC0F0088051F8043B083A22
:1003D00051F804CBA0E80810F5E7121D5CBF51F8F6
:1003E000043B40F8043BAFF30080D20724BF11F870
:1003F000013B11F801CB48BF11F8012B24BF00F8D5
:10040000013B00F801CB48BF00F8012B704702F018
:10041000FF0343EA032242EA024200F002B84FF02F
:10042000000200B5134694469646203922BFA0E844
:100430000C50A0E80C50B1F12001BFF4F7AF090750
:1004400028BFA0E80C5048BF0CC05DF804EB890041
:1004500028BF40F8042B08BF704748BF20F8022B84
:1004600011F0804F18BF00F8012B7047704770479C
:10047000704710B5203AC0F00B80B1E81850A0E8E2
:100480001850B1E81850A0E81850203ABFF4F5AF62
:100490005FEA027C24BFB1E81850A0E8185044BFBE
:1004A00018C918C0BDE810405FEA827C24BF51F82B
:1004B000043B40F8043B08BF7047D20728BF31F81F
:1004C000023B48BF11F8012B28BF20F8023B48BF70
:1004D00000F8012B7047754600F02CF8AE46050079
:1004E0006946534620F00700854618B020B5FFF74F
:1004F000BFFEBDE820404FF000064FF000074FF070
:1005000000084FF0000BAC46ACE8C009ACE8C009ED
:10051000ACE8C009ACE8C00921F007018D4670477E
:1005200010B50446AFF300802046BDE81040FFF749
:100530008ABE0000004870471801002001491820B9
:10054000ABBEFEE726000200704700000146806B4C
:10055000036C026C13F0500F08D0D20648BF01F0B4
:1005600079BB806BC26C0846104700BF42F4007133
:10057000016401688A6812F0405F01D001F066BB37
:10058000027E002AFAD1CA6A12F4700F02D08A6879
:100590005205F3D44A6822F020024A60016C21F42B
:1005A00080710164016CC90448BF01F04FBB016C4C
:1005B00041F00101016401F049BB0000806B402162
:1005C0000164416C41F00401416401F043BB00004F
:1005D000806B01F03DBB0000FEE7000040F2080028
:1005E000C2F2000000210122C17181600273C17555
:1005F0008161027780F82710816280F82C2080F8D2
:100600003710816380F83C2080F84710816480F8BF
:100610004C2080F85710816580F85C2080F86710C6
:10062000816680F86C2080F87710816780F87C20E4
:1006300080F88710C0F8881080F88C2080F8971018
:10064000C0F8981080F89C2080F8A710C0F8A81077
:1006500080F8AC2080F8B710C0F8B81080F8BC2043
:1006600080F8C710C0F8C81080F8CC2080F8D710E8
:10067000C0F8D81080F8DC2080F8E710C0F8E81047
:1006800080F8EC2080F8F710C0F8F81080F8FC2013
:10069000704700002DE9F04F81B00F2602F01AF8E4
:1006A00040F208078346C2F2000701254FF0000A16
:1006B00000244FF0000913E0002088F8070098F8A4
:1006C0000C000AF1100A002805FA06F108BF0C43D5
:1006D00009F10109BAF5807FA6F1010600F06C80EE
:1006E00007EB0A0857F80A00B8F8041001F0E6FF13
:1006F00098F80720032ADFD898F80610DFE802F000
:1007000002140A10884204BFC8F808B088F80750DD
:10071000D5E700BF8842D2D0C8F808B00320CCE7A4
:10072000884225D10220C8E78842C5D1D8F8080000
:10073000ABEB00000A28C2D3002088F80C00B9F106
:10074000070F4FF0020088F80700B8D8DFE809F07B
:1007500004261E201A2A2E2202200421002204F040
:1007600039FB01200021002203F07AFEA7E700BF39
:10077000D8F80800ABEB00000A28FFF4A0AF88F817
:100780000C5099E70120012112E000BF062006E08D
:10079000032004E0012002210AE000BF052000211F
:1007A00006E000BF0120032102E000BF0120042178
:1007B000002204F00FFB82E741F65200C2F2000073
:1007C000048001B0BDE8F08F40F65860C2F200002E
:1007D00005F0CAF9FFF702FF05F0DCF9FFF75AFF51
:1007E000012006F049FAF7E72DE9F04784B040F21E
:1007F0007429C2F2000999F8000030B140F2C42413
:10080000C2F2000494F8140510B104B0BDE8F087FA
:1008100040F60000C4F202004FF4805101F04EFF98
:10082000012840F01381EFF3108872B699F8031095
:10083000002900F0078199F8011040F6385C01EBBF
:10084000C101C2F2000C0CEB010253685CF801100C
:10085000127A029301918DF80C2099F80110013160
:1008600001F01F0189F8011099F80310013989F886
:1008700003109DF80B100A0600F0C380CAB2042AC8
:1008800001F0030E02D2002769E000BF02F0FC0A6B
:10089000002701AA08E000BFB4F812150131A4F83E
:1008A00012150437BA455AD0D35DB4F81015B4F810
:1008B0000E5501316FF35F21A94205D1B4F812152D
:1008C0000131A4F8121506E0B4F81055254485F856
:1008D0000E33A4F81015D3195978B4F81055B4F89C
:1008E0000E6501356FF35F25B54205D1B4F81215D9
:1008F0000131A4F8121506E0B4F81065264486F814
:100900000E13A4F810559978B4F81055B4F80E6584
:1009100001356FF35F25B54206D1B4F812150131E8
:10092000A4F8121507E000BFB4F81065264486F855
:100930000E13A4F81055D978B4F81035B4F80E5544
:1009400001336FF35F23AB42A6D0B4F810552544B2
:1009500085F80E13A4F810350437BA45A4D1BEF1BA
:10096000000F4ED001AAD35DB4F81015B4F80E559F
:1009700001316FF35F21A94206D1B4F8121501319C
:10098000A4F8121507E000BFB4F81055254485F807
:100990000E33A4F81015BEF1010F32D03A4453784B
:1009A000B4F81015B4F80E5501316FF35F21A94268
:1009B00006D1B4F812150131A4F8121507E000BFF2
:1009C000B4F81055254485F80E33A4F81015BEF17F
:1009D000020F16D09278B4F81015B4F80E35013124
:1009E0006FF35F21994205D1B4F812150131A4F8D3
:1009F000121506E0B4F81035234483F80E23A4F84A
:100A000010159DF80C1001390A068DF80C1019D03C
:100A100099F80210DDE9013701EBC1010CEB01028D
:100A20004CF801309DF80C105760117299F80210C3
:100A3000013101F01F0189F8021099F8031001310A
:100A400089F80310B8F1000F00D162B641F2F0212D
:100A5000C2F200010F884E88B1F804A0B1F80690E8
:100A600041F65201C2F200010A8840F20C11C2F2B2
:100A7000000191F8008002F00101C2F34003194423
:100A8000C2F380031944C2F3C0031944C2F3001334
:100A90001944C2F340131944C2F380131944C2F33A
:100AA000C0131944C2F300231944C2F3402319446C
:100AB000C2F380231944C2F3C0231944C2F30033A4
:100AC0001944C2F340331944C2F380331944B4F8D3
:100AD000423501EBD23532EA0301A4F82475A4F8BB
:100AE0002665A4F828A5A4F82A95A4F82C2584F84E
:100AF0002E85A4F83E5532D0B4F8403501F00105FA
:100B00002B44C1F340052B44C1F380052B44C1F3B2
:100B1000C0052B44C1F300152B44C1F340152B44F1
:100B2000C1F380152B44C1F3C0152B44C1F300253C
:100B30002B44C1F340252B44C1F380252B44C1F342
:100B4000C0252B44C1F300352B44C1F340352B4461
:100B5000C1F380352B4403EBD131A4F8401548F69E
:100B60002871FBB2C0F60001CB5CA4F8422583EAF1
:100B70001723DBB2CB5C7340DBB2CB5C83EA16237A
:100B8000DBB2CB5C83EA0A03DBB2CB5C83EA1A23D9
:100B9000DBB2CB5C83EA0903DBB2CB5C83EA1923CB
:100BA000DBB2CB5C5340DBB2CB5C83EA1223DBB21B
:100BB000CB5C83EA080311F803E0EFF3108C72B604
:100BC000B4F81015B4F80E3501316FF35F21994276
:100BD00006D1B4F812150131A4F8121508E000BFCF
:100BE000B4F81035AA25234483F80E53A4F8101541
:100BF000B4F81015B4F80E3501316FF35F21994246
:100C000006D1B4F812150131A4F8121508E000BF9E
:100C1000B4F810355525234483F80E53A4F8101565
:100C2000B4F81015B4F80E3501316FF35F21994215
:100C300006D1B4F812150131A4F8121507E000BF6F
:100C4000B4F81035234483F80E73A4F81015B4F8E3
:100C50001015B4F80E3501316FF35F21994205D1BB
:100C6000B4F812150131A4F8121507E0B4F81035E4
:100C70003D0A234483F80E53A4F81015B4F8101558
:100C8000B4F80E3501316FF35F21994206D1B4F803
:100C900012150131A4F8121507E000BFB4F81035A1
:100CA000234483F80E63A4F81015B4F81015B4F8B3
:100CB0000E3501316FF35F21994205D1B4F8121559
:100CC0000131A4F8121507E0B4F81035350A2344B1
:100CD00083F80E53A4F81015B4F81015B4F80E35B7
:100CE00001316FF35F21994206D1B4F81215013139
:100CF000A4F8121507E000BFB4F81035234483F8B8
:100D00000EA3A4F81015B4F81015B4F80E3501317F
:100D10006FF35F21994205D1B4F812150131A4F89F
:100D2000121508E0B4F810354FEA1A25234483F869
:100D30000E53A4F81015B4F81015B4F80E3501319F
:100D40006FF35F21994205D1B4F812150131A4F86F
:100D5000121506E0B4F81035234483F80E93A4F876
:100D60001015B4F81015B4F80E3501316FF35F218A
:100D7000994205D1B4F812150131A4F8121508E012
:100D8000B4F810354FEA1925234483F80E53A4F81C
:100D90001015B4F81015B4F80E3501316FF35F215A
:100DA000994205D1B4F812150131A4F8121506E0E4
:100DB000B4F81035234483F80E23A4F81015B4F8C2
:100DC0001015B4F80E3501316FF35F21994205D14A
:100DD000B4F812150131A4F8121507E0B4F8103573
:100DE000120A234483F80E23A4F81015B4F8101542
:100DF000B4F80E2501316FF35F21914206D1B4F8AA
:100E000012150131A4F8121507E000BFB4F810253F
:100E1000224482F80E83A4F81015B4F81015B4F823
:100E20000E2501316FF35F21914205D1B4F81215FF
:100E30000131A4F8121506E0B4F81025224482F816
:100E40000EE3A4F81015B4F81015B4F80E2501310E
:100E50006FF35F21914209D1B4F812150131A4F862
:100E60001215BCF1000F0DD10BE000BFB4F8102536
:100E7000DE23224482F80E33A4F81015BCF1000FD3
:100E800000D162B694F8141500297FF4BEACB4F812
:100E90001015B4F80E2501287FF4B7AC881A6FF34B
:100EA0005F2000283FF4B1ACEFF30580E0B140F2E1
:100EB0009410C2F20000002100680091694606F01B
:100EC00021FF009800283FF4A0AC4EF60450CEF26B
:100ED00000004FF080510160BFF34F8FBFF36F8F61
:100EE00004B0BDE8F08700BF40F29410C2F20000E9
:100EF000006800210222002304B0BDE8F04707F09B
:100F000045BD000010B540F2C424C2F2000462687E
:100F1000824209D02168814218BF10BD002084F8A8
:100F20001405C4F8180510BD04F10801104680220C
:100F300002F056FCE0B1B4F8200540F27421013013
:100F4000A4F82005B4F80C03C2F200018880B4F8BC
:100F50001205C880B4F81E050881B4F81C05488144
:100F6000B4F820058881B4F82205C88110BD00BFFF
:100F70006068C06B0028D6D00068016821F00801C5
:100F8000016010BD70B540F2C424C2F20004D4F870
:100F900004E0864500D070BD002900F0C28004291D
:100FA00001F0030C02D2002169E000BF21F003032D
:100FB000002107E0B4F80C030130A4F80C0304315D
:100FC0008B425CD06018027AB4F80A53B4F8086314
:100FD00001356FF35F25B54206D1B4F80C23013219
:100FE000A4F80C2307E000BFB4F80A63264486F88F
:100FF0000821A4F80A53427AB4F80A53B4F80863F3
:1010000001356FF35F25B54206D1B4F80C230132E8
:10101000A4F80C2307E000BFB4F80A63264486F85E
:101020000821A4F80A53827AB4F80A53B4F8086382
:1010300001356FF35F25B54206D1B4F80C230132B8
:10104000A4F80C2307E000BFB4F80A63264486F82E
:101050000821A4F80A53C07AB4F80A23B4F8085354
:1010600001326FF35F22AA42A4D0B4F80A53254498
:1010700085F80801A4F80A2304318B42A2D1BCF1FF
:10108000000F4ED06018017AB4F80A23B4F8083380
:1010900001326FF35F229A4208D1B4F80C13013188
:1010A000A4F80C13BCF1010F0AD13AE0B4F80A33EA
:1010B000234483F80811A4F80A23BCF1010F30D0AF
:1010C000417AB4F80A23B4F8083301326FF35F228F
:1010D0009A4205D1B4F80C130131A4F80C1306E0C0
:1010E000B4F80A33234483F80811A4F80A23BCF1A6
:1010F000020F16D0807AB4F80A13B4F8082301312D
:101100006FF35F21914205D1B4F80C030130A4F8CC
:101110000C0306E0B4F80A23224482F80801A4F87C
:101120000A1304F108017046802202F059FBD8B17D
:10113000B4F8200540F274210130A4F82005B4F879
:101140000C03C2F200018880B4F81205C880B4F81C
:101150001E050881B4F81C054881B4F82005888173
:10116000B4F82205C88170BD6068C06B002808BF54
:1011700070BD0068016821F00801016070BD0000C9
:101180002DE9F04F87B0002800F0978040F27424DA
:10119000EFF3108572B6C2F20004E27894F801E031
:1011A00094F801B0002A049000F08A8040F638518B
:1011B000012AC2F200010195009240F097800020C0
:1011C000029006900098C0074CD00EEBCE000D1890
:1011D000EC79085C6978AA78EB7895F8049095F832
:1011E000058095F806E095F808C0032C1CD3049EF2
:1011F0007578A94218D1B578AA4215D1072C31D1FA
:10120000049E3578A8422DD1F578AB422AD13579A4
:10121000A94527D17579A84524D1B579AE4521D105
:10122000029DFDB9012502955FFA8BF5ED0040F6B0
:10123000385755FA8BF5C2F2000778550BF10100CB
:1012400000F01F0B06987E1901307170B270F370B8
:1012500086F8049086F8058086F806E0F47186F832
:1012600008C0069040F27424C2F2000484F802B070
:10127000029800280698E070019D1DD1E0781F2893
:1012800025D8A078049F40F638513B6800EBC00099
:10129000C2F20001D7F803700A180B5040F2073071
:1012A000C2F80370A2F80700A078013000F01F0018
:1012B000A070E0780130E070A5B107B0BDE8F08F14
:1012C000002084F802B0E070E0781F28D9D940F2FD
:1012D000C420C2F20000B0F812150731A0F81215B0
:1012E000002DEAD162B607B0BDE8F08F02F0FE0033
:1012F000039000200022029006902FE0F146C6469F
:101300005FFA8BF4E40040F6385854FA8BF4C2F2DA
:10131000000808EB040080F801A08370C770027118
:101320004571867180F807C001720BF1010000F071
:101330001F0B069808F804E00130CE460690059A87
:10134000039B0232D1B20EF10200994240F63851AD
:1013500000F01F0EC2F200013FF434AF5FFA8EF0CE
:10136000C00050FA8EF00B1893F807A005925C4667
:1013700011F800B05F789978DA781E7993F80580D3
:1013800093F8069093F808C0BAF1030F1ED3049B9C
:10139000587887421AD19878814217D1BAF1070F4D
:1013A00072D1049B187883456ED1D87882426BD174
:1013B0001879864268D15879804565D198798145F8
:1013C00062D1029800285FD101200290E0B2C000F3
:1013D00040F6385550FA84F0C2F200052B1805F893
:1013E00000B0601C00F01F0B06985F700130997010
:1013F000DA701E7183F8058083F8069083F807A0E1
:1014000083F808C006900EF1010000F01F0000EB09
:10141000C0002C1894F807C015F8008094F801A0BB
:10142000A378E77822796579A679217ABCF1030F50
:10143000FFF464AF04984478A2457FF45FAF8478EA
:10144000A3427FF45BAFBCF1070F7FF478AF047861
:10145000A0457FF474AFC478A7427FF470AF0479DD
:10146000A2427FF46CAF4479A5427FF468AF8479DF
:10147000A6427FF464AF029800287FF460AFF14683
:10148000C646012002903BE740F63855A346C2F21B
:101490000005B8E740F27423C2F200031B78002B6A
:1014A00008BF704780B582B048F6287C47F2AA731F
:1014B000C0F6000CADF801301CF800308DF80300C8
:1014C00081EA0300C0B21CF800008DF804105040FF
:1014D000C0B21CF800008DF805208DF80600DE2053
:1014E0008DF807000DF10100FFF74AFE02B0BDE8DC
:1014F0008040704740F27423C2F200031B78002B37
:1015000008BF704780B582B048F6287C46F2AA63CF
:10151000C0F6000CADF801301CF800308DF8030067
:1015200081EA0300C0B21CF800008DF8041050409E
:10153000C0B21CF800008DF805208DF80600DE20F2
:101540008DF807000DF10100FFF71AFE02B0BDE8AB
:101550008040704770B540F2742540F2C426C2F254
:1015600000050022C2F200062A70C6E9000186F8D2
:101570001425C6F81825A6F81C25A6F80823A6F8F1
:101580000A23A6F80E25A6F81025A6F80C23A6F81F
:101590001225A6F81E25A6F82025A6F822256A7091
:1015A000AA70EA70B6F80C034BF69A41A880B6F818
:1015B000120540F20044E880B6F81E05CFF2DE01C5
:1015C0002881B6F81C05C4F202046881B6F820052B
:1015D000A881B6F82205E88143F21240C7F656000A
:1015E000C6F8240543F21240C6F82815A6F82C05C3
:1015F00020464FF48051C6F83E25A6F8422501F05A
:1016000063F820464FF40051002201F05DF8706845
:1016100006F10801802202F0E3F8C8B1B6F820050F
:101620000130A6F82005B6F80C03A880B6F812051C
:10163000E880B6F81E052881B6F81C056881B6F862
:101640002005A881B6F82205E8810120287070BD28
:101650007068C06B0028F8D00068016821F00801AC
:1016600001600120287070BD2DE9F04F91B040F26B
:10167000C426C2F2000696F8140540F2742400282D
:10168000C2F2000441D001F025F8D6F81815401A2E
:1016900032283AD3306802F0A7F90020EFF3108126
:1016A00072B686F81405C6F81805B6F81C0500F1E0
:1016B0000100A6F81C05B6F81005B6F80E25A0EB3B
:1016C00002006FF35F2001B962B6B6F80C13A18077
:1016D000B6F81215E180B6F81E152181B6F81C1572
:1016E0006181B6F82015A181B6F82215E18160B1BB
:1016F00040F60000C4F202004FF4805100F0DEFF1B
:10170000012802D1306804F051FEB6F80A03B6F899
:10171000081340F2FF12401A00F5007000EBD051A0
:101720009143401A0728C0F0958106F584741BE0A8
:10173000B6F822050130A6F82205B6F808030130F4
:101740006FF35F20A6F80803B6F80A03B6F808138B
:1017500040F2FF12401A00F5007000EBD0519143A7
:10176000401A062840F27681B6F80803421C215C34
:101770006FF35F22A25C552908BFAA2A44D05529DD
:1017800008BFEE2AD9D1811D6FF35F21615CED297D
:10179000CED1811C6FF35F2114F801A0C11C48F663
:1017A00028736FF35F21C0F6000314F801B013F83B
:1017B0000A20011D82EA0B026FF35F21D2B2655C41
:1017C0009A5C411D6A406FF35F21D2B2615C9A5C02
:1017D0009142ADD107306FF35F20A6F8080300F007
:1017E00079FF41F64803C2F20003198841F64C0222
:1017F000C2F200021060481C1880504659462A4622
:1018000002F0DCFFA0E700BFB6F80A13B6F8082321
:1018100040F2FF13891A01F5007101EBD1529A438E
:10182000891A1229C0F01681811C6FF35F21625C56
:10183000C11C6FF35F21635C011D6FF35F21655C69
:10184000411D6FF35F21665C811D6FF35F2114F80A
:1018500001E0C11D6FF35F2114F801A000F1080140
:101860006FF35F21675C00F109016FF35F2114F8EA
:1018700001B000F10A016FF35F2114F801C000F11B
:101880000B016FF35F21615C48F62878109100F13D
:101890000C016FF35F21615CC0F600080F9118F82E
:1018A00002100B955940C9B218F80110CDF824C0A8
:1018B0006940C9B218F801100E927140C9B218F807
:1018C000011000F10D0281EA0E01C9B218F80110F1
:1018D0006FF35F2281EA0A01C9B218F8011014F807
:1018E00002907940C9B218F8011000F10E0281EAA5
:1018F0000B01C9B218F801106FF35F2281EA0C01E5
:10190000C9B2DDE90FC518F801100C966940C9B2DB
:1019100018F80110564614F802A000F10F0281EAEF
:101920000C016FF35F22C9B20D93CDF828B014F803
:1019300002B000F1100218F801306FF35F22A15CD1
:1019400089EA0302D2B218F8022000F1110382EAF8
:101950000A02D2B218F802206FF35F2382EA0B0268
:10196000E35CD2B218F80220ED2BCDF8209008BF2E
:1019700091420BD040F2C426ED2BC2F200067FF458
:10198000DCAE91427FF4D4AED7E600BFDDE90B3286
:101990004EEA062143EA0222DDE90D63123043EAF2
:1019A000062340F2C426C2F20006A6F834150A99AE
:1019B0006FF35F2086F837150999A6F8303586F859
:1019C00038150899A6F8322586F8367586F83955FF
:1019D00086F83AC586F83B1586F83CA586F83DB5ED
:1019E000A6F8080300F076FE41F64C02C2F20002AF
:1019F00041F648011060B6F93005C2F2000196F8D0
:101A00003D5509880F9096F8370596F8389596F861
:101A1000397596F83AE5109501F1010CB6F93215D1
:101A2000B6F9342596F8363596F83BA596F83CB5C8
:101A300041F64808CDE90009CDE9027EDDE90F074E
:101A4000C2F20008A8F800C0CDE904AB069702F086
:101A5000FBFE79E6B6F80C0340F27421C2F20001F5
:101A60008880B6F81205C880B6F81E050881B6F859
:101A700020058881B6F82205C88111B0BDE8F08F35
:101A800040F6C070C2F2000000F01CBB41F2200022
:101A9000C2F2000000F016BB40F60070C2F2000077
:101AA00000F010BB40F66070C2F2000000F00ABB0C
:101AB00041F28000C2F2000000F004BB40F6A060DA
:101AC000C2F2000000F0FEBA41F2E000C2F20000F3
:101AD00000F0F8BA7047000041F21820C2F200008E
:101AE00003F00AFB03F05CFB012005F0C5F8F9E701
:101AF00080B54FF4805000F005FD4FF48040BDE804
:101B0000804000F0FFBC000072B600BFFEE700009E
:101B100070B581B00022009290F83C20012A03D1D8
:101B2000022001B070BD00BFD1F800E001221FFA11
:101B30008EFC4FEA4C0380F83C200EEB4E0213FA69
:101B40008EF31024BEF1090F88BFA3F11E0288BFD7
:101B50000C24036807251E59954026EA05051D51EA
:101B60008D681E5905FA02F232431A514968062956
:101B700006D801EB81014A1F194651F8345F0EE087
:101B80000C2901EB810105D8A1F12302194651F876
:101B9000305F04E0A1F14102194651F82C5F1F2487
:101BA000944025EA04040C600CFA02F20C6842F23C
:101BB000043CC4F2010C2243ACF54174A3420A6018
:101BC0003ED1BEF1120F07D1DCF8001041F48001C4
:101BD000CCF8001034E000BF2EF0010110292FD105
:101BE000DCF80010BEF1100F41F40001CCF8001039
:101BF00026D140F20811C2F2000109684DF6836255
:101C0000C4F21B32A1FB0212910C01EB81014900CD
:101C100000910099A1B1009901390091009979B121
:101C2000009901390091009951B100990139009151
:101C3000009929B100990139009100990029EAD150
:101C4000002180F83C10002001B070BD03F07ABF85
:101C50007047000070470000002804BF0120704753
:101C600010B5016C00293DD0016CC90645D4016C4A
:101C700041F202129143023142F204320164C4F291
:101C80000102116821F440311160136890E81210CC
:101C90002343D0F810E013604A68012422F48072D4
:101CA0004A604A68C0F6007442EA0E224A604A68F6
:101CB00022F040724A604A6842EA0C024A608A682E
:101CC00022F400628A60C2688B681A438A60826A62
:101CD0008B68A24223F070638B608B6810D123F075
:101CE000405216E0044600F065F820460021616489
:101CF00084F83C10016CC906B9D5012153E000BF3E
:101D00001A438A608A6822F040528A60C26A8B68ED
:101D10001A438A608A6822F002028A608A68037E17
:101D200090F8204042EA43028A604A6884B142F453
:101D300000624A604A684EF2000322F460424A6040
:101D4000426ACFF6FF734C6803EB4232224301E054
:101D500022F400624A60CA6A40F2000C22F4700267
:101D6000CA62C3694269CFF6F07CCC6A0CEB0353BC
:101D70002343CB628B6823F400738B6090F8303080
:101D80008C6844EA43238B608B6823F480638B6008
:101D90008B6843EA82228A6000214164026C01233D
:101DA00063F301020264002280F83C20BDE8104089
:101DB0000846704770B586B0044642F200102168AC
:101DC000C4F20100002681420596CDE90366029621
:101DD000019601D006B070BD43F630010096C4F202
:101DE00002014A6900F55F4042F400724A614A69A3
:101DF00002F400720092009A00960A6842F0010212
:101E00000A60096801F001010091009978210191AF
:101E10000321CDE9021601A900F080FB40F6A06580
:101E200046F24040C2F20005C4F202004FF00071D9
:101E30004FF4006385E8430005F114004FF480621D
:101E40004FF4005C4FF4807E80E808502846C5E9D6
:101E50000362C5E9086600F017FA002818BFFFF70B
:101E600053FEA563AC6306B070BD0000B0B582B090
:101E70000023019390F83C30012B03D1022002B0E3
:101E8000B0BD00BF8E460123016880F83C308B68EE
:101E90009446DB0729D18B684DF6836443F0010338
:101EA0008B6040F20813C2F200031B68C4F21B34BB
:101EB000A3FB0434A30C03EB43030193019BA3B1E5
:101EC000019B013B0193019B7BB1019B013B019372
:101ED000019B53B1019B013B0193019B2BB1019BE2
:101EE000013B0193019B002BEAD18B68DB0503D5F5
:101EF0008B6823F480738B608C68036CE4070BD1D0
:101F000043F01001016400F14401002001220B683C
:101F10001A430A6002B0B0BD40F20174A34303F556
:101F2000807303644B685B0504D5036C012464F380
:101F30000D330364046C0023E4044FF0000444BF39
:101F4000446C24F00604446480F83C30836B40F217
:101F50004D5440F2D152C0F60004C0F60002C3E96D
:101F60000F4240F2BD52C0F60002DA646FF0220266
:101F70000A604A6842F2043442F080624A608A6829
:101F8000054642F480728A604C31184672466346B8
:101F9000C4F2010400F02AFA22682968D20605D0AA
:101FA000A4F54172914225D002B0B0BD42F20002C8
:101FB000C4F20102914215D042F20022C4F20102A1
:101FC00091420CD042F20012C4F201029142EBD1D4
:101FD0002268D20606D0A4F582729142E4D122682A
:101FE000D206E1D451F8082F12F0405FDCD14FF057
:101FF00080428CE74FF60452CFF6FF72A25812F0DF
:10200000405FD1D108314FF0804280E770B5866DD6
:10201000044600F05FFB94F83510022928D10546EC
:102020002068216C026822F016020260426922F0E8
:102030008002426109B9A16C19B1016821F008015F
:102040000160016821F00101016000BF20680068A3
:10205000C00715D000F03EFB401B0628F6D3202019
:102060006065032084F83500002184F8341070BDC9
:10207000802060650120002184F8341070BD00BF0D
:10208000E06D3F2101FA00F0B060012084F83500D6
:102090000020002184F8341070BD000090F8351045
:1020A000022909D1052180F835100068016821F066
:1020B00001010160002070478021416501207047C7
:1020C000406D7047F0B581B00021009140F20811D9
:1020D000C2F200010B68D0E9166148F2B515376805
:1020E0000822C1F64E358A403A42A3FB05350CD092
:1020F00003681C68640708D51C6824F004041C608D
:10210000B260426D42F00102426501228A403A42C9
:1021100008D003685B691B0604D5B260426D42F0CB
:102120000202426504228A403A4208D003681B68D2
:102130009B0704D5B260426D42F004024265102252
:102140008A403A4219D001680B681B0715D5B26066
:102150000B680A685B0309D4D20509D40A6822F027
:1021600008020A60016C29B907E000BF110341D4DD
:10217000016C11B1044688472046C26D202101FA46
:1021800002F33B4243D001680F68FF063FD5B360BE
:1021900090F835700B68052F1CD123F016030B60E7
:1021A0004B6923F080034B61036C0BB9836C1BB14B
:1021B0000B6823F008030B603F219140B1600121BF
:1021C00080F83510016D0022002980F8342054D1A8
:1021D00058E000BF0A685B0310D4D20512D40A6825
:1021E00022F010020A60012180F83510002180F8E9
:1021F000341007E0816C0029BCD1BEE7110301D483
:10220000416C00E0C16B11B1044688472046416D26
:10221000C1B3416DC9072ED0052180F83510016882
:10222000AA0A0B6823F001030B60009B0133934261
:1022300000931AD80B68DB0717D0009B0133934239
:10224000009312D80B68DB070FD0009B0133934239
:1022500000930AD80B68DB0707D0009B0133934239
:10226000009302D80B68DB07DFD1012180F835101D
:10227000002180F83410C16C21B101B0BDE8F040FC
:10228000084700BF01B0F0BD2DE9F041044600F061
:1022900021FAECB10546022084F8350000202168BF
:1022A00084F83400086820F001000860216808689C
:1022B000C00711D000F00EFA401B0528F6D90325FF
:1022C00020230320636584F83550BDE8F08100BF0A
:1022D0000120BDE8F08100BF086848F23F02CFF25C
:1022E0001002D4E9013500EA020C04F10C0898E868
:1022F000C10143EA0C032B431843D4E9072E3043B2
:1023000038431043626A40EA0E00042A40EA080398
:102310001CD1206BD4E90A2E40EA0E001843086055
:102320004869BEF1000F20F0030040EA020040F0CF
:10233000040C11D0B8F5005F36D0B8F1000F45D1CC
:10234000022A46D0012A3BD032B942E00B604869EC
:1023500020F0070040EA020C01F0F8004AF6AB2238
:102360001038CAF6AA22A0FB02231A0949F2280350
:10237000C1F814C0C0F600039A5C40F2FF335F2836
:102380004FF03F0021EA030100FA02F088BF043158
:10239000C4E916128860002301250020636584F8D3
:1023A0003550BDE8F08100BF032AD5D80125402370
:1023B0000120DFE802F0030E030500BF82E700BF43
:1023C000AEF1C070B0FA80F0400904E0032A04D3F3
:1023D000C2D1CEF300600028BED0012540230120E9
:1023E000636584F83550BDE8F081000090F834C092
:1023F000BCF1010F04BF0220704770B54FF0010C13
:1024000080F834C0D0F858E090F835C0BCF1010F26
:1024100038D14FF0020C80F835C04FF0000CC0F8F6
:1024200054C0D0F800C08468056CC06DDCF8006052
:10243000402C26F48026CCF80060CCF804300B4603
:1024400004BF13460A463F2101FA00F0CCF80830D9
:10245000CCF80C20CEF80800DCF8000040F01600A4
:10246000CCF800002DB1DCF8000040F00800CCF8FA
:102470000000DCF8000040F00100CCF80000002073
:1024800070BD00BF002180F83410022070BD000034
:10249000B0F5805F18BF704780B582B040F2781009
:1024A000C2F20000016848F219630131016041F293
:1024B0000401CEF2000109684268C1F661038A1A7C
:1024C000D208A2FB03235A088260416040F29410B4
:1024D000C2F2000000210068019101A905F012FC80
:1024E000019850B14EF60450CEF200004FF08051EA
:1024F0000160BFF34F8FBFF36F8F02B0BDE8804024
:102500007047000043F61441C4F201010A68024218
:1025100014BF08607047FFF7BBBF00002DE9F04F04
:1025200083B000F1200200F13E4741F600450092E1
:1025300007F1FF77C4F2020508224FEAB726A84246
:1025400008BF072200254FF000084FF00009072EB2
:1025500038BF4FEAB72201920AE000BF09F1010932
:1025600008F10208B9F1100F05F1040500F0A2808E
:102570000F68012202FA09FE17EA0E0AEED0D1F81E
:1025800004C003220CF003077E1E02FA08F4012E99
:102590006FEA040B12D88468CE6804EA0B0406FACA
:1025A00008F634438460446824EA0E06CCF3001431
:1025B00004FA09F42643466004E000BF032F01D16A
:1025C00003271EE0C6688C6806EA0B0604FA08F4C6
:1025D0002643022FC66014D16FF00302009E02EA68
:1025E000590756F807C005F01C040F220B69A240DA
:1025F0002CEA0202A3401A43F251D1F804C00CF0B5
:102600000307026807FA08F302EA0B021A431CF4F4
:10261000403F0260A2D0002243F644030292C4F27B
:1026200002031A6843F6004442F480421A601A68B2
:10263000C4F2010402F480420292029A29F00302D9
:102640004FF6084C2244CFF6FF7C52F80C3005F0D0
:102650000C070F26BE40B343019E06FA07F73B4323
:1026600042F80C30A2684B6842EA0A0743F60C4C69
:10267000DE0258BF22EA0A07A760C4F2010CDCF8A8
:1026800000209E0242EA0A0758BF22EA0A07CCF855
:10269000007062689E0342EA0A0758BF22EA0A07EE
:1026A00067602268DB0342EA0A0758BF22EA0A078A
:1026B000276053E703B0BDE8F08F000000690840D1
:1026C00018BF012070470000002A08BF090481617B
:1026D0007047000045F25840C2F2000000687047A1
:1026E00040F2000045F25841C2F20000C2F200017F
:1026F00000780A68104408607047000080B543F60F
:102700000040C4F20200016841F4007101600168F8
:1027100041F480610160016841F48071016003202F
:1027200000F0C0F80F2000F005F800F05BF8002082
:1027300080BD000070B586B0002543F640010195CC
:10274000C4F202010A68044642F001020A60096804
:1027500001A801F0010101910199694600F064F9B5
:10276000049E002E18BF012600F07EF94DF683610D
:10277000B040C4F21B31A0FB01014FF0FF3000EB71
:10278000914141F28810C2F200004FF0804240F2C5
:10279000E733C0E90021C0E902530561856100F01B
:1027A000FBFB08B106B070BD41F28810C2F2000018
:1027B00000F044FC0028F5D11C2000F035F80F2C67
:1027C0000CD81C202146002200F040F840F2040101
:1027D0000020C2F200010C6006B070BD012006B0FE
:1027E00070BD000082B0002043F640010190C4F2A9
:1027F00002014A6842F480424A604A6802F4804218
:102800000192019A00900868002240F08050086010
:1028100008680F2100F08050009000986FF00100D0
:1028200002B000F013B80000002848BF704700F065
:102830001F01012202FA01F11C2202EAD0004EF22D
:102840000012CEF2000281507047000010B54EF623
:102850000C5CCEF2000CDCF80030C3F3022E8EF0DC
:102860000704042C28BF0424BEF103034FF0FF3EED
:102870000EFA04F438BF0023A14399400EFA03F383
:102880009A43114300F00F0200F160430901043A3A
:1028900003F564436244002848BF02F10C03197039
:1028A00010BD00004EF60C51CEF200010A684FF642
:1028B000FF031A4060F30A2242F0806040F0FD708E
:1028C00008607047002804BF012070472DE9F041DF
:1028D00043F60808C4F202080446D8F8F8030D4687
:1028E00000F00700814207D988F8F853D8F8F803B8
:1028F00000F00700A84277D12068810717D541076B
:1029000005D5D8F8001041F4E051C8F800100107CF
:1029100005D5D8F8001041F46041C8F80010D8F887
:102920000010A26821F0F0011143C8F80010C007A0
:1029300040D1D8F8F80300F00700854207D288F8A4
:10294000F853D8F8F80300F00700A8424CD12068EB
:10295000410707D5D8F80010E26821F4E05111438F
:10296000C8F80010000708D5D8F80000216920F445
:10297000604040EAC100C8F8000000F09DF8D8F8B7
:10298000001048F67E62C1F30311C0F60002515CEC
:1029900040F2081220FA01F140F20400C2F20000F5
:1029A0000068C2F200021160FFF7C4FE0020BDE81B
:1029B000F08100BF6068811E022907D258F8081C08
:1029C00089015CBF0120BDE8F08111E0012807D139
:1029D00058F8081C89035CBF0120BDE8F08107E0BE
:1029E00058F8081C890703D40120BDE8F08100BF16
:1029F000D8F8001021F003010843C8F80000FFF7E1
:102A000069FE064641F28837D8F80000616800F098
:102A10000C00B0EB810F8CD0FFF75CFE801BB8423E
:102A2000F2D90320BDE8F0810F22026043F60802CC
:102A3000C4F20202136803F003034360136803F057
:102A4000F0038360136803F4E053C360D2F800C05E
:102A50004FF4E05303EADC030361D2F8F80300F01B
:102A6000070008607047000040F2081043F60801B4
:102A7000C2F20000C4F202010068096848F68E62E2
:102A8000C1F38221C0F60002515CC84070470000CB
:102A900040F2081043F60801C2F20000C4F202013D
:102AA0000068096848F68E62C1F34231C0F6000240
:102AB000515CC8407047000010B543F60404C4F2EE
:102AC00002046168C1F3810142F20040C0F2F400E7
:102AD000DFE801F002040A0210BD00BF41F200204D
:102AE000C0F27A0010BD00BF216801F03F022168EA
:102AF00023684902C3F3881106D4A1FB0001002317
:102B0000FDF7C8FB07E000BF41F20020C0F27A00E9
:102B10004843B0FBF2F021680222C1F3014102EB0D
:102B20004101B0FBF1F010BD002804BF0120704747
:102B30002DE9F04182B00446007843F60006C00754
:102B4000C4F202060CD0B06800F00C00042840F07B
:102B500081803068800303D56068002800F06881B8
:102B6000207880071BD5B06810F00C0F09D0B06832
:102B700000F00C00082840F087807068400200F1E7
:102B800083803068800703D5E068012840F05081D9
:102B90003068216920F0F80040EAC10030602078F8
:102BA000000713D4207840072AD4A569002D00F02F
:102BB0003A81B06800F00C00082840F0A580012D93
:102BC00040F00E81012002B0BDE8F081606900286C
:102BD00000F082800020C4F247200121C0F8801E4E
:102BE000FFF778FD054600BF706F8007DAD4FFF766
:102BF00071FD401B0228F7D9032002B0BDE8F08127
:102C0000306C5FEAC0080AD400200190306C40F0BC
:102C100080503064306C00F080500190019847F291
:102C20000007C4F200073868C00547D4386840F48C
:102C300080703860FFF74EFD054600BF3868C0055C
:102C40003CD4FFF747FD401B0228F7D9032002B010
:102C5000BDE8F081B06800F00C00082803D170686E
:102C600040023FF576AF61683068B1F5803F07D02C
:102C7000B1F5A02F40F09A8040F480203060306899
:102C800040F4803030609AE0E068002840F20000B4
:102C9000C4F247205CD001210160FFF71BFD05460F
:102CA000306880073FF574AFFFF714FD401B022822
:102CB000F6D9032002B0BDE8F08100BFA168306FF3
:102CC000012905D0052955D140F004003067306F47
:102CD00040F00100306756E00020C4F24720002198
:102CE000C0F8801EFFF7F6FC054600BF706F800736
:102CF0007FF558AFFFF7EEFC401B0228F6D9032002
:102D000002B0BDE8F08100BF0027C4F247270020D1
:102D10003866FFF7DFFC022D05460DD130688001D3
:102D200040F18A80FFF7D6FC401B02284FF00300D9
:102D3000F4D902B0BDE8F0813068800173D5FFF7A7
:102D4000C9FC401B02284FF00300F5D9F1E700BF92
:102D500000210160FFF7BEFC054600BF3068800718
:102D60007FF51DAFFFF7B6FC401B02284FF00300B4
:102D7000F4D9DEE720F001003067306F002920F041
:102D8000040030677AD0FFF7A5FC054641F288378A
:102D9000306F800700F18480FFF79CFC401BB84235
:102DA000F6D9032002B0BDE8F08100BF20F48030E6
:102DB00030603068002920F4802030607AD0FFF73E
:102DC00089FC0546306880033FF5CAAEFFF782FCF8
:102DD000401B6428F6D9032002B0BDE8F08100BF93
:102DE0007068E16900F480028A4221D1216A00F012
:102DF0003F028A421CD147F6C071626A0140B1EBC2
:102E0000821F15D1A16A4FF6FF73C903994300F4DD
:102E10004032A1F580318A420AD1E16A00F0706047
:102E2000B0EB016F04D1002002B0BDE8F08100BF1B
:102E3000012002B0BDE8F08104F11C052FCD08434C
:102E400040EA8210D9034FF6FF729143A1F5803119
:102E500040EA05600843706001203866FFF73AFCDD
:102E6000044600BF30688001DDD4FFF733FC001B4F
:102E700002284FF00300F5D95BE700BFFFF72AFCFB
:102E8000054641F2883700BF306F800708D5FFF74D
:102E900021FC401BB8424FF00300F5D949E700BFC1
:102EA000B8F1000F3FF581AE306C20F080503064F7
:102EB0007BE600BFFFF70EFC054600BF30688003CD
:102EC0007FF54EAEFFF706FC401B64284FF0030071
:102ED000F4D92EE7704700007047000090F83C20BE
:102EE000012A4FF0020254D010B580F83D2002684C
:102EF000D2F804E0D2F808C00C682EF07003234327
:102F000041F2FF74C4F20004A24253600EDC40F2AE
:102F1000FF73C4F200039A4216DCB2F1804F2BD04B
:102F200040F20043C4F2000324E000BF40F2FF334C
:102F3000C4F201039A4213DC41F60003C4F2000319
:102F40009A4219D0002313E040F60003C4F20003B4
:102F50009A4211D040F60043C4F200030AE000BFD9
:102F600044F20003C4F201039A4205D040F2004348
:102F7000C4F201039A4204D149682CF0800319433A
:102F800091600121002280F83D1080F83C20BDE8CE
:102F90001040104670470000002804BF0120704711
:102FA00010B5044690F83D0028B9002084F83C0094
:102FB000204600F01FF8022084F83D002068211D03
:102FC00003F056F9012084F8460084F83E0084F8A6
:102FD0003F0084F8400084F8410084F8420084F8FF
:102FE000430084F8440084F8450084F83D00002044
:102FF00010BD000000680021C4F20101884218BF22
:10300000704780B582B00020019043F64400C4F2BE
:1030100002000168002241F0010101600068052101
:1030200000F00100019001981920FFF70FFC192012
:1030300002B0BDE88040FFF7F7BB000090F83D10FC
:1030400001291CBF01207047022180F83D10006853
:1030500041F2FF72C168C4F20002904241F00101E6
:10306000C1600DDC40F2FF71C4F20001884215DC42
:10307000B0F1804F2AD040F20041C4F2000123E0B9
:1030800040F2FF31C4F20101884213DC41F6000135
:10309000C4F20001884219D0002113E040F600017B
:1030A000C4F20001884211D040F60041C4F2000190
:1030B0000AE000BF44F20001C4F20101884205D0D9
:1030C00040F20041C4F20101884206D1816801F05A
:1030D0000701062904BF00207047016841F0010183
:1030E000016000207047000090F83C20012A4FF05A
:1030F00002026CD080B580F83D20D0F800C04FF6B9
:103100007772DCF8083023EA0202CCF808200B685A
:103110004F2B29DC1F2B45DD202B46D0302B44D0F4
:10312000402B40F0AF80D1F804E0C968DCF82030D3
:10313000DCF8202022F00102CCF82020DCF8182056
:1031400022F0F00242EA011123F00A0242EA0E02E2
:10315000CCF81810CCF82020DCF8081041F047011A
:1031600021F0300128E000BF6F2B33DDB3F5005FA5
:1031700074D0B3F5805F21D0702B40F08380D1E90B
:1031800001E3C968DCF8082043EA0E0322F47F4219
:1031900043EA01211143CCF80810DCF8081041F093
:1031A000770109E00BB1102B6CD1DCF8081021F08D
:1031B0007001194341F00701CCF8081000220121E9
:1031C00080F83D10002180F83C10BDE8804010469A
:1031D000704700BF502B21D0602B53D1D1F804E0B1
:1031E000C968DCF82030DCF8202022F01002CCF88E
:1031F0002020DCF8182022F4704242EA013123F04A
:10320000A00242EA0E12CCF81810CCF82020DCF80C
:10321000081041F0670121F01001CDE7D1F804E07A
:10322000C968DCF82030DCF8202022F00102CCF85C
:103230002020DCF8182022F0F00242EA011123F0ED
:103240000A0242EA0E02CCF81810CCF82020DCF872
:10325000081041F0570121F02001ADE7D1E901E369
:10326000C968DCF8082043EA0E0322F47F4243EAEF
:1032700001211143CCF80810DCF8081041F480411A
:103280009AE700BF01229AE77047000070B5044634
:103290000068C5680669B10716D515F0020113D09C
:1032A0006FF002010161012121778069800703D05D
:1032B0002046FFF7E9FF05E0204600F08FF82046A2
:1032C00000F0E6F900202077700719D515F004000A
:1032D00016D020686FF00401016102212177806916
:1032E00010F4407F04D02046FFF7CEFF06E000BF79
:1032F000204600F073F8204600F0CAF9002020773D
:10330000300717D515F0080014D020686FF00801B9
:10331000016104212177C069800703D02046FFF7AF
:10332000B3FF05E0204600F059F8204600F0B0F960
:1033300000202077F00619D515F0100016D020686F
:103340006FF01001016108212177C06910F4407FFE
:1033500004D02046FFF798FF06E000BF204600F0AB
:103360003DF8204600F094F900202077F00718BFC0
:1033700015F0010002D1300609D412E020686FF088
:1033800001010161204600F00DFA300609D515F063
:10339000800006D020686FF0800101612046FFF7B1
:1033A00099FD700609D515F0400006D020686FF031
:1033B00040010161204600F011FAB00658BF70BD0F
:1033C00015F0200008D021686FF0200220460A6125
:1033D000BDE87040FFF780BD70BD00007047000081
:1033E00090F83C30012B04BF022070474FEAB20234
:1033F000032A00F2FF802DE9F043DFE802F003B179
:103400003F7F00BF036840F200461C6A1A6A24F03E
:10341000020422F001021A621A46D3F804C052F8DC
:1034200018EF8F6843F48065C4F20106B54244EAA0
:10343000070405D1CF6824F00C0427F004073C43AF
:103440000F68B54206D1D1E905582CF440762E43D9
:1034500046EA080C2EF073063743C3F804C09F6198
:103460004F6809695F631C629F6947F008079F61A5
:103470009F6927F004079F61B1E000BF036840F235
:1034800000481C6A1A6A24F4007422F480721A62DA
:103490001A46D3F804C052F81CEF8F6843F48065D5
:1034A000C4F20108454544EA072408D1CF6840F238
:1034B000FF463F0224F4406427EA06063443D1F86D
:1034C0000090454506D1D1E905562CF440572E43CE
:1034D00047EA061C2EF0730747EA0907C3F804C041
:1034E000DF614F680969DF631C62DF6947F0080725
:1034F000DF61DF6927F00407DF6170E0036840F2F5
:103500000045D3F820C01A6A43F4806722F4805241
:103510001A621A465C6852F81C8FD1F800E08E6877
:10352000C4F20105AF4204D14D6924F4804444EA59
:1035300085142CF4005747EA063728F4E64646EA95
:103540000E265C60DE614E6809691E641F62DF69D9
:1035500047F40067DF61DF6927F48067DF613DE0E2
:10356000036840F200481C6A1A6A24F0200422F022
:1035700010021A621A46D3F804C052F818EF8F6886
:1035800043F48065C4F20108454544EA071407D1B5
:10359000CF686FF0400624F0C00406EA07163443F3
:1035A000D1F80090454506D1D1E905562CF4406785
:1035B0002E4347EA860C2EF4E64747EA0927C3F86C
:1035C00004C09F614F6809699F631C629F6947F44B
:1035D00000679F619F6927F480679F6109021368F4
:1035E000194311600021BDE8F043002280F83C201F
:1035F000084670470121002280F83C2008467047A9
:10360000002804BF0120704710B5044690F83D0023
:1036100028B9002084F83C00204600F01FF8022062
:1036200084F83D002068211D02F022FE012084F86C
:10363000460084F83E0084F83F0084F8400084F897
:10364000410084F8420084F8430084F8440084F880
:10365000450084F83D00002010BD0000006840F2E5
:103660000041C4F20001884218BF704781B00020B9
:10367000009043F64000C4F20200016841F00201EC
:103680000160006800F002000090009801B07047EF
:1036900070470000C1B1042908D0082914BF412295
:1036A0004022825C012A05D016E000BF3F22825CE6
:1036B000012A11D10222082910D0042914BF80F850
:1036C000412080F83F200BE090F83E20012A03D1F2
:1036D000022280F83E2003E00120704780F840205D
:1036E000006801F01F010122036A02FA01F123EAD6
:1036F00001020262026A114341F2FF72C4F2000247
:10370000904201620CDC40F2FF71C4F20001884279
:1037100014DCB0F1804F37D040F2004116E000BF1A
:1037200040F2FF31C4F20101884215DC41F600018C
:10373000C4F20001884227D0002115E040F60001C4
:10374000C4F2000188421FD040F60041C4F20001DB
:10375000884219D01FE000BF44F20001C4F2010109
:10376000884211D040F20041C4F20101884212D1D6
:10377000416C40F2004340F48062C4F2010341F422
:1037800000419A42416406D1816801F0070106298F
:1037900004BF00207047016841F001010160002072
:1037A0007047000000680021C4F20101884205D082
:1037B000B0F1804F18BF7047FEF792BF41F650003E
:1037C000C2F200000178013101700178642903D34D
:1037D00000210170FDF708B8704700007047000035
:1037E00070B582B090F84250202D0BD113460A4696
:1037F0000146002A4FF0010018BF002B06D102B08D
:1038000070BD00BF022002B070BD00BF086300267B
:1038100022204E638A628B854E6481F842000C68D8
:103820000D46C86B46F2F57C46F65511C0F6000C05
:10383000C0F60001C0E90FC146F27961C0F600018F
:10384000C0E91316211DFEF7D1FDE8B3102068640E
:103850002020294685F8420001200A6B012A40F009
:10386000B380002200920A681368009352680092A5
:10387000009A00BF0A6852E8032F0B6842F010025A
:1038800043E80326002EBAD00A6852E8032F0B68DB
:1038900042F0100243E80326002EB0D00A6852E836
:1038A000032F0B6842F0100243E80326002EA6D037
:1038B0000A6852E8032F0B6842F0100243E803261F
:1038C000002ED7D19BE700BF0196286829460268E1
:1038D0000192406801900198286928B3086850E86F
:1038E000030F0A6840F4807042E80303E3B10868FC
:1038F00050E8030F0A6840F4807042E803039BB16C
:10390000086850E8030F0A6840F4807042E8030337
:1039100053B1086850E8030F0A6840F4807042E829
:103920000303002BDAD100BF086850E8050F0A68CE
:1039300040F0010042E80503BBB3086850E8050FFA
:103940000A6840F0010042E8050373B3086850E8D4
:10395000050F0A6840F0010042E805032BB3086830
:1039600050E8050F0A6840F0010042E80503002B0B
:10397000DAD11AE0086850E8050F0A6840F0400004
:1039800042E80503DBB1086850E8050F0A6840F01B
:10399000400042E8050393B1086850E8050F0A6843
:1039A00040F0400042E805034BB1086850E8050FBD
:1039B0000A6840F0400042E80503002BDAD10020FD
:1039C0000A6B012A3FF44DAF012002B070BD000028
:1039D000B0B50C460546FDF7D5FA28462146BDE8A8
:1039E000B04001F0E3BE000010B50446206850E886
:1039F000030F216820F0C00041E80302DAB120681B
:103A000050E8030F216820F0C00041E8030292B1A2
:103A1000206850E8030F216820F0C00041E803024D
:103A20004AB1206850E8030F216820F0C00041E847
:103A30000302002ADAD120684069000636D500BFAB
:103A4000206850E8050F216820F0800041E8050259
:103A5000DAB1206850E8050F216820F0800041E8C5
:103A6000050292B1206850E8050F216820F080001F
:103A700041E805024AB1206850E8050F216820F0AE
:103A8000800041E80502002ADAD1A06B70B1002164
:103A90000165FEF7BBFA48B1A06BFEF711FB2028C9
:103AA00004D110206064032010BD00BF002020213D
:103AB000E08484F8411010BD10B50446FDF722FAE9
:103AC0002046BDE8104001F05BBE0000B0B582B0FA
:103AD00001680A68CC684B6902F02F05202D04F0BC
:103AE000200505D125B102B0BDE8B04002F09ABF73
:103AF0005FEA027C1EBF03F0010E04F4907313EB27
:103B00000E0341D1036BD50618D5012B16D114F045
:103B1000100313D0002201920A6801924A680192B0
:103B2000019A496949064BD4818DC28DC38D002B02
:103B300018BF914240F0068202B0B0BD13062DD5E9
:103B400014F080032AD090F84120212AF4D1826811
:103B5000B2F5805F03D10269002A00F07982026A1F
:103B6000531C036212784A60C28C013A1304C28467
:103B7000E2D1C86820F08000C860C86840F040000A
:103B8000C86002B0B0BD00BFD30718BF14F4807383
:103B900040F0E280530700F1E580EAE05206CBD521
:103BA00014F04002C8D0CA6822F04002CA60202146
:103BB00080F8411002B0BDE8B04000F04DBC00BF3D
:103BC000C26B11684B68858D99B2002900F0B480F2
:103BD000A94280F0B180C385D169B1F5807F00F042
:103BE000A080016851E8031F026821F4807142E857
:103BF0000313DBB1016851E8031F026821F48071EF
:103C000042E8031393B1016851E8031F026821F4ED
:103C1000807142E803134BB1016851E8031F026849
:103C200021F4807142E80313002BDAD1016851E8D6
:103C3000051F026821F0010142E80513BBB30168CA
:103C400051E8051F026821F0010142E8051373B332
:103C5000016851E8051F026821F0010142E80513DF
:103C60002BB3016851E8051F026821F0010142E809
:103C70000513002BDAD11AE0016851E8051F02682C
:103C800021F0400142E80513DBB1016851E8051F4E
:103C9000026821F0400142E8051393B1016851E840
:103CA000051F026821F0400142E805134BB101688D
:103CB00051E8051F026821F0400142E80513002B7E
:103CC000DAD1202180F8421000210163016851E817
:103CD000031F026821F0100142E80313DBB1016801
:103CE00051E8031F026821F0100142E8031393B169
:103CF000016851E8031F026821F0100142E8031334
:103D00004BB1016851E8031F026821F0100142E83D
:103D10000313002BDAD1C16B04460846FEF776F98F
:103D2000204602214163818DC28D891A89B202B079
:103D3000BDE8B040FFF74CBE8D427FF4FDAED269C6
:103D4000B2F5807F7FF4F8AE0222426302B0BDE894
:103D5000B040FFF73DBE00BF436C43F00103436436
:103D6000530706D5BEF1000F03D0436C43F00203A6
:103D70004364930706D5BEF1000F03D0436C43F0B4
:103D800004034364BCF1000F06D55EEA050303D0CB
:103D9000436C43F008034364436C002B3FF4CCAE08
:103DA000920605D525B1044602F03CFE2168204666
:103DB0004969426C01F0400102F00802891800F0E4
:103DC000B98000BF016851E8031F026821F49071B7
:103DD00042E80313BBB3016851E8031F026821F4F2
:103DE000907142E8031373B3016851E8031F02683E
:103DF00021F4907142E803132BB3016851E8031FCB
:103E0000026821F4907142E80313002BDAD11AE022
:103E1000016851E8051F026821F0010142E805131D
:103E2000DBB1016851E8051F026821F0010142E899
:103E3000051393B1016851E8051F026821F00101E3
:103E400042E805134BB1016851E8051F026821F0F3
:103E5000010142E80513002BDAD1016B012924D1BD
:103E6000016851E8031F026821F0100142E80313C2
:103E7000DBB1016851E8031F026821F0100142E83C
:103E8000031393B1016851E8031F026821F0100188
:103E900042E803134BB1016851E8031F026821F0A7
:103EA000100142E80313002BDAD1202180F84210E0
:103EB0000021016301684969490640F1C380016836
:103EC00051E8051F026821F0400142E80513DBB10B
:103ED000016851E8051F026821F0400142E805131E
:103EE00093B1016851E8051F026821F0400142E8E2
:103EF00005134BB1016851E8051F026821F040012C
:103F000042E80513002BDAD1C16B002900F09A803A
:103F100046F26D62C0F60002044608460A65FEF7E6
:103F2000BDF800283FF408AEE06B016D02B0BDE8BB
:103F3000B04008470446FFF7BFFD0020606402B0B0
:103F4000B0BD00BF891A00BF026852E8032F0368A2
:103F500022F4907243E80325BDB3026852E8032FB0
:103F6000036822F4907243E8032575B3026852E8AF
:103F7000032F036822F4907243E803252DB30268EF
:103F800052E8032F036822F4907243E80325002DC2
:103F9000DAD11AE0026852E8052F036822F0010224
:103FA00043E80525DDB1026852E8052F036822F0D9
:103FB000010243E8052595B1026852E8052F036820
:103FC00022F0010243E805254DB1026852E8052FB1
:103FD000036822F0010243E80525002DDAD12022F2
:103FE00080F8422000220263026852E8032F03682F
:103FF00022F0100243E80325DDB1026852E8032FE6
:10400000036822F0100243E8032595B1026852E8E4
:10401000032F036822F0100243E803254DB1026824
:1040200052E8032F036822F0100243E80325002D15
:10403000DAD1022289B2426302B0BDE8B040FFF794
:10404000C7BC00BF02B0BDE8B040FFF735BD00BF40
:10405000026A32F8023B6FF35F234B60026283E532
:10406000002804BF0120704710B5044690F84100B5
:1040700028B9002084F84000204600F021F82420D0
:1040800084F841002068C16821F40051C1602046D5
:1040900002F048FD2068016921F490410161416905
:1040A00021F02A014161C16841F40051C160002042
:1040B0002021606484F8411084F84210606310BDD0
:1040C0002DE9F04387B00446006841F20041C4F294
:1040D000010100268842CDE90566CDE90366029616
:1040E00000F0D88044F60001C4F2000188426DD08F
:1040F00044F20041C4F20001884240F03B8143F6A3
:1041000030000196C4F20200016946F2280841F429
:10411000003101610169C4F2020801F4003101912A
:1041200001990196016841F008010160006802A947
:1041300000F0080001900198602002900220CDE973
:104140000306032005900720069040F20040C4F2C9
:10415000020000F50060FEF7E1F940F6007508F195
:104160006000C2F200054FF000674FF48069C5E9B6
:1041700000072846C5E90266C5E90496C5E9066652
:10418000C5E90866FEF780F8002818BFFDF7BCFCFB
:10419000E563AC6340F6607508F17800C2F2000593
:1041A0004021C5E9000705F1080080E842022846E1
:1041B000C5E90566C5E907666E62FEF765F8002881
:1041C0004FF0260640F0CA80CAE000BF43F6300038
:1041D0000196C4F20200016946F2280841F48021E8
:1041E00001610169C4F2020801F480210191019981
:1041F0000196016841F002010160006802A900F027
:104200000200019001984FF4406002900220CDE935
:104210000306032005900720069040F20040C4F2F8
:104220000200FEF77BF940F6C075C2F200054FF0C0
:1042300000674FF480692846C5E90087C5E9026632
:10424000C5E90496C5E90666C5E90866FEF71CF8E7
:10425000002818BFFDF758FCE563AC6341F2200568
:1042600008F13000C2F200054021C5E9000705F160
:10427000080080E842022846C5E90566C5E90766E8
:104280006E62FEF701F800284FF0270618BFFDF711
:104290003BFC65E043F630000196C4F20200416940
:1042A00046F2280841F0200141614169C4F2020848
:1042B00001F02001019101990196016841F004018A
:1042C0000160006802A900F0040001900198C0207C
:1042D00002900220CDE903060320059008200690F5
:1042E00040F20040C4F2020000F58060FEF716F9CB
:1042F00041F2800508F58060C2F200054FF02067AA
:104300004FF48069C5E900072846C5E90266C5E99A
:104310000496C5E90666C5E90866FDF7B5FF0028FD
:1043200018BFFDF7F1FBE563AC6341F2E00508F56A
:104330008F60C2F200054021C5E9000705F10800C1
:10434000002280E806022846C5E90522C5E90722C1
:104350006A62FDF799FF4FF0470608B1FDF7D4FBFD
:10436000304605210022A563AC63FEF76FFA3046A4
:10437000FEF75AFA07B0BDE8F0830000704700006E
:1043800070470000B0B590F84140202C1CBF0220BF
:10439000B0BD1346024600294FF0010018BF002BA4
:1043A00000D1B0BD4FF0000C212011629384D38462
:1043B000C2F844C082F8410014681546906B46F676
:1043C0006D1E46F61D22C0F6000EC0F60002C0E9C2
:1043D0000FE246F27962C0F60002C0E9132C221DFA
:1043E000FEF704F830B110206864202085F8410001
:1043F0000120B0BD286829466FF04002026000BF6E
:10440000086850E8050F0A6840F0800042E805039C
:1044100003B3086850E8050F0A6840F0800042E8DE
:104420000503BBB1086850E8050F0A6840F080003A
:1044300042E8050373B1086850E8050F0A6840F0C8
:10444000800042E80503002B4FF0000008BFB0BD1C
:10445000D6E700BF0020B0BD01F082BA704700006F
:1044600040F20C1CC2F2000C9CF80030022B08BF7A
:1044700000F008B89CF80030032B18BF704700F01C
:1044800001B80000B0B540F60805C2F20005B5F865
:104490000CC5B5F80AE5ACEB0E0303F5007303EBAE
:1044A000D35404F47E441B1B4FF6FE742340A3F543
:1044B000FD73062B3CBF0020B0BDB5F80C3503F1F1
:1044C000010CB5F80A356FF35F2C9C4506D1B5F8A1
:1044D0000E350133A5F80E3508E000BFB5F80C35F0
:1044E00055242B4483F80A43A5F80CC5B5F80C35C0
:1044F00003F1010CB5F80A356FF35F2C9C4505D12B
:10450000B5F80E350133A5F80E3507E0B5F80C35D2
:10451000EE242B4483F80A43A5F80CC5B5F80C35F6
:1045200003F1010CB5F80A356FF35F2C9C4505D1FA
:10453000B5F80E050130A5F80E0506E0B5F80C3506
:104540002B4483F80A03A5F80CC5B5F80C05B5F89B
:104550000A3501306FF35F20984205D1B5F80E059A
:104560000130A5F80E0506E0B5F80C352B4483F8AC
:104570000A13A5F80C05B5F80C05B5F80A150130B5
:104580006FF35F20884205D1B5F80E050130A5F81C
:104590000E0506E0B5F80C15294481F80A23A5F8A4
:1045A0000C05B5F80C05B5F80A1501306FF35F205E
:1045B000884209D1B5F80E050130A5F80E0595F829
:1045C000100568B10120B0BDB5F80C150E222944C4
:1045D00081F80A23A5F80C0595F810050028F1D1FB
:1045E00072B695F8100518B162B60120B0BD00BFD3
:1045F000012085F81005B5F80C15B5F80A2540F22C
:10460000FF13891A01F50071CA1701EBD2529A43C0
:10461000891A5DD08AB2802A28BF8022012A88BFE9
:104620001046042900F0030C58D20020BCF1000F02
:1046300046D0B5F80A15B5F80C3599420ED0B5F844
:104640000A152B18294491F80A1383F88410B5F839
:104650000A1501316FF35F21A5F80A15BCF1010FAE
:104660002ED0B5F80A15B5F80C3599420FD0B5F82B
:104670000A15431C294491F80A132B4483F884102B
:10468000B5F80A1501316FF35F21A5F80A15BCF1E1
:10469000020F15D0B5F80A15B5F80C3599420FD0B0
:1046A000B5F80A150230294491F80A13284480F815
:1046B0008410B5F80A0501306FF35F20A5F80A05EC
:1046C00055F8840B2946FFF75DFE62B60120B0BDA8
:1046D000002085F8100562B60120B0BD00F0FC0195
:1046E000002002E004308142A0D0B5F80A35B5F8C8
:1046F0000C45A34212D1B5F80A35B5F80C45A342D2
:1047000021D1B5F80A35B5F80C45A34230D1B5F83A
:104710000A35B5F80C45A342E4D03EE0B5F80A35B9
:104720002C182B4493F80A3384F88430B5F80A35F2
:1047300001336FF35F23A5F80A35B5F80A35B5F8EC
:104740000C45A342DDD0B5F80A352C182B4493F85C
:104750000A3384F88530B5F80A3501336FF35F23E7
:10476000A5F80A35B5F80A35B5F80C45A342CED000
:10477000B5F80A352C182B4493F80A3384F88630A0
:10478000B5F80A3501336FF35F23A5F80A35B5F89C
:104790000A35B5F80C45A342A4D0B5F80A352C1853
:1047A0002B4493F80A3384F88730B5F80A3501337F
:1047B0006FF35F23A5F80A3594E70000F0B581B0E8
:1047C00040F60807C2F2000772B687F82B050120F1
:1047D00087F82C1587F82D2587F82A0540F20C104C
:1047E00062B6C2F200000178022902D000780328E4
:1047F00024D172B697F82A0510B397F82B6597F86D
:104800002C5597F82D4562B6304629462246FFF7CB
:1048100039FE98B172B697F82A0570B197F82B0552
:10482000B0420AD197F82C05A84206D197F82D0579
:10483000A04204BF002087F82A0562B601B0F0BD8F
:1048400062B601B0F0BD00002DE9F04F81B040F636
:104850000804DDF840A0DDE90ECBDDE90CE6DDE97A
:104860000A75C2F2000472B60090A4F8180501207F
:10487000A4F81A15A4F81C2584F81E3584F81F75B1
:1048800084F8205584F821E584F8226584F823C54E
:1048900084F824B584F825A584F8290540F20C1085
:1048A00062B6C2F200000078022840F09581984676
:1048B00091460F46FDF70EFF40F2B821C2F200010B
:1048C0000A683B46CE46C446DDF828800C9FDDF8DA
:1048D0003890821A322AC0F07F810860B4F80C0543
:1048E000B4F80A1501306FF35F20884206D1B4F89E
:1048F0000E050130A4F80E0508E000BFB4F80C1551
:104900005522214481F80A23A4F80C05B4F80C05BB
:10491000B4F80A1501306FF35F20884206D1B4F86D
:104920000E050130A4F80E0508E000BFB4F80C1520
:10493000CC22214481F80A23A4F80C05B4F80C0514
:10494000B4F80A1501306FF35F20884206D1B4F83D
:104950000E050130A4F80E0508E000BFB4F80C15F0
:10496000009A214481F80A23A4F80C05B4F80C0538
:10497000B4F80A1501306FF35F20884206D1B4F80D
:104980000E050130A4F80E0509E000BFB4F80C15BF
:10499000009A2144120A81F80A23A4F80C05B4F8FD
:1049A0000C05B4F80A1501306FF35F20884205D179
:1049B000B4F80E050130A4F80E0506E0B4F80C15A5
:1049C000214481F80A33A4F80C05B4F80C05B4F8B6
:1049D0000A1501306FF35F20884205D1B4F80E0547
:1049E0000130A4F80E0507E0B4F80C151A0A2144AA
:1049F00081F80A23A4F80C05B4F80C05B4F80A15DC
:104A000001306FF35F20884206D1B4F80E05013003
:104A1000A4F80E0507E000BFB4F80C15214481F896
:104A20000AE3A4F80C05B4F80C05B4F80A15013033
:104A30006FF35F20884205D1B4F80E050130A4F869
:104A40000E0508E0B4F80C154FEA1E22214481F847
:104A50000A23A4F80C05B4F80C05B4F80A150130C3
:104A60006FF35F20884205D1B4F80E050130A4F839
:104A70000E0506E0B4F80C15214481F80AC3A4F829
:104A80000C05B4F80C05B4F80A1501306FF35F207B
:104A9000884205D1B4F80E050130A4F80E0506E0F1
:104AA000B4F80C15214481F80A83A4F80C05B4F875
:104AB0000C05B4F80A1501306FF35F20884205D168
:104AC000B4F80E050130A4F80E0506E0B4F80C1594
:104AD000214481F80A53A4F80C05B4F80C05B4F885
:104AE0000A1501306FF35F20884205D1B4F80E0536
:104AF0000130A4F80E0506E0B4F80C15214481F845
:104B00000A73A4F80C05B4F80C05B4F80A150130C2
:104B10006FF35F20884205D1B4F80E050130A4F888
:104B20000E0506E0B4F80C15214481F80A63A4F8D8
:104B30000C05B4F80C05B4F80A1501306FF35F20CA
:104B4000884205D1B4F80E050130A4F80E0506E040
:104B5000B4F80C15214481F80A93A4F80C05B4F8B4
:104B60000C05B4F80A1501306FF35F20884205D1B7
:104B7000B4F80E050130A4F80E0506E0B4F80C15E3
:104B8000214481F80AB3A4F80C05B4F80C05B4F874
:104B90000A1501306FF35F20884205D1B4F80E0585
:104BA0000130A4F80E0506E0B4F80C15214481F894
:104BB0000AA3A4F80C05B4F80C05B4F80A150130E2
:104BC0006FF35F2088420BD1B4F80E050130A4F8D2
:104BD0000E0594F8100578B101B0BDE8F08F00BF64
:104BE000B4F80C150C22214481F80A23A4F80C0512
:104BF00094F810050028EFD172B694F8100518B19A
:104C000062B601B0BDE8F08F012084F81005B4F859
:104C10000C15B4F80A2540F2FF13891A01F500714A
:104C2000CA1701EBD2529A43891A5BD08AB2802A02
:104C300028BF8022012A88BF1046042900F0030102
:104C400058D20020002944D0B4F80A35B4F80C75C5
:104C5000BB420ED0B4F80A352718234493F80A3320
:104C600087F88430B4F80A3501336FF35F23A4F872
:104C70000A3501292DD0B4F80A35B4F80C75BB42B9
:104C80000FD0B4F80A35471C234493F80A3327445D
:104C900087F88430B4F80A3501336FF35F23A4F842
:104CA0000A35022915D0B4F80A15B4F80C35994222
:104CB0000FD0B4F80A150230214491F80A132044A9
:104CC00080F88410B4F80A0501306FF35F20A4F86F
:104CD0000A0554F8840B2146FFF754FB62B601B075
:104CE000BDE8F08F002084F8100562B601B0BDE881
:104CF000F08F00BF00F0FC03002002E0043083428C
:104D0000A0D0B4F80A75B4F80C65B74212D1B4F863
:104D10000A75B4F80C65B74221D1B4F80A75B4F835
:104D20000C65B74230D1B4F80A75B4F80C65B742D7
:104D3000E4D03EE0B4F80A752618274497F80A73C1
:104D400086F88470B4F80A7501376FF35F27A4F80A
:104D50000A75B4F80A75B4F80C65B742DDD0B4F83A
:104D60000A752618274497F80A7386F88570B4F8F0
:104D70000A7501376FF35F27A4F80A75B4F80A754E
:104D8000B4F80C65B742CED0B4F80A75261827449B
:104D900097F80A7386F88670B4F80A7501376FF3CE
:104DA0005F27A4F80A75B4F80A75B4F80C65B74221
:104DB000A4D0B4F80A752618274497F80A7386F821
:104DC0008770B4F80A7501376FF35F27A4F80A7586
:104DD00094E7000010B540F20C13C2F200031B78F8
:104DE0008C4603F00F01012940F0148140F60801C0
:104DF000C2F2000172B681F8120581F813C581F87C
:104E0000142562B6B1F80C35B1F80AE55C1C6FF3F5
:104E10005F24744506D1B1F80E350133A1F80E3583
:104E200009E000BFB1F80C3501EB030E55238EF8F5
:104E30000A33A1F80C45B1F80C35B1F80A45013335
:104E40006FF35F23A34205D1B1F80E350133A1F80A
:104E50000E3508E0B1F80C4501EB040EBB248EF8CA
:104E60000A43A1F80C35B1F80C35B1F80A45013305
:104E70006FF35F23A34205D1B1F80E050130A1F80D
:104E80000E0506E0B1F80C450C4484F80A03A1F8BD
:104E90000C35B1F80C05B1F80A3501306FF35F201D
:104EA000984205D1B1F80E050130A1F80E0506E0D3
:104EB000B1F80C350B4483F80AC3A1F80C05B1F81E
:104EC0000C05B1F80A3501306FF35F20984205D127
:104ED000B1F80E050130A1F80E0506E0B1F80C3569
:104EE0000B4483F80A23A1F80C05B1F80C05B1F8BE
:104EF0000A2501306FF35F20904205D1B1F80E050D
:104F00000130A1F80E0507E0B1F80C250B230A4487
:104F100082F80A33A1F80C0591F81005002818BF93
:104F200010BD72B691F8100510B162B610BD00BF89
:104F3000012081F81005B1F80C25B1F80A3540F2CE
:104F4000FF14D21A02F50072D31702EBD353A34316
:104F5000D31A5BD09AB2802A28BF8022012A88BF48
:104F60001046042B00F0030C56D20020BCF1000FB9
:104F700046D0B1F80A35B1F80C45A3420ED0B1F8CD
:104F80000A350C180B4493F80A3384F88430B1F8CE
:104F90000A3501336FF35F23A1F80A35BCF1010F25
:104FA0002ED0B1F80A35B1F80C45A3420FD0B1F8B4
:104FB0000A35441C0B4493F80A330C4484F88430BB
:104FC000B1F80A3501336FF35F23A1F80A35BCF15C
:104FD000020F15D0B1F80A35B1F80C45A3420FD035
:104FE000B1F80A3502300B4493F80A33084480F8CC
:104FF0008430B1F80A0501306FF35F20A1F80A058B
:1050000051F8840BFFF7BEF903E000BF002081F8E0
:10501000100562B610BD00BF00F0FC0E002002E0DB
:1050200004308645A2D0B1F80A45B1F80C359C424F
:1050300012D1B1F80A35B1F80C45A34221D1B1F82B
:105040000A35B1F80C45A34230D1B1F80A35B1F8B0
:105050000C45A342E4D03EE0B1F80A350C180B44ED
:1050600093F80A3384F88430B1F80A3501336FF3CA
:105070005F23A1F80A35B1F80A35B1F80C45A3420F
:10508000DDD0B1F80A350C180B4493F80A3384F8D4
:105090008530B1F80A3501336FF35F23A1F80A3583
:1050A000B1F80A35B1F80C45A342CED0B1F80A35B3
:1050B0000C180B4493F80A3384F88630B1F80A359B
:1050C00001336FF35F23A1F80A35B1F80A35B1F85F
:1050D0000C45A342A4D0B1F80A350C180B4493F840
:1050E0000A3384F88730B1F80A3501336FF35F2350
:1050F000A1F80A3594E7000080B540F60801C2F235
:105100000001022281F811250022086081F8102593
:10511000A1F82925A1F80823A1F80E250431802241
:10512000FEF75EFB002000210022FCF7B3F901200E
:1051300000210022FCF7AEF9022000210022FCF73A
:10514000A9F9032000210022FCF7A4F90420002182
:105150000022FCF79FF9052000210022FCF79AF9B4
:10516000062000210022FCF795F9072000210022EB
:10517000FCF790F9082000210022FCF78BF90920A8
:1051800000210022FCF786F90A2000210022FCF70A
:1051900081F90B2000210022BDE88040FCF77AB99C
:1051A0002DE9F04F8DB040F20C1AC2F2000A9AF8C5
:1051B000000040F608070228C2F2000703D09AF860
:1051C0000000032824D172B697F82A0530B397F867
:1051D0002B6597F82C5597F82D4562B63046294631
:1051E0002246FFF74FF998B172B697F82A0570B1C9
:1051F00097F82B05B0420AD197F82C05A84206D1A2
:1052000097F82D05A04204BF002087F82A0562B652
:1052100097F81005002840F0858005E062B697F801
:105220001005002840F07E80B7F80C05B7F80A1585
:10523000401AC00576D072B697F8100510B162B664
:1052400070E000BF012087F81005B7F80C15B7F81B
:105250000A2540F2FF13891A01F50071CA1701EB04
:10526000D2529A43891A59D08AB2802A28BF802202
:10527000012A88BF1046042900F0030180F00E8245
:105280000020002944D0B7F80A35B7F80C65B342BE
:105290000ED0B7F80A353E183B4493F80A3386F827
:1052A0008430B7F80A3501336FF35F23A7F80A3566
:1052B00001292DD0B7F80A35B7F80C65B3420FD0E5
:1052C000B7F80A35461C3B4493F80A333E4486F847
:1052D0008430B7F80A3501336FF35F23A7F80A3536
:1052E000022915D0B7F80A15B7F80C3599420FD036
:1052F000B7F80A150230394491F80A13384480F897
:105300008410B7F80A0501306FF35F20A7F80A058B
:10531000394651F8840BFFF735F802E0002087F892
:10532000100562B6B7F80603B7F8041340F2FF1889
:10533000401A00F5007000EBD05121EA0801401A34
:105340000228C0F0A7810DF1240915E0B7F8040385
:1053500001306FF35F20A7F80403B7F80603B7F82E
:105360000413401A00F5007000EBD05121EA080147
:10537000401A012840F28E81B7F80403391891F8D9
:1053800004115529E2D1461C6FF35F26B91991F833
:105390000411CB290CDCAA2916D0BB29D6D14FF099
:1053A000020C0622012400214FF00B0E1BE000BF6F
:1053B000CC2911D0DD29C9D14FF0040C06220124DB
:1053C00000214FF00D0E0EE00121042200244FF0C9
:1053D0000A0E4FF0010C06E04FF0030C11220021E1
:1053E0004FF00C0E0024B7F80653B7F80433EB1A4D
:1053F00003F5007303EBD35505F47E455B1B9BB2AD
:105400009A4200F2478107F582752B5CAE5D8DF8FC
:1054100024308DF82560831CC61C6FF35F236FF367
:105420005F26EB5CAE5D00F1040B00296FF35F2B90
:105430008DF826308DF827605CD1431D6FF35F2314
:1054400015F80B10EB5C00F1060B002C6FF35F2BD3
:105450008DF828108DF829304CD115F80B1000F17B
:1054600008038DF82A10C11D6FF35F216FF35F23CE
:10547000695CEB5C8DF82B108DF82C3000F1090184
:1054800000F10A036FF35F216FF35F23695CEB5C4C
:105490008DF82D108DF82E3000F10B0100F10C036A
:1054A0006FF35F216FF35F23695CEB5C8DF82F1066
:1054B0008DF8303000F10D0100F10E036FF35F2124
:1054C0006FF35F23695CEB5C8DF831108DF832303F
:1054D00000F10F0100F110036FF35F216FF35F2301
:1054E000695CEB5C00F1110B8DF833108DF83430F2
:1054F0006FF35F2B02EB090010F8010C864525D1F4
:10550000BCF1040F4CD0BCF1020F29D0BCF1010F4B
:1055100022D19AF800109DF82600022987F811057B
:105520008AF800009AF8000052D1022800F07E802C
:1055300072B6B7F80C05A7F80A0562B63868FEF728
:1055400053FA002087F8100570E000BFB7F8040395
:1055500000F1010B6FF35F2BA7F804B3FDE600BF6A
:105560009AF8000000F00F000128F5D19DF82710EF
:1055700040F2BC23C2F200039DF826009DF82820CB
:10558000197040F2BD23C2F2000387F8150587F8B1
:10559000161587F817251A70FBF7ACFFDCE700BF7C
:1055A0009AF80000032803D09AF800000228D3D10B
:1055B0009DF826009DF827109DF8282087F82605DD
:1055C00087F8271587F82825FBF764FFC4E700BF95
:1055D00002282BD197F8290540B3B7F9180597F899
:1055E0001F650890484697F8249597F8205597F836
:1055F00025A5B7F91A15B7F91C2597F81E3597F8A0
:105600002145CDF8149081460898CDE9006502AD9A
:10561000CDF818A040F20C1A97F822C597F823E5A8
:1056200085E81050C2F2000AFFF70EF99AF8000060
:10563000022803D09AF8000003288DD172B697F89B
:105640002A0518B34C4697F82B6597F82C5597F810
:105650002D9562B6304629464A46FEF713FFB8B18B
:1056600072B697F82A0570B197F82B05B0420AD1A7
:1056700097F82C05A84206D197F82D05484504BF98
:10568000002087F82A0562B6A14665E762B663E79F
:10569000A14661E70DB0BDE8F08F00BF00F0FC034C
:1056A000002003E0043083423FF4EBADB7F80A6515
:1056B000B7F80C55AE4213D1B7F80A65B7F80C55D8
:1056C000AE4222D1B7F80A65B7F80C55AE4231D1D7
:1056D000B7F80A65B7F80C55AE42E3D03FE000BF1B
:1056E000B7F80A653D183E4496F80A6385F8846069
:1056F000B7F80A6501366FF35F26A7F80A65B7F8B1
:105700000A65B7F80C55AE42DCD0B7F80A653D180B
:105710003E4496F80A6385F88560B7F80A65013655
:105720006FF35F26A7F80A65B7F80A65B7F80C5556
:10573000AE42CDD0B7F80A653D183E4496F80A63EC
:1057400085F88660B7F80A6501366FF35F26A7F81B
:105750000A65B7F80A65B7F80C55AE42A2D0B7F89B
:105760000A653D183E4496F80A6385F88760B7F8E5
:105770000A6501366FF35F26A7F80A6592E7000015
:1057800010B540F60804C2F200042168814218BF37
:1057900010BD002084F810050846FEF725F92068A2
:1057A000211D8022BDE81040FEF71AB870B540F602
:1057B0000803C2F20003D3F800E0864518BF70BDAD
:1057C000002900F0C680042901F0030C02D2002158
:1057D00069E000BF21F00300002107E0B3F80823CF
:1057E0000132A3F80823043188425CD05A18147996
:1057F000B3F80653B3F8046301356FF35F25B54280
:1058000006D1B3F808430134A3F8084307E000BF0A
:10581000B3F806631E4486F80441A3F8065354798E
:10582000B3F80653B3F8046301356FF35F25B5424F
:1058300006D1B3F808430134A3F8084307E000BFDA
:10584000B3F806631E4486F80441A3F8065394791E
:10585000B3F80653B3F8046301356FF35F25B5421F
:1058600006D1B3F808430134A3F8084307E000BFAA
:10587000B3F806631E4486F80441A3F80653D279B0
:10588000B3F80643B3F8045301346FF35F24AC421A
:10589000A4D0B3F806531D4485F80421A3F80643A9
:1058A00004318842A2D1BCF1000F52D058180179BE
:1058B000B3F80623B3F8044301326FF35F22A24228
:1058C00008D1B3F808130131A3F80813BCF1010F94
:1058D0000AD13EE0B3F806431C4484F80411A3F84F
:1058E0000623BCF1010F34D04179B3F80623B3F895
:1058F000044301326FF35F22A24209D1B3F80813C7
:105900000131A3F80813BCF1020F0BD121E000BF55
:10591000B3F806431C4484F80411A3F80623BCF131
:10592000020F16D08079B3F80613B3F804230131BF
:105930006FF35F21914205D1B3F808030130A3F85A
:10594000080306E0B3F806231A4482F80401A3F81A
:105950000613191D70468022BDE87040FDF740BF58
:1059600040F60803C2F20003D3F800C0604501D03E
:10597000704700BF002083F81005B3F80C05B3F89A
:105980000A1540F2FF12401A00F50070C11700EB33
:10599000D1519143401A08BF7047B0B582B2802AF6
:1059A00028BF8022012A114698BF0121042801F056
:1059B000030E55D20020BEF1000F46D0B3F80A15F1
:1059C000B3F80C45A1420ED0B3F80A151C181944BF
:1059D00091F80A1384F88410B3F80A1501316FF3B3
:1059E0005F21A3F80A15BEF1010F2ED0B3F80A15F6
:1059F000B3F80C45A1420FD0B3F80A15441C194462
:105A000091F80A131C4484F88410B3F80A15013184
:105A10006FF35F21A3F80A15BEF1020F15D0B3F89A
:105A20000A15B3F80C45A1420FD0B3F80A1502309D
:105A3000194491F80A13184480F88410B3F80A0541
:105A400001306FF35F20A3F80A05012403F18401FC
:105A5000604683F81045BDE8B040FEF793BC00BF38
:105A600001F0FC01002002E004308142A3D0B3F831
:105A70000A45B3F80C55AC4212D1B3F80A45B3F855
:105A80000C55AC4221D1B3F80A45B3F80C55AC42E1
:105A900030D1B3F80A45B3F80C55AC42E4D03EE03F
:105AA000B3F80A451D181C4494F80A4385F884404D
:105AB000B3F80A4501346FF35F24A3F80A45B3F83D
:105AC0000A45B3F80C55AC42DDD0B3F80A451D18B1
:105AD0001C4494F80A4385F88540B3F80A4501341C
