:020000040800F2
:10000000305B002055020008ED5F0008755A0008BB
:10001000E95F0008D9050008516B000800000000E6
:1000200000000000000000000000000081600008E7
:100030006D1C000800000000F15F0008AD600008C2
:100040006F0200086F0200086F0200086F020008CC
:100050006F0200086F0200086F0200086F020008BC
:100060006F0200086F0200086F0200086F020008AC
:10007000191C00086F020008251C00086F02000808
:10008000311C00083D1C00086F0200086F020008C8
:100090006F0200086F0200086F0200086F0200087C
:1000A0006F020008896100086F0200086F020008F3
:1000B000956100086F0200086F0200086F020008D7
:1000C0006F0200086F0200086F0200086F0200084C
:1000D0006F0200086F0200082D6B0008396B0008E2
:1000E000891C00086F0200086F0200086F020008F8
:1000F0006F0200086F0200086F0200086F0200081C
:100100006F0200086F0200086F0200086F0200080B
:100110006F0200086F0200086F0200086F020008FB
:100120006F020008491C0008551C00086F020008F7
:100130006F0200086F0200086F0200086F020008DB
:100140006F0200086F0200086F0200086F020008CB
:100150006F020008611C00086F020008456B000870
:100160006F0200086F0200086F0200086F020008AB
:100170006F0200086F0200086F0200080000000014
:100180006F0200086F02000800F002F800F052F859
:1001900014A696E8000CB244B344DA4501D100F04D
:1001A00049F8BAE80F000FA696E83000A5EB040561
:1001B00004EB0607AAEB0704A7F101074FEA1515A0
:1001C0004FEA3414A4F10104AC4201D300F032F838
:1001D00013F0010F18BFFB1A43F0010300F001F800
:1001E000DBE71847D08D0000F08D0000103A24BFE7
:1001F00078C878C1FAD8520724BF30C830C144BF8C
:1002000004680C6070470000704700000023002461
:1002100000250026103A28BF78C1FBD8520728BF16
:1002200030C148BF0B6070471FB508F0ABFD1FBD64
:1002300010B510BD00F04FF91146FFF7F5FF06F0BD
:1002400089FC00F06DF903B4FFF7F2FF03BC00F086
:1002500075F900000948804709480047FEE7FEE7B6
:10026000FEE7FEE7FEE7FEE7FEE7FEE7FEE7FEE766
:1002700004480549054A064B7047000075610008AF
:100280008901000830550020305B002030570020E5
:100290003057002053EA020C00F069802DE9F04B42
:1002A0004FF00006002B1FBFB3FA83F503FA05F4E5
:1002B00024FA05F65E4012BF1643B2FA82F502FA3E
:1002C00005F4C5F120051EBF22FA05FC44EA0C0422
:1002D000203556EA044C4FEA144418BF641C4FF012
:1002E00000084FF00009904271EB030C39D300294C
:1002F00019BFB1FA81F701FA07F6B0FA80F700FAF0
:1003000007F6C7F120071EBF20FA07FC46EA0C06D5
:100310002037B6FBF4FCA7EB0507103F07F01F0BD7
:10032000CBF120062CFA06F60CFA0BFB44BFB346C1
:100330000026202FA4BF5E464FF0000B5BEA060CA0
:1003400008BF4FF0010B19EB0B0948EB0608ABFB9C
:10035000027C06FB02CC0BFB03CCC01B71EB0C0137
:10036000C1E70B46024641464846BDE8F08B13B54F
:10037000084318BF4FF0FF300146AFF30080BDE8DF
:100380001C407047032A40F2308010F0030C00F04C
:10039000158011F8013BBCF1020F624498BF11F8BF
:1003A00001CB00F8013B38BF11F8013BA2F1040278
:1003B00098BF00F801CB38BF00F8013B11F00303F0
:1003C00000F05780083AC0F0088051F8043B083A22
:1003D00051F804CBA0E80810F5E7121D5CBF51F8F6
:1003E000043B40F8043BAFF30080D20724BF11F870
:1003F000013B11F801CB48BF11F8012B24BF00F8D5
:10040000013B00F801CB48BF00F8012B704702F018
:10041000FF0343EA032242EA024200F002B84FF02F
:10042000000200B5134694469646203922BFA0E844
:100430000C50A0E80C50B1F12001BFF4F7AF090750
:1004400028BFA0E80C5048BF0CC05DF804EB890041
:1004500028BF40F8042B08BF704748BF20F8022B84
:1004600011F0804F18BF00F8012B7047704770479C
:10047000704710B5203AC0F00B80B1E81850A0E8E2
:100480001850B1E81850A0E81850203ABFF4F5AF62
:100490005FEA027C24BFB1E81850A0E8185044BFBE
:1004A00018C918C0BDE810405FEA827C24BF51F82B
:1004B000043B40F8043B08BF7047D20728BF31F81F
:1004C000023B48BF11F8012B28BF20F8023B48BF70
:1004D00000F8012B7047754600F02CF8AE46050079
:1004E0006946534620F00700854618B020B5FFF74F
:1004F000BFFEBDE820404FF000064FF000074FF070
:1005000000084FF0000BAC46ACE8C009ACE8C009ED
:10051000ACE8C009ACE8C00921F007018D4670477E
:1005200010B50446AFF300802046BDE81040FFF749
:100530008ABE0000004870471001002001491820C1
:10054000ABBEFEE726000200704700000146806B4C
:10055000036C026C13F0500F08D0D20648BF01F0B4
:1005600045BC806BC26C0846104700BF42F4007166
:10057000016401688A6812F0405F01D001F032BC6A
:10058000027E002AFAD1CA6A12F4700F02D08A6879
:100590005205F3D44A6822F020024A60016C21F42B
:1005A00080710164016CC90448BF01F01BBC016C7F
:1005B00041F00101016401F015BC0000806B402195
:1005C0000164416C41F00401416401F00FBC000082
:1005D000806B01F009BC0000FEE7000040F208005B
:1005E000C2F2000000210122C17181600273C17555
:1005F0008161027780F82710816280F82C2080F8D2
:100600003710816380F83C2080F84710816480F8BF
:100610004C2080F85710816580F85C2080F86710C6
:10062000816680F86C2080F87710816780F87C20E4
:1006300080F88710C0F8881080F88C2080F8971018
:10064000C0F8981080F89C2080F8A710C0F8A81077
:1006500080F8AC2080F8B710C0F8B81080F8BC2043
:1006600080F8C710C0F8C81080F8CC2080F8D710E8
:10067000C0F8D81080F8DC2080F8E710C0F8E81047
:1006800080F8EC2080F8F710C0F8F81080F8FC2013
:10069000704700002DE9F04F81B00F2602F0E6F818
:1006A00040F208078346C2F2000701254FF0000A16
:1006B00000244FF0000913E0002088F8070098F8A4
:1006C0000C000AF1100A002805FA06F108BF0C43D5
:1006D00009F10109BAF5807FA6F1010600F06C80EE
:1006E00007EB0A0857F80A00B8F8041002F0B2F84D
:1006F00098F80720032ADFD898F80610DFE802F000
:1007000002140A10884204BFC8F808B088F80750DD
:10071000D5E700BF8842D2D0C8F808B00320CCE7A4
:10072000884225D10220C8E78842C5D1D8F8080000
:10073000ABEB00000A28C2D3002088F80C00B9F106
:10074000070F4FF0020088F80700B8D8DFE809F07B
:1007500004261E201A2A2E2202200421002204F040
:1007600081FB01200021002203F046FFA7E700BF24
:10077000D8F80800ABEB00000A28FFF4A0AF88F817
:100780000C5099E70120012112E000BF062006E08D
:10079000032004E0012002210AE000BF052000211F
:1007A00006E000BF0120032102E000BF0120042178
:1007B000002204F057FB82E741F22A20C2F2000037
:1007C000048001B0BDE8F08F40F62C00C2F20000BA
:1007D00005F064F9FFF702FF05F076F9FFF75AFF1D
:1007E000012006F0D9F9F7E72DE9F04381B040F296
:1007F0006C20C2F20000007830B140F2BC20C2F29E
:10080000000090F8941219B101B0BDE8F08300BF68
:1008100040F6C841C2F200010E884D888C88B1F8BC
:10082000069041F22A21C2F200010A8840F61431F2
:10083000C2F2000191F8008002F00101C2F340070A
:100840003944C2F380073944C2F3C0073944C2F3C4
:1008500000173944C2F340173944C2F380173944B2
:10086000C2F3C0173944C2F300273944C2F340270A
:100870003944C2F380273944C2F3C0273944C2F354
:1008800000373944C2F340373944C2F38037394422
:10089000B0F8C27201EBD23332EA0701A0F8A462C9
:1008A000A0F8A652A0F8A842A0F8AA92A0F8AC22FC
:1008B00080F8AE82A0F8BE3232D0B0F8C03201F07B
:1008C00001073B44C1F340073B44C1F380073B446D
:1008D000C1F3C0073B44C1F300173B44C1F34017C9
:1008E0003B44C1F380173B44C1F3C0173B44C1F301
:1008F00000273B44C1F340273B44C1F380273B44DE
:10090000C1F3C0273B44C1F300373B44C1F3403738
:100910003B44C1F380373B4403EBD131A0F8C01214
:1009200048F64861F3B2C0F60001CB5CA0F8C222E1
:1009300083EA1623DBB2CB5C6B40DBB2CB5C83EA91
:100940001523DBB2CB5C6340DBB2CB5C83EA1423C0
:10095000DBB2CB5C83EA0903DBB2CB5C83EA19230D
:10096000DBB2CB5C5340DBB2CB5C83EA1223DBB25D
:10097000CB5C83EA080311F803E0EFF3108C72B646
:10098000B0F89012B0F88E320131C9B2994205D157
:10099000B0F892120131A0F8921207E0B0F890324C
:1009A000AA27034483F88E71A0F89012B0F8901231
:1009B000B0F88E320131C9B2994205D1B0F8921225
:1009C0000131A0F8921207E0B0F8903255270344A5
:1009D00083F88E71A0F89012B0F89012B0F88E32B1
:1009E0000131C9B2994205D1B0F892120131A0F893
:1009F000921206E0B0F89032034483F88E61A0F8BA
:100A00009012B0F89012B0F88E320131C9B299420A
:100A100006D1B0F892120131A0F8921208E000BF9E
:100A2000B0F89032360A034483F88E61A0F8901231
:100A3000B0F89012B0F88E320131C9B2994205D1A6
:100A4000B0F892120131A0F8921206E0B0F890329C
:100A5000034483F88E51A0F89012B0F89012B0F8C9
:100A60008E320131C9B2994206D1B0F892120131E9
:100A7000A0F8921208E000BFB0F890322D0A0344AB
:100A800083F88E51A0F89012B0F89012B0F88E3220
:100A90000131C9B2994205D1B0F892120131A0F8E2
:100AA000921206E0B0F89032034483F88E41A0F829
:100AB0009012B0F89012B0F88E320131C9B299425A
:100AC00006D1B0F892120131A0F8921208E000BFEE
:100AD000B0F89032240A034483F88E41A0F89012B3
:100AE000B0F89012B0F88E320131C9B2994205D1F6
:100AF000B0F892120131A0F8921206E0B0F89032EC
:100B0000034483F88E91A0F89012B0F89012B0F8D8
:100B10008E320131C9B2994206D1B0F89212013138
:100B2000A0F8921209E000BFB0F890324FEA192401
:100B3000034483F88E41A0F89012B0F89012B0F8F8
:100B40008E320131C9B2994206D1B0F89212013108
:100B5000A0F8921207E000BFB0F89032034483F887
:100B60008E21A0F89012B0F89012B0F88E320131B8
:100B7000C9B2994206D1B0F892120131A0F892128E
:100B800008E000BFB0F89032120A034483F88E21C7
:100B9000A0F89012B0F89012B0F88E220131C9B2CC
:100BA000914205D1B0F892120131A0F8921206E0FC
:100BB000B0F89022024482F88E81A0F89012B0F82A
:100BC0009012B0F88E220131C9B2914206D1B0F82C
:100BD00092120131A0F8921207E000BFB0F8902203
:100BE000024482F88EE1A0F89012B0F89012B0F8AA
:100BF0008E220131C9B2914208D1B0F8921201316E
:100C0000A0F89212BCF1000F0CD10AE0B0F89022CB
:100C1000DE23024482F88E31A0F89012BCF1000F5E
:100C200000D162B690F8941200297FF4EDADB0F8CF
:100C30009012B0F88E02081A00063FF4E5AD40F6B7
:100C40000000C4F202004FF4805101F003FE0128BD
:100C50007FF4DAADEFF30580E0B140F28C10C2F220
:100C60000000002100680091694606F0DBFF009853
:100C700000283FF4C9AD4EF60450CEF200004FF00C
:100C800080510160BFF34F8FBFF36F8F01B0BDE89C
:100C9000F08300BF40F28C10C2F200000068002117
:100CA0000222002301B0BDE8F04307F0FFBD0000C1
:100CB00010B540F2BC24C2F200046268824209D03E
:100CC0002168814218BF10BD002084F89402C4F846
:100CD000980210BD04F108011046402202F04CFEBB
:100CE000E0B1B4F8A00240F26C210130A4F8A002F7
:100CF000B4F88C01C2F200014880B4F892028880F6
:100D0000B4F89E02C880B4F89C020881B4F8A0022E
:100D10004881B4F8A202888110BD00BF6068C06B32
:100D20000028D6D00068016821F00801016010BDDC
:100D300070B540F2BC24C2F20004D4F804E0864549
:100D400000D070BD002900F0BA80042901F0030C26
:100D500002D2002162E000BF21F00303002107E07E
:100D6000B4F88C010130A4F88C0104318B4255D0C9
:100D70006018027AB4F88A51B4F888610135EDB28E
:100D8000B54205D1B4F88C210132A4F88C2106E0DB
:100D9000B4F88A61264486F88820A4F88A51427AF9
:100DA000B4F88A51B4F888610135EDB2B54205D185
:100DB000B4F88C210132A4F88C2106E0B4F88A61E1
:100DC000264486F88820A4F88A51827AB4F88A5199
:100DD000B4F888610135EDB2B54205D1B4F88C2183
:100DE0000132A4F88C2106E0B4F88A61264486F822
:100DF0008820A4F88A51C07AB4F88A21B4F88851BE
:100E00000132D2B2AA42ABD0B4F88A51254485F857
:100E10008800A4F88A2104318B42A9D1BCF1000FCB
:100E20004DD06018017AB4F88A21B4F888310132C3
:100E3000D2B29A4208D1B4F88C110131A4F88C11C5
:100E4000BCF1010F0AD13AE0B4F88A31234483F8A7
:100E50008810A4F88A21BCF1010F30D0417AB4F88F
:100E60008A21B4F888310132D2B29A4206D1B4F85C
:100E70008C110131A4F88C1107E000BFB4F88A315D
:100E8000234483F88810A4F88A21BCF1020F16D0FD
:100E9000807AB4F88A11B4F888210131C9B291423C
:100EA00006D1B4F88C010130A4F88C0107E000BF32
:100EB000B4F88A21224482F88800A4F88A1104F147
:100EC00008017046402202F057FDD8B1B4F8A002E4
:100ED00040F26C210130A4F8A002B4F88C01C2F2F7
:100EE00000014880B4F892028880B4F89E02C8805D
:100EF000B4F89C020881B4F8A0024881B4F8A202B8
:100F0000888170BD6068C06B002808BF70BD006834
:100F1000016821F00801016070BD000070B582B069
:100F200040F26C23C2F200031B78002B00F0E98131
:100F300048F64863C0F600031C5C4C401C5D5440FE
:100F400013F804E040F2BC23EFF3108C72B6C2F247
:100F50000003B3F89042B3F88E520134E4B2AC42CD
:100F600006D1B3F892420134A3F8924208E000BFE0
:100F7000B3F89052AA261D4485F88E61A3F89042DA
:100F8000B3F89042B3F88E520134E4B2AC4205D1CA
:100F9000B3F892420134A3F8924207E0B3F89052BA
:100FA00077261D4485F88E61A3F89042B3F89042ED
:100FB000B3F88E520134E4B2AC4205D1B3F8924298
:100FC0000134A3F8924206E0B3F890521D4485F82C
:100FD0008E01A3F89042B3F89042B3F88E520134D8
:100FE000E4B2AC4206D1B3F892420134A3F8924283
:100FF00007E000BFB3F890521D4485F88E11A3F8A6
:101000009042B3F89042B3F88E520134E4B2AC424D
:1010100006D1B3F892420134A3F8924207E000BF30
:10102000B3F890521D4485F88E21A3F89042B3F88E
:101030009042B3F88E520134E4B2AC4206D1B3F818
:1010400092420134A3F8924207E000BFB3F89052F5
:101050001D4485F88EE1A3F89042B3F89042B3F8AE
:101060008E520134E4B2AC4206D1B3F8924201345C
:10107000A3F8924208E000BFB3F89052DE261D4468
:1010800085F88E61A3F89042B3F89042B3F88E527F
:101090000134E4B2AC4205D1B3F892420134A3F872
:1010A000924207E0B3F89052AA261D4485F88E615B
:1010B000A3F89042B3F89042B3F88E520134E4B2F0
:1010C000AC4205D1B3F892420134A3F8924207E052
:1010D000B3F8905277261D4485F88E61A3F89042AC
:1010E000B3F89042B3F88E520134E4B2AC4205D169
:1010F000B3F892420134A3F8924206E0B3F890525A
:101100001D4485F88E01A3F89042B3F89042B3F8DD
:101110008E520134E4B2AC4206D1B3F892420134AB
:10112000A3F8924207E000BFB3F890521D4485F83F
:101130008E11A3F89042B3F89042B3F88E52013466
:10114000E4B2AC4206D1B3F892420134A3F8924221
:1011500007E000BFB3F890521D4485F88E21A3F834
:101160009042B3F89042B3F88E520134E4B2AC42EC
:1011700006D1B3F892420134A3F8924207E000BFCF
:10118000B3F890521D4485F88EE1A3F89042B3F86D
:101190009042B3F88E520134E4B2AC4206D1B3F8B7
:1011A00092420134A3F8924208E000BFB3F8905293
:1011B000DE261D4485F88E61A3F89042B3F8904274
:1011C000B3F88E520134E4B2AC4205D1B3F8924286
:1011D0000134A3F8924207E0B3F89052AA261D44C6
:1011E00085F88E61A3F89042B3F89042B3F88E521E
:1011F0000134E4B2AC4205D1B3F892420134A3F811
:10120000924207E0B3F8905277261D4485F88E612C
:10121000A3F89042B3F89042B3F88E520134E4B28E
:10122000AC4205D1B3F892020130A3F8920206E075
:10123000B3F890521D4485F88E01A3F89042B3F89C
:101240009002B3F88E420130C0B2A04206D1B3F88A
:1012500092020130A3F8920207E000BFB3F8904277
:101260001C4484F88E11A3F89002B3F89002B3F8EE
:101270008E120130C0B2884206D1B3F8920201301A
:10128000A3F8920207E000BFB3F89012194481F866
:101290008E21A3F89002B3F89002B3F88E120130B9
:1012A000C0B2884206D1B3F892020130A3F892028C
:1012B00007E000BFB3F89012194481F88EE1A3F85B
:1012C0009002B3F89002B3F88E120130C0B2884297
:1012D00008D1B3F892020130A3F89202BCF1000FDA
:1012E0000CD10AE0B3F89012DE22194481F88E2165
:1012F000A3F89002BCF1000F00D162B693F89402FB
:1013000010B102B070BD00BFB3F89002B3F88E12F6
:10131000401A0006F5D040F60000C4F202004FF477
:10132000805101F097FA0128EBD1EFF30580C8B1A5
:1013300040F28C10C2F2000000210068019101A966
:1013400006F070FC01980028DBD04EF60450CEF277
:1013500000004FF080510160BFF34F8FBFF36F8FDC
:1013600002B070BD40F28C10C2F200000068002193
:101370000222002302B0BDE8704007F097BA0000D7
:1013800070B582B040F26C23C2F200031B78002BD0
:1013900000F0E98148F64863C0F600031C5C4C404D
:1013A0001C5D544013F804E040F2BC23EFF3108CB2
:1013B00072B6C2F20003B3F89042B3F88E52013411
:1013C000E4B2AC4206D1B3F892420134A3F892429F
:1013D00008E000BFB3F89052AA261D4485F88E613C
:1013E000A3F89042B3F89042B3F88E520134E4B2BD
:1013F000AC4205D1B3F892420134A3F8924207E01F
:10140000B3F8905266261D4485F88E61A3F8904289
:10141000B3F89042B3F88E520134E4B2AC4205D135
:10142000B3F892420134A3F8924206E0B3F8905226
:101430001D4485F88E01A3F89042B3F89042B3F8AA
:101440008E520134E4B2AC4206D1B3F89242013478
:10145000A3F8924207E000BFB3F890521D4485F80C
:101460008E11A3F89042B3F89042B3F88E52013433
:10147000E4B2AC4206D1B3F892420134A3F89242EE
:1014800007E000BFB3F890521D4485F88E21A3F801
:101490009042B3F89042B3F88E520134E4B2AC42B9
:1014A00006D1B3F892420134A3F8924207E000BF9C
:1014B000B3F890521D4485F88EE1A3F89042B3F83A
:1014C0009042B3F88E520134E4B2AC4206D1B3F884
:1014D00092420134A3F8924208E000BFB3F8905260
:1014E000DE261D4485F88E61A3F89042B3F8904241
:1014F000B3F88E520134E4B2AC4205D1B3F8924253
:101500000134A3F8924207E0B3F89052AA261D4492
:1015100085F88E61A3F89042B3F89042B3F88E52EA
:101520000134E4B2AC4205D1B3F892420134A3F8DD
:10153000924207E0B3F8905266261D4485F88E610A
:10154000A3F89042B3F89042B3F88E520134E4B25B
:10155000AC4205D1B3F892420134A3F8924206E0BE
:10156000B3F890521D4485F88E01A3F89042B3F869
:101570009042B3F88E520134E4B2AC4206D1B3F8D3
:1015800092420134A3F8924207E000BFB3F89052B0
:101590001D4485F88E11A3F89042B3F89042B3F839
:1015A0008E520134E4B2AC4206D1B3F89242013417
:1015B000A3F8924207E000BFB3F890521D4485F8AB
:1015C0008E21A3F89042B3F89042B3F88E520134C2
:1015D000E4B2AC4206D1B3F892420134A3F892428D
:1015E00007E000BFB3F890521D4485F88EE1A3F8E0
:1015F0009042B3F89042B3F88E520134E4B2AC4258
:1016000006D1B3F892420134A3F8924208E000BF39
:10161000B3F89052DE261D4485F88E61A3F89042FF
:10162000B3F89042B3F88E520134E4B2AC4205D123
:10163000B3F892420134A3F8924207E0B3F8905213
:10164000AA261D4485F88E61A3F89042B3F8904213
:10165000B3F88E520134E4B2AC4205D1B3F89242F1
:101660000134A3F8924207E0B3F8905266261D4475
:1016700085F88E61A3F89042B3F89042B3F88E5289
:101680000134E4B2AC4205D1B3F892020130A3F8C0
:10169000920206E0B3F890521D4485F88E01A3F83B
:1016A0009042B3F89002B3F88E420130C0B2A0422B
:1016B00006D1B3F892020130A3F8920207E000BF0E
:1016C000B3F890421C4484F88E11A3F89002B3F84A
:1016D0009002B3F88E120130C0B2884206D1B3F83E
:1016E00092020130A3F8920207E000BFB3F8901213
:1016F000194481F88E21A3F89002B3F89002B3F850
:101700008E120130C0B2884206D1B3F89202013085
:10171000A3F8920207E000BFB3F89012194481F8D1
:101720008EE1A3F89002B3F89002B3F88E12013064
:10173000C0B2884208D1B3F892020130A3F89202F5
:10174000BCF1000F0CD10AE0B3F89012DE2219446C
:1017500081F88E21A3F89002BCF1000F00D162B68F
:1017600093F8940210B102B070BD00BFB3F89002BC
:10177000B3F88E12401A0006F5D040F60000C4F20D
:1017800002004FF4805101F065F80128EBD1EFF32E
:101790000580C8B140F28C10C2F200000021006840
:1017A000019101A906F03EFA01980028DBD04EF61F
:1017B0000450CEF200004FF080510160BFF34F8F14
:1017C000BFF36F8F02B070BD40F28C10C2F2000008
:1017D000006800210222002302B0BDE8704007F03B
:1017E00065B8000070B540F26C2540F2BC26C2F22C
:1017F00000050022C2F200062A70C6E9000186F840
:101800009422C6F89822A6F89C22A6F88821A6F869
:101810008A21A6F88E22A6F89022A6F88C21A6F896
:101820009222A6F89E22A6F8A022A6F8A222B6F836
:101830008C014BF69A416880B6F89202CFF2DE0135
:10184000A880B6F89E0240F20044E880B6F89C02F8
:10185000C4F202042881B6F8A0026881B6F8A20298
:10186000A88143F21240C7F65600C6E9A90143F227
:101870001240A6F8AC0220464FF48051C6F8BE22B2
:10188000A6F8C22200F0ECFF20464FF400510022DF
:1018900000F0E6FF706806F10801402202F06CF8E3
:1018A000D0B1B6F8A0020130A6F8A002B6F88C01BB
:1018B0006880B6F89202A880B6F89E02E880B6F872
:1018C0009C022881B6F8A0026881B6F8A202A8811D
:1018D0000120287070BD00BF7068C06B0028F7D071
:1018E0000068016821F0080101600120287070BDC6
:1018F0002DE9F04F91B040F2BC2AC2F2000A9AF8EA
:10190000940240F26C250028C2F2000543D000F09A
:10191000ADFFDAF89812401A32283CD3DAF800000A
:1019200002F02EF90021EFF3108072B68AF89412BB
:10193000CAF89812BAF89C12002801F10101AAF81D
:101940009C12BAF89012BAF88E22A1EB020000D1D4
:1019500062B6BAF88C1100066980BAF89212A980B2
:10196000BAF89E12E980BAF89C122981BAF8A0123E
:101970006981BAF8A212A9810DD040F60000C4F224
:1019800002004FF4805100F065FF012803D1DAF81E
:10199000000004F0A3FCBAF88A01BAF88811401AD2
:1019A00000F5807000EB106121F0FF01401A122851
:1019B000C0F01C810AF1880615E000BFBAF8880162
:1019C0000130C0B2AAF88801BAF88A01BAF88811C1
:1019D000401A00F5807000EB106121F0FF01401A01
:1019E000112840F20381BAF88801315C5529E5D10C
:1019F000411CC9B2715CAA29E0D1811CC9B2725CD8
:101A0000C11CC9B2735C011DC9B2755C411DC9B26C
:101A1000775C811DC9B2715C48F648640F91C11DA5
:101A2000C9B216F801C000F10801C9B216F8019058
:101A300000F10901C9B2715CC0F60004109100F117
:101A40000A01C9B216F801B000F10B01C9B216F8CB
:101A500001E000F10C01C9B216F80180A15C0B97FE
:101A60005940C9B2615CCDF828906940C9B2615C47
:101A70000E927940C9B20F9F615C00F10D0279406E
:101A8000C9B2615CD2B281EA0C01C9B2615C0C9549
:101A900081EA0901C9B2DDF84090615CB55C81EA78
:101AA0000901C9B2615C00F10E0281EA0B01C9B201
:101AB000615CD2B281EA0E01C9B2615CCDF824C08A
:101AC00016F802C000F10F0281EA0801D2B2C9B2D1
:101AD0000D93CDF81CB016F802B000F11002635C53
:101AE000D2B2B15C85EA0302D2B2A25C00F111036A
:101AF00082EA0C02D2B2A25CDBB282EA0B02F35C95
:101B0000D2B2A25CED2B089508BF91420CD0ED2B10
:101B10007FF454AF91423FF451AFBAF8A2020130C2
:101B2000AAF8A2024AE700BF0999DDE90B3247EAA9
:101B30000121AAF8B4120A9942EA03228AF8B612DD
:101B40000799DDE90D738AF8B8120899123043EA53
:101B50000723C0B2AAF8B032AAF8B2228AF8B79224
:101B60008AF8B9E28AF8BA828AF8BB128AF8BCC24B
:101B70008AF8BDB2AAF8880100F078FE41F224226A
:101B8000C2F2000241F220211060BAF9B002C2F2A2
:101B900000019AF8BD8209880F909AF8B7529AF816
:101BA000BA929AF8BB029AF8B872CDF8408001F167
:101BB000010CBAF9B212BAF9B4229AF8B6329AF80C
:101BC000B9E29AF8BCB241F220248DE8A040CDE9F8
:101BD0000390DDE90F07C2F20004A4F800C0CDF8BD
:101BE00014B0069702F08CFEEEE600BFBAF88C0146
:101BF00040F26C21C2F200014880BAF8920288805B
:101C0000BAF89E02C880BAF8A0024881BAF8A202C7
:101C1000888111B0BDE8F08F40F69410C2F2000048
:101C200000F01CBB40F6F410C2F2000000F016BB3E
:101C300040F6D400C2F2000000F010BB40F63410B1
:101C4000C2F2000000F00ABB40F65420C2F20000CD
:101C500000F004BB40F67400C2F2000000F0FEBACF
:101C600040F6B420C2F2000000F0F8BA704700005D
:101C700040F6F030C2F2000003F07CFA03F0BCFA48
:101C8000012004F089FFF9E780B54FF4805000F09F
:101C900005FD4FF48040BDE8804000F0FFBC00002F
:101CA00072B600BFFEE7000070B581B0002200925E
:101CB00090F83C20012A03D1022001B070BD00BF82
:101CC000D1F800E001221FFA8EFC4FEA4C0380F8A5
:101CD0003C200EEB4E0213FA8EF31024BEF1090FD6
:101CE00088BFA3F11E0288BF0C24036807251E5974
:101CF000954026EA05051D518D681E5905FA02F228
:101D000032431A514968062906D801EB81014A1F5E
:101D1000194651F8345F0EE00C2901EB810105D81A
:101D2000A1F12302194651F8305F04E0A1F141020C
:101D3000194651F82C5F1F24944025EA04040C60D6
:101D40000CFA02F20C6842F2043CC4F2010C224389
:101D5000ACF54174A3420A603ED1BEF1120F07D127
:101D6000DCF8001041F48001CCF8001034E000BF32
:101D70002EF0010110292FD1DCF80010BEF1100F58
:101D800041F40001CCF8001026D140F20811C2F253
:101D9000000109684DF68362C4F21B32A1FB0212F6
:101DA000910C01EB8101490000910099A1B10099CA
:101DB00001390091009979B1009901390091009998
:101DC00051B1009901390091009929B10099013967
:101DD000009100990029EAD1002180F83C100020F0
:101DE00001B070BD03F048BE7047000070470000AE
:101DF000002804BF0120704710B5016C00293DD0B8
:101E0000016CC90645D4016C41F2021291430231C2
:101E100042F204320164C4F20102116821F440313B
:101E20001160136890E812102343D0F810E013609B
:101E30004A68012422F480724A604A68C0F600743D
:101E400042EA0E224A604A6822F040724A604A68BA
:101E500042EA0C024A608A6822F400628A60C26820
:101E60008B681A438A60826A8B68A24223F070638F
:101E70008B608B6810D123F0405216E0044600F0CE
:101E800065F820460021616484F83C10016CC906A5
:101E9000B9D5012153E000BF1A438A608A6822F055
:101EA00040528A60C26A8B681A438A608A6822F04C
:101EB00002028A608A68037E90F8204042EA430268
:101EC0008A604A6884B142F400624A604A684EF20D
:101ED000000322F460424A60426ACFF6FF734C6806
:101EE00003EB4232224301E022F400624A60CA6AF4
:101EF00040F2000C22F47002CA62C3694269CFF654
:101F0000F07CCC6A0CEB03532343CB628B6823F445
:101F100000738B6090F830308C6844EA43238B6008
:101F20008B6823F480638B608B6843EA82228A602B
:101F300000214164026C012363F301020264002268
:101F400080F83C20BDE810400846704770B586B068
:101F5000044642F200102168C4F2010000268142CA
:101F60000596CDE903660296019601D006B070BDD4
:101F700043F630010096C4F202014A6900F55F4061
:101F800042F400724A614A6902F400720092009AB7
:101F900000960A6842F001020A60096801F0010136
:101FA00000910099782101910321CDE9021601A940
:101FB00000F080FB40F6740546F24040C2F2000596
:101FC000C4F202004FF000714FF4006385E8430053
:101FD00005F114004FF480624FF4005C4FF4807EF2
:101FE00080E808502846C5E90362C5E9086600F0A4
:101FF00017FA002818BFFFF753FEA563AC6306B0BD
:1020000070BD0000B0B582B00023019390F83C3061
:10201000012B03D1022002B0B0BD00BF8E460123C8
:10202000016880F83C308B689446DB0729D18B68C7
:102030004DF6836443F001038B6040F20813C2F253
:1020400000031B68C4F21B34A3FB0434A30C03EB92
:1020500043030193019BA3B1019B013B0193019BAE
:102060007BB1019B013B0193019B53B1019B013B60
:102070000193019B2BB1019B013B0193019B002B21
:10208000EAD18B68DB0503D58B6823F480738B6002
:102090008C68036CE4070BD143F01001016400F17C
:1020A0004401002001220B681A430A6002B0B0BD4F
:1020B00040F20174A34303F5807303644B685B052E
:1020C00004D5036C012464F30D330364046C002312
:1020D000E4044FF0000444BF446C24F0060444645C
:1020E00080F83C30836B40F24D5440F2D152C0F640
:1020F0000004C0F60002C3E90F4240F2BD52C0F630
:102100000002DA646FF022020A604A6842F2043484
:1021100042F080624A608A68054642F480728A60B2
:102120004C31184672466346C4F2010400F02AFAA4
:1021300022682968D20605D0A4F54172914225D0C3
:1021400002B0B0BD42F20002C4F20102914215D0C9
:1021500042F20022C4F2010291420CD042F200127B
:10216000C4F201029142EBD12268D20606D0A4F556
:1021700082729142E4D12268D206E1D451F8082F4C
:1021800012F0405FDCD14FF080428CE74FF60452F2
:10219000CFF6FF72A25812F0405FD1D108314FF054
:1021A000804280E770B5866D044600F05FFB94F8CE
:1021B0003510022928D105462068216C026822F0DA
:1021C00016020260426922F08002426109B9A16CE4
:1021D00019B1016821F008010160016821F00101D5
:1021E000016000BF20680068C00715D000F03EFB0A
:1021F000401B0628F6D320206065032084F83500B4
:10220000002184F8341070BD802060650120002119
:1022100084F8341070BD00BFE06D3F2101FA00F07A
:10222000B060012084F835000020002184F83410CB
:1022300070BD000090F83510022909D1052180F801
:1022400035100068016821F001010160002070472D
:102250008021416501207047406D7047F0B581B025
:102260000021009140F20811C2F200010B68D0E990
:10227000166148F2B51537680822C1F64E358A4016
:102280003A42A3FB05350CD003681C68640708D5E7
:102290001C6824F004041C60B260426D42F001022C
:1022A000426501228A403A4208D003685B691B06F6
:1022B00004D5B260426D42F00202426504228A40B7
:1022C0003A4208D003681B689B0704D5B260426D90
:1022D00042F00402426510228A403A4219D0016855
:1022E0000B681B0715D5B2600B680A685B0309D43D
:1022F000D20509D40A6822F008020A60016C29B9E3
:1023000007E000BF110341D4016C11B104468847B6
:102310002046C26D202101FA02F33B4243D00168FE
:102320000F68FF063FD5B36090F835700B68052F36
:102330001CD123F016030B604B6923F080034B6123
:10234000036C0BB9836C1BB10B6823F008030B60A3
:102350003F219140B160012180F83510016D0022CC
:10236000002980F8342054D158E000BF0A685B038C
:1023700010D4D20512D40A6822F010020A6001219A
:1023800080F83510002180F8341007E0816C0029B6
:10239000BCD1BEE7110301D4416C00E0C16B11B1A7
:1023A000044688472046416DC1B3416DC9072ED010
:1023B000052180F835100168AA0A0B6823F0010393
:1023C0000B60009B0133934200931AD80B68DB0724
:1023D00017D0009B01339342009312D80B68DB07A0
:1023E0000FD0009B0133934200930AD80B68DB07A0
:1023F00007D0009B01339342009302D80B68DB07A0
:10240000DFD1012180F83510002180F83410C16C33
:1024100021B101B0BDE8F040084700BF01B0F0BDF8
:102420002DE9F041044600F021FAECB10546022006
:1024300084F835000020216884F83400086820F012
:102440000100086021680868C00711D000F00EFA8A
:10245000401B0528F6D9032520230320636584F853
:102460003550BDE8F08100BF0120BDE8F08100BF1C
:10247000086848F23F02CFF21002D4E9013500EAC1
:10248000020C04F10C0898E8C10143EA0C032B4349
:102490001843D4E9072E304338431043626A40EAB8
:1024A0000E00042A40EA08031CD1206BD4E90A2E4E
:1024B00040EA0E00184308604869BEF1000F20F0A2
:1024C000030040EA020040F0040C11D0B8F5005FB0
:1024D00036D0B8F1000F45D1022A46D0012A3BD0B0
:1024E00032B942E00B60486920F0070040EA020C74
:1024F00001F0F8004AF6AB221038CAF6AA22A0FB77
:1025000002231A0948F64873C1F814C0C0F6000344
:102510009A5C40F2FF335F284FF03F0021EA03014D
:1025200000FA02F088BF0431C4E916128860002363
:1025300001250020636584F83550BDE8F08100BFB7
:10254000032AD5D8012540230120DFE802F0030E3D
:10255000030500BF82E700BFAEF1C070B0FA80F0A3
:10256000400904E0032A04D3C2D1CEF3006000285E
:10257000BED0012540230120636584F83550BDE8B5
:10258000F081000090F834C0BCF1010F04BF0220BC
:10259000704770B54FF0010C80F834C0D0F858E0A7
:1025A00090F835C0BCF1010F38D14FF0020C80F823
:1025B00035C04FF0000CC0F854C0D0F800C084689B
:1025C000056CC06DDCF80060402C26F48026CCF849
:1025D0000060CCF804300B4604BF13460A463F2186
:1025E00001FA00F0CCF80830CCF80C20CEF8080046
:1025F000DCF8000040F01600CCF800002DB1DCF84B
:10260000000040F00800CCF80000DCF8000040F0CA
:102610000100CCF80000002070BD00BF002180F850
:102620003410022070BD0000B0F5805F18BF704705
:1026300080B582B040F27010C2F20000016848F22A
:1026400019630131016041F20401CEF20001096811
:102650004268C1F661038A1AD208A2FB03235A0812
:102660008260416040F28C10C2F2000000210068DC
:10267000019101A905F0D6FA019850B14EF6045027
:10268000CEF200004FF080510160BFF34F8FBFF3D7
:102690006F8F02B0BDE880407047000043F61441E0
:1026A000C4F201010A68024214BF08607047FFF7D4
:1026B000BBBF00002DE9F04F83B000F1200200F114
:1026C0003E4741F60045009207F1FF77C4F202054C
:1026D00008224FEAB726A84208BF072200254FF07C
:1026E00000084FF00009072E38BF4FEAB7220192C9
:1026F0000AE000BF09F1010908F10208B9F1100F61
:1027000005F1040500F0A2800F68012202FA09FE1B
:1027100017EA0E0AEED0D1F804C003220CF003072A
:102720007E1E02FA08F4012E6FEA040B12D88468A8
:10273000CE6804EA0B0406FA08F634438460446861
:1027400024EA0E06CCF3001404FA09F4264346608A
:1027500004E000BF032F01D103271EE0C6688C6888
:1027600006EA0B0604FA08F42643022FC66014D1C9
:102770006FF00302009E02EA590756F807C005F001
:102780001C040F220B69A2402CEA0202A3401A4348
:10279000F251D1F804C00CF00307026807FA08F3FD
:1027A00002EA0B021A431CF4403F0260A2D000224E
:1027B00043F644030292C4F202031A6843F600444B
:1027C00042F480421A601A68C4F2010402F48042A2
:1027D0000292029A29F003024FF6084C2244CFF6E7
:1027E000FF7C52F80C3005F00C070F26BE40B343B7
:1027F000019E06FA07F73B4342F80C30A2684B688B
:1028000042EA0A0743F60C4CDE0258BF22EA0A07E6
:10281000A760C4F2010CDCF800209E0242EA0A071D
:1028200058BF22EA0A07CCF8007062689E0342EAA9
:102830000A0758BF22EA0A0767602268DB0342EAF8
:102840000A0758BF22EA0A07276053E703B0BDE82A
:10285000F08F00000069084018BF01207047000099
:10286000002A08BF090481617047000044F6306007
:10287000C2F200000068704740F2000044F6306188
:10288000C2F20000C2F2000100780A681044086039
:102890007047000080B543F60040C4F202000168B2
:1028A00041F400710160016841F4806101600168D8
:1028B00041F480710160032000F0C0F80F2000F0A7
:1028C00005F800F05BF8002080BD000070B586B010
:1028D000002543F640010195C4F202010A6804464E
:1028E00042F001020A60096801A801F001010191AA
:1028F0000199694600F064F9049E002E18BF012674
:1029000000F07EF94DF68361B040C4F21B31A0FBAC
:1029100001014FF0FF3000EB914140F66030C2F210
:1029200000004FF0804240F2E733C0E90021C0E9E7
:1029300002530561856100F0FBFB08B106B070BD74
:1029400040F66030C2F2000000F044FC0028F5D1EF
:102950001C2000F035F80F2C0CD81C20214600223A
:1029600000F040F840F204010020C2F200010C60C7
:1029700006B070BD012006B070BD000082B000201E
:1029800043F640010190C4F202014A6842F48042D9
:102990004A604A6802F480420192019A00900868F5
:1029A000002240F08050086008680F2100F080503D
:1029B000009000986FF0010002B000F013B8000022
:1029C000002848BF704700F01F01012202FA01F100
:1029D0001C2202EAD0004EF20012CEF20002815018
:1029E0007047000010B54EF60C5CCEF2000CDCF81F
:1029F0000030C3F3022E8EF00704042C28BF0424F9
:102A0000BEF103034FF0FF3E0EFA04F438BF00237B
:102A1000A14399400EFA03F39A43114300F00F02C9
:102A200000F160430901043A03F56443624400285D
:102A300048BF02F10C03197010BD00004EF60C5196
:102A4000CEF200010A684FF6FF031A4060F30A2233
:102A500042F0806040F0FD7008607047002804BFBD
:102A6000012070472DE9F04143F60808C4F202083E
:102A70000446D8F8F8030D4600F00700814207D954
:102A800088F8F853D8F8F80300F00700A84277D187
:102A90002068810717D5410705D5D8F8001041F403
:102AA000E051C8F80010010705D5D8F8001041F42E
:102AB0006041C8F80010D8F80010A26821F0F001B9
:102AC0001143C8F80010C00740D1D8F8F80300F04F
:102AD0000700854207D288F8F853D8F8F80300F0C9
:102AE0000700A8424CD12068410707D5D8F800104C
:102AF000E26821F4E0511143C8F80010000708D53E
:102B0000D8F80000216920F4604040EAC100C8F80C
:102B1000000000F09DF8D8F8001048F69E52C1F36E
:102B20000311C0F60002515C40F2081220FA01F1D4
:102B300040F20400C2F200000068C2F2000211601C
:102B4000FFF7C4FE0020BDE8F08100BF6068811E71
:102B5000022907D258F8081C89015CBF0120BDE892
:102B6000F08111E0012807D158F8081C89035CBFE7
:102B70000120BDE8F08107E058F8081C890703D45C
:102B80000120BDE8F08100BFD8F8001021F003015A
:102B90000843C8F80000FFF769FE064641F288378F
:102BA000D8F80000616800F00C00B0EB810F8CD009
:102BB000FFF75CFE801BB842F2D90320BDE8F0812C
:102BC0000F22026043F60802C4F20202136803F007
:102BD00003034360136803F0F0038360136803F496
:102BE000E053C360D2F800C04FF4E05303EADC03C3
:102BF0000361D2F8F80300F0070008607047000096
:102C000040F2081043F60801C2F20000C4F20201CB
:102C10000068096848F6AE52C1F38221C0F600028E
:102C2000515CC8407047000040F2081043F60801AC
:102C3000C2F20000C4F202010068096848F6AE5210
:102C4000C1F34231C0F60002515CC8407047000039
:102C500010B543F60404C4F202046168C1F38101B3
:102C600042F20040C0F2F400DFE801F002040A0280
:102C700010BD00BF41F20020C0F27A0010BD00BFBD
:102C8000216801F03F02216823684902C3F38811DB
:102C900006D4A1FB00010023FDF7FCFA07E000BF0A
:102CA00041F20020C0F27A004843B0FBF2F0216804
:102CB0000222C1F3014102EB4101B0FBF1F010BD72
:102CC000002804BF012070472DE9F04182B004467E
:102CD000007843F60006C007C4F202060CD0B068C4
:102CE00000F00C00042840F081803068800303D598
:102CF0006068002800F06881207880071BD5B068E4
:102D000010F00C0F09D0B06800F00C00082840F05B
:102D100087807068400200F183803068800703D5A7
:102D2000E068012840F050813068216920F0F80007
:102D300040EAC10030602078000713D420784007B3
:102D40002AD4A569002D00F03A81B06800F00C008B
:102D5000082840F0A580012D40F00E81012002B02E
:102D6000BDE8F0816069002800F082800020C4F294
:102D700047200121C0F8801EFFF778FD054600BFFF
:102D8000706F8007DAD4FFF771FD401B0228F7D976
:102D9000032002B0BDE8F081306C5FEAC0080AD4BD
:102DA00000200190306C40F080503064306C00F0B6
:102DB00080500190019847F20007C4F2000738687C
:102DC000C00547D4386840F480703860FFF74EFD86
:102DD000054600BF3868C0053CD4FFF747FD401BDF
:102DE0000228F7D9032002B0BDE8F081B06800F0F6
:102DF0000C00082803D1706840023FF576AF616887
:102E00003068B1F5803F07D0B1F5A02F40F09A802F
:102E100040F480203060306840F4803030609AE0C8
:102E2000E068002840F20000C4F247205CD0012195
:102E30000160FFF71BFD0546306880073FF574AF62
:102E4000FFF714FD401B0228F6D9032002B0BDE8AD
:102E5000F08100BFA168306F012905D0052955D147
:102E600040F004003067306F40F00100306756E0FA
:102E70000020C4F247200021C0F8801EFFF7F6FCB6
:102E8000054600BF706F80077FF558AFFFF7EEFC77
:102E9000401B0228F6D9032002B0BDE8F08100BF34
:102EA0000027C4F2472700203866FFF7DFFC022D19
:102EB00005460DD13068800140F18A80FFF7D6FCCD
:102EC000401B02284FF00300F4D902B0BDE8F081A6
:102ED0003068800173D5FFF7C9FC401B02284FF012
:102EE0000300F5D9F1E700BF00210160FFF7BEFC48
:102EF000054600BF306880077FF51DAFFFF7B6FCC1
:102F0000401B02284FF00300F4D9DEE720F0010057
:102F10003067306F002920F0040030677AD0FFF767
:102F2000A5FC054641F28837306F800700F18480A8
:102F3000FFF79CFC401BB842F6D9032002B0BDE865
:102F4000F08100BF20F4803030603068002920F428
:102F5000802030607AD0FFF789FC05463068800316
:102F60003FF5CAAEFFF782FC401B6428F6D9032068
:102F700002B0BDE8F08100BF7068E16900F4800232
:102F80008A4221D1216A00F03F028A421CD147F6D1
:102F9000C071626A0140B1EB821F15D1A16A4FF680
:102FA000FF73C903994300F44032A1F580318A428E
:102FB0000AD1E16A00F07060B0EB016F04D100202B
:102FC00002B0BDE8F08100BF012002B0BDE8F08191
:102FD00004F11C052FCD084340EA8210D9034FF6B7
:102FE000FF729143A1F5803140EA056008437060AB
:102FF00001203866FFF73AFC044600BF30688001C4
:10300000DDD4FFF733FC001B02284FF00300F5D995
:103010005BE700BFFFF72AFC054641F2883700BF97
:10302000306F800708D5FFF721FC401BB8424FF0F6
:103030000300F5D949E700BFB8F1000F3FF581AEB5
:10304000306C20F0805030647BE600BFFFF70EFC50
:10305000054600BF306880037FF54EAEFFF706FCE3
:10306000401B64284FF00300F4D92EE7704700009E
:103070007047000090F83C20012A4FF0020254D023
:1030800010B580F83D200268D2F804E0D2F808C0FC
:103090000C682EF07003234341F2FF74C4F2000465
:1030A000A24253600EDC40F2FF73C4F200039A4266
:1030B00016DCB2F1804F2BD040F20043C4F2000383
:1030C00024E000BF40F2FF33C4F201039A4213DC54
:1030D00041F60003C4F200039A4219D0002313E022
:1030E00040F60003C4F200039A4211D040F60043B8
:1030F000C4F200030AE000BF44F20003C4F201037B
:103100009A4205D040F20043C4F201039A4204D12E
:1031100049682CF08003194391600121002280F856
:103120003D1080F83C20BDE810401046704700007C
:10313000002804BF0120704710B5044690F83D00F8
:1031400028B9002084F83C00204600F01FF8022037
:1031500084F83D002068211D03F022F8012084F846
:10316000460084F83E0084F83F0084F8400084F86C
:10317000410084F8420084F8430084F8440084F855
:10318000450084F83D00002010BD000000680021CB
:10319000C4F20101884218BF704780B582B0002098
:1031A000019043F64400C4F202000168002241F09D
:1031B000010101600068052100F001000190019803
:1031C0001920FFF70FFC192002B0BDE88040FFF77F
:1031D000F7BB000090F83D1001291CBF012070478B
:1031E000022180F83D10006841F2FF72C168C4F20C
:1031F0000002904241F00101C1600DDC40F2FF711C
:10320000C4F20001884215DCB0F1804F2AD040F2B0
:103210000041C4F2000123E040F2FF31C4F2010199
:10322000884213DC41F60001C4F20001884219D043
:10323000002113E040F60001C4F20001884211D0E1
:1032400040F60041C4F200010AE000BF44F2000170
:10325000C4F20101884205D040F20041C4F20101EC
:10326000884206D1816801F00701062904BF0020C9
:103270007047016841F001010160002070470000C3
:1032800090F83C20012A4FF002026CD080B580F803
:103290003D20D0F800C04FF67772DCF8083023EA02
:1032A0000202CCF808200B684F2B29DC1F2B45DDD0
:1032B000202B46D0302B44D0402B40F0AF80D1F8AB
:1032C00004E0C968DCF82030DCF8202022F001029C
:1032D000CCF82020DCF8182022F0F00242EA01119C
:1032E00023F00A0242EA0E02CCF81810CCF8202093
:1032F000DCF8081041F0470121F0300128E000BF60
:103300006F2B33DDB3F5005F74D0B3F5805F21D050
:10331000702B40F08380D1E901E3C968DCF8082014
:1033200043EA0E0322F47F4243EA01211143CCF821
:103330000810DCF8081041F0770109E00BB1102B00
:103340006CD1DCF8081021F07001194341F007013D
:10335000CCF808100022012180F83D10002180F8EF
:103360003C10BDE880401046704700BF502B21D074
:10337000602B53D1D1F804E0C968DCF82030DCF8C8
:10338000202022F01002CCF82020DCF8182022F4B3
:10339000704242EA013123F0A00242EA0E12CCF858
:1033A0001810CCF82020DCF8081041F0670121F05B
:1033B0001001CDE7D1F804E0C968DCF82030DCF872
:1033C000202022F00102CCF82020DCF8182022F086
:1033D000F00242EA011123F00A0242EA0E02CCF89E
:1033E0001810CCF82020DCF8081041F0570121F02B
:1033F0002001ADE7D1E901E3C968DCF8082043EA20
:103400000E0322F47F4243EA01211143CCF8081055
:10341000DCF8081041F480419AE700BF01229AE7E6
:103420007047000070B504460068C5680669B107BA
:1034300016D515F0020113D06FF0020101610121D0
:1034400021778069800703D02046FFF7E9FF05E078
:10345000204600F08FF8204600F0E6F900202077A3
:10346000700719D515F0040016D020686FF004011C
:10347000016102212177806910F4407F04D0204649
:10348000FFF7CEFF06E000BF204600F073F82046AD
:1034900000F0CAF900202077300717D515F0080092
:1034A00014D020686FF00801016104212177C06900
:1034B000800703D02046FFF7B3FF05E0204600F069
:1034C00059F8204600F0B0F900202077F00619D511
:1034D00015F0100016D020686FF01001016108216E
:1034E0002177C06910F4407F04D02046FFF798FF91
:1034F00006E000BF204600F03DF8204600F094F9B9
:1035000000202077F00718BF15F0010002D1300627
:1035100009D412E020686FF001010161204600F03B
:103520000DFA300609D515F0800006D020686FF03E
:10353000800101612046FFF799FD700609D515F05D
:10354000400006D020686FF040010161204600F085
:1035500011FAB00658BF70BD15F0200008D02168E0
:103560006FF0200220460A61BDE87040FFF780BD81
:1035700070BD00007047000090F83C30012B04BF84
:10358000022070474FEAB202032A00F2FF802DE9C1
:10359000F043DFE802F003B13F7F00BF036840F271
:1035A00000461C6A1A6A24F0020422F001021A6220
:1035B0001A46D3F804C052F818EF8F6843F48065B8
:1035C000C4F20106B54244EA070405D1CF6824F0ED
:1035D0000C0427F004073C430F68B54206D1D1E93B
:1035E00005582CF440762E4346EA080C2EF073065C
:1035F0003743C3F804C09F614F6809695F631C6269
:103600009F6947F008079F619F6927F004079F6142
:10361000B1E000BF036840F200481C6A1A6A24F453
:10362000007422F480721A621A46D3F804C052F869
:103630001CEF8F6843F48065C4F20108454544EAF5
:10364000072408D1CF6840F2FF463F0224F44064CB
:1036500027EA06063443D1F80090454506D1D1E962
:1036600005562CF440572E4347EA061C2EF07307EC
:1036700047EA0907C3F804C0DF614F680969DF63DF
:103680001C62DF6947F00807DF61DF6927F0040784
:10369000DF6170E0036840F20045D3F820C01A6A89
:1036A00043F4806722F480521A621A465C6852F82A
:1036B0001C8FD1F800E08E68C4F20105AF4204D13E
:1036C0004D6924F4804444EA85142CF4005747EAF9
:1036D000063728F4E64646EA0E265C60DE614E6850
:1036E00009691E641F62DF6947F40067DF61DF69F3
:1036F00027F48067DF613DE0036840F200481C6A00
:103700001A6A24F0200422F010021A621A46D3F832
:1037100004C052F818EF8F6843F48065C4F20108C2
:10372000454544EA071407D1CF686FF0400624F0FE
:10373000C00406EA07163443D1F80090454506D187
:10374000D1E905562CF440672E4347EA860C2EF447
:10375000E64747EA0927C3F804C09F614F68096933
:103760009F631C629F6947F400679F619F6927F40C
:1037700080679F6109021368194311600021BDE849
:10378000F043002280F83C200846704701210022C7
:1037900080F83C2008467047002804BF012070478D
:1037A00010B5044690F83D0028B9002084F83C008C
:1037B000204600F01FF8022084F83D002068211DFB
:1037C00002F0EEFC012084F8460084F83E0084F804
:1037D0003F0084F8400084F8410084F8420084F8F7
:1037E000430084F8440084F8450084F83D0000203C
:1037F00010BD0000006840F20041C4F200018842A0
:1038000018BF704781B00020009043F64000C4F21A
:103810000200016841F002010160006800F002004E
:103820000090009801B0704770470000C1B10429B2
:1038300008D0082914BF41224022825C012A05D009
:1038400016E000BF3F22825C012A11D10222082922
:1038500010D0042914BF80F8412080F83F200BE0ED
:1038600090F83E20012A03D1022280F83E2003E096
:103870000120704780F84020006801F01F010122FC
:10388000036A02FA01F123EA01020262026A1143A9
:1038900041F2FF72C4F20002904201620CDC40F27D
:1038A000FF71C4F20001884214DCB0F1804F37D0C0
:1038B00040F2004116E000BF40F2FF31C4F20101C6
:1038C000884215DC41F60001C4F20001884227D08D
:1038D000002115E040F60001C4F2000188421FD02B
:1038E00040F60041C4F20001884219D01FE000BF39
:1038F00044F20001C4F20101884211D040F20041BB
:10390000C4F20101884212D1416C40F2004340F4FC
:103910008062C4F2010341F400419A42416406D13D
:10392000816801F00701062904BF00207047016883
:1039300041F0010101600020704700000068002193
:10394000C4F20101884205D0B0F1804F18BF704722
:10395000FEF792BF41F22820C2F200000178013147
:10396000017001780F2903D300210170FCF73CBFDF
:10397000704700007047000070B582B090F8425068
:10398000202D0BD113460A460146002A4FF00100B4
:1039900018BF002B06D102B070BD00BF022002B0DC
:1039A00070BD00BF0863002622204E638A628B85AB
:1039B0004E6481F842000C680D46C86B46F2157CD7
:1039C00046F67501C0F6000CC0F60001C0E90FC153
:1039D00046F29951C0F60001C0E91316211DFEF709
:1039E000D1FDE8B3102068642020294685F8420004
:1039F00001200A6B012A40F0B380002200920A687D
:103A00001368009352680092009A00BF0A6852E857
:103A1000032F0B6842F0100243E80326002EBAD0B1
:103A20000A6852E8032F0B6842F0100243E80326AD
:103A3000002EB0D00A6852E8032F0B6842F0100243
:103A400043E80326002EA6D00A6852E8032F0B682D
:103A500042F0100243E80326002ED7D19BE700BFB7
:103A600001962868294602680192406801900198F1
:103A7000286928B3086850E8030F0A6840F480708A
:103A800042E80303E3B1086850E8030F0A6840F412
:103A9000807042E803039BB1086850E8030F0A688E
:103AA00040F4807042E8030353B1086850E8030F04
:103AB0000A6840F4807042E80303002BDAD100BFAB
:103AC000086850E8050F0A6840F0010042E8050365
:103AD000BBB3086850E8050F0A6840F0010042E8EF
:103AE000050373B3086850E8050F0A6840F0010049
:103AF00042E805032BB3086850E8050F0A6840F058
:103B0000010042E80503002BDAD11AE0086850E80A
:103B1000050F0A6840F0400042E80503DBB1086881
:103B200050E8050F0A6840F0400042E8050393B1F1
:103B3000086850E8050F0A6840F0400042E80503B5
:103B40004BB1086850E8050F0A6840F0400042E8B1
:103B50000503002BDAD100200A6B012A3FF44DAF98
:103B6000012002B070BD0000B0B50C460546FDF75F
:103B7000DFF828462146BDE8B04001F0C3BD000093
:103B800010B50446206850E8030F216820F0C000FB
:103B900041E80302DAB1206850E8030F216820F001
:103BA000C00041E8030292B1206850E8030F216889
:103BB00020F0C00041E803024AB1206850E8030F3A
:103BC000216820F0C00041E80302002ADAD1206811
:103BD0004069000636D500BF206850E8050F21680F
:103BE00020F0800041E80502DAB1206850E8050FB6
:103BF000216820F0800041E8050292B1206850E879
:103C0000050F216820F0800041E805024AB12068D4
:103C100050E8050F216820F0800041E80502002AE5
:103C2000DAD1A06B70B100210165FEF7BBFA48B193
:103C3000A06BFEF711FB202804D110206064032044
:103C400010BD00BF00202021E08484F8411010BD89
:103C500010B50446FDF72CF82046BDE8104001F0F1
:103C60003BBD0000B0B582B001680A68CC684B6902
:103C700002F02F05202D04F0200505D125B102B05A
:103C8000BDE8B04002F05EBE5FEA027C1EBF03F0FA
:103C9000010E04F4907313EB0E0341D1036BD506B0
:103CA00018D5012B16D114F0100313D00022019265
:103CB0000A6801924A680192019A496949064BD4FF
:103CC000818DC28DC38D002B18BF914240F00682BA
:103CD00002B0B0BD13062DD514F080032AD090F8A1
:103CE0004120212AF4D18268B2F5805F03D10269B4
:103CF000002A00F07982026A531C036212784A603B
:103D0000C28C013A1304C284E2D1C86820F080005A
:103D1000C860C86840F04000C86002B0B0BD00BFD5
:103D2000D30718BF14F4807340F0E280530700F10A
:103D3000E580EAE05206CBD514F04002C8D0CA684C
:103D400022F04002CA60202180F8411002B0BDE894
:103D5000B04000F04DBC00BFC26B11684B68858D50
:103D600099B2002900F0B480A94280F0B180C385E7
:103D7000D169B1F5807F00F0A080016851E8031F90
:103D8000026821F4807142E80313DBB1016851E855
:103D9000031F026821F4807142E8031393B10168A4
:103DA00051E8031F026821F4807142E803134BB10C
:103DB000016851E8031F026821F4807142E803138F
:103DC000002BDAD1016851E8051F026821F00101DA
:103DD00042E80513BBB3016851E8051F026821F0F2
:103DE000010142E8051373B3016851E8051F026839
:103DF00021F0010142E805132BB3016851E8051FCA
:103E0000026821F0010142E80513002BDAD11AE023
:103E1000016851E8051F026821F0400142E80513DE
:103E2000DBB1016851E8051F026821F0400142E85A
:103E3000051393B1016851E8051F026821F04001A4
:103E400042E805134BB1016851E8051F026821F0F3
:103E5000400142E80513002BDAD1202180F84210FE
:103E600000210163016851E8031F026821F010017D
:103E700042E80313DBB1016851E8031F026821F037
:103E8000100142E8031393B1016851E8031F02686F
:103E900021F0100142E803134BB1016851E8031F00
:103EA000026821F0100142E80313002BDAD1C16B44
:103EB00004460846FEF776F9204602214163818DCB
:103EC000C28D891A89B202B0BDE8B040FFF74CBE7E
:103ED0008D427FF4FDAED269B2F5807F7FF4F8AEFB
:103EE0000222426302B0BDE8B040FFF73DBE00BF12
:103EF000436C43F001034364530706D5BEF1000F42
:103F000003D0436C43F002034364930706D5BEF12C
:103F1000000F03D0436C43F004034364BCF1000F73
:103F200006D55EEA050303D0436C43F008034364FF
:103F3000436C002B3FF4CCAE920605D525B1044668
:103F400002F000FD216820464969426C01F0400101
:103F500002F00802891800F0B98000BF016851E83A
:103F6000031F026821F4907142E80313BBB3016898
:103F700051E8031F026821F4907142E8031373B300
:103F8000016851E8031F026821F4907142E80313AD
:103F90002BB3016851E8031F026821F4907142E8D5
:103FA0000313002BDAD11AE0016851E8051F0268FB
:103FB00021F0010142E80513DBB1016851E8051F5A
:103FC000026821F0010142E8051393B1016851E84C
:103FD000051F026821F0010142E805134BB1016899
:103FE00051E8051F026821F0010142E80513002B8A
:103FF000DAD1016B012924D1016851E8031F02685D
:1040000021F0100142E80313DBB1016851E8031FFE
:10401000026821F0100142E8031393B1016851E8EE
:10402000031F026821F0100142E803134BB101683D
:1040300051E8031F026821F0100142E80313002B2E
:10404000DAD1202180F8421000210163016849691A
:10405000490640F1C380016851E8051F026821F05C
:10406000400142E80513DBB1016851E8051F026811
:1040700021F0400142E8051393B1016851E8051FA2
:10408000026821F0400142E805134BB1016851E894
:10409000051F026821F0400142E80513002BDAD128
:1040A000C16B002900F09A8046F28D52C0F60002E2
:1040B000044608460A65FEF7BDF800283FF408AE3E
:1040C000E06B016D02B0BDE8B04008470446FFF761
:1040D000BFFD0020606402B0B0BD00BF891A00BF00
:1040E000026852E8032F036822F4907243E8032524
:1040F000BDB3026852E8032F036822F4907243E8CC
:10410000032575B3026852E8032F036822F4907206
:1041100043E803252DB3026852E8032F036822F415
:10412000907243E80325002DDAD11AE0026852E8C4
:10413000052F036822F0010243E80525DDB102687E
:1041400052E8052F036822F0010243E8052595B1E6
:10415000026852E8052F036822F0010243E80525B2
:104160004DB1026852E8052F036822F0010243E8CE
:104170000525002DDAD1202280F84220002202639A
:10418000026852E8032F036822F0100243E8032577
:10419000DDB1026852E8032F036822F0100243E801
:1041A000032595B1026852E8032F036822F010023C
:1041B00043E803254DB1026852E8032F036822F05B
:1041C000100243E80325002DDAD1022289B24263AE
:1041D00002B0BDE8B040FFF7C7BC00BF02B0BDE809
:1041E000B040FFF735BD00BF026A32F8023B6FF303
:1041F0005F234B60026283E5002804BF0120704703
:1042000010B5044690F8410028B9002084F8400019
:10421000204600F021F8242084F841002068C1687D
:1042200021F40051C160204602F00CFC20680169B5
:1042300021F490410161416921F02A014161C16885
:1042400041F40051C16000202021606484F84110D5
:1042500084F84210606310BD2DE9F04387B0044636
:10426000006841F20041C4F2010100268842CDE914
:104270000566CDE90366029600F0D88044F6000199
:10428000C4F2000188426DD044F20041C4F2000142
:10429000884240F03B8143F630000196C4F20200B0
:1042A000016946F2280841F4003101610169C4F254
:1042B000020801F40031019101990196016841F071
:1042C00008010160006802A900F00800019001984F
:1042D000602002900220CDE903060320059007200C
:1042E000069040F20040C4F2020000F50060FEF7C4
:1042F000E1F940F6D40508F16000C2F200054FF084
:1043000000674FF48069C5E900072846C5E90266E1
:10431000C5E90496C5E90666C5E90866FEF780F8B2
:10432000002818BFFDF7BCFCE563AC6340F634150C
:1043300008F17800C2F200054021C5E9000705F147
:10434000080080E842022846C5E90566C5E9076617
:104350006E62FEF765F800284FF0260640F0CA802E
:10436000CAE000BF43F630000196C4F202000169C2
:1043700046F2280841F4802101610169C4F2020873
:1043800001F48021019101990196016841F0020137
:104390000160006802A900F00200019001984FF44A
:1043A000406002900220CDE903060320059007201B
:1043B000069040F20040C4F20200FEF77BF940F69E
:1043C0009415C2F200054FF000674FF4806928464B
:1043D000C5E90087C5E90266C5E90496C5E9066630
:1043E000C5E90866FEF71CF8002818BFFDF758FC61
:1043F000E563AC6340F6F41508F13000C2F2000545
:104400004021C5E9000705F1080080E8420228467E
:10441000C5E90566C5E907666E62FEF701F8002882
:104420004FF0270618BFFDF73BFC65E043F6300070
:104430000196C4F20200416946F2280841F02001C9
:1044400041614169C4F2020801F020010191019922
:104450000196016841F004010160006802A900F0C2
:10446000040001900198C02002900220CDE90306CB
:10447000032005900820069040F20040C4F202009C
:1044800000F58060FEF716F940F6542508F58060C7
:10449000C2F200054FF020674FF48069C5E90007BC
:1044A0002846C5E90266C5E90496C5E90666C5E978
:1044B0000866FDF7B5FF002818BFFDF7F1FBE563BF
:1044C000AC6340F6B42508F58F60C2F200054021C8
:1044D000C5E9000705F10800002280E80602284629
:1044E000C5E90522C5E907226A62FDF799FF4FF089
:1044F000470608B1FDF7D4FB304605210022A5632D
:10450000AC63FEF76FFA3046FEF75AFA07B0BDE823
:10451000F08300007047000070470000B0B590F8CD
:104520004140202C1CBF0220B0BD1346024600298A
:104530004FF0010018BF002B00D1B0BD4FF0000CB0
:10454000212011629384D384C2F844C082F84100D0
:1045500014681546906B46F68D0E46F63D12C0F671
:10456000000EC0F60002C0E90FE246F29952C0F612
:104570000002C0E9132C221DFEF704F830B1102010
:104580006864202085F841000120B0BD28682946D4
:104590006FF04002026000BF086850E8050F0A682B
:1045A00040F0800042E8050303B3086850E8050FB7
:1045B0000A6840F0800042E80503BBB1086850E893
:1045C000050F0A6840F0800042E8050373B10868EF
:1045D00050E8050F0A6840F0800042E80503002B10
:1045E0004FF0000008BFB0BDD6E700BF0020B0BD4F
:1045F00001F058B97047000010B540F6143EC2F201
:10460000000E9EF800308C46022B04D09EF800105D
:10461000032940F0078140F28051C2F20001B1F855
:104620008C3203F1010EB1F88A325FFA8EFE9E459C
:1046300006D1B1F88E320133A1F88E3208E000BF06
:10464000B1F88C3255240B4483F88A41A1F88CE2EE
:10465000B1F88C32B1F88A420133DBB2A34205D102
:10466000B1F88E320133A1F88E3208E0B1F88C42F5
:1046700001EB040EEE248EF88A41A1F88C32B1F8D9
:104680008C32B1F88A420133DBB2A34206D1B1F8D1
:104690008E020130A1F88E0207E000BFB1F88C4213
:1046A0000C4484F88A01A1F88C32B1F88C02B1F87C
:1046B0008A320130C0B2984206D1B1F88E02013080
:1046C000A1F88E0207E000BFB1F88C320B4483F8EA
:1046D0008AC1A1F88C02B1F88C02B1F88A3201309B
:1046E000C0B2984206D1B1F88E020130A1F88E0214
:1046F00007E000BFB1F88C320B4483F88A21A1F89F
:104700008C02B1F88C02B1F88A220130C0B290421A
:1047100006D1B1F88E020130A1F88E0208E000BF88
:10472000B1F88C220E230A4482F88A31A1F88C0257
:1047300091F89002002818BF10BD72B691F890024F
:1047400010B162B610BD00BF012081F89002B1F82F
:104750008C22B1F88A32D21A02F58072D31702EB9A
:10476000136323F0FF03D31A58D09AB2402A28BF0C
:104770004022012A88BF1046042B00F0030C53D2BC
:104780000020BCF1000F43D0B1F88A32B1F88C425E
:10479000A3420DD0B1F88A320C180B4493F88A3139
:1047A00084F84430B1F88A320133DBB2A1F88A329E
:1047B000BCF1010F2CD0B1F88A32B1F88C42A3427F
:1047C0000ED0B1F88A32441C0B4493F88A310C4461
:1047D00084F84430B1F88A320133DBB2A1F88A326E
:1047E000BCF1020F14D0B1F88A32B1F88C42A34266
:1047F0000ED0B1F88A3202300B4493F88A31084463
:1048000080F84430B1F88A020130C0B2A1F88A02BF
:1048100051F8440BFFF782FE03E000BF002081F84F
:10482000900262B610BD00BF00F07C0E002002E0D6
:1048300004308645A5D0B1F88A42B1F88C329C424A
:1048400012D1B1F88A32B1F88C42A34220D1B1F82A
:104850008A32B1F88C42A3422ED1B1F88A32B1F833
:104860008C42A342E4D03BE0B1F88A320C180B44EE
:1048700093F88A3184F84430B1F88A320133DBB2DC
:10488000A1F88A32B1F88A32B1F88C42A342DED064
:10489000B1F88A320C180B4493F88A3184F8453009
:1048A000B1F88A320133DBB2A1F88A32B1F88A3228
:1048B000B1F88C42A342D0D0B1F88A320C180B4424
:1048C00093F88A3184F84630B1F88A320133DBB28A
:1048D000A1F88A32B1F88A32B1F88C42A342A7D04B
:1048E000B1F88A320C180B4493F88A3184F84730B7
:1048F000B1F88A320133DBB2A1F88A3298E70000BE
:104900002DE9F04F81B040F28054DDF840A0DDE9A0
:104910000ECBDDE90CE6DDE90A75C2F2000472B6E1
:104920000090A4F898020120A4F89A12A4F89C22FE
:1049300084F89E3284F89F7284F8A05284F8A1E231
:1049400084F8A26284F8A3C284F8A4B284F8A5A271
:1049500084F8A90240F6143062B6C2F20000007872
:10496000022840F08A81984691460F46FDF77EFF67
:1049700040F2B021C2F200010A683B46CE46C4466E
:10498000DDF828800C9FDDF83890821A322AC0F0BA
:1049900074810860B4F88C02B4F88A120130C0B295
:1049A000884205D1B4F88E020130A4F88E0207E0E7
:1049B000B4F88C125522214481F88A21A4F88C0283
:1049C000B4F88C02B4F88A120130C0B2884205D122
:1049D000B4F88E020130A4F88E0207E0B4F88C120D
:1049E000CC22214481F88A21A4F88C02B4F88C02EC
:1049F000B4F88A120130C0B2884205D1B4F88E02F0
:104A00000130A4F88E0207E0B4F88C12009A214419
:104A100081F88A21A4F88C02B4F88C02B4F88A12C6
:104A20000130C0B2884205D1B4F88E020130A4F83A
:104A30008E0208E0B4F88C12009A2144120A81F820
:104A40008A21A4F88C02B4F88C02B4F88A120130DE
:104A5000C0B2884206D1B4F88E020130A4F88E02AA
:104A600007E000BFB4F88C12214481F88A31A4F821
:104A70008C02B4F88C02B4F88A120130C0B28842B9
:104A800006D1B4F88E020130A4F88E0208E000BF0F
:104A9000B4F88C121A0A214481F88A21A4F88C02F5
:104AA000B4F88C02B4F88A120130C0B2884205D141
:104AB000B4F88E020130A4F88E0206E0B4F88C122D
:104AC000214481F88AE1A4F88C02B4F88C02B4F88D
:104AD0008A120130C0B2884206D1B4F88E02013089
:104AE000A4F88E0209E000BFB4F88C124FEA1E222F
:104AF000214481F88A21A4F88C02B4F88C02B4F81D
:104B00008A120130C0B2884206D1B4F88E02013058
:104B1000A4F88E0207E000BFB4F88C12214481F89B
:104B20008AC1A4F88C02B4F88C02B4F88A1201305D
:104B3000C0B2884206D1B4F88E020130A4F88E02C9
:104B400007E000BFB4F88C12214481F88A81A4F8F0
:104B50008C02B4F88C02B4F88A120130C0B28842D8
:104B600006D1B4F88E020130A4F88E0207E000BF2F
:104B7000B4F88C12214481F88A51A4F88C02B4F85C
:104B80008C02B4F88A120130C0B2884206D1B4F85F
:104B90008E020130A4F88E0207E000BFB4F88C1238
:104BA000214481F88A71A4F88C02B4F88C02B4F81C
:104BB0008A120130C0B2884206D1B4F88E020130A8
:104BC000A4F88E0207E000BFB4F88C12214481F8EB
:104BD0008A61A4F88C02B4F88C02B4F88A1201300D
:104BE000C0B2884206D1B4F88E020130A4F88E0219
:104BF00007E000BFB4F88C12214481F88A91A4F830
:104C00008C02B4F88C02B4F88A120130C0B2884227
:104C100006D1B4F88E020130A4F88E0207E000BF7E
:104C2000B4F88C12214481F88AB1A4F88C02B4F84B
:104C30008C02B4F88A120130C0B2884206D1B4F8AE
:104C40008E020130A4F88E0207E000BFB4F88C1287
:104C5000214481F88AA1A4F88C02B4F88C02B4F83B
:104C60008A120130C0B288420AD1B4F88E020130F3
:104C7000A4F88E0294F8900270B101B0BDE8F08FF4
:104C8000B4F88C120C22214481F88A21A4F88C02F9
:104C900094F890020028F0D172B694F8900218B1FE
:104CA00062B601B0BDE8F08F012084F89002B4F83C
:104CB0008C12B4F88A22891A01F58071CA1701EBA7
:104CC000126222F0FF02891A58D08AB2402A28BF05
:104CD0004022012A88BF1046042900F0030155D262
:104CE0000020002941D0B4F88A32B4F88C72BB425B
:104CF0000DD0B4F88A322718234493F88A3187F804
:104D00004430B4F88A320133DBB2A4F88A32012984
:104D10002BD0B4F88A32B4F88C72BB420ED0B4F8FF
:104D20008A32471C234493F88A31274487F8443059
:104D3000B4F88A320133DBB2A4F88A32022914D0E3
:104D4000B4F88A12B4F88C3299420ED0B4F88A12B0
:104D50000230214491F88A11204480F84410B4F8BC
:104D60008A020130C0B2A4F88A0254F8440B2146EA
:104D7000FFF7D4FB62B601B0BDE8F08F002084F8E5
:104D8000900262B601B0BDE8F08F00BF00F07C0376
:104D9000002002E004308342A3D0B4F88A72B4F851
:104DA0008C62B74212D1B4F88A72B4F88C62B742FE
:104DB00020D1B4F88A72B4F88C62B7422ED1B4F81C
:104DC0008A72B4F88C62B742E4D03BE0B4F88A72DD
:104DD0002618274497F88A7186F84470B4F88A72C6
:104DE0000137FFB2A4F88A72B4F88A72B4F88C6200
:104DF000B742DED0B4F88A722618274497F88A7131
:104E000086F84570B4F88A720137FFB2A4F88A7246
:104E1000B4F88A72B4F88C62B742D0D0B4F88A720F
:104E20002618274497F88A7186F84670B4F88A7273
:104E30000137FFB2A4F88A72B4F88A72B4F88C62AF
:104E4000B742A7D0B4F88A722618274497F88A7117
:104E500086F84770B4F88A720137FFB2A4F88A72F4
:104E600098E7000010B540F61433C2F200031B7837
:104E70008C4603F00F01012940F00E8140F2805171
:104E8000C2F2000172B681F8920281F893C281F8F1
:104E9000942262B6B1F88C3203F1010EB1F88A3275
:104EA0005FFA8EFE9E4505D1B1F88E320133A1F82E
:104EB0008E3207E0B1F88C3255240B4483F88A41D6
:104EC000A1F88CE2B1F88C32B1F88A420133DBB23E
:104ED000A34205D1B1F88E320133A1F88E3208E039
:104EE000B1F88C4201EB040EBB248EF88A41A1F884
:104EF0008C32B1F88C32B1F88A420133DBB2A34272
:104F000006D1B1F88E020130A1F88E0207E000BF91
:104F1000B1F88C420C4484F88A01A1F88C32B1F8C3
:104F20008C02B1F88A320130C0B2984206D1B1F891
:104F30008E020130A1F88E0207E000BFB1F88C327A
:104F40000B4483F88AC1A1F88C02B1F88C02B1F845
:104F50008A320130C0B2984206D1B1F88E020130D7
:104F6000A1F88E0207E000BFB1F88C320B4483F841
:104F70008A21A1F88C02B1F88C02B1F88A220130A2
:104F8000C0B2904206D1B1F88E020130A1F88E0273
:104F900008E000BFB1F88C220B230A4482F88A3162
:104FA000A1F88C0291F89002002818BF10BD72B6CB
:104FB00091F8900210B162B610BD00BF012081F8D7
:104FC0009002B1F88C22B1F88A32D21A02F58072BE
:104FD000D31702EB136323F0FF03D31A58D09AB20E
:104FE000402A28BF4022012A88BF1046042B00F027
:104FF000030C53D20020BCF1000F43D0B1F88A3229
:10500000B1F88C42A3420DD0B1F88A320C180B448F
:1050100093F88A3184F84430B1F88A320133DBB234
:10502000A1F88A32BCF1010F2CD0B1F88A32B1F864
:105030008C42A3420ED0B1F88A32441C0B4493F840
:105040008A310C4484F84430B1F88A320133DBB23F
:10505000A1F88A32BCF1020F14D0B1F88A32B1F84B
:105060008C42A3420ED0B1F88A3202300B4493F83E
:105070008A31084480F84430B1F88A020130C0B265
:10508000A1F88A0251F8440BFFF748FA03E000BF89
:10509000002081F8900262B610BD00BF00F07C0EC7
:1050A000002002E004308645A5D0B1F88A42B1F86C
:1050B0008C329C4212D1B1F88A32B1F88C42A342B0
:1050C00020D1B1F88A32B1F88C42A3422ED1B1F886
:1050D0008A32B1F88C42A342E4D03BE0B1F88A3284
:1050E0000C180B4493F88A3184F84430B1F88A32B2
:1050F0000133DBB2A1F88A32B1F88A32B1F88C42BE
:10510000A342DED0B1F88A320C180B4493F88A31EE
:1051100084F84530B1F88A320133DBB2A1F88A3223
:10512000B1F88A32B1F88C42A342D0D0B1F88A32B9
:105130000C180B4493F88A3184F84630B1F88A325F
:105140000133DBB2A1F88A32B1F88A32B1F88C426D
:10515000A342A7D0B1F88A320C180B4493F88A31D5
:1051600084F84730B1F88A320133DBB2A1F88A32D1
:1051700098E7000080B540F28051C2F200010022A1
:10518000086081F8902281F8A922A1F88821A1F86D
:105190008E2204314022FEF7EFFB00200021002286
:1051A000FBF7BCFE012000210022FBF7B7FE022026
:1051B00000210022FBF7B2FE032000210022FBF7B2
:1051C000ADFE042000210022FBF7A8FE05200021EF
:1051D0000022FBF7A3FE062000210022FBF79EFE23
:1051E000072000210022FBF799FE08200021002261
:1051F000BDE88040FBF792BE2DE9F04F8DB040F244
:105200008054C2F2000494F89002002800F07C81DF
:10521000B4F88601B4F88411401A00F5807000EBF0
:10522000106121F0FF01401A0228C0F0698140F6A8
:10523000143840F2B42A40F2B52B0DF12409C2F221
:105240000008C2F2000AC2F2000B14E0B4F88401B4
:105250000130C0B2A4F88401B4F88601B4F8841116
:10526000401A00F5807000EB106121F0FF01401A38
:10527000012840F24581B4F88401211891F8841086
:105280005529E3D1471C54FA87F191F88410CB29B2
:105290000CDCAA2916D0BB29D8D14FF0020C06226B
:1052A000012600254FF00B0E1BE000BFCC2911D0CA
:1052B000DD29CBD14FF0040C0622012600254FF04A
:1052C0000D0E0EE00125042200264FF00A0E4FF0CD
:1052D000010C06E04FF0030C112200254FF00C0EDC
:1052E0000026B4F88611B4F88431C91A01F580712A
:1052F00001EB116323F0FF03C91A89B28A4200F25D
:10530000FF8004F184010B5CFFB2CF5D8DF8243087
:10531000831C8DF82570DBB2C71CCB5CFFB2CF5D60
:105320008DF82630031D8DF82770002DDFB24BD18C
:10533000CB5D451DEDB24D5D8DF82830831D002EEF
:10534000DFB28DF829503FD1CB5D00F108058DF813
:105350002A30C31DDBB2EDB2CB5C4D5D8DF82B3036
:105360008DF82C5000F1090300F10A05DBB2EDB213
:10537000CB5C4D5D8DF82D308DF82E5000F10B0378
:1053800000F10C05DBB2EDB2CB5C4D5D8DF82F303A
:105390008DF8305000F10D0300F10E05DBB2EDB2D7
:1053A000CB5C4D5D8DF831308DF8325000F10F033C
:1053B00000F11005DBB2EDB2CB5C495D11308DF828
:1053C00033308DF83410C7B202EB090010F8010C2D
:1053D000864523D1BCF1040F42D0BCF1020F25D089
:1053E000BCF1010F1ED198F800109DF8260002298B
:1053F00084F8910288F8000098F8000048D102284B
:1054000010D072B6B4F88C02A4F88A0262B6206892
:10541000FEF7B6FB002084F8900203E0B4F88401A4
:105420000130C7B2A4F8847116E700BF98F80000F5
:1054300000F00F000128F5D19DF826009DF82710F7
:105440009DF8282084F8950284F8961284F8972213
:105450008AF800108BF80020FBF792FFE2E700BF0C
:1054600098F80000032803D098F800000228D9D14A
:105470009DF826009DF827109DF8282084F8A602A4
:1054800084F8A71284F8A822FBF748FDCAE700BFFA
:105490000228C7D194F8A9020028C3D0B4F9980211
:1054A00051460890B4F99A0294F8A4A2079048468D
:1054B000C14694F8A38294F8A5B2B4F99C2294F85A
:1054C0009E3294F89F6294F8A05294F8A1C294F886
:1054D000A2E2CDF81080C8468146CDF814A08A46D5
:1054E000DDE90710CDF818B040F2B52BCDE9006525
:1054F000CDE902CEC2F2000BFFF702FA92E700BF3D
:105500000DB0BDE8F08F00BFB4F88C02B4F88A1279
:10551000401A00063FF47CAE72B694F8900208B1CF
:1055200062B675E6012084F89002B4F88C12B4F8E3
:105530008A22891A01F58071CA1701EB126222F0E2
:10554000FF02891A56D08AB2402A28BF4022012A77
:1055500088BF1046042900F0030151D20020002921
:1055600041D0B4F88A32B4F88C72BB420DD0B4F892
:105570008A322718234493F88A3187F84430B4F8E4
:105580008A320133DBB2A4F88A3201292BD0B4F875
:105590008A32B4F88C72BB420ED0B4F88A32471CFF
:1055A000234493F88A31274487F84430B4F88A3288
:1055B0000133DBB2A4F88A32022914D0B4F88A127B
:1055C000B4F88C3299420ED0B4F88A1202302144D9
:1055D00091F88A11204480F84410B4F88A0201300E
:1055E000C0B2A4F88A02214651F8440BFEF796FF98
:1055F00003E000BF002084F8900262B608E600BF16
:1056000000F07C03002002E004308342A7D0B4F80D
:105610008A72B4F88C62B74212D1B4F88A72B4F8C4
:105620008C62B74220D1B4F88A72B4F88C62B74267
:105630002ED1B4F88A72B4F88C62B742E4D03BE061
:10564000B4F88A722618274497F88A7186F844704D
:10565000B4F88A720137FFB2A4F88A72B4F88A7279
:10566000B4F88C62B742DED0B4F88A7226182744A8
:1056700097F88A7186F84570B4F88A720137FFB2DC
:10568000A4F88A72B4F88A72B4F88C62B742D0D0A7
:10569000B4F88A722618274497F88A7186F84670FB
:1056A000B4F88A720137FFB2A4F88A72B4F88A7229
:1056B000B4F88C62B742A7D0B4F88A72261827448F
:1056C00097F88A7186F84770B4F88A720137FFB28A
:1056D000A4F88A7298E7000010B540F28054C2F234
:1056E00000042168814218BF10BD002084F8900298
:1056F0000846FEF745FA2068211D4022BDE810400B
:10570000FEF73AB970B540F28053C2F20003D3F805
:1057100000E0864518BF70BD002900F0BC80042958
:1057200001F0030C02D2002162E000BF21F003006F
:10573000002107E0B3F888210132A3F88821043161
:10574000884255D05A181479B3F88651B3F8846159
:105750000135EDB2B54205D1B3F888410134A3F863
:10576000884106E0B3F886611E4486F88440A3F8B9
:1057700086515479B3F88651B3F884610135EDB29E
:10578000B54205D1B3F888410134A3F8884106E059
:10579000B3F886611E4486F88440A3F88651947954
:1057A000B3F88651B3F884610135EDB2B54205D145
:1057B000B3F888410134A3F8884106E0B3F8866164
:1057C0001E4486F88440A3F88651D279B3F8864106
:1057D000B3F884510134E4B2AC42ABD0B3F8865193
:1057E0001D4485F88420A3F8864104318842A9D15C
:1057F000BCF1000F4FD058180179B3F88621B3F8E7
:1058000084410132D2B2A24208D1B3F888110131E9
:10581000A3F88811BCF1010F0AD13CE0B3F886412E
:105820001C4484F88410A3F88621BCF1010F32D007
:105830004179B3F88621B3F884410132D2B2A24251
:1058400008D1B3F888110131A3F88811BCF1020F17
:105850000AD120E0B3F886411C4484F88410A3F8F0
:105860008621BCF1020F16D08079B3F88611B3F807
:1058700084210131C9B2914206D1B3F888010130C7
:10588000A3F8880107E000BFB3F886211A4482F824
:105890008400A3F88611191D70464022BDE87040AF
:1058A000FEF76AB840F28053C2F20003D3F800C09A
:1058B000604501D0704700BF002083F89002B3F824
:1058C0008C02B3F88A12401A00F58070C11700EB01
:1058D000116121F0FF01401A08BF7047B0B582B2D4
:1058E000402A28BF4022012A114698BF01210428DE
:1058F00001F0030E52D20020BEF1000F43D0B3F8E6
:105900008A12B3F88C42A1420DD0B3F88A121C1847
:10591000194491F88A1184F84410B3F88A120131BD
:10592000C9B2A3F88A12BEF1010F2CD0B3F88A12C3
:10593000B3F88C42A1420ED0B3F88A12441C194429
:1059400091F88A111C4484F84410B3F88A1201318A
:10595000C9B2A3F88A12BEF1020F14D0B3F88A12AA
:10596000B3F88C42A1420ED0B3F88A120230194427
:1059700091F88A11184480F84410B3F88A02013073
:10598000C0B2A3F88A02012403F14401604683F8FF
:105990009042BDE8B040FEF7C1BD00BF01F07C0100
:1059A000002002E004308142A6D0B3F88A42B3F866
:1059B0008C52AC4212D1B3F88A42B3F88C52AC424A
:1059C00020D1B3F88A42B3F88C52AC422ED1B3F84E
:1059D0008A42B3F88C52AC42E4D03BE0B3F88A423E
:1059E0001D181C4494F88A4185F84440B3F88A4253
:1059F0000134E4B2A3F88A42B3F88A42B3F88C5275
:105A0000AC42DED0B3F88A421D181C4494F88A4197
:105A100085F84540B3F88A420134E4B2A3F88A42DB
:105A2000B3F88A42B3F88C52AC42D0D0B3F88A4271
:105A30001D181C4494F88A4185F84640B3F88A4200
:105A40000134E4B2A3F88A42B3F88A42B3F88C5224
:105A5000AC42A7D0B3F88A421D181C4494F88A417E
:105A600085F84740B3F88A420134E4B2A3F88A4289
:105A700098E70000FEE7000040F27C21C2F200013E
:105A80000A68904218BF7047D1E9010140F6C84248
:105A9000C2F20002106051607047000010B540F281
:105AA0007C21C2F2000141F8040B0422FCF7AAFA9F
:105AB00040F6A834C2F2000420460C21FDF7B6FEE1
:105AC00020685A21016410BD7047000010B584B0F1
:105AD00040F62C00C2F2000042F2001C4FF080524F
