:020000040800F2
:10000000B80A0020890100082F18000843170008CB
:100010002D1800088F020008F51C000800000000E1
:10002000000000000000000000000000331800087D
:100030007F0400080000000031180008351800088F
:10004000A3010008A3010008A3010008A301000800
:10005000A3010008A3010008A3010008A3010008F0
:10006000A3010008A3010008A3010008A3010008E0
:10007000A3010008A3010008A3010008310400083F
:100080003D04000849040008A3010008A30100087A
:10009000A3010008A3010008A3010008A3010008B0
:1000A000A301000899180008A3010008A301000893
:1000B000A3010008A3010008A3010008A301000890
:1000C000A3010008A3010008A3010008A301000880
:1000D000A3010008DD1C0008E91C0008A3010008BA
:1000E000A3010008A3010008A301000800F002F822
:1000F00000F03AF80AA090E8000C82448344AAF188
:100100000107DA4501D100F02FF8AFF2090EBAE885
:100110000F0013F0010F18BFFB1A43F0010318473B
:10012000701D0000901D0000103A24BF78C878C1EF
:10013000FAD8520724BF30C830C144BF04680C60ED
:10014000704700000023002400250026103A28BF35
:1001500078C1FBD8520728BF30C148BF0B60704739
:100160001FB51FBD10B510BD00F058F81146FFF7C0
:10017000F7FF01F0E1FD00F076F803B4FFF7F2FFBE
:1001800003BC00F07DF8000009488047094800479B
:10019000FEE7FEE7FEE7FEE7FEE7FEE7FEE7FEE737
:1001A000FEE7FEE704480549054A064B7047000094
:1001B00095180008ED000008B8040020B80A0020D7
:1001C000B8060020B80600204FF0000200B5134624
:1001D00094469646203922BFA0E80C50A0E80C5067
:1001E000B1F12001BFF4F7AF090728BFA0E80C5018
:1001F00048BF0CC05DF804EB890028BF40F8042B11
:1002000008BF704748BF20F8022B11F0804F18BF7D
:1002100000F8012B7047704770477047754600F033
:100220002BF8AE4605006946534620F00700854688
:1002300018B020B5FFF7B6FFBDE820404FF000062C
:100240004FF000074FF000084FF0000B21F00701BE
:10025000AC46ACE8C009ACE8C009ACE8C009ACE801
:10026000C0098D46704710B50446AFF300802046A4
:10027000BDE81040FFF781BF0048704754040020DC
:1002800001491820ABBEFEE7260002007047FEE7DA
:10029000044902460868904203D14022091D00F03B
:1002A000D0BF7047B40100202DE9F0410D4C0E463F
:1002B0002168814213D1002504F1840706E060190A
:1002C0000179384600F0EDF86D1CADB2B542F6D3B9
:1002D0004022211D2068BDE8F04100F0B2BFBDE81A
:1002E000F0810000B401002070B51B4D29688142E7
:1002F00030D105F5C470044600F0C4F8020026D0E1
:10030000402A02D94022002001E0002013E0B4F886
:1003100000312918B4F802614431B34209D0B4F86D
:100320000061A35D0B70B4F80011491CCBB2A4F8B6
:100330000031401C80B29042E9D3012085F88C0244
:100340002868BDE870400449443101F0BBB9002081
:1003500085F88C0270BD0000B40100200A4900221B
:10036000086081F88C224AF6CB12A1F88E2246F260
:100370008752A1F8902242F24312A1F89222402221
:10038000091D00F05EBF0000B40100202DE9FF410F
:10039000264D6F4605F1840641E000BFB5F8844163
:1003A000611C2819C9B2294490F8840091F884107E
:1003B000AA282ED155292CD100202919641C91F886
:1003C00084103954401CE4B20E28F6D39DF80D0079
:1003D000DE281ED10A21B81C01F09EFC9DF80C10ED
:1003E000884216D1BDF80200A5F89402BDF80400B9
:1003F000A5F89602BDF80600A5F89802BDF8080019
:10040000A5F89A02BDF80A00A5F89C02A5F8844157
:1004100005E0B5F88401401CC0B2A5F8840130465F
:1004200000F030F80E28B9D2BDE8FF81B4010020F9
:10043000014800F0B3B80000A0000020014800F01F
:10044000ADB80000E4000020014800F0A7B80000AB
:100450002801002030B590F840500124AC40C56B15
:100460006C60046863604368102B036803D0996074
:100470000068C26030BD9A600068C16030BD7047DE
:1004800072B6FEE7B0F80211B0F80001081A00F5E4
:100490008070C11700EB116121F0FF01401A80B29A
:1004A0007047B0F80221B0F80031521CD2B293422A
:1004B00004D0B0F80231C154A0F80221704710B541
:1004C00090F821100022022905D00421816380F8D0
:1004D0002020012010BD01680B6823F00E030B6083
:1004E00001680B6823F001030B6090F84030C46B87
:1004F000012101FA03F3636080F8211080F82020C5
:10050000104610BD10B590F821100024022903D028
:100510000421816301243DE001680A6822F00E0293
:100520000A6001680A6822F001020A601A4A01683A
:10053000914201D1012121E0174A1432914201D1A7
:1005400010211BE0144A2832914201D1891515E08F
:10055000114A3C32914201D189140FE00E4A5032C7
:10056000914202D14FF4803108E00B4A643291424B
:1005700002D14FF4801101E04FF08071064A083A31
:100580005160012180F82110002180F82010416B7A
:1005900001B18847204610BD080002402DE9F05FF8
:1005A000C16B0C6801680B68D0F840C0042202FAE5
:1005B0000CF2494DDFF824A1494E4A4FDFF828B12B
:1005C000DFF828E122422CD05A072AD50A68920681
:1005D00003D40A6822F004020A600168A94201D12A
:1005E000042219E0514501D1402215E0B14202D167
:1005F0004FF4806210E0B94202D14FF480420BE028
:10060000594502D14FF4802206E0714502D14FF4E2
:10061000800201E04FF080622F4908394A60C16AC8
:100620003BE04FF0020808FA0CF818EA040F4FF00C
:1006300000094FF0010235D05FEA837832D50B68AC
:100640009B0605D40B6823F00A030B6080F8212079
:100650000168A94201D1022219E0514501D12022AD
:1006600015E0B14202D14FF4007210E0B94202D15C
:100670004FF400520BE0594502D14FF4003206E02E
:10068000714502D14FF4001201E04FF0007212499F
:1006900008394A6080F82090816A00291AD0BDE8A4
:1006A000F05F0847082505FA0CF5254212D01B0714
:1006B00010D50B6823F00E030B6090F84010C36B4D
:1006C00002FA01F15960826380F8212080F82090BD
:1006D000016BE2E7BDE8F09F080002401C00024009
:1006E0003000024044000240580002406C000240CA
:1006F00030B528B308C8134914221944B1FBF2F1EC
:100700008900C16310498163022141771A6843F669
:10071000F0718A43D0E900142143D0E902452C430B
:1007200021430469214344692143846921431143DE
:10073000196000214163012242770177084630BDEC
:10074000012030BDF8FFFDBF0000024070B5044637
:1007500090F82000002501280CD0012084F820000A
:1007600094F821600020012E06D084F82000022594
:10077000284670BD022070BD022684F82160A06367
:100780002068066826F0010606602046FFF762FE34
:10079000E06A00282068016802D041F00E0106E0FE
:1007A00021F0040101602068016841F00A01016044
:1007B0002068016841F001010160D9E72DE9F84F97
:1007C000DFF8B8910024A9F1040B23460F2709F1A3
:1007D000040AABF1040EC9E00125A5402A40AA4253
:1007E0007DD1674ED1F804C0ACEB0608B44532D0D9
:1007F00014DCBCF1030F3AD009DCBCF1000F2AD0A5
:10080000BCF1010F1CD0BCF1020F31D11DE0BCF1D5
:10081000110F17D0BCF1120F2AD119E0B8F5881FBB
:1008200019D006DCB8F5803F15D0B8F5801F1FD170
:1008300011E0B8F5001F0ED0B8F5041F18D10AE07A
:10084000CB6815E0CB681B1D12E0CB6808330FE0C6
:10085000CB680C330CE08B682BB1012B4FF00803F5
:1008600003D0456104E0042302E0056100E00023B9
:10087000FF2A01D8064601E000F104064FEA84058C
:1008800001D9A5F12005D6F8008007FA05FC28EA71
:100890000C0803FA05F548EA0508C6F800804D681B
:1008A000ED0062D5374DAE6946F00106AE61AD6927
:1008B00024F0030605F001050095334D06EB050C09
:1008C000DCF80850A607360F07FA06F825EA0805EF
:1008D000DFF8B880404503D14FF0000817E044E04E
:1008E000DFF8AC80404502D14FF001080FE0DFF89F
:1008F000A480404502D14FF0020808E0DFF898805C
:10090000404502D14FF0030801E04FF0040808FA17
:1009100006F848EA0508CCF808804D68D9F8006068
:10092000ED024D4601D5164300E096432E604D681A
:10093000DAF80060AD02554601D5164300E0964353
:100940002E604D68DBF80060AD035D4601D51643AF
:1009500000E096432E604D68DEF80060ED037546BA
:1009600001D5164300E096432E60641C0D682A46AC
:10097000E5407FF431AFBDE8F88F00000804014086
:10098000000011100010024000000140000801406A
:10099000000C014000100140001401400148806833
:1009A000704700000000002002488168027811446E
:1009B0008160704700000020074810B5016841F0D1
:1009C00010010160032000F09BF80F2000F006F8F2
:1009D00000F04AF8002010BD0020024030B5054666
:1009E0001C4887B0816941F400618161806906A972
:1009F00000F40060009001A800F02AF900F058F916
:100A00001549164AB0FBF1F11548491E02604160D4
:100A100040F2E7320021C0E903218160816100F0EA
:100A20000FFB040012D10E4800F038FB04000DD17A
:100A3000192000F037F8102D07D20022294619207E
:100A400000F03EF80748056000E0012407B02046AA
:100A500030BD00000010024040420F00002C014059
:100A60006C010020040000200C4808B5816941F0A9
:100A700001018161816901F001010091C16941F0C9
:100A80008051C161C06900F0805000900448416805
:100A900021F0E06141F00071416008BD00100240AA
:100AA00000000140002809DB00F01F0201219140F5
:100AB0004009800000F1E020C0F8001170470000FC
:100AC000F0B40E4B1B680C46C3F30223C3F10705B9
:100AD000042D00D90425191D072901D2002300E0A7
:100AE000DB1E012606FA05F1491E214099409E4071
:100AF000761E16403143F0BC01F0FDB80CED00E06D
:100B0000064900F0070208684FF6FF03184040EA64
:100B10000220034A10430860704700000CED00E01B
:100B20000000FA052DE9F0470F46050061D0434E5D
:100B3000306800F00700B84209D2306820F00700A2
:100B400038433060306800F00700B84251D128685F
:100B50003B4C810712D5400703D5606840F4E06044
:100B600060602878000703D5606840F460506060DA
:100B70006068A96820F0F000084360602878C0072A
:100B800028D06868012810D02168022810D0890771
:100B900000292EDA616821F0030101436160FFF74B
:100BA000FDFE804641F288390DE021688903EFE7B8
:100BB0008901EDE7FFF7F2FEA0EB0801494502D9F4
:100BC0000320BDE8F0876068696800F00C00B0EBB6
:100BD000810FEFD1306800F00700B8420BD93068C0
:100BE00020F0070038433060306800F00700B8425A
:100BF00001D00120E5E72878400705D56068E9685D
:100C000020F4E060084360602878000706D560683B
:100C1000296920F4605040EAC100606000F058F893
:100C20006168084AC1F30311515CC8400649086075
:100C300006480068FFF7D2FE0020C2E7002002400D
:100C400000100240761D00080C0000200400002067
:100C50000F2202600C4A536803F003034360536899
:100C600003F0F0038360536803F4E063C3605268E9
:100C70004FF4E06303EAD20202610448006800F026
:100C8000070008607047000000100240002002408A
:100C90000448054900684968044AC1F30221515CCF
:100CA000C84070470C00002000100240861D00085C
:100CB0000448054900684968044AC1F3C221515CEF
:100CC000C84070470C00002000100240861D00083C
:100CD0000E4A51680E4801F00C03042B11D0082B6A
:100CE0000FD10C48C1F38343C903C05C0AD55168D6
:100CF000084AC1F34041921E515C054A5043B0FB83
:100D0000F1F070470449484370470000001002406A
:100D100000127A00661D000800093D002DE9F84F19
:100D2000040070D02078C04DC00749D06868C0F377
:100D30008100012807D06868C0F38100022809D12A
:100D40006868C00306D52868800339D56068002824
:100D5000E7D035E06068B0F5803F0BD010B1B0F55A
:100D6000A02F11D0286820F480302860286820F453
:100D7000802002E0286840F480302860606890B1EC
:100D8000FFF70CFE06460AE0286840F48020286041
:100D9000F0E700BFFFF702FE801B642873D82868C5
:100DA0008003F7D50CE0FFF7F9FD064605E000BF2C
:100DB000FFF7F4FD801B6428F0D828688003F7D47F
:100DC00020789A4E80074FF001094FF0000839D57E
:100DD000686810F00C0F07D06868C0F38100022823
:100DE00009D16868C00306D42868800714D5206933
:100DF000012808D110E02069B0B1C6F80090FFF7D3
:100E0000CDFD074605E00AE1FFF7C8FDC01B02283B
:100E1000C4D828688007F7D52868616920F0F800F1
:100E200040EAC10028600DE0C6F80080FFF7B6FD7B
:100E3000074604E0FFF7B2FDC01B022823D828684C
:100E40008007F7D4207800072CD57948A169D9B15B
:100E5000C0F80090FFF7A2FD074604E0FFF79EFDF3
:100E6000C01B02280FD8686A8007F7D571484FF475
:100E7000FA510068B0FBF1F0009000BF0098411EED
:100E80000091FAD20EE080E0C0F80080FFF786FD06
:100E9000074604E0FFF782FDC01B022875D8686A88
:100EA0008007F7D42078400760D5E8690027C000A4
:100EB00008D4E86940F08050E861E869012700F053
:100EC000805000905C480168C90513D401688346CE
:100ED00041F480710160FFF761FD824606E000BFCA
:100EE000FFF75CFDA0EB0A0064284ED8DBF8000099
:100EF000C005F5D5E06801280AD008B1052813D04F
:100F0000286A20F001002862286A20F0040002E02C
:100F1000286A40F001002862E06841F2883B98B1FD
:100F2000FFF73CFD82460BE0286A40F0040028628F
:100F3000EEE700BFFFF732FDA0EB0A0159455AD892
:100F4000286A8007F6D50CE0FFF728FD824605E009
:100F5000FFF724FDA0EB0A0159454CD8286A800709
:100F6000F6D41FB1E86920F08050E861E06988B3E9
:100F70006968C1F38101022944D00228C6F8608063
:100F800004D0FFF70BFD044638E034E0FFF706FD20
:100F9000074604E0FFF702FDC01B02282BD8286893
:100FA0008001F7D4206AB0F5803F05D16868A16858
:100FB00020F4003008436860D4E9080108436968F8
:100FC00021F4741108436860C6F86090FFF7E6FCEE
:100FD000044606E025E000BFFFF7E0FC001B022806
:100FE00009D828688001F7D51BE000BFFFF7D6FCC1
:100FF000001B022802D90320BDE8F88F2868800171
:10100000F4D40EE00128F7D06868226A00F4803139
:10101000914204D1616A00F47010884201D001202D
:10102000EAE70020E8E7000000100240000042422A
:10103000800442420C00002000700040704770475E
:1010400010B5040003D094F83D0010B107E0012072
:1010500010BD002084F83C00204600F01EF802205D
:1010600084F83D00211D206800F01CFC012084F85C
:10107000460084F83E0084F83F0084F8400084F87D
:10108000410084F8420084F8430084F8440084F866
:10109000450084F83D00002010BD704790F83D10D9
:1010A000012901D001207047022180F83D1001681C
:1010B000CA6842F00102CA6000680B49884208D041
:1010C000B0F1804F05D00949884202D008498842D2
:1010D00004D1816801F00701062903D0016841F0BD
:1010E0000101016000207047002C01400004004015
:1010F0000008004070472DE9F04104460068C668CA
:1011000005694FF00007A90713D5B10711D5F91EDE
:10111000016101202077206880698007204602D085
:10112000FFF7E8FF04E000F07EF8204600F07CF8CE
:101130002777680716D5700714D521686FF004006B
:101140000861022020772068806910F4407F2046E3
:1011500002D0FFF7CFFF04E000F065F8204600F072
:1011600063F82777280715D5300713D521686FF066
:1011700008000861042020772068C06980072046A5
:1011800002D0FFF7B7FF04E000F04DF8204600F072
:101190004BF82777E80616D5F00614D521686FF0CE
:1011A00010000861082020772068C06910F4407F93
:1011B000204602D0FFF79EFF04E000F034F82046FE
:1011C00000F032F82777E80708D0F00706D021684A
:1011D0006FF001000861204600F028F8280608D5C5
:1011E000300606D521686FF0800008612046FFF7C1
:1011F00025FF680608D5700606D521686FF0400007
:101200000861204600F01CF8A8060AD5B00608D5EB
:1012100021686FF0200008612046BDE8F041FFF72B
:101220000EBFBDE8F08170477047000000680349B9
:10123000884201D1FFF7B8BB70470000002C014085
:10124000704738B5044690F84200202801D00220AB
:1012500038BD51B14AB101202063002060632046AF
:1012600000F0F4FC216B012901D0012038BD216878
:101270000A684968009121680C3151E8002F42F05A
:10128000100241E80023002BF5D138BDFFF70CB860
:10129000FEF7FEBFF8B5016804460868CA684B69E6
:1012A00010F00F0F4FF0000559D003F0010602F4C3
:1012B0009077374365D0C10705D0D10503D5616C60
:1012C00041F001016164410705D5D90703D0616C84
:1012D00041F002016164810705D5D90703D0616C33
:1012E00041F004016164010707D502F02001314398
:1012F00003D0616C41F008016164616C00293AD04F
:10130000800604D5900602D5204600F0E1FB206857
:101310004069616CC0F38010090700D460B32046B7
:1013200000F0A1FB20684069400621D520681430F8
:1013300050E8001F21F0400140E80012002AF5D1DA
:10134000E06BA8B16D494163E06BFFF7DBF8002863
:1013500011D0E06B416B01B0BDE8F0400847830657
:101360000FD593060DD52046BDE8F84000F0B0BB80
:101370002046FFF78DFFF8BD2046FFF789FF656423
:10138000F8BD266B2023012E7CD1C6067AD5D60661
:1013900078D508684868009048694FF00206400612
:1013A00040D5E16B086840680004000CE8D0A28DCD
:1013B0008242E5D9E085886920282DD020680C304C
:1013C00050E8001F21F4807140E80012002AF5D196
:1013D0002068143050E8001F21F0010140E800129D
:1013E000002AF5D12068143050E8001F21F0400198
:1013F00040E80012002AF5D184F8423025632068C5
:101400000C3050E8001F21F0100140E80012002AC3
:10141000F5D1E06BFFF753F86663A08DE18D401ABC
:1014200081B22AE0A08DE18D401A81B2E08D0028C2
:10143000A6D00029A4D022680C3252E8000F20F474
:10144000907042E80007002FF5D12068143050E872
:10145000002F22F0010240E80027002FF5D184F888
:101460004230256320680C3050E8002F22F0100233
:1014700040E80023002BF5D166632046FFF706FF06
:10148000F8BDFFE705062BD5150629D594F84100D0
:101490002128F5D1A068B0F5805F01D12069B0B1F5
:1014A000206A411C2162216800784860E08C401E5F
:1014B0000004000CE084E3D12068C16821F08001C1
:1014C000C1602068C16841F04001C160D8E7206A6E
:1014D0000088C0F308004860206A801C2062E5E7AD
:1014E0004006CDD55006CBD5CA68204622F0400232
:1014F000CA6084F8413000F021F9C1E71D190008E5
:1015000070B5040004D094F84100002510B106E045
:10151000012070BD84F84050204600F023F82420BC
:1015200084F841002068C16821F40051C160204660
:1015300000F030FB2068016921F4904101612068CE
:10154000416921F02A0141612068C16841F40051DC
:10155000C1606564202084F8410084F8420065631E
:10156000002070BDF0B585B0002400940194029471
:1015700003940646DFF830C103684C480221032279
:101580004B4D8027634538D1836943F480438361A1
:10159000836903F480430493836943F00403836104
:1015A0008069039200F0040004900802CDE9000174
:1015B00069462846FFF702F92815CDE90004694677
:1015C00028460294FFF7FAF83B4D3A48C5E9000473
:1015D000C5E902472C616C61AC612846EC61FFF7FC
:1015E00087F808B1FEF74CFFF5630022052125209E
:1015F0006E62FFF765FA252052E0DFF8C0C0634550
:1016000050D1C36943F40033C361C36903F40033A9
:101610000493836943F0040383618069039200F0BB
:10162000040004900420CDE9000169462846FFF734
:10163000C5F80820CDE90004694628460294FFF762
:10164000BDF81D4D1B4844351430C5E90004C5E9FB
:1016500002472C616C61AC612846EC61FFF748F8E9
:1016600008B1FEF70DFFF5636E62134D1148883522
:10167000283001C5102091C50F4845F81049883021
:101680006C61AC61EC61FFF733F808B1FEF7F8FE6E
:10169000B5630022114626206E62FFF711FA26205C
:1016A000FFF700FA05B0F0BD00380140001002401D
:1016B0000008014058000240A00000200044004003
:1016C0007047704770B5044690F84100202801D05B
:1016D000022070BD49B342B32162A284E28400209B
:1016E0006064212384F84130A56B114BAB62A56B7C
:1016F000104BEB62A56B104B2B63A36B58632568F3
:1017000013462A1DA06BFFF721F821686FF04000F7
:1017100008602068143050E8001F41F0800140E864
:101720000012002AF5D1002070BD012070BD00001C
:101730001B1A00085D1A00082D190008FEF7D4BD19
:101740007047FEE7114808B5416941F00101416168
:101750004069002200F00100009011460F20FFF7C1
:10176000AFF90F20FFF79EF9002211461020FFF776
:10177000A7F91020FFF796F9002211461120FFF774
:101780009FF9BDE808401120FFF78CB90010024016
:10179000094808B5816941F020018161816901F042
:1017A00020010091816941F004018161806900F0AC
:1017B0000400009008BD0000001002400C4810B565
:1017C0000A4901604FF4E1314160002181600C223F
:1017D000C160C0E904128161C161FFF791FE002878
:1017E00003D0BDE81040FEF74BBE10BD00380140ED
:1017F000100000200C4810B50A4901604FF4E13197
:101800004160002181600C22C160C0E90412816145
:10181000C161FFF775FE002803D0BDE81040FEF758
:101820002FBE10BD0044004058000020FEE7FEE738
:1018300070477047704730B58FB028216846FEF773
:10184000C3FC14210AA8FEF7BFFC01210804CDE95E
:1018500000100024029402250491CDE907504FF4B2
:10186000E01009906846FFF759FA08B172B6FEE732
:101870000F20CDE90A054FF48060CDE90C4002212C
:101880000AA80E94FFF74EF9002801D072B6FEE7C1
:101890000FB030BD704700000148FFF72CBC0000BE
:1018A0006C010020F0B50268194B1A4C1A4D4FF02C
:1018B0008047984205D0B84203D0A04201D0A84248
:1018C00003D122F070064A683243984205D0B842EC
:1018D00003D0A04201D0A84203D122F44074CA68C8
:1018E00022434C6922F08002224302608A68C2626D
:1018F0000A688262984201D109690163012141614C
:101900000169C90703D0016921F001010161F0BD3E
:10191000002C0140000400400008004010B5406A5F
:101920000021C185C184FFF7B3FC10BD70B5446AC6
:101930002068406994F84110C0F3C01000252129A7
:1019400004D118B1E584204600F0B4F8206840695D
:1019500094F84210C0F38010222904D118B1E58513
:10196000204600F080F8606C40F010006064204673
:10197000FFF78EFC70BD10B50146406A0968096822
:101980004FF0000289062ED4C28501680C3151E85F
:10199000003F23F4807341E80034002CF5D1016846
:1019A000143151E8003F23F0010341E80034002CDA
:1019B000F5D10168143151E8003F23F0400341E8BC
:1019C0000034002CF5D1202180F84210016B012950
:1019D00009D101680C3151E8003F23F0100341E8C0
:1019E0000034002CF5D14263016B012902D0FFF7CE
:1019F00067FE10BD818DFFF749FC10BD10B5406A30
:101A000001214163016B012902D0FFF75AFE10BD8D
:101A1000818D4908FFF73AFC10BD10B50146406AB8
:101A200009680968890616D40021C1840168143147
:101A300051E8002F22F0800241E80023002BF5D16D
:101A400001680C3151E8002F42F0400241E80023C8
:101A5000002BF5D110BDFFF771FE10BD10B5406A27
:101A6000FFF76EFE10BD01680C3151E8002F22F423
:101A7000907241E80023002BF5D10168143151E840
:101A8000002F22F0010241E80023002BF5D1016B69
:101A9000012909D101680C3151E8002F22F0100210
:101AA00041E80023002BF5D1202180F842100021CD
:101AB0000163704701680C3151E8002F22F0C00229
:101AC00041E80023002BF5D1202180F84110704718
:101AD00008B590F84210222901D0022008BD826882
:101AE0004FF480539A4201D1016921B1816A9A422F
:101AF0001BD04AB10AE00268816A5268C2F3080248
:101B00000A80816A891C08E0026972B10268526821
:101B100002F07F020A70816A491C8162C18D491EF0
:101B20000904090CC18503D01BE002685268F1E783
:101B30000168CA6822F02002CA600168CA6822F4FB
:101B40008072CA6001684A6922F001024A6120215C
:101B500080F8421000214163026B012A03D0FFF795
:101B6000AFFD002008BD016301680C3151E8002F72
:101B700022F0100241E80023002BF5D101680A6829
:101B8000D20602D50A6849680091818DFFF77EFB75
:101B9000E7E7000070B5044600680169E26821F4D7
:101BA0004051114301612169A068084361690843FC
:101BB0002168CA6841F20C639A430243CA602068F4
:101BC0004169A26921F44071114341611E492068B5
:101BD000884202D1FFF76CF801E0FFF759F800EBFB
:101BE000C00101EB0012606864218000B2FBF0F3D9
:101BF000B3FBF1F36FF018067343B2FBF0F5B2FBE1
:101C0000F0F605EB8305322303EB0515B5FBF1F583
:101C1000B6FBF1F605F0F00505EB0615B2FBF0F6A4
:101C2000B2FBF0F0B0FBF1F06FF01802504306EB9E
:101C3000800003EB0010B0FBF1F0216800F00F0012
:101C40002844886070BD00000038014038B58162CA
:101C500004468285002013466064222284F84220D4
:101C6000E56B1B4AAA62E56B1A4AEA62E56B1A4AFF
:101C70002A63E26B50630A462168E06B091DFEF798
:101C800065FD2068016840680090206948B12068BF
:101C90000C3050E8001F41F4807140E80012002A27
:101CA000F5D12068143050E8001F41F0010140E8F0
:101CB0000012002AF5D12068143050E8001F41F0CE
:101CC000400140E80012002AF5D1002038BD000094
:101CD00077190008FD1900082D1900080148FFF7C1
:101CE000D9BA0000100000200148FFF7D3BA000065
:101CF00058000020FEE70907090E002804DB00F168
:101D0000E02080F80014704700F00F0000F1E020A0
:101D100080F8141D7047000030B5034600200246CD
:101D2000044C04E09D5C4540521C605DD2B28A4286
:101D3000F8D330BD8E1D0008FEF73EFEFFF77BFD99
:101D4000FFF726FDFFF7FEFCFFF738FDFFF752FD1A
:101D50000348FEF703FB00BFFEF718FBFCE700009B
:101D600058000020010202030405060708090A0BB7
:101D70000C0D0E0F1010000000000000000001020A
:101D8000030406070809000000000102030400D54F
:101D90007FAAFE2B815429FC5683D702A87D528747
:101DA0002DF8AC79D3067BAE04D18550FA2FA471FF
:101DB000DB0E5A8F25F08D58F22773A60CD9F62327
:101DC000895C08DD77A2DF0AA07521F45E8B9D484F
:101DD000E23763B61CC9B461CB1E4A9F35E0CF1A07
:101DE000B06531E44E9BE633994C18CD67B239ECBF
:101DF0004693C712B86D10C56FBAEE3B91446BBEE7
:101E000014C19540EA3F42973DE8BC69C316EF3ADA
:101E1000904511C46EBBC613B96C38ED4792BD68CE
:101E2000C21743963CE99441EB3E6ABF15C04B9EF6
:101E300034E1B560CA1F62B71DC89C49E33619CCAE
:101E400066B3E732984D30E54F9ACE1BB16472A766
:101E50000DD88C59F3265B8E24F1A570DA0F20F58E
:101E60005F8ADE0BA17409DC76A3F722885DD603B6
:101E7000A97C28FD5782FF2A805501D47EAB84516E
:101E8000FB2E7AAF05D0AD78D20753862CF900002F
:101E9000B01E00080000002010000000280100080B
:101EA000C01E000810000020A80A0000440100081D
:101EB00001000000100000000000000000127A0085
:04000005080000ED02
:00000001FF
