:020000040800F2
:10000000705B002055020008A9500008194A00083A
:10001000A5500008D90500088D5B0008000000000D
:100020000000000000000000000000004151000836
:100030008D11000800000000B15000086D5100084B
:100040006F0200086F0200086F0200086F020008CC
:100050006F0200086F0200086F0200086F020008BC
:100060006F0200086F0200086F0200086F020008AC
:100070002D1100086F020008391100086F020008F6
:1000800045110008511100086F0200086F020008B6
:100090006F0200086F0200086F0200086F0200087C
:1000A0006F020008495200086F0200086F02000842
:1000B000555200086F0200086F0200086F02000826
:1000C0006F0200086F0200086F0200086F0200084C
:1000D0006F0200086F020008695B0008755B00088A
:1000E000A91100086F0200086F0200086F020008E3
:1000F0006F0200086F0200086F0200086F0200081C
:100100006F0200086F0200086F0200086F0200080B
:100110006F0200086F0200086F0200086F020008FB
:100120005D11000869110008751100086F020008D0
:100130006F0200086F0200086F0200086F020008DB
:100140006F0200086F0200086F0200086F020008CB
:100150006F020008811100086F020008815B00082F
:100160006F0200086F0200086F0200086F020008AB
:100170006F0200086F0200086F0200080000000014
:100180006F0200086F02000800F002F800F052F859
:1001900014A696E8000CB244B344DA4501D100F04D
:1001A00049F8BAE80F000FA696E83000A5EB040561
:1001B00004EB0607AAEB0704A7F101074FEA1515A0
:1001C0004FEA3414A4F10104AC4201D300F032F838
:1001D00013F0010F18BFFB1A43F0010300F001F800
:1001E000DBE71847107E0000307E0000103A24BF85
:1001F00078C878C1FAD8520724BF30C830C144BF8C
:1002000004680C6070470000704700000023002461
:1002100000250026103A28BF78C1FBD8520728BF16
:1002200030C148BF0B6070471FB507F0CBFD1FBD45
:1002300010B510BD00F04FF91146FFF7F5FF05F0BE
:10024000A7FC00F06DF903B4FFF7F2FF03BC00F068
:1002500075F900000948804709480047FEE7FEE7B6
:10026000FEE7FEE7FEE7FEE7FEE7FEE7FEE7FEE766
:1002700004480549054A064B7047000035520008FE
:100280008901000870550020705B00207057002025
:100290007057002053EA020C00F069802DE9F04B02
:1002A0004FF00006002B1FBFB3FA83F503FA05F4E5
:1002B00024FA05F65E4012BF1643B2FA82F502FA3E
:1002C00005F4C5F120051EBF22FA05FC44EA0C0422
:1002D000203556EA044C4FEA144418BF641C4FF012
:1002E00000084FF00009904271EB030C39D300294C
:1002F00019BFB1FA81F701FA07F6B0FA80F700FAF0
:1003000007F6C7F120071EBF20FA07FC46EA0C06D5
:100310002037B6FBF4FCA7EB0507103F07F01F0BD7
:10032000CBF120062CFA06F60CFA0BFB44BFB346C1
:100330000026202FA4BF5E464FF0000B5BEA060CA0
:1003400008BF4FF0010B19EB0B0948EB0608ABFB9C
:10035000027C06FB02CC0BFB03CCC01B71EB0C0137
:10036000C1E70B46024641464846BDE8F08B13B54F
:10037000084318BF4FF0FF300146AFF30080BDE8DF
:100380001C407047032A40F2308010F0030C00F04C
:10039000158011F8013BBCF1020F624498BF11F8BF
:1003A00001CB00F8013B38BF11F8013BA2F1040278
:1003B00098BF00F801CB38BF00F8013B11F00303F0
:1003C00000F05780083AC0F0088051F8043B083A22
:1003D00051F804CBA0E80810F5E7121D5CBF51F8F6
:1003E000043B40F8043BAFF30080D20724BF11F870
:1003F000013B11F801CB48BF11F8012B24BF00F8D5
:10040000013B00F801CB48BF00F8012B704702F018
:10041000FF0343EA032242EA024200F002B84FF02F
:10042000000200B5134694469646203922BFA0E844
:100430000C50A0E80C50B1F12001BFF4F7AF090750
:1004400028BFA0E80C5048BF0CC05DF804EB890041
:1004500028BF40F8042B08BF704748BF20F8022B84
:1004600011F0804F18BF00F8012B7047704770479C
:10047000704710B5203AC0F00B80B1E81850A0E8E2
:100480001850B1E81850A0E81850203ABFF4F5AF62
:100490005FEA027C24BFB1E81850A0E8185044BFBE
:1004A00018C918C0BDE810405FEA827C24BF51F82B
:1004B000043B40F8043B08BF7047D20728BF31F81F
:1004C000023B48BF11F8012B28BF20F8023B48BF70
:1004D00000F8012B7047754600F02CF8AE46050079
:1004E0006946534620F00700854618B020B5FFF74F
:1004F000BFFEBDE820404FF000064FF000074FF070
:1005000000084FF0000BAC46ACE8C009ACE8C009ED
:10051000ACE8C009ACE8C00921F007018D4670477E
:1005200010B50446AFF300802046BDE81040FFF749
:100530008ABE000000487047D00000200149182002
:10054000ABBEFEE726000200704700000146806B4C
:10055000036C026C13F0500F08D0D20648BF00F0B5
:10056000DDBE806BC26C0846104700BF42F40071CC
:10057000016401688A6812F0405F01D000F0C2BED9
:10058000027E002AFAD1CA6A12F4700F02D08A6879
:100590005205F3D44A6822F020024A60016C21F42B
:1005A00080710164016CC90448BF00F0ABBE016CEE
:1005B00041F00101016400F0A5BE0000806B402104
:1005C0000164416C41F00401416400F0A7BE0000E9
:1005D000806B00F0A1BE0000FEE7000040F20800C2
:1005E000C2F2000000210122C17181600273C17555
:1005F0008161027780F82710816280F82C2080F8D2
:100600003710816380F83C2080F84710816480F8BF
:100610004C2080F85710816580F85C2080F86710C6
:10062000816680F86C2080F87710816780F87C20E4
:1006300080F88710C0F8881080F88C2080F8971018
:10064000C0F8981080F89C2080F8A710C0F8A81077
:1006500080F8AC2080F8B710C0F8B81080F8BC2043
:10066000704700002DE9F04F81B04FF000090F26D0
:1006700001F0D6FB40F2080741F26A25C2F20007FA
:100680004FF0010BC2F2000500244FF0000A009069
:1006900016E000BF88F80790298898F80C200BFA1C
:1006A00006F021EA0003002A04F110042B8004BFA5
:1006B000084328800AF1010AC02CA6F1010651D096
:1006C00007EB04083859B8F8041001F09DFB98F8BE
:1006D000072098F80610022A28D0012A0AD0002AFA
:1006E000D8D18842D8D1009888F807B0C8F8080057
:1006F000D2E700BF8842CDD1D8F808000099081A87
:100700001428C9D3AAF1040007284FF0020188F881
:100710000C9088F80710BFD8DFE800F00616040434
:100720000E1A1E12B8E700BF022006E08842B3D0BE
:1007300088F80CB0AEE700BF012001210EE000BF39
:10074000012002210AE000BF0320002106E000BFD3
:100750000120032102E000BF01200421002203F058
:10076000E9FB99E701B0BDE8F08F000040F60C000E
:10077000C2F2000004F064F940F2C470C2F200005A
:1007800004F0B8F9FFF72AFF04F070F904F0BCF99F
:10079000FFF768FF012005F01FFAF5E7F0B581B01B
:1007A00040F27020C2F2000090F8941211B101B032
:1007B000F0BD00BF40F60855C2F200052C8847F690
:1007C0008863E2B2C0F600039A5C698882EA142268
:1007D000D2B29A5CAE884A40D2B29A5CEF8882EA82
:1007E0001122D2B29A5C41F26A257240D2B29A5C6E
:1007F000C2F2000582EA1622D2B29A5CB5F800E095
:100800007A40D2B29A5CA0F8964282EA1722D2B21B
:100810009A5CA0F8981282EA0E02D2B29A5CA0F812
:100820009A6282EA1E22A0F89C72A0F89EE2D2B2DE
:1008300013F802C0B0F89022B0F88E520132D3B251
:10084000AB4205D1B0F892220132A0F8922207E023
:10085000B0F89022AA25024482F88E51A0F8903276
:10086000B0F89022B0F88E520132D3B2AB4205D12B
:10087000B0F892220132A0F8922207E0B0F890225C
:100880005525024482F88E51A0F89032B0F890229B
:10089000B0F88E520132D3B2AB4205D1B0F89222F9
:1008A0000132A0F8922206E0B0F89022024482F8C9
:1008B0008E41A0F89032B0F89022B0F88E520132FA
:1008C000D3B2AB4206D1B0F892220132A0F8922204
:1008D00008E000BFB0F89022240A024482F88E415A
:1008E000A0F89032B0F89022B0F88E420132D3B224
:1008F000A34205D1B0F892220132A0F8922206E07C
:10090000B0F89022024482F88E11A0F89032B0F82C
:100910009022B0F88E420132D3B2A34206D1B0F891
:1009200092120131A0F8921208E000BFB0F89022B4
:10093000090A024482F88E11A0F89032B0F89012A1
:10094000B0F88E220131C9B2914205D1B0F89212AD
:100950000131A0F8921206E0B0F89022024482F829
:100960008E61A0F89012B0F89012B0F88E2201318A
:10097000C9B2914206D1B0F892120131A0F8921298
:1009800008E000BFB0F89022330A024482F88E31AA
:10099000A0F89012B0F89012B0F88E220131C9B2CE
:1009A000914205D1B0F892120131A0F8921206E0FE
:1009B000B0F89022024482F88E71A0F89012B0F83C
:1009C0009012B0F88E220131C9B2914206D1B0F82E
:1009D00092120131A0F8921208E000BFB0F8902204
:1009E0003B0A024482F88E31A0F89012B0F89012BF
:1009F000B0F88E220131C9B2914205D1B0F89212FD
:100A00000131A0F8921206E0B0F89022024482F878
:100A10008EE1A0F89012B0F89012B0F88E22013159
:100A2000C9B2914206D1B0F892120131A0F89212E7
:100A300009E000BFB0F890224FEA1E23024482F87A
:100A40008E31A0F89012B0F89012B0F88E220131D9
:100A5000C9B2914206D1B0F892120131A0F89212B7
:100A600007E000BFB0F89022024482F88EC1A0F8DF
:100A70009012B0F89012B0F88E220131C9B29142B2
:100A80000AD1B0F892120131A0F8921290F89412A3
:100A900000297FF48CAE0CE0B0F89022DE230244F3
:100AA00082F88E31A0F8901290F8941200297FF409
:100AB0007EAEB0F89012B0F88E02081A00063FF42D
:100AC00076AE40F60000C4F202004FF4805101F00F
:100AD0009BF901287FF46BAEEFF30580D0B140F2B3
:100AE0004C10C2F20000002100680091694606F037
:100AF000B9F8009800283FF45AAE4EF60450CEF2F2
:100B000000004FF080510160BFF34F8FBFF36F8F34
:100B100001B0F0BD40F24C10C2F2000000680021AC
:100B20000222002301B0BDE8F04006F0DFBE000065
:100B300040F27021C2F200014A68824206D00A687F
:100B4000824204BF002081F89402704708311046A9
:100B5000402202F0EBB9000070B540F27024C2F2FE
:100B60000004D4F804E0864518BF70BD002900F0E9
:100B7000BC80042901F0030C02D2002162E000BF16
:100B800021F00303002107E0B4F88C010130A4F840
:100B90008C0104318B4255D06018027AB4F88A5126
:100BA000B4F888610135EDB2B54205D1B4F88C21B5
:100BB0000132A4F88C2106E0B4F88A61264486F854
:100BC0008820A4F88A51427AB4F88A51B4F888612E
:100BD0000135EDB2B54205D1B4F88C210132A4F84B
:100BE0008C2106E0B4F88A61264486F88820A4F8AF
:100BF0008A51827AB4F88A51B4F888610135EDB22D
:100C0000B54205D1B4F88C210132A4F88C2106E05C
:100C1000B4F88A61264486F88820A4F88A51C07AFC
:100C2000B4F88A21B4F888510132D2B2AA42ABD0CA
:100C3000B4F88A51254485F88800A4F88A21043143
:100C40008B42A9D1BCF1000F4FD06018017AB4F8E3
:100C50008A21B4F888310132D2B29A4208D1B4F86C
:100C60008C110131A4F88C11BCF1010F0AD13CE0C8
:100C7000B4F88A31234483F88810A4F88A21BCF19F
:100C8000010F32D0417AB4F88A21B4F888310132A8
:100C9000D2B29A4208D1B4F88C110131A4F88C1167
:100CA000BCF1020F0AD120E0B4F88A31234483F862
:100CB0008810A4F88A21BCF1020F16D0807AB4F80B
:100CC0008A11B4F888210131C9B2914206D1B4F831
:100CD0008C010130A4F88C0107E000BFB4F88A2130
:100CE000224482F88800A4F88A1104F108017046B1
:100CF000402202F01BF96068C06B0068016821F0B7
:100D00000801016070BD0000B0B582B047F6886C84
:100D1000C0F6000C1CF8003040F270244B40DBB2EF
:100D20001CF80330C2F200045340DBB21CF803C0CD
:100D300072B6B4F89032B4F88E5201335FFA83FE83
:100D4000AE4505D1B4F892320133A4F8923207E0EF
:100D5000B4F89032AA25234483F88E51A4F890E287
:100D6000B4F89032B4F88E5201335FFA83FEAE4588
:100D700006D1B4F892320133A4F8923208E000BFF1
:100D8000B4F890326625234483F88E51A4F890E29B
:100D9000B4F89032B4F88E5201335FFA83FEAE4558
:100DA00006D1B4F892020130A4F8920207E000BF25
:100DB000B4F89032234483F88E01A4F890E2B4F89A
:100DC0009002B4F88E320130C0B2984206D1B4F825
:100DD00092020130A4F8920207E000BFB4F890320A
:100DE000234483F88E11A4F89002B4F89002B4F86A
:100DF0008E120130C0B2884206D1B4F8920201309E
:100E0000A4F8920207E000BFB4F89012214481F8E0
:100E10008E21A4F89002B4F89002B4F88E1201303A
:100E2000C0B2884206D1B4F892020130A4F892020E
:100E300007E000BFB4F89012214481F88EC1A4F8F5
:100E40009002B4F89002B4F88E120130C0B2884219
:100E50000AD1B4F892020130A4F8920262B694F872
:100E6000940270B102B0B0BDB4F89012DE222144F9
:100E700081F88E21A4F8900262B694F894020028BA
:100E8000F0D1B4F89002B4F88E12401A0006E9D0FE
:100E900040F60000C4F202004FF4805100F0B4FFAD
:100EA0000128DFD1EFF30580D0B140F24C10C2F23F
:100EB000000000210068019101A905F0D3FE01980E
:100EC0000028CFD04EF60450CEF200004FF08051F3
:100ED0000160BFF34F8FBFF36F8F02B0B0BD00BF93
:100EE00040F24C10C2F200000068002102220023F0
:100EF00002B0BDE8B04006F0F9BC0000B0B540F269
:100F00007025C2F20005C5E90001002085F89402B1
:100F1000A5F88C01A5F8920243F21240C7F65600DC
:100F2000C5F896024BF69A40CFF2DE0040F200443C
:100F3000C5F89A0243F21240C4F20204A5F89E02D8
:100F400020464FF48051002200F064FF20464FF409
:100F50000051002200F05EFF686805F108014022A0
:100F600001F0E4FF6868C06B0068016821F00801C7
:100F70000160B0BD2DE9F04F85B040F27024C2F29F
:100F80000004B4F88A01B4F88811401A00F58070A2
:100F900000EB106121F0FF01401A0E28C0F0C28062
:100FA00004F1880515E000BFB4F888010130C0B233
:100FB000A4F88801B4F88A01B4F88811401A00F541
:100FC000807000EB106121F0FF01401A0D2840F203
:100FD000A980B4F88801295C5529E5D1411CC9B222
:100FE000695CAA29E0D100F10D01C9B2695CED2963
:100FF000DAD1811CC9B26F5CC11C47F6886EC9B2D8
:10100000C0F6000E15F8018004971EF80770011D48
:10101000C9B287EA080715F801B01EF80770411D2C
:10102000C9B287EA0B0715F801C000F10A011EF8E2
:101030000770821DC9B2D2B2CDF80C8015F80180BC
:101040008CEA0701AA5C1EF80110C31DDBB25140F7
:10105000EB5C1EF8011000F10806F6B2594015F8D5
:1010600006A01EF8011000F10906F6B281EA0A0195
:10107000AE5D1EF8011000F10B0771401EF8011063
:10108000FFB281EA080115F807901EF8011000F17F
:101090000C0754FA87F781EA090197F888701EF85F
:1010A00001108F427FF480AFDDE903710E3041EA19
:1010B00007214BEA0C2742EA0322C0B2A4F8A0128F
:1010C000A4F8A272A4F8A42284F8A6A284F8A762C5
:1010D00084F8A88284F8A992A4F8880100F0A0FE00
:1010E00041F26028C2F20008B8F8001041F2642210
:1010F000C2F20002106001F1010CB4F9A002B4F9CF
:10110000A212B4F9A42294F8A63294F8A76294F833
:10111000A87294F8A9E2A8F800C08DE8C04002F0D7
:10112000DDFC47E705B0BDE8F08F000040F6D410C5
:10113000C2F2000000F06CBB40F63420C2F20000A6
:1011400000F066BB40F61410C2F2000000F060BB75
:1011500040F67410C2F2000000F05ABB40F6540092
:10116000C2F2000000F054BB40F69420C2F200002E
:1011700000F04EBB40F6B400C2F2000000F048BBE5
:1011800040F6F420C2F2000000F042BB70470000BD
:1011900040F63040C2F2000003F052F803F064F869
:1011A000012004F019FDF9E780B54FF4805000F0FC
:1011B0004FFD4FF48040BDE8804000F049BD000085
:1011C00072B600BFFEE7000070B581B00022009249
:1011D00090F83C20012A03D1022001B070BD00BF6D
:1011E000D1F800E001221FFA8EFC4FEA4C0380F890
:1011F0003C200EEB4E0213FA8EF31024BEF1090FC1
:1012000088BFA3F11E0288BF0C24036807251E595E
:10121000954026EA05051D518D681E5905FA02F212
:1012200032431A514968062906D801EB81014A1F49
:10123000194651F8345F0EE00C2901EB810105D805
:10124000A1F12302194651F8305F04E0A1F14102F7
:10125000194651F82C5F1F24944025EA04040C60C1
:101260000CFA02F20C6842F2043CC4F2010C224374
:10127000ACF54174A3420A603ED1BEF1120F07D112
:10128000DCF8001041F48001CCF8001034E000BF1D
:101290002EF0010110292FD1DCF80010BEF1100F43
:1012A00041F40001CCF8001026D140F2C801C2F28E
:1012B000000109684DF68362C4F21B32A1FB0212E1
:1012C000910C01EB8101490000910099A1B10099B5
:1012D00001390091009979B1009901390091009983
:1012E00051B1009901390091009929B10099013952
:1012F000009100990029EAD1002180F83C100020DB
:1013000001B070BD10B5044603F088FB2046BDE86F
:10131000104003F0ADBB00007047000070470000B4
:10132000002804BF0120704710B5016C00293DD092
:10133000016CC90645D4016C41F20212914302319D
:1013400042F204320164C4F20102116821F4403116
:101350001160136890E812102343D0F810E0136076
:101360004A68012422F480724A604A68C0F6007418
:1013700042EA0E224A604A6822F040724A604A6895
:1013800042EA0C024A608A6822F400628A60C268FB
:101390008B681A438A60826A8B68A24223F070636A
:1013A0008B608B6810D123F0405216E0044600F0A9
:1013B00065F820460021616484F83C10016CC90680
:1013C000B9D5012153E000BF1A438A608A6822F030
:1013D00040528A60C26A8B681A438A608A6822F027
:1013E00002028A608A68037E90F8204042EA430243
:1013F0008A604A6884B142F400624A604A684EF2E8
:10140000000322F460424A60426ACFF6FF734C68E0
:1014100003EB4232224301E022F400624A60CA6ACE
:1014200040F2000C22F47002CA62C3694269CFF62E
:10143000F07CCC6A0CEB03532343CB628B6823F420
:1014400000738B6090F830308C6844EA43238B60E3
:101450008B6823F480638B608B6843EA82228A6006
:1014600000214164026C012363F301020264002243
:1014700080F83C20BDE810400846704770B586B043
:101480000446006842F20011C4F2010100268842BD
:10149000CDE90466CDE90266019643D042F200012F
:1014A000C4F20101884240F0868043F63000009685
:1014B000C4F20200416941F480714161416901F463
:1014C0008071009100990096016841F0010101606E
:1014D000006801A900F0010000900098062001902A
:1014E0000320CDE902060020C4F2020000F0BCFB9C
:1014F00040F6540546F21040C2F20005C4F2020064
:101500004FF48061C5E9000605F110004FF4006258
:101510004FF400534FF4807CC5E9026680E80E105A
:101520003EE000BF43F630000096C4F2020041697D
:1015300041F400714161416901F400710091009929
:101540000096016841F001010160006801A900F006
:10155000010000900098782001900320CDE9020658
:101560000020C4F2020000F07FFB46F21040C4F2FB
:10157000020040F6B4053030C2F200054FF00071B1
:101580004FF480624FF4006385E8430005F11400D6
:101590004FF4005C4FF4807EC5E9036280E8085098
:1015A00028462E626E6200F015FA002818BFFFF779
:1015B00007FEA563AC6306B070BD0000B0B582B095
:1015C0000023019390F83C30012B03D1022002B09C
:1015D000B0BD00BF8E460123016880F83C308B68A7
:1015E0009446DB0729D18B684DF6836443F00103F1
:1015F0008B6040F2C803C2F200031B68C4F21B34C4
:10160000A3FB0434A30C03EB43030193019BA3B19D
:10161000019B013B0193019B7BB1019B013B01932A
:10162000019B53B1019B013B0193019B2BB1019B9A
:10163000013B0193019B002BEAD18B68DB0503D5AD
:101640008B6823F480738B608C68036CE4070BD188
:1016500043F01001016400F14401002001220B68F5
:101660001A430A6002B0B0BD40F20174A34303F50F
:10167000807303644B685B0504D5036C012464F339
:101680000D330364046C0023E4044FF0000444BFF2
:10169000446C24F00604446480F83C30836B40F2D0
:1016A0004D5440F2D152C0F60004C0F60002C3E926
:1016B0000F4240F2BD52C0F60002DA646FF022021F
:1016C0000A604A6842F2043442F080624A608A68E2
:1016D000054642F480728A604C3118467246634671
:1016E000C4F2010400F028FA22682968D20605D065
:1016F000A4F54172914225D002B0B0BD42F2000281
:10170000C4F20102914215D042F20022C4F2010259
:1017100091420CD042F20012C4F201029142EBD18C
:101720002268D20606D0A4F582729142E4D12268E2
:10173000D206E1D451F8082F12F0405FDCD14FF00F
:1017400080428CE74FF60452CFF6FF72A25812F097
:10175000405FD1D108314FF0804280E770B5866D8F
:10176000044600F05DFB94F83510022928D10546A7
:101770002068216C026822F016020260426922F0A1
:101780008002426109B9A16C19B1016821F0080118
:101790000160016821F00101016000BF206800685C
:1017A000C00715D000F03CFB401B0628F6D32020D4
:1017B0006065032084F83500002184F8341070BD82
:1017C000802060650120002184F8341070BD00BFC6
:1017D000E06D3F2101FA00F0B060012084F835008F
:1017E0000020002184F8341070BD000090F83510FE
:1017F000022909D1052180F835100068016821F01F
:10180000010101600020704780214165012070477F
:10181000F0B581B00021009140F2C801C2F2000190
:101820000B68D0E9166148F2B51537680822C1F691
:101830004E358A403A42A3FB05350CD003681C683C
:10184000640708D51C6824F004041C60B260426D73
:1018500042F00102426501228A403A4208D0036800
:101860005B691B0604D5B260426D42F0020242651C
:1018700004228A403A4208D003681B689B0704D5BB
:10188000B260426D42F00402426510228A403A4240
:1018900019D001680B681B0715D5B2600B680A6880
:1018A0005B0309D4D20509D40A6822F008020A6051
:1018B000016C29B907E000BF110341D4016C11B1DB
:1018C000044688472046C26D202101FA02F33B42BC
:1018D00043D001680F68FF063FD5B36090F83570BC
:1018E0000B68052F1CD123F016030B604B6923F006
:1018F00080034B61036C0BB9836C1BB10B6823F045
:1019000008030B603F219140B160012180F8351040
:10191000016D0022002980F8342054D158E000BF26
:101920000A685B0310D4D20512D40A6822F01002B0
:101930000A60012180F83510002180F8341007E09A
:10194000816C0029BCD1BEE7110301D4416C00E0D9
:10195000C16B11B1044688472046416DC1B3416D4A
:10196000C9072ED0052180F835100168AA0A0B6836
:1019700023F001030B60009B0133934200931AD8BC
:101980000B68DB0717D0009B01339342009312D8FA
:101990000B68DB070FD0009B0133934200930AD8FA
:1019A0000B68DB0707D0009B01339342009302D8FA
:1019B0000B68DB07DFD1012180F83510002180F8AA
:1019C0003410C16C21B101B0BDE8F040084700BF40
:1019D00001B0F0BD2DE9F041044600F021FAECB170
:1019E0000546022084F835000020216884F8340080
:1019F000086820F00100086021680868C00711D05D
:101A000000F00EFA401B0528F6D9032520230320F9
:101A1000636584F83550BDE8F08100BF0120BDE862
:101A2000F08100BF086848F23F02CFF21002D4E90B
:101A3000013500EA020C04F10C0898E8C10143EA00
:101A40000C032B431843D4E9072E3043384310438B
:101A5000626A40EA0E00042A40EA08031CD1206BA7
:101A6000D4E90A2E40EA0E00184308604869BEF126
:101A7000000F20F0030040EA020040F0040C11D0F7
:101A8000B8F5005F36D0B8F1000F45D1022A46D034
:101A9000012A3BD032B942E00B60486920F00700D0
:101AA00040EA020C01F0F8004AF6AB221038CAF600
:101AB000AA22A0FB02231A0947F68873C1F814C0B2
:101AC000C0F600039A5C40F2FF335F284FF03F00FE
:101AD00021EA030100FA02F088BF0431C4E91612BA
:101AE0008860002301250020636584F83550BDE837
:101AF000F08100BF032AD5D8012540230120DFE86B
:101B000002F0030E030500BF82E700BFAEF1C07014
:101B1000B0FA80F0400904E0032A04D3C2D1CEF326
:101B200000600028BED0012540230120636584F8B1
:101B30003550BDE8F081000090F834C0BCF1010FD1
:101B400004BF0220704770B54FF0010C80F834C01C
:101B5000D0F858E090F835C0BCF1010F38D14FF003
:101B6000020C80F835C04FF0000CC0F854C0D0F81B
:101B700000C08468056CC06DDCF80060402C26F461
:101B80008026CCF80060CCF804300B4604BF134626
:101B90000A463F2101FA00F0CCF80830CCF80C20BE
:101BA000CEF80800DCF8000040F01600CCF8000089
:101BB0002DB1DCF8000040F00800CCF80000DCF8A3
:101BC000000040F00100CCF80000002070BD00BF14
:101BD000002180F83410022070BD0000B0F5805F55
:101BE00018BF704780B582B040F23010C2F20000DA
:101BF000016848F219630131016041F20401CEF23B
:101C0000000109684268C1F661038A1AD208A2FB82
:101C100003235A088260416040F24C10C2F2000077
:101C200000210068019101A905F01CF8019850B14C
:101C30004EF60450CEF200004FF080510160BFF329
:101C40004F8FBFF36F8F02B0BDE880407047000038
:101C500043F61441C4F201010A68024214BF08604D
:101C60007047FFF7BBBF00002DE9F04F83B000F1D4
:101C7000200200F13E4741F60045009207F1FF7750
:101C8000C4F2020508224FEAB726A84208BF07227D
:101C900000254FF000084FF00009072E38BF4FEA2B
:101CA000B72201920AE000BF09F1010908F1020818
:101CB000B9F1100F05F1040500F0A2800F680122B0
:101CC00002FA09FE17EA0E0AEED0D1F804C0032288
:101CD0000CF003077E1E02FA08F4012E6FEA040BD3
:101CE00012D88468CE6804EA0B0406FA08F6344376
:101CF0008460446824EA0E06CCF3001404FA09F464
:101D00002643466004E000BF032F01D103271EE0F5
:101D1000C6688C6806EA0B0604FA08F42643022F0C
:101D2000C66014D16FF00302009E02EA590756F80C
:101D300007C005F01C040F220B69A2402CEA020226
:101D4000A3401A43F251D1F804C00CF00307026813
:101D500007FA08F302EA0B021A431CF4403F026040
:101D6000A2D0002243F644030292C4F202031A688E
:101D700043F6004442F480421A601A68C4F2010437
:101D800002F480420292029A29F003024FF6084CB4
:101D90002244CFF6FF7C52F80C3005F00C070F26DA
:101DA000BE40B343019E06FA07F73B4342F80C30AE
:101DB000A2684B6842EA0A0743F60C4CDE0258BFA1
:101DC00022EA0A07A760C4F2010CDCF800209E0298
:101DD00042EA0A0758BF22EA0A07CCF80070626894
:101DE0009E0342EA0A0758BF22EA0A076760226890
:101DF000DB0342EA0A0758BF22EA0A07276053E7D3
:101E000003B0BDE8F08F00000069084018BF012052
:101E100070470000002A08BF090481617047000074
:101E200044F67060C2F200000068704740F20000A3
:101E300044F67061C2F20000C2F2000100780A6844
:101E4000104408607047000080B543F60040C4F2BB
:101E50000200016841F400710160016841F4806191
:101E60000160016841F480710160032000F0C0F856
:101E70000F2000F005F800F05BF8002080BD0000A6
:101E800070B586B0002543F640010195C4F2020109
:101E90000A68044642F001020A60096801A801F0DC
:101EA000010101910199694600F064F9049E002E38
:101EB00018BF012600F07EF94DF68361B040C4F2F0
:101EC0001B31A0FB01014FF0FF3000EB914140F6C8
:101ED000A030C2F200004FF0804240F2E733C0E988
:101EE0000021C0E902530561856100F0FBFB08B1E8
:101EF00006B070BD40F6A030C2F2000000F044FC15
:101F00000028F5D11C2000F035F80F2C0CD81C202F
:101F10002146002200F040F840F204010020C2F205
:101F200000010C6006B070BD012006B070BD00005D
:101F300082B0002043F640010190C4F202014A68D9
:101F400042F480424A604A6802F480420192019A57
:101F500000900868002240F08050086008680F2157
:101F600000F08050009000986FF0010002B000F087
:101F700013B80000002848BF704700F01F0101227D
:101F800002FA01F11C2202EAD0004EF20012CEF257
:101F9000000281507047000010B54EF60C5CCEF286
:101FA000000CDCF80030C3F3022E8EF00704042C82
:101FB00028BF0424BEF103034FF0FF3E0EFA04F4E1
:101FC00038BF0023A14399400EFA03F39A4311430B
:101FD00000F00F0200F160430901043A03F5644385
:101FE0006244002848BF02F10C03197010BD0000C4
:101FF0004EF60C51CEF200010A684FF6FF031A406C
:1020000060F30A2242F0806040F0FD700860704783
:10201000002804BF012070472DE9F04143F608086D
:10202000C4F202080446D8F8F8030D4600F0070091
:10203000814207D988F8F853D8F8F80300F0070070
:10204000A84277D12068810717D5410705D5D8F870
:10205000001041F4E051C8F80010010705D5D8F888
:10206000001041F46041C8F80010D8F80010A268D0
:1020700021F0F0011143C8F80010C00740D1D8F892
:10208000F80300F00700854207D288F8F853D8F823
:10209000F80300F00700A8424CD12068410707D59B
:1020A000D8F80010E26821F4E0511143C8F800109C
:1020B000000708D5D8F80000216920F4604040EA04
:1020C000C100C8F8000000F09DF8D8F8001047F6ED
:1020D000DE52C1F30311C0F60002515C40F2C802A7
:1020E00020FA01F140F20400C2F200000068C2F2DE
:1020F00000021160FFF7C4FE0020BDE8F08100BFC0
:102100006068811E022907D258F8081C89015CBF4B
:102110000120BDE8F08111E0012807D158F8081C22
:1021200089035CBF0120BDE8F08107E058F8081C76
:10213000890703D40120BDE8F08100BFD8F8001062
:1021400021F003010843C8F80000FFF769FE0646C6
:1021500041F28837D8F80000616800F00C00B0EB5D
:10216000810F8CD0FFF75CFE801BB842F2D90320B0
:10217000BDE8F0810F22026043F60802C4F20202B9
:10218000136803F003034360136803F0F0038360F4
:10219000136803F4E053C360D2F800C04FF4E05377
:1021A00003EADC030361D2F8F80300F007000860DB
:1021B0007047000040F2C80043F60801C2F2000078
:1021C000C4F202010068096847F6EE52C1F38221A9
:1021D000C0F60002515CC8407047000040F2C800E1
:1021E00043F60801C2F20000C4F202010068096867
:1021F00047F6EE52C1F34231C0F60002515CC840CE
:102200007047000010B543F60404C4F2020461688C
:10221000C1F3810142F20040C0F2F400DFE801F0B6
:1022200002040A0210BD00BF41F20020C0F27A0091
:1022300010BD00BF216801F03F02216823684902F8
:10224000C3F3881106D4A1FB00010023FEF722F896
:1022500007E000BF41F20020C0F27A004843B0FB23
:10226000F2F021680222C1F3014102EB4101B0FB0F
:10227000F1F010BD002804BF012070472DE9F041A6
:1022800082B00446007843F60006C007C4F2020696
:102290000CD0B06800F00C00042840F08180306859
:1022A000800303D56068002800F0688120788007EB
:1022B0001BD5B06810F00C0F09D0B06800F00C000E
:1022C000082840F087807068400200F18380306801
:1022D000800703D5E068012840F05081306821690B
:1022E00020F0F80040EAC10030602078000713D4E5
:1022F000207840072AD4A569002D00F03A81B06803
:1023000000F00C00082840F0A580012D40F00E815F
:10231000012002B0BDE8F0816069002800F08280F1
:102320000020C4F247200121C0F8801EFFF778FD8D
:10233000054600BF706F8007DAD4FFF771FD401BC0
:102340000228F7D9032002B0BDE8F081306C5FEAC3
:10235000C0080AD400200190306C40F080503064F6
:10236000306C00F080500190019847F20007C4F2F1
:1023700000073868C00547D4386840F4807038607A
:10238000FFF74EFD054600BF3868C0053CD4FFF797
:1023900047FD401B0228F7D9032002B0BDE8F081B9
:1023A000B06800F00C00082803D1706840023FF5C7
:1023B00076AF61683068B1F5803F07D0B1F5A02FE6
:1023C00040F09A8040F480203060306840F48030E3
:1023D00030609AE0E068002840F20000C4F2472034
:1023E0005CD001210160FFF71BFD054630688007C6
:1023F0003FF574AFFFF714FD401B0228F6D9032008
:1024000002B0BDE8F08100BFA168306F012905D09E
:10241000052955D140F004003067306F40F00100CD
:10242000306756E00020C4F247200021C0F8801E2B
:10243000FFF7F6FC054600BF706F80077FF558AFC9
:10244000FFF7EEFC401B0228F6D9032002B0BDE8DE
:10245000F08100BF0027C4F2472700203866FFF74D
:10246000DFFC022D05460DD13068800140F18A80E5
:10247000FFF7D6FC401B02284FF00300F4D902B04E
:10248000BDE8F0813068800173D5FFF7C9FC401BBF
:1024900002284FF00300F5D9F1E700BF00210160E9
:1024A000FFF7BEFC054600BF306880077FF51DAF13
:1024B000FFF7B6FC401B02284FF00300F4D9DEE71B
:1024C00020F001003067306F002920F004003067F1
:1024D0007AD0FFF7A5FC054641F28837306F8007B8
:1024E00000F18480FFF79CFC401BB842F6D9032022
:1024F00002B0BDE8F08100BF20F480303060306869
:10250000002920F4802030607AD0FFF789FC05464E
:10251000306880033FF5CAAEFFF782FC401B642899
:10252000F6D9032002B0BDE8F08100BF7068E16910
:1025300000F480028A4221D1216A00F03F028A42DF
:102540001CD147F6C071626A0140B1EB821F15D100
:10255000A16A4FF6FF73C903994300F44032A1F515
:1025600080318A420AD1E16A00F07060B0EB016FFD
:1025700004D1002002B0BDE8F08100BF012002B00C
:10258000BDE8F08104F11C052FCD084340EA82101C
:10259000D9034FF6FF729143A1F5803140EA0560FF
:1025A0000843706001203866FFF73AFC044600BF1C
:1025B00030688001DDD4FFF733FC001B02284FF0A8
:1025C0000300F5D95BE700BFFFF72AFC054641F29F
:1025D000883700BF306F800708D5FFF721FC401B0C
:1025E000B8424FF00300F5D949E700BFB8F1000F3A
:1025F0003FF581AE306C20F0805030647BE600BF48
:10260000FFF70EFC054600BF306880037FF54EAE35
:10261000FFF706FC401B64284FF00300F4D92EE7B7
:10262000704700007047000090F83C20012A4FF0EE
:10263000020254D010B580F83D200268D2F804E0C0
:10264000D2F808C00C682EF07003234341F2FF74E7
:10265000C4F20004A24253600EDC40F2FF73C4F2E5
:1026600000039A4216DCB2F1804F2BD040F20043B7
:10267000C4F2000324E000BF40F2FF33C4F20103C0
:102680009A4213DC41F60003C4F200039A4219D0C7
:10269000002313E040F60003C4F200039A4211D075
:1026A00040F60043C4F200030AE000BF44F2000316
:1026B000C4F201039A4205D040F20043C4F2010380
:1026C0009A4204D149682CF080031943916001219A
:1026D000002280F83D1080F83C20BDE810401046F4
:1026E00070470000002804BF0120704710B5044661
:1026F00090F83D0028B9002084F83C00204600F006
:102700001FF8022084F83D002068211D02F0A8FD7A
:10271000012084F8460084F83E0084F83F0084F8E5
:10272000400084F8410084F8420084F8430084F8B3
:10273000440084F8450084F83D00002010BD0000EE
:1027400000680021C4F20101884218BF704780B5BB
:1027500082B00020019043F64400C4F202000168F8
:10276000002241F0010101600068052100F0010034
:10277000019001981920FFF70FFC192002B0BDE865
:102780008040FFF7F7BB000090F83D1001291CBF07
:1027900001207047022180F83D10006841F2FF726D
:1027A000C168C4F20002904241F00101C1600DDC39
:1027B00040F2FF71C4F20001884215DCB0F1804F95
:1027C0002AD040F20041C4F2000123E040F2FF3180
:1027D000C4F20101884213DC41F60001C4F2000199
:1027E000884219D0002113E040F60001C4F2000134
:1027F000884211D040F60041C4F200010AE000BF57
:1028000044F20001C4F20101884205D040F20041C7
:10281000C4F20101884206D1816801F0070106294E
:1028200004BF00207047016841F0010101600020F1
:102830007047000090F83C20012A4FF002026CD053
:1028400080B580F83D20D0F800C04FF67772DCF8F4
:10285000083023EA0202CCF808200B684F2B29DC51
:102860001F2B45DD202B46D0302B44D0402B40F091
:10287000AF80D1F804E0C968DCF82030DCF8202013
:1028800022F00102CCF82020DCF8182022F0F0021F
:1028900042EA011123F00A0242EA0E02CCF81810B3
:1028A000CCF82020DCF8081041F0470121F030017D
:1028B00028E000BF6F2B33DDB3F5005F74D0B3F5B4
:1028C000805F21D0702B40F08380D1E901E3C9689B
:1028D000DCF8082043EA0E0322F47F4243EA012198
:1028E0001143CCF80810DCF8081041F0770109E03A
:1028F0000BB1102B6CD1DCF8081021F070011943DA
:1029000041F00701CCF808100022012180F83D10A9
:10291000002180F83C10BDE880401046704700BFA1
:10292000502B21D0602B53D1D1F804E0C968DCF8DA
:102930002030DCF8202022F01002CCF82020DCF837
:10294000182022F4704242EA013123F0A00242EA48
:102950000E12CCF81810CCF82020DCF8081041F04A
:10296000670121F01001CDE7D1F804E0C968DCF877
:102970002030DCF8202022F00102CCF82020DCF806
:10298000182022F0F00242EA011123F00A0242EA82
:102990000E02CCF81810CCF82020DCF8081041F01A
:1029A000570121F02001ADE7D1E901E3C968DCF866
:1029B000082043EA0E0322F47F4243EA0121114337
:1029C000CCF80810DCF8081041F480419AE700BF09
:1029D00001229AE77047000070B504460068C56898
:1029E0000669B10716D515F0020113D06FF0020188
:1029F0000161012121778069800703D02046FFF71C
:102A0000E9FF05E0204600F08FF8204600F0E6F9E7
:102A100000202077700719D515F0040016D0206823
:102A20006FF00401016102212177806910F4407F79
:102A300004D02046FFF7CEFF06E000BF204600F09E
:102A400073F8204600F0CAF900202077300717D528
:102A500015F0080014D020686FF00801016104210E
:102A60002177C069800703D02046FFF7B3FF05E058
:102A7000204600F059F8204600F0B0F900202077F9
:102A8000F00619D515F0100016D020686FF010016F
:102A9000016108212177C06910F4407F04D02046ED
:102AA000FFF798FF06E000BF204600F03DF8204603
:102AB00000F094F900202077F00718BF15F001000E
:102AC00002D1300609D412E020686FF001010161E3
:102AD000204600F00DFA300609D515F0800006D02A
:102AE00020686FF0800101612046FFF799FD7006B4
:102AF00009D515F0400006D020686FF04001016153
:102B0000204600F011FAB00658BF70BD15F0200045
:102B100008D021686FF0200220460A61BDE87040AD
:102B2000FFF780BD70BD00007047000090F83C309A
:102B3000012B04BF022070474FEAB202032A00F2C1
:102B4000FF802DE9F043DFE802F003B13F7F00BFD3
:102B5000036840F200461C6A1A6A24F0020422F05C
:102B600001021A621A46D3F804C052F818EF8F68AF
:102B700043F48065C4F20106B54244EA070405D176
:102B8000CF6824F00C0427F004073C430F68B542DB
:102B900006D1D1E905582CF440762E4346EA080CBC
:102BA0002EF073063743C3F804C09F614F6809696C
:102BB0005F631C629F6947F008079F619F6927F068
:102BC00004079F61B1E000BF036840F200481C6A3F
:102BD0001A6A24F4007422F480721A621A46D3F836
:102BE00004C052F81CEF8F6843F48065C4F20108FA
:102BF000454544EA072408D1CF6840F2FF463F022A
:102C000024F4406427EA06063443D1F80090454591
:102C100006D1D1E905562CF440572E4347EA061C4D
:102C20002EF0730747EA0907C3F804C0DF614F6855
:102C30000969DF631C62DF6947F00807DF61DF694C
:102C400027F00407DF6170E0036840F20045D3F825
:102C500020C01A6A43F4806722F480521A621A462E
:102C60005C6852F81C8FD1F800E08E68C4F2010550
:102C7000AF4204D14D6924F4804444EA85142CF415
:102C8000005747EA063728F4E64646EA0E265C6017
:102C9000DE614E6809691E641F62DF6947F40067E0
:102CA000DF61DF6927F48067DF613DE0036840F2A0
:102CB00000481C6A1A6A24F0200422F010021A62EA
:102CC0001A46D3F804C052F818EF8F6843F48065B1
:102CD000C4F20108454544EA071407D1CF686FF0F4
:102CE000400624F0C00406EA07163443D1F80090E9
:102CF000454506D1D1E905562CF440672E4347EAF5
:102D0000860C2EF4E64747EA0927C3F804C09F6102
:102D10004F6809699F631C629F6947F400679F6160
:102D20009F6927F480679F61090213681943116046
:102D30000021BDE8F043002280F83C20084670479F
:102D40000121002280F83C2008467047002804BF7B
:102D50000120704710B5044690F83D0028B90020C6
:102D600084F83C00204600F01FF8022084F83D0063
:102D70002068211D02F074FA012084F8460084F8CE
:102D80003E0084F83F0084F8400084F8410084F855
:102D9000420084F8430084F8440084F8450084F835
:102DA0003D00002010BD0000006840F20041C4F268
:102DB0000001884218BF704781B00020009043F6A0
:102DC0004000C4F20200016841F0020101600068A5
:102DD00000F002000090009801B0704770470000BA
:102DE000C1B1042908D0082914BF41224022825CC5
:102DF000012A05D016E000BF3F22825C012A11D1D2
:102E00000222082910D0042914BF80F8412080F83C
:102E10003F200BE090F83E20012A03D1022280F8E7
:102E20003E2003E00120704780F84020006801F058
:102E30001F010122036A02FA01F123EA0102026280
:102E4000026A114341F2FF72C4F200029042016231
:102E50000CDC40F2FF71C4F20001884214DCB0F1D6
:102E6000804F37D040F2004116E000BF40F2FF3102
:102E7000C4F20101884215DC41F60001C4F20001F0
:102E8000884227D0002115E040F60001C4F200017D
:102E900088421FD040F60041C4F20001884219D098
:102EA0001FE000BF44F20001C4F20101884211D0CA
:102EB00040F20041C4F20101884212D1416C40F25B
:102EC000004340F48062C4F2010341F400419A429D
:102ED000416406D1816801F00701062904BF002082
:102EE0007047016841F00101016000207047000057
:102EF00000680021C4F20101884205D0B0F1804F82
:102F000018BF7047FEF792BF41F26820C2F200007E
:102F100001780131CAB28A42017001D0704700BF06
:102F200000210170FDF73ABC7047000070B582B017
:102F300090F84250202D0BD113460A460146002A34
:102F40004FF0010018BF002B06D102B070BD00BFCA
:102F5000022002B070BD00BF0863002622204E632D
:102F60008A628B854E6481F842000C680D46C86BFE
:102F700045F2517C45F6B101C0F6000CC0F60001E7
:102F8000C0E90FC145F2D551C0F60001C0E91316E2
:102F9000211DFEF7D1FDE8B31020686420202946EA
:102FA00085F8420001200A6B012A40F0B38000221C
:102FB00000920A681368009352680092009A00BF5A
:102FC0000A6852E8032F0B6842F0100243E8032618
:102FD000002EBAD00A6852E8032F0B6842F01002A4
:102FE00043E80326002EB0D00A6852E8032F0B688E
:102FF00042F0100243E80326002EA6D00A6852E8E9
:10300000032F0B6842F0100243E80326002ED7D1AD
:103010009BE700BF01962868294602680192406834
:1030200001900198286928B3086850E8030F0A68DE
:1030300040F4807042E80303E3B1086850E8030FEE
:103040000A6840F4807042E803039BB1086850E8C6
:10305000030F0A6840F4807042E8030353B1086824
:1030600050E8030F0A6840F4807042E80303002B25
:10307000DAD100BF086850E8050F0A6840F0010087
:1030800042E80503BBB3086850E8050F0A6840F042
:10309000010042E8050373B3086850E8050F0A68A9
:1030A00040F0010042E805032BB3086850E8050F23
:1030B0000A6840F0010042E80503002BDAD11AE06B
:1030C000086850E8050F0A6840F0400042E8050330
:1030D000DBB1086850E8050F0A6840F0400042E89C
:1030E000050393B1086850E8050F0A6840F04000F6
:1030F00042E805034BB1086850E8050F0A6840F044
:10310000400042E80503002BDAD100200A6B012AB7
:103110003FF44DAF012002B070BD0000B0B50C46C9
:103120000546FDF719FD28462146BDE8B04001F0EF
:10313000BBBA000010B50446FDF7FAFC2046BDE816
:10314000104001F0A3BA0000B0B582B001680A686F
:10315000CC684B6902F02F05202D04F0200505D125
:1031600025B102B0BDE8B04002F00ABC5FEA027CC3
:103170001EBF03F0010E04F4907313EB0E0341D154
:10318000036BD50618D5012B16D114F0100313D0FC
:10319000002201920A6801924A680192019A4969E3
:1031A00049064BD4818DC28DC38D002B18BF91422F
:1031B00040F0068202B0B0BD13062DD514F0800396
:1031C0002AD090F84120212AF4D18268B2F5805F9C
:1031D00003D10269002A00F07982026A531C03625B
:1031E00012784A60C28C013A1304C284E2D1C868E2
:1031F00020F08000C860C86840F04000C86002B09D
:10320000B0BD00BFD30718BF14F4807340F0E28054
:10321000530700F1E580EAE05206CBD514F04002F6
:10322000C8D0CA6822F04002CA60202180F841104C
:1032300002B0BDE8B04000F04DBC00BFC26B1168E9
:103240004B68858D99B2002900F0B480A94280F0C6
:10325000B180C385D169B1F5807F00F0A08001689D
:1032600051E8031F026821F4807142E80313DBB1C7
:10327000016851E8031F026821F4807142E80313DA
:1032800093B1016851E8031F026821F4807142E89C
:1032900003134BB1016851E8031F026821F48071E8
:1032A00042E80313002BDAD1016851E8051F0268D8
:1032B00021F0010142E80513BBB3016851E8051F85
:1032C000026821F0010142E8051373B3016851E877
:1032D000051F026821F0010142E805132BB30168C4
:1032E00051E8051F026821F0010142E80513002B97
:1032F000DAD11AE0016851E8051F026821F04001A7
:1033000042E80513DBB1016851E8051F026821F0AE
:10331000400142E8051393B1016851E8051F0268B6
:1033200021F0400142E805134BB1016851E8051F47
:10333000026821F0400142E80513002BDAD1202178
:1033400080F8421000210163016851E8031F026800
:1033500021F0100142E80313DBB1016851E8031FBB
:10336000026821F0100142E8031393B1016851E8AB
:10337000031F026821F0100142E803134BB10168FA
:1033800051E8031F026821F0100142E80313002BEB
:10339000DAD1C16B04460846FEF7E0F92046022167
:1033A0004163818DC28D891A89B202B0BDE8B040F7
:1033B000FFF7B4BE8D427FF4FDAED269B2F5807FD7
:1033C0007FF4F8AE0222426302B0BDE8B040FFF7DE
:1033D000A5BE00BF436C43F001034364530706D509
:1033E000BEF1000F03D0436C43F002034364930724
:1033F00006D5BEF1000F03D0436C43F004034364D1
:10340000BCF1000F06D55EEA050303D0436C43F020
:1034100008034364436C002B3FF4CCAE920605D501
:1034200025B1044602F0ACFA216820464969426C95
:1034300001F0400102F00802891800F0B98000BFD5
:10344000016851E8031F026821F4907142E80313F8
:10345000BBB3016851E8031F026821F4907142E890
:10346000031373B3016851E8031F026821F49071DC
:1034700042E803132BB3016851E8031F026821F4EB
:10348000907142E80313002BDAD11AE0016851E889
:10349000051F026821F0010142E80513DBB1016854
:1034A00051E8051F026821F0010142E8051393B1BC
:1034B000016851E8051F026821F0010142E8051387
:1034C0004BB1016851E8051F026821F0010142E893
:1034D0000513002BDAD1016B012924D1016851E8D1
:1034E000031F026821F0100142E80313DBB10168F9
:1034F00051E8031F026821F0100142E8031393B161
:10350000016851E8031F026821F0100142E803132B
:103510004BB1016851E8031F026821F0100142E835
:103520000313002BDAD1202180F84210002101631F
:1035300001684969490640F1C380016851E8051FE7
:10354000026821F0400142E80513DBB1016851E84F
:10355000051F026821F0400142E8051393B101689C
:1035600051E8051F026821F0400142E805134BB104
:10357000016851E8051F026821F0400142E8051387
:10358000002BDAD1C16B002900F09A8045F2C952B4
:10359000C0F60002044608460A65FEF727F900282F
:1035A0003FF408AEE06B016D02B0BDE8B0400847E3
:1035B0000446FFF7BFFD0020606402B0B0BD00BF4D
:1035C000891A00BF026852E8032F036822F4907240
:1035D00043E80325BDB3026852E8032F036822F4D1
:1035E000907243E8032575B3026852E8032F03681D
:1035F00022F4907243E803252DB3026852E8032FAA
:10360000036822F4907243E80325002DDAD11AE012
:10361000026852E8052F036822F0010243E80525FD
:10362000DDB1026852E8052F036822F0010243E889
:10363000052595B1026852E8052F036822F00102C2
:1036400043E805254DB1026852E8052F036822F0D2
:10365000010243E80525002DDAD1202280F842201E
:1036600000220263026852E8032F036822F010026E
:1036700043E80325DDB1026852E8032F036822F016
:10368000100243E8032595B1026852E8032F03684E
:1036900022F0100243E803254DB1026852E8032FDF
:1036A000036822F0100243E80325002DDAD102223C
:1036B00089B2426302B0BDE8B040FFF72FBD00BF42
:1036C00002B0BDE8B040FFF735BD00BF026A32F876
:1036D000023B6FF35F234B60026283E5002804BF67
:1036E0000120704710B5044690F8410028B9002029
:1036F00084F84000204600F021F8242084F841009E
:103700002068C16821F40051C160204602F0B8F978
:103710002068016921F490410161416921F02A0189
:103720004161C16841F40051C16000202021606402
:1037300084F8411084F84210606310BD2DE9F04315
:1037400087B00446006841F20041C4F2010100263E
:103750008842CDE90566CDE90366029600F0D8807F
:1037600044F60001C4F2000188426DD044F20041E9
:10377000C4F20001884240F03B8143F630000196DC
:10378000C4F20200016946F2280841F400310161E7
:103790000169C4F2020801F4003101910199019616
:1037A000016841F008010160006802A900F008000A
:1037B00001900198602002900220CDE903060320C9
:1037C00005900720069040F20040C4F2020000F588
:1037D0000060FEF749FA40F6141508F16000C2F2E5
:1037E00000054FF000674FF48069C5E900072846DF
:1037F000C5E90266C5E90496C5E90666C5E9086635
:10380000FEF7E8F8002818BFFDF7DAFCE563AC63C3
:1038100040F6741508F17800C2F200054021C5E9B0
:10382000000705F1080080E842022846C5E9056660
:10383000C5E907666E62FEF7CDF800284FF0260650
:1038400040F0CA80CAE000BF43F630000196C4F2DF
:103850000200016946F2280841F4802101610169F2
:10386000C4F2020801F480210191019901960168D6
:1038700041F002010160006802A900F0020001901D
:1038800001984FF4406002900220CDE90306032026
:1038900005900720069040F20040C4F20200FEF7B7
:1038A000E3F940F6D415C2F200054FF000674FF47B
:1038B00080692846C5E90087C5E90266C5E904961E
:1038C000C5E90666C5E90866FEF784F8002818BF52
:1038D000FDF776FCE563AC6340F6342508F1300073
:1038E000C2F200054021C5E9000705F1080080E8A3
:1038F00042022846C5E90566C5E907666E62FEF71D
:1039000069F800284FF0270618BFFDF759FC65E05D
:1039100043F630000196C4F20200416946F22808DD
:1039200041F0200141614169C4F2020801F0200127
:10393000019101990196016841F00401016000685C
:1039400002A900F0040001900198C020029002201A
:10395000CDE90306032005900820069040F20040C0
:10396000C4F2020000F58060FEF77EF940F694256F
:1039700008F58060C2F200054FF020674FF48069BF
:10398000C5E900072846C5E90266C5E90496C5E908
:103990000666C5E90866FEF71DF8002818BFFDF7A2
:1039A0000FFCE563AC6340F6F42508F58F60C2F2C6
:1039B00000054021C5E9000705F10800002280E864
:1039C00006022846C5E90522C5E907226A62FEF714
:1039D00001F84FF0470608B1FDF7F2FB304605212C
:1039E0000022A563AC63FEF7D7FA3046FEF7C2FAB1
:1039F00007B0BDE8F083000070470000704700008A
:103A0000B0B590F84140202C1CBF0220B0BD134639
:103A1000024600294FF0010018BF002B00D1B0BDB5
:103A20004FF0000C212011629384D384C2F844C06B
:103A300082F8410014681546906B45F6C90E45F6AC
:103A40007912C0F6000EC0F60002C0E90FE245F29E
:103A5000D552C0F60002C0E9132C221DFEF76CF807
:103A600030B110206864202085F841000120B0BDED
:103A7000286829466FF04002026000BF086850E8DD
:103A8000050F0A6840F0800042E8050303B30868A8
:103A900050E8050F0A6840F0800042E80503BBB11A
:103AA000086850E8050F0A6840F0800042E8050306
:103AB00073B1086850E8050F0A6840F0800042E8DA
:103AC0000503002B4FF0000008BFB0BDD6E700BFD4
:103AD0000020B0BD00F0B8BE704700002DE9F041F5
:103AE0000DF1180E8C469EE8204140F21C51C2F2A6
:103AF0000001012672B6A1F89802A1F89AC2A1F8B5
:103B00009C2281F89E3281F89F5281F8A08281F830
:103B1000A1E281F8A56240F6543662B6C2F2000610
:103B20003678022E40F09881B1F88C62B1F88A7232
:103B30000136F6B2BE4205D1B1F88E420134A1F889
:103B40008E4207E0B1F88C7255240F4487F88A4101
:103B5000A1F88C62B1F88C42B1F88A720134E6B2F5
:103B6000BE4205D1B1F88E420134A1F88E4207E081
:103B7000B1F88C42CC270C4484F88A71A1F88C628D
:103B8000B1F88C42B1F88A720134E6B2BE4205D176
:103B9000B1F88E420134A1F88E4206E0B1F88C42B1
:103BA0000C4484F88A01A1F88C62B1F88C42B1F817
:103BB0008A720134E6B2BE4206D1B1F88E020130FB
:103BC000A1F88E0208E000BFB1F88C42000A0C4454
:103BD00084F88A01A1F88C62B1F88C02B1F88A42AB
:103BE0000130C0B2A04205D1B1F88E020130A1F877
:103BF0008E0206E0B1F88C420C4484F88AC1A1F828
:103C00008C02B1F88C02B1F88A420130C0B2A042F5
:103C100006D1B1F88E020130A1F88E0209E000BF92
:103C2000B1F88C424FEA1C270E1986F88A71A1F868
:103C30008C02B1F88C02B1F88A720130C0B2B8427D
:103C400006D1B1F88E020130A1F88E0207E000BF64
:103C5000B1F88C720F4487F88A21A1F88C02B1F870
:103C60008C02B1F88A720130C0B2B84206D1B1F804
:103C70008E020130A1F88E0208E000BFB1F88C720C
:103C8000120A0F4487F88A21A1F88C02B1F88C023D
:103C9000B1F88A220130C0B2904205D1B1F88E024B
:103CA0000130A1F88E0206E0B1F88C220A4482F8B5
:103CB0008A31A1F88C02B1F88C02B1F88A22013065
:103CC000C0B2904206D1B1F88E020130A1F88E0246
:103CD00007E000BFB1F88C220A4482F88A51A1F8AB
:103CE0008C02B1F88C02B1F88A220130C0B2904245
:103CF00006D1B1F88E020130A1F88E0207E000BFB4
:103D0000B1F88C220A4482F88A81A1F88C02B1F8B9
:103D10008C02B1F88A220130C0B2904206D1B1F8CB
:103D20008E020130A1F88E0207E000BFB1F88C22AC
:103D30000A4482F88AE1A1F88C02B1F88C02B1F849
:103D40008A220130C0B2904206D1B1F88E02013011
:103D5000A1F88E0208E000BFB1F88C220C230A44BF
:103D600082F88A31A1F88C0291F89002002818BFDD
:103D7000BDE8F08172B691F8900218B162B6BDE864
:103D8000F08100BF012081F89002B1F88C22B1F8D7
:103D90008A32D21A02F58072D31702EB136323F032
:103DA000FF03D31A54D09AB2402A28BF4022012AD6
:103DB00088BF1046042B00F003034FD20020002BD5
:103DC00041D0B1F88A72B1F88C62B7420DD0B1F827
:103DD0008A720E180F4497F88A7186F84470B1F809
:103DE0008A720137FFB2A1F88A72012B2BD0B1F889
:103DF0008A72B1F88C62B7420ED0B1F88A72461C52
:103E00000F4497F88A710E4486F84470B1F88A72AC
:103E10000137FFB2A1F88A72022B14D0B1F88A32AE
:103E2000B1F88C72BB420ED0B1F88A3202300B442A
:103E300093F88A31084480F84430B1F88A0201309E
:103E4000C0B2A1F88A0251F8440BFFF7D9FD02E095
:103E5000002081F8900262B6BDE8F08100F07C0598
:103E6000002002E004308542A9D0B1F88A72B1F88E
:103E70008C62B74212D1B1F88A72B1F88C62B74243
:103E800020D1B1F88A72B1F88C62B7422ED1B1F864
:103E90008A72B1F88C62B742E4D03BE0B1F88A7222
:103EA0000E180F4497F88A7186F84470B1F88A7238
:103EB0000137FFB2A1F88A72B1F88A72B1F88C6248
:103EC000B742DED0B1F88A720E180F4497F88A71A3
:103ED00086F84570B1F88A720137FFB2A1F88A728C
:103EE000B1F88A72B1F88C62B742D0D0B1F88A7258
:103EF0000E180F4497F88A7186F84670B1F88A72E6
:103F00000137FFB2A1F88A72B1F88A72B1F88C62F7
:103F1000B742A7D0B1F88A720E180F4497F88A7189
:103F200086F84770B1F88A720137FFB2A1F88A7239
:103F300098E7000010B540F65433C2F200031B7836
:103F4000012B40F00F818C4640F21C51C2F200015F
:103F500072B681F8920281F893C281F8942262B617
:103F6000B1F88C3203F1010EB1F88A325FFA8EFE9D
:103F70009E4505D1B1F88E320133A1F88E3207E0AB
:103F8000B1F88C3255240B4483F88A41A1F88CE2B5
:103F9000B1F88C32B1F88A420133DBB2A34205D1C9
:103FA000B1F88E320133A1F88E3208E0B1F88C42BC
:103FB00001EB040EBB248EF88A41A1F88C32B1F8D3
:103FC0008C32B1F88A420133DBB2A34206D1B1F898
:103FD0008E020130A1F88E0207E000BFB1F88C42DA
:103FE0000C4484F88A01A1F88C32B1F88C02B1F843
:103FF0008A320130C0B2984206D1B1F88E02013047
:10400000A1F88E0207E000BFB1F88C320B4483F8B0
:104010008AC1A1F88C02B1F88C02B1F88A32013061
:10402000C0B2984206D1B1F88E020130A1F88E02DA
:1040300007E000BFB1F88C320B4483F88A21A1F865
:104040008C02B1F88C02B1F88A220130C0B29042E1
:1040500006D1B1F88E020130A1F88E0208E000BF4F
:10406000B1F88C220B230A4482F88A31A1F88C0221
:1040700091F89002002818BF10BD72B691F8900216
:1040800010B162B610BD00BF012081F89002B1F8F6
:104090008C22B1F88A32D21A02F58072D31702EB61
:1040A000136323F0FF03D31A58D09AB2402A28BFD3
:1040B0004022012A88BF1046042B00F0030C53D283
:1040C0000020BCF1000F43D0B1F88A32B1F88C4225
:1040D000A3420DD0B1F88A320C180B4493F88A3100
:1040E00084F84430B1F88A320133DBB2A1F88A3265
:1040F000BCF1010F2CD0B1F88A32B1F88C42A34246
:104100000ED0B1F88A32441C0B4493F88A310C4427
:1041100084F84430B1F88A320133DBB2A1F88A3234
:10412000BCF1020F14D0B1F88A32B1F88C42A3422C
:104130000ED0B1F88A3202300B4493F88A31084429
:1041400080F84430B1F88A020130C0B2A1F88A0286
:1041500051F8440BFFF754FC03E000BF002081F846
:10416000900262B610BD00BF00F07C0E002002E09D
:1041700004308645A5D0B1F88A42B1F88C329C4211
:1041800012D1B1F88A32B1F88C42A34220D1B1F8F1
:104190008A32B1F88C42A3422ED1B1F88A32B1F8FA
:1041A0008C42A342E4D03BE0B1F88A320C180B44B5
:1041B00093F88A3184F84430B1F88A320133DBB2A3
:1041C000A1F88A32B1F88A32B1F88C42A342DED02B
:1041D000B1F88A320C180B4493F88A3184F84530D0
:1041E000B1F88A320133DBB2A1F88A32B1F88A32EF
:1041F000B1F88C42A342D0D0B1F88A320C180B44EB
:1042000093F88A3184F84630B1F88A320133DBB250
:10421000A1F88A32B1F88A32B1F88C42A342A7D011
:10422000B1F88A320C180B4493F88A3184F847307D
:10423000B1F88A320133DBB2A1F88A3298E7000084
:1042400040F21C53C2F200034FF0000C191D402233
:10425000186083F890C283F8A5C2A3F888C1A3F8B8
:104260008EC2FEF763BE00002DE9F04387B040F236
:104270001C54C2F2000494F89002002800F01E8141
:10428000B4F88601B4F88411401A00F5807000EB90
:10429000106121F0FF01401A0228C0F00B8140F6A6
:1042A00054380DF10C09C2F2000814E0B4F884018E
:1042B0000130C0B2A4F88401B4F88601B4F88411C6
:1042C000401A00F5807000EB106121F0FF01401AE8
:1042D000012840F2EF80B4F88401211891F884108D
:1042E0005529E3D1471C54FA87F191F88410CB2962
:1042F0000CDCAA2916D0BB29D8D14FF0020C06221B
:10430000012600254FF00B0E1BE000BFCC2911D079
:10431000DD29CBD14FF0040C0622012600254FF0F9
:104320000D0E0EE00125042200264FF00A0E4FF07C
:10433000010C06E04FF0030C0D2200254FF00C0E8F
:104340000026B4F88611B4F88431C91A01F58071D9
:1043500001EB116323F0FF03C91A89B28A4200F20C
:10436000A98004F184010B5CFFB2CF5D8DF80C30A5
:10437000831C8DF80D70DBB2C71CCB5CFFB2CF5D28
:104380008DF80E30031D8DF80F70DFB295BBCB5D3D
:10439000451DEDB24D5D8DF81030831DDFB28DF8F7
:1043A00011503EBBCB5D00F108058DF81230C31DE6
:1043B000DBB2EDB2CB5C4D5D8DF813308DF814504F
:1043C00000F1090300F10A05DBB2EDB2CB5C4D5DF3
:1043D0008DF815308DF8165000F10B0300F10C0527
:1043E000DBB2EDB2CB5C495D0D308DF817308DF846
:1043F0001810C7B202EB090010F8010C86452FD146
:10440000BCF1040F48D0BCF1020F31D0BCF1010F58
:104410002AD198F800009DF80E10022884F8911215
:1044200088F8001020D098F8000002281CD194F8D9
:10443000A502C8B1B4F99802B4F99A12B4F99C2251
:1044400094F89E3294F89F6294F8A05294F8A1C216
:10445000CDE90065CDF808C0FFF740FB04E000BFE0
:10446000B4F884010130C7B2A4F8847124E700BF16
:1044700098F800000128F7D19DF80E009DF80F1064
:104480009DF8102084F8950284F8961284F89722FB
:10449000FCF73AFCE8E700BF98F800000328E3D1F6
:1044A0009DF80E00BDF80F1084F8A202A4F8A31224
:1044B000DAE700BF07B0BDE8F08300BFB4F88C02B4
:1044C000B4F88A12401A00063FF4DAAE72B694F8D5
:1044D000900208B162B6D3E6012084F89002B4F8E5
:1044E0008C12B4F88A22891A01F58071CA1701EB7F
:1044F000126222F0FF02891A56D08AB2402A28BFDF
:104500004022012A88BF1046042900F0030151D23D
:104510000020002941D0B4F88A32B4F88C72BB4232
:104520000DD0B4F88A322718234493F88A3187F8DB
:104530004430B4F88A320133DBB2A4F88A3201295C
:104540002BD0B4F88A32B4F88C72BB420ED0B4F8D7
:104550008A32471C234493F88A31274487F8443031
:10456000B4F88A320133DBB2A4F88A32022914D0BB
:10457000B4F88A12B4F88C3299420ED0B4F88A1288
:104580000230214491F88A11204480F84410B4F894
:104590008A020130C0B2A4F88A02214651F8440BC5
:1045A000FFF72EFA03E000BF002084F8900262B605
:1045B00066E600BF00F07C03002002E00430834286
:1045C000A7D0B4F88A72B4F88C62B74212D1B4F8AA
:1045D0008A72B4F88C62B74220D1B4F88A72B4F807
:1045E0008C62B7422ED1B4F88A72B4F88C62B742AA
:1045F000E4D03BE0B4F88A722618274497F88A7111
:1046000086F84470B4F88A720137FFB2A4F88A724F
:10461000B4F88A72B4F88C62B742DED0B4F88A7209
:104620002618274497F88A7186F84570B4F88A727C
:104630000137FFB2A4F88A72B4F88A72B4F88C62B7
:10464000B742D0D0B4F88A722618274497F88A71F6
:1046500086F84670B4F88A720137FFB2A4F88A72FD
:10466000B4F88A72B4F88C62B742A7D0B4F88A72F0
:104670002618274497F88A7186F84770B4F88A722A
:104680000137FFB2A4F88A7298E7000040F21C518B
:10469000C2F200010A68824218BF70470431104616
:1046A0004022FEF743BC000070B540F21C53C2F23A
:1046B0000003D3F800E0864518BF70BD002900F064
:1046C000BC80042901F0030C02D2002162E000BF8B
:1046D00021F00300002107E0B3F888210132A3F89C
:1046E00088210431884255D05A181479B3F886517C
:1046F000B3F884610135EDB2B54205D1B3F8884114
:104700000134A3F8884106E0B3F886611E4486F8B8
:104710008440A3F886515479B3F88651B3F8846184
:104720000135EDB2B54205D1B3F888410134A3F8A3
:10473000884106E0B3F886611E4486F88440A3F8F9
:1047400086519479B3F88651B3F884610135EDB29E
:10475000B54205D1B3F888410134A3F8884106E099
:10476000B3F886611E4486F88440A3F88651D27956
:10477000B3F88641B3F884510134E4B2AC42ABD013
:10478000B3F886511D4485F88420A3F8864104318E
:104790008842A9D1BCF1000F4FD058180179B3F865
:1047A0008621B3F884410132D2B2A24208D1B3F8D3
:1047B00088110131A3F88811BCF1010F0AD13CE046
:1047C000B3F886411C4484F88410A3F88621BCF118
:1047D000010F32D04179B3F88621B3F88441013218
:1047E000D2B2A24208D1B3F888110131A3F88811DE
:1047F000BCF1020F0AD120E0B3F886411C4484F8D2
:104800008410A3F88621BCF1020F16D08079B3F88A
:104810008611B3F884210131C9B2914206D1B3F8AF
:1048200088010130A3F8880107E000BFB3F88621B2
:104830001A4482F88400A3F88611191D704640229C
:10484000BDE87040FEF772BB40F21C53C2F2000399
:10485000D3F800C0604501D0704700BF002083F846
:104860009002B3F88C02B3F88A12401A00F58070F7
:10487000C11700EB116121F0FF01401A08BF70471A
:10488000B0B582B2402A28BF4022012A114698BF03
:104890000121042801F0030E52D20020BEF1000FC6
:1048A00043D0B3F88A12B3F88C42A1420DD0B3F8CA
:1048B0008A121C18194491F88A1184F84410B3F82C
:1048C0008A120131C9B2A3F88A12BEF1010F2CD0AD
:1048D000B3F88A12B3F88C42A1420ED0B3F88A1210
:1048E000441C194491F88A111C4484F84410B3F80C
:1048F0008A120131C9B2A3F88A12BEF1020F14D094
:10490000B3F88A12B3F88C42A1420ED0B3F88A12DF
:104910000230194491F88A11184480F84410B3F811
:104920008A020130C0B2A3F88A02012403F14401D3
:10493000604683F89042BDE8B040FFF761B800BF21
:1049400001F07C01002002E004308142A6D0B3F8DF
:104950008A42B3F88C52AC4212D1B3F88A42B3F80F
:104960008C52AC4220D1B3F88A42B3F88C52AC429C
:104970002ED1B3F88A42B3F88C52AC42E4D03BE07B
:10498000B3F88A421D181C4494F88A4185F84440C3
:10499000B3F88A420134E4B2A3F88A42B3F88A42F7
:1049A000B3F88C52AC42DED0B3F88A421D181C44D6
:1049B00094F88A4185F84540B3F88A420134E4B25C
:1049C000A3F88A42B3F88A42B3F88C52AC42D0D0F2
:1049D000B3F88A421D181C4494F88A4185F8464071
:1049E000B3F88A420134E4B2A3F88A42B3F88A42A7
:1049F000B3F88C52AC42A7D0B3F88A421D181C44BD
:104A000094F88A4185F84740B3F88A420134E4B209
:104A1000A3F88A4298E70000FEE7000040F22C214C
:104A2000C2F200010A68904218BF7047D1E9010143
:104A300040F60852C2F20002106051607047000058
:104A400010B540F22C21C2F2000141F8040B0422FF
:104A5000FCF7B4FD40F6E834C2F2000420460C2115
:104A6000FEF7BEF920685A21016410BD70470000AE
:104A700040F23821C2F200010A68904218BF704724
:104A80008B8840F26C20CA88C2F20000038042800A
:104A900040F6273041F26A2C8342C2F2000C15D353
:104AA000BCF80010022363F3830140F627308242F2
:104AB00019D240F226300023824221F0030088BF41
:104AC0000123C118ACF80010704700BFBCF80010FB
:104AD00040F2263021F00C01834288BF043140F6B9
:104AE00027308242E5D3022060F30101ACF80010C8
:104AF0007047000040F23821C2F2000141F8040B77
:104B00000222FCF75BBD00007047000010B584B0C6
:104B100040F2C470C2F2000042F2000C4FF080522A
:104B20004FF000630021C4F2010C4FF4803E0124D9
:104B3000C0E90A3202220391017680F82010C26196
:104B400080F83040C0E900CEC0E90211C0E9044459
:104B5000FCF7E6FB002818BFFCF732FB03200290AD
:104B600040F2C470C2F200006946CDE90044FCF78F
:104B70002BFB002818BFFCF723FB0220CDE9000027
:104B800040F2C470C2F200006946FCF71DFB002829
:104B900018BFFCF715FB04B010BD000010B584B0C1
:104BA00040F60C00C2F2000042F2001C4FF08052AE
:104BB0004FF000630021C4F2010C4FF4803E012449
:104BC000C0E90A3204220391017680F82010C26104
:104BD00080F83040C0E900CEC0E90211C0E90444C9
:104BE000FCF79EFB002818BFFCF7EAFA0320CDE98A
:104BF0000004029040F60C00C2F200006946FCF787
:104C0000E3FA002818BFFCF7DBFA0420009002202A
:104C1000019040F60C00C2F200006946FCF7D4FA9D
:104C2000002818BFFCF7CCFA052000900320019063
:104C300040F60C00C2F200006946FCF7C5FA0028F5
:104C400018BFFCF7BDFA062000900420019040F642
:104C50000C00C2F200006946FCF7B6FA002818BF43
:104C6000FCF7AEFA04B010BD80B582B0002043F668
:104C700030010190C4F202010A6842F400120A6095
:104C80000A6802F400120192019A0090086800225A
:104C900040F4800008600868052100F4800000905E
:104CA00000980C20FDF778F90C20FDF763F90E2031
:104CB00005210022FDF770F90E20FDF75BF91020A9
:104CC00005210022FDF768F91020FDF753F91120A6
:104CD00005210022FDF760F91120FDF74BF938207E
:104CE00005210022FDF758F93820FDF743F9392056
:104CF00005210022FDF750F93920FDF73BF93A2054
:104D000005210022FDF748F93A20FDF733F9452047
:104D100005210022FDF740F9452002B0BDE88040A2
:104D2000FDF728B910B545F2651047F69072C0F648
:104D30000000C0F60002002100F090FF40F23C1499
:104D4000C2F20004206041F2911047F61C62C0F6E6
:104D50000000C0F60002002100F080FF606040F219
:104D60006D7047F6F852C0F60000C0F60002002150
:104D700000F074FFA06045F2151047F64062C0F6DF
:104D80000000C0F60002002100F068FFE06045F27C
:104D90007D5047F66462C0F60000C0F600020021B4
:104DA00000F05CFF206110BD2DE9F04F87B00027B7
:104DB00043F630000697CDE90477CDE902770197F5
:104DC000C4F20200016840F6000441F08001016075
:104DD0000168C4F2020401F0800101910199019778
:104DE0000168A4F5806541F00401016001680022BA
:104DF00001F0040101910199019701684FF4405BB2
:104E000041F001010160016801F001010191019986
:104E10000197016841F010010160016801F0100183
:104E2000019101990197016841F002010160016857
:104E300001F00201019101990197016841F0080117
:104E4000016000684FF4405100F0080001900198A3
:104E50002846FCF7DFFF20464FF4406100224FF464
:104E60004068FCF7D7FF0F2002AECDE902074FF0F4
:104E7000010920463146CDF81090FCF7F5FE4FF4BD
:104E8000FF40CDE902074FF0020A04F50060314609
:104E9000CDF810A0FCF7E8FE28463146CDE902B96E
:104EA000CDE90477FCF7E0FE4FF4804002904FF428
:104EB000881B28463146CDE903BAFCF7D5FE2046CB
:104EC0003146CDE90289CDE90477FCF7CDFE4FF4F8
:104ED0008050CDE9020B20463146CDF810A0FCF7FA
:104EE000C3FE282005210022FDF756F82820FDF7F3
:104EF00041F807B0BDE8F08F80B586B040F6583075
:104F000000220021C2F20000C4F2010244F29F1309
:104F10004FF0090C0591CDE90311CDE90011C0E96D
:104F20000023C0E9021CC0E904118161FDF7DAFB2E
:104F3000002818BFFCF744F94FF48050029040F667
:104F40005830C2F2000002A9FDF774FC002818BF17
:104F5000FCF736F940F65830C2F200006946FDF71A
:104F600063FB002818BFFCF72BF906B080BD0000DA
:104F700080B58AB02020089040F6E83040F2004228
:104F80000021C2F20000C4F200024FF6FF73099143
:104F9000CDE90611CDE90411C0E90021C0E90213F1
:104FA00001618161FDF7D2FE002818BFFCF708F906
:104FB00040F6E830C2F2000008A9FDF735FB0028F2
:104FC00018BFFCF7FDF8602001900020CDE9020039
:104FD000059040F6E830C2F2000001A90C22FDF76E
:104FE000A5FD002818BFFCF7EBF80AB080BD000053
:104FF00080B540F6304044F20041C2F20000C4F2F5
:10500000000100234FF00C0C4FF4E13280E80E0059
:10501000C0E90333C0E905C3C361FEF75FFB0028A5
:1050200008BF80BDBDE88040FCF7CAB880B540F637
:10503000784044F60001C2F20000C4F200010023EF
:105040004FF00C0C4FF4E13280E80E00C0E903335E
:10505000C0E905C3C361FEF741FB002808BF80BD5E
:10506000BDE88040FCF7ACB880B540F6C04041F2E6
:105070000041C2F20000C4F2010100234FF00C0C09
:105080004FF4E13280E80E00C0E90333C0E905C304
:10509000C361FEF723FB002808BF80BDBDE8804048
:1050A000FCF78EB8FEE70000FEE7000000000000FD
:1050B000EFF30980BFF36F8F154B1A681EF0100FC6
:1050C00008BF20ED108A20E9F04F10602DE909009B
:1050D0004FF0500080F31188BFF34F8FBFF36F8FF5
:1050E00001F01AFF4FF0000080F31188BDE80900BD
:1050F00019680868B0E8F04F1EF0100F08BFB0EC58
:10510000108A80F30988BFF36F8F704700BF00BF1C
:105110005001002040F6C04040F67841C2F2000045
:10512000C2F20001FBF7EAFEFBF724FF012000F0CA
:1051300053FDF9E70000000000000000000000003F
:10514000074B19680868B0E8F04F80F30988BFF38F
:105150006F8F4FF0000080F31188704700BF00BFD1
:1051600050010020012000F037FDFBE780B54EF232
:105170001000CEF20000006802F038FC012808BFE1
:1051800080BDBDE8804001F0F1BF000070B592B075
:1051900006AC20463021FBF742F9002543F64000DB
:1051A0000595CDE90355CDE901550095C4F20200FE
:1051B0000168022641F080510160006800F08050D3
:1051C0000090009847F200000095C4F200000168CA
:1051D00041F4804101600068A82100F48040009003
:1051E0000098012006904FF4803007904FF4800023
:1051F0000D9004200E90119020460C96CDE90F16CC
:10520000FDF738F810B172B6FEE700BF0F20CDE908
:1052100001064FF4A05004904FF48050059001A86F
:1052200005210395FCF7F4FE10B172B6FEE700BF4E
:1052300012B070BD4EF68850CEF20000016841F405
:10524000700101607047000040F65830C2F2000063
:10525000FDF7C2BB40F6A030C2F20000FDF7BCBBB8
:10526000B0B540F6FF3E0568C4F2000E40F2004CB7
:105270007045C4F2010C25DCB0F1804F2FD040F214
:105280000043C4F20003984229D040F60003C4F260
:105290000003984223D041F6FF73C4F20003984202
:1052A00028DC70453ADCB0F1804F5BD040F200431F
:1052B000C4F20003984255D040F60003C4F2000344
:1052C0004EE000BF40F60043C4F20003984206D00F
:1052D000604504D00023C4F201039842DBD14B683F
:1052E00025F0700243EA020541F6FF73C4F20003A1
:1052F0009842D6DD43F6FF73C4F2010398421FDCE7
:1053000042F20003C4F2000398422BD00023C4F2FF
:105310000103984226D0604524D028E040F600439F
:10532000C4F2000398421DD041F60003C4F200030A
:10533000984217D041F60043C4F2000310E000BFCA
:1053400044F20003C4F2010398420BD044F6000378
:10535000C4F20103984205D044F20043C4F20103B1
:10536000984204D1CB6825F4407243EA02050A68EA
:105370008C684B69C46240F480648262644504BFF7
:1053800009690163026825F0800142F004021943B3
:105390000260012242610160B0BD000040F2702154
:1053A000C2F200010A68904218BF704710B572B689
:1053B000B1F89002B1F88E22801A00F58070C21701
:1053C00000EB126222F0FF02801A65D082B2402AFE
:1053D00028BF4022012A134698BF0123042803F066
:1053E000030C5FD20020BCF1000F45D0B1F88EE273
:1053F000B1F890329E450DD0B1F88E320B4493F83F
:105400008EE10B1883F848E0B1F88E320133DBB23D
:10541000A1F88E32BCF1010F2ED0B1F88EE2B1F8B6
:1054200090329E4510D0B1F88E3200F1010E0B443F
:1054300093F88E4101EB0E0383F84840B1F88E32A9
:105440000133DBB2A1F88E32BCF1020F14D0B1F8F7
:105450008E32B1F89042A3420ED0B1F88E320230B3
:105460000B4493F88E31084480F84830B1F88E022E
:105470000130C0B2A1F88E02012081F8940251F8E7
:10548000480BFEF7BDFA41F26C20C2F20000018821
:105490000131018062B610BD002081F8940262B62D
:1054A00010BD00BF03F07C0E002002E004308645F2
:1054B00099D0B1F88E42B1F890329C4212D1B1F835
:1054C0008E32B1F89042A34220D1B1F88E32B1F8B9
:1054D0009042A3422ED1B1F88E32B1F89042A3424D
:1054E000E4D03BE0B1F88E320C180B4493F88E31C7
:1054F00084F84830B1F88E320133DBB2A1F88E3235
:10550000B1F88E32B1F89042A342DED0B1F88E32BB
:105510000C180B4493F88E3184F84930B1F88E3270
:105520000133DBB2A1F88E32B1F88E32B1F890427D
:10553000A342D0D0B1F88E320C180B4493F88E31C0
:1055400084F84A30B1F88E320133DBB2A1F88E32E2
:10555000B1F88E32B1F89042A342A7D0B1F88E32A2
:105560000C180B4493F88E3184F84B30B1F88E321E
:105570000133DBB2A1F88E3298E700004EF6FC5002
:10558000CEF20000016841F08071016041F200003C
:10559000CEF2000000214160016841F0010101608C
:1055A000FBF7FCF840F6C044C2F200042046FFF7C7
:1055B000F5FE00BF01204FF0FF3101F0D7F8204683
:1055C000FFF7ECFEF6E70000806B0021C185FDF7D8
:1055D000B1BD0000806B01684A6990F84130212B11
:1055E0002DD112F080022AD00021C184016851E837
:1055F000031F026821F0C00142E80313DBB1016818
:1056000051E8031F026821F0C00142E8031393B17F
:10561000016851E8031F026821F0C00142E803134A
:105620004BB1016851E8031F026821F0C00142E854
:105630000313002BDAD1202180F841100168496959
:1056400090F84220222A40F07D8011F0400179D06C
:105650000021C185016851E8031F026821F490719F
:1056600042E80313BBB3016851E8031F026821F449
:10567000907142E8031373B3016851E8031F026895
:1056800021F4907142E803132BB3016851E8031F22
:10569000026821F4907142E80313002BDAD11AE07A
:1056A000016851E8051F026821F0010142E8051375
:1056B000DBB1016851E8051F026821F0010142E8F1
:1056C000051393B1016851E8051F026821F001013B
:1056D00042E805134BB1016851E8051F026821F04B
:1056E000010142E80513002BDAD1016B012924D115
:1056F000016851E8031F026821F0100142E803131A
:10570000DBB1016851E8031F026821F0100142E893
:10571000031393B1016851E8031F026821F01001DF
:1057200042E803134BB1016851E8031F026821F0FE
:10573000100142E80313002BDAD1202180F8421037
:1057400000210163416C41F010014164FDF7F2BC9E
:105750000168806B0968C90500F19F800021C1853F
:10576000016851E8031F026821F4807142E80313C5
:10577000E3B1016851E8031F026821F4807142E837
:1057800003139BB1016851E8031F026821F4807183
:1057900042E8031353B1016851E8031F026821F482
:1057A000807142E80313002BDAD100BF016851E891
:1057B000051F026821F0010142E80513BBB301682F
:1057C00051E8051F026821F0010142E8051373B397
:1057D000016851E8051F026821F0010142E8051344
:1057E0002BB3016851E8051F026821F0010142E86E
:1057F0000513002BDAD11AE0016851E8051F026891
:1058000021F0400142E80513DBB1016851E8051FB2
:10581000026821F0400142E8051393B1016851E8A4
:10582000051F026821F0400142E805134BB10168F1
:1058300051E8051F026821F0400142E80513002BE2
:10584000DAD1202180F84210016B012925D100BF57
:10585000016851E8031F026821F0100142E80313B8
:10586000DBB1016851E8031F026821F0100142E832
:10587000031393B1016851E8031F026821F010017E
:1058800042E803134BB1016851E8031F026821F09D
:10589000100142E80313002BDAD100214163016BB0
:1058A000012918BFFEF7A8B8818DFDF737BC0000AD
:1058B000806B01214163016B012918BFFEF79EB87F
:1058C000818D4908FDF72ABC0168806B0968C9050C
:1058D00048BFFEF7FFB80021C18400BF016851E84E
:1058E000051F026821F0800142E8051383B30168B7
:1058F00051E8051F026821F0800142E805133BB31F
:10590000016851E8051F026821F0800142E8051393
:10591000F3B1016851E8051F026821F0800142E8F7
:105920000513002BDAD113E0016851E8031F026868
:1059300041F0400142E80313002B08BF70470168A3
:1059400051E8031F026841F0400142E8031393B19C
:10595000016851E8031F026841F0400142E8031367
:105960004BB1016851E8031F026841F0400142E871
:105970000313002BD8D17047806BFEF7ADB8000041
:1059800081B090F84210222921D183680246B3F5F4
:10599000805F09D152F8281F52F8183C002B63D0C1
:1059A00003685B680AE000BF52F8281F13B9036957
:1059B000002BF5D003685B6803F07F030B70116860
:1059C00001311160C18D01390A04C18502D001B0D5
:1059D000704700BF0168CA6822F02002CA60CA6826
:1059E00022F48072CA604A6922F001024A612021D1
:1059F00080F8421000214163026B012A3CD101630F
:105A0000016851E8031F026821F0100142E8031306
:105A1000DBB1016851E8031F026821F0100142E880
:105A2000031393B1016851E8031F026821F01001CC
:105A300042E803134BB1016851E8031F026821F0EB
:105A4000100142E80313002BDAD101680A68D2067C
:105A500006D5002200920A680092496800910099D8
:105A6000818D01B0FDF75ABB026852686FF35F2267
:105A700021F8022B8162A5E701B0FDF7BDBF000050
:105A8000B0B50446006804F108030ECB056919435C
:105A900025F440552A4302616269E3691143C268F3
:105AA000194349F20C639A431143C1604169A269E9
:105AB00021F4407141F20043114340F48062C4F28A
:105AC00001039A42416103D1FCF788FB02E000BF69
:105AD000FCF770FBE1694FF69C7563681922C0F60C
