:020000040800F2
:10000000505B002055020008E1420008453C000812
:10001000DD420008D9050008CD4D000800000000B1
:100020000000000000000000000000008143000804
:100030005D0D000800000000F1420008AD4300081B
:100040006F0200086F0200086F0200086F020008CC
:100050006F0200086F0200086F0200086F020008BC
:100060006F0200086F0200086F0200086F020008AC
:10007000FD0C00086F020008090D00086F0200085F
:10008000150D0008210D00086F0200086F0200081E
:100090006F0200086F0200086F0200086F0200087C
:1000A0006F020008894400086F0200086F02000810
:1000B000954400086F0200086F0200086F020008F4
:1000C0006F0200086F0200086F0200086F0200084C
:1000D0006F0200086F020008A94D0008B54D000826
:1000E000790D00086F0200086F0200086F02000817
:1000F0006F0200086F0200086F0200086F0200081C
:100100006F0200086F0200086F0200086F0200080B
:100110006F0200086F0200086F0200086F020008FB
:100120002D0D0008390D0008450D00086F0200086C
:100130006F0200086F0200086F0200086F020008DB
:100140006F0200086F0200086F0200086F020008CB
:100150006F020008510D00086F020008C14D000831
:100160006F0200086F0200086F0200086F020008AB
:100170006F0200086F0200086F0200080000000014
:100180006F0200086F02000800F002F800F052F859
:1001900014A696E8000CB244B344DA4501D100F04D
:1001A00049F8BAE80F000FA696E83000A5EB040561
:1001B00004EB0607AAEB0704A7F101074FEA1515A0
:1001C0004FEA3414A4F10104AC4201D300F032F838
:1001D00013F0010F18BFFB1A43F0010300F001F800
:1001E000DBE7184784700000A4700000103A24BFB9
:1001F00078C878C1FAD8520724BF30C830C144BF8C
:1002000004680C6070470000704700000023002461
:1002100000250026103A28BF78C1FBD8520728BF16
:1002200030C148BF0B6070471FB506F0EBFE1FBD25
:1002300010B510BD00F04FF91146FFF7F5FF04F0BF
:10024000C7FD00F06DF903B4FFF7F2FF03BC00F047
:1002500075F900000948804709480047FEE7FEE7B6
:10026000FEE7FEE7FEE7FEE7FEE7FEE7FEE7FEE766
:1002700004480549054A064B7047000075440008CC
:100280008901000850550020505B00205057002085
:100290005057002053EA020C00F069802DE9F04B22
:1002A0004FF00006002B1FBFB3FA83F503FA05F4E5
:1002B00024FA05F65E4012BF1643B2FA82F502FA3E
:1002C00005F4C5F120051EBF22FA05FC44EA0C0422
:1002D000203556EA044C4FEA144418BF641C4FF012
:1002E00000084FF00009904271EB030C39D300294C
:1002F00019BFB1FA81F701FA07F6B0FA80F700FAF0
:1003000007F6C7F120071EBF20FA07FC46EA0C06D5
:100310002037B6FBF4FCA7EB0507103F07F01F0BD7
:10032000CBF120062CFA06F60CFA0BFB44BFB346C1
:100330000026202FA4BF5E464FF0000B5BEA060CA0
:1003400008BF4FF0010B19EB0B0948EB0608ABFB9C
:10035000027C06FB02CC0BFB03CCC01B71EB0C0137
:10036000C1E70B46024641464846BDE8F08B13B54F
:10037000084318BF4FF0FF300146AFF30080BDE8DF
:100380001C407047032A40F2308010F0030C00F04C
:10039000158011F8013BBCF1020F624498BF11F8BF
:1003A00001CB00F8013B38BF11F8013BA2F1040278
:1003B00098BF00F801CB38BF00F8013B11F00303F0
:1003C00000F05780083AC0F0088051F8043B083A22
:1003D00051F804CBA0E80810F5E7121D5CBF51F8F6
:1003E000043B40F8043BAFF30080D20724BF11F870
:1003F000013B11F801CB48BF11F8012B24BF00F8D5
:10040000013B00F801CB48BF00F8012B704702F018
:10041000FF0343EA032242EA024200F002B84FF02F
:10042000000200B5134694469646203922BFA0E844
:100430000C50A0E80C50B1F12001BFF4F7AF090750
:1004400028BFA0E80C5048BF0CC05DF804EB890041
:1004500028BF40F8042B08BF704748BF20F8022B84
:1004600011F0804F18BF00F8012B7047704770479C
:10047000704710B5203AC0F00B80B1E81850A0E8E2
:100480001850B1E81850A0E81850203ABFF4F5AF62
:100490005FEA027C24BFB1E81850A0E8185044BFBE
:1004A00018C918C0BDE810405FEA827C24BF51F82B
:1004B000043B40F8043B08BF7047D20728BF31F81F
:1004C000023B48BF11F8012B28BF20F8023B48BF70
:1004D00000F8012B7047754600F02CF8AE46050079
:1004E0006946534620F00700854618B020B5FFF74F
:1004F000BFFEBDE820404FF000064FF000074FF070
:1005000000084FF0000BAC46ACE8C009ACE8C009ED
:10051000ACE8C009ACE8C00921F007018D4670477E
:1005200010B50446AFF300802046BDE81040FFF749
:100530008ABE000000487047D00000200149182002
:10054000ABBEFEE726000200704700000146806B4C
:10055000036C026C13F0500F08D0D20648BF00F0B5
:10056000C5BC806BC26C0846104700BF42F40071E6
:10057000016401688A6812F0405F01D000F0AABCF3
:10058000027E002AFAD1CA6A12F4700F02D08A6879
:100590005205F3D44A6822F020024A60016C21F42B
:1005A00080710164016CC90448BF00F093BC016C08
:1005B00041F00101016400F08DBC0000806B40211E
:1005C0000164416C41F00401416400F08FBC000003
:1005D000806B00F089BC0000FEE7000040F20800DC
:1005E000C2F2000000210122C17181600273C17555
:1005F0008161027780F82710816280F82C2080F8D2
:100600003710816380F83C2080F84710816480F8BF
:100610004C2080F85710816580F85C2080F86710C6
:10062000816680F86C2080F87710816780F87C20E4
:1006300080F88710C0F8881080F88C2080F8971018
:10064000C0F8981080F89C2080F8A710C0F8A81077
:1006500080F8AC2080F8B710C0F8B81080F8BC2043
:10066000704700002DE9F04F81B04FF000080F26D1
:1006700001F0BEF940F2080B40F270248146C2F24C
:10068000000B4FF0010AC2F20004002513E000BF86
:100690000020F87121883A7B0AFA06F021EA00036B
:1006A000002A05F11005238004BF08432080C02DD7
:1006B000A6F1010626D00BEB05075BF80500B9880B
:1006C00001F08AF9FA79B979022A15D0012A07D0FE
:1006D000002ADDD18842DDD1C7F808900120D8E793
:1006E0008842D5D1B868A9EB00001428D2D387F886
:1006F0000C800220CDE700BF8842CBD087F80CA049
:10070000C6E700BF01B0BDE8F08F000040F2F47012
:10071000C2F2000003F0AAFA40F2AC70C2F200008C
:1007200003F0FAFAFFF75AFF03F0B6FA03F0FEFA05
:10073000FFF798FF012004F06FFBF5E7F0B581B0FB
:1007400040F27420C2F20000B0F8924247F2EC028C
:10075000E1B2C0F60002515CB0F8943281EA142193
:10076000C9B2515CB0F896625940C9B2555CB0F854
:1007700098E285EA1325EDB2555D40F2702175408F
:10078000EDB2555DC2F2000185EA1625EDB2555D68
:100790000F8885EA0E05EDB2555DA0F89A7285EADC
:1007A0001E21C9B2515C7940C9B2515C81EA17215E
:1007B000C9B212F801C0B0F88E12B0F88C520131F3
:1007C000CAB2AA4207D0B0F88E12AA25014481F815
:1007D0008C51A0F88E22B0F88E12B0F88C520131F4
:1007E000CAB2AA4207D0B0F88E125525014481F84A
:1007F0008C51A0F88E22B0F88E12B0F88C520131D4
:10080000CAB2AA4206D0B0F88E12014481F88C41D7
:10081000A0F88E22B0F88E12B0F88C520131CAB214
:10082000AA4207D0B0F88E12240A014481F88C4104
:10083000A0F88E22B0F88E12B0F88C420131CAB204
:10084000A24206D0B0F88E12014481F88C31A0F893
:100850008E22B0F88E12B0F88C420131CAB2A24298
:1008600007D0B0F88E121B0A014481F88C31A0F831
:100870008E22B0F88E12B0F88C320131CAB29A4290
:1008800006D0B0F88E12014481F88C61A0F88E2257
:10089000B0F88E12B0F88C320131CAB29A4207D049
:1008A000B0F88E12330A014481F88C31A0F88E2200
:1008B000B0F88E12B0F88C220131C9B2914206D044
:1008C000B0F88E22024482F88CE1A0F88E12B0F8C3
:1008D0008E12B0F88C220131C9B2914208D0B0F822
:1008E0008E224FEA1E23024482F88C31A0F88E1229
:1008F000B0F88E12B0F88C220131C9B2914206D004
:10090000B0F88E22024482F88C71A0F88E12B0F8F2
:100910008E12B0F88C220131C9B2914207D0B0F8E2
:100920008E223B0A024482F88C31A0F88E12B0F875
:100930008E12B0F88C220131C9B2914206D0B0F8C3
:100940008E22024482F88CC1A0F88E12B0F88E126A
:10095000B0F88C220131C9B2914207D0B0F88E2292
:10096000DE23024482F88C31A0F88E1290F89012A7
:1009700011B101B0F0BD00BFB0F88E12B0F88C021A
:10098000081A0006F5D040F60000C4F202004FF449
:10099000805101F021F80128EBD1EFF30580C8B1B7
:1009A00040F24C10C2F2000000210068009169463C
:1009B00005F078FA00980028DBD04EF60450CEF20D
:1009C00000004FF080510160BFF34F8FBFF36F8F76
:1009D00001B0F0BD40F24C10C2F2000000680021EE
:1009E0000222002301B0BDE8F04006F09FB80000ED
:1009F00040F27421C2F200014A68824206D00A68BD
:100A0000824204BF002081F89002704708311046EE
:100A1000402202F065B8000070B540F27424C2F2C2
:100A20000004D4F804E0864518BF70BD00293ED00C
:100A3000042901F0030C49D20021BCF1000F36D08B
:100A40006018017AB4F88A21B4F888310132D2B240
:100A50009A4206D0B4F88A31234483F88810A4F867
:100A60008A21BCF1010F22D0417AB4F88A21B4F86E
:100A700088310132D2B29A4206D0B4F88A31234486
:100A800083F88810A4F88A21BCF1020F0FD0807A75
:100A9000B4F88A11B4F888210131C9B2914206D064
:100AA000B4F88A21224482F88800A4F88A1104F15B
:100AB00008017046402202F013F86068C06B0068BD
:100AC000016821F00801016070BD00BF21F003033F
:100AD000002102E004318B42AFD06018027AB4F8F2
:100AE0008A51B4F888610135EDB2B54206D0B4F848
:100AF0008A61264486F88820A4F88A51427AB4F89C
:100B00008A51B4F888610135EDB2B54206D0B4F827
:100B10008A61264486F88820A4F88A51827AB4F83B
:100B20008A51B4F888610135EDB2B54206D0B4F807
:100B30008A61264486F88820A4F88A51C07AB4F8DD
:100B40008A21B4F888510132D2B2AA42C2D0B4F894
:100B50008A51254485F88800A4F88A21BAE7000064
:100B6000B0B540F27425C2F20005C5E900010020CD
:100B700085F8900243F21240C7F65600C5F892027B
:100B80004BF69A40CFF2DE0040F20044C5F89602E0
:100B900043F21240C4F20204A5F89A0220464FF430
:100BA0008051002200F01EFF20464FF40051002229
:100BB00000F018FF686805F10801402201F090FF7D
:100BC0006868C06B0068016821F008010160B0BD71
:100BD0002DE9F04F81B040F27424C2F20004B4F861
:100BE0008A01B4F88811401A00F5807000EB10619A
:100BF00021F0FF01401A0A287CD347F2EC0A41F2A7
:100C00004C2841F2482904F18805C0F6000AC2F2D6
:100C10000008C2F2000913E0B4F888010130C0B244
:100C2000A4F88801B4F88A01B4F88811401A00F5D4
:100C3000807000EB106121F0FF01401A092859D99A
:100C4000B4F88801295C5529E6D1411CC9B2695C18
:100C5000AA29E1D100F10901C9B2695CED29DBD112
:100C6000811CC9B215F801C0C11CC9B215F801E058
:100C70001AF80C20011DC9B282EA0E0215F801B063
:100C80001AF80220411DC9B282EA0B026F5C1AF801
:100C90000220811DC9B27A406E5C1AF80220C11D83
:100CA000C9B27240695C1AF8022000F1080354FAD4
:100CB00083F34A4093F888301AF802209342ABD16C
:100CC0000A304CEA0E224BEA072346EA0121C0B261
:100CD000A4F89C22A4F89E32A4F8A012A4F88801DB
:100CE00000F086FEB9F80010C8F80000481CA9F80A
:100CF000000097E701B0BDE8F08F000040F6BC109F
:100D0000C2F2000000F06CBB40F61C20C2F20000F2
:100D100000F066BB40F6FC00C2F2000000F060BBD1
:100D200040F65C10C2F2000000F05ABB40F63C00F6
:100D3000C2F2000000F054BB40F67C20C2F200007A
:100D400000F04EBB40F69C00C2F2000000F048BB31
:100D500040F6DC20C2F2000000F042BB7047000009
:100D600040F61440C2F2000002F092FC02F0A2FC35
:100D7000012004F051F8F9E780B54FF4805000F0FD
:100D80004FFD4FF48040BDE8804000F049BD0000B9
:100D900072B600BFFEE7000070B581B0002200927D
:100DA00090F83C20012A03D1022001B070BD00BFA1
:100DB000D1F800E001221FFA8EFC4FEA4C0380F8C4
:100DC0003C200EEB4E0213FA8EF31024BEF1090FF5
:100DD00088BFA3F11E0288BF0C24036807251E5993
:100DE000954026EA05051D518D681E5905FA02F247
:100DF00032431A514968062906D801EB81014A1F7E
:100E0000194651F8345F0EE00C2901EB810105D839
:100E1000A1F12302194651F8305F04E0A1F141022B
:100E2000194651F82C5F1F24944025EA04040C60F5
:100E30000CFA02F20C6842F2043CC4F2010C2243A8
:100E4000ACF54174A3420A603ED1BEF1120F07D146
:100E5000DCF8001041F48001CCF8001034E000BF51
:100E60002EF0010110292FD1DCF80010BEF1100F77
:100E700041F40001CCF8001026D140F2C801C2F2C2
:100E8000000109684DF68362C4F21B32A1FB021215
:100E9000910C01EB8101490000910099A1B10099E9
:100EA00001390091009979B10099013900910099B7
:100EB00051B1009901390091009929B10099013986
:100EC000009100990029EAD1002180F83C1000200F
:100ED00001B070BD10B5044602F0B6FE2046BDE874
:100EE000104002F0DBBE00007047000070470000B9
:100EF000002804BF0120704710B5016C00293DD0C7
:100F0000016CC90645D4016C41F2021291430231D1
:100F100042F204320164C4F20102116821F440314A
:100F20001160136890E812102343D0F810E01360AA
:100F30004A68012422F480724A604A68C0F600744C
:100F400042EA0E224A604A6822F040724A604A68C9
:100F500042EA0C024A608A6822F400628A60C2682F
:100F60008B681A438A60826A8B68A24223F070639E
:100F70008B608B6810D123F0405216E0044600F0DD
:100F800065F820460021616484F83C10016CC906B4
:100F9000B9D5012153E000BF1A438A608A6822F064
:100FA00040528A60C26A8B681A438A608A6822F05B
:100FB00002028A608A68037E90F8204042EA430277
:100FC0008A604A6884B142F400624A604A684EF21C
:100FD000000322F460424A60426ACFF6FF734C6815
:100FE00003EB4232224301E022F400624A60CA6A03
:100FF00040F2000C22F47002CA62C3694269CFF663
:10100000F07CCC6A0CEB03532343CB628B6823F454
:1010100000738B6090F830308C6844EA43238B6017
:101020008B6823F480638B608B6843EA82228A603A
:1010300000214164026C012363F301020264002277
:1010400080F83C20BDE810400846704770B586B077
:101050000446006842F20011C4F2010100268842F1
:10106000CDE90466CDE90266019643D042F2000163
:10107000C4F20101884240F0868043F630000096B9
:10108000C4F20200416941F480714161416901F497
:101090008071009100990096016841F001010160A2
:1010A000006801A900F0010000900098062001905E
:1010B0000320CDE902060020C4F2020000F0BCFBD0
:1010C00040F63C0546F21040C2F20005C4F20200B0
:1010D0004FF48061C5E9000605F110004FF400628D
:1010E0004FF400534FF4807CC5E9026680E80E108F
:1010F0003EE000BF43F630000096C4F202004169B2
:1011000041F400714161416901F40071009100995D
:101110000096016841F001010160006801A900F03A
:10112000010000900098782001900320CDE902068C
:101130000020C4F2020000F07FFB46F21040C4F22F
:10114000020040F69C053030C2F200054FF00071FD
:101150004FF480624FF4006385E8430005F114000A
:101160004FF4005C4FF4807EC5E9036280E80850CC
:1011700028462E626E6200F015FA002818BFFFF7AD
:1011800007FEA563AC6306B070BD0000B0B582B0C9
:101190000023019390F83C30012B03D1022002B0D0
:1011A000B0BD00BF8E460123016880F83C308B68DB
:1011B0009446DB0729D18B684DF6836443F0010325
:1011C0008B6040F2C803C2F200031B68C4F21B34F8
:1011D000A3FB0434A30C03EB43030193019BA3B1D2
:1011E000019B013B0193019B7BB1019B013B01935F
:1011F000019B53B1019B013B0193019B2BB1019BCF
:10120000013B0193019B002BEAD18B68DB0503D5E1
:101210008B6823F480738B608C68036CE4070BD1BC
:1012200043F01001016400F14401002001220B6829
:101230001A430A6002B0B0BD40F20174A34303F543
:10124000807303644B685B0504D5036C012464F36D
:101250000D330364046C0023E4044FF0000444BF26
:10126000446C24F00604446480F83C30836B40F204
:101270004D5440F2D152C0F60004C0F60002C3E95A
:101280000F4240F2BD52C0F60002DA646FF0220253
:101290000A604A6842F2043442F080624A608A6816
:1012A000054642F480728A604C31184672466346A5
:1012B000C4F2010400F028FA22682968D20605D099
:1012C000A4F54172914225D002B0B0BD42F20002B5
:1012D000C4F20102914215D042F20022C4F201028E
:1012E00091420CD042F20012C4F201029142EBD1C1
:1012F0002268D20606D0A4F582729142E4D1226817
:10130000D206E1D451F8082F12F0405FDCD14FF043
:1013100080428CE74FF60452CFF6FF72A25812F0CB
:10132000405FD1D108314FF0804280E770B5866DC3
:10133000044600F05DFB94F83510022928D10546DB
:101340002068216C026822F016020260426922F0D5
:101350008002426109B9A16C19B1016821F008014C
:101360000160016821F00101016000BF2068006890
:10137000C00715D000F03CFB401B0628F6D3202008
:101380006065032084F83500002184F8341070BDB6
:10139000802060650120002184F8341070BD00BFFA
:1013A000E06D3F2101FA00F0B060012084F83500C3
:1013B0000020002184F8341070BD000090F8351032
:1013C000022909D1052180F835100068016821F053
:1013D00001010160002070478021416501207047B4
:1013E000F0B581B00021009140F2C801C2F20001C5
:1013F0000B68D0E9166148F2B51537680822C1F6C6
:101400004E358A403A42A3FB05350CD003681C6870
:10141000640708D51C6824F004041C60B260426DA7
:1014200042F00102426501228A403A4208D0036834
:101430005B691B0604D5B260426D42F00202426550
:1014400004228A403A4208D003681B689B0704D5EF
:10145000B260426D42F00402426510228A403A4274
:1014600019D001680B681B0715D5B2600B680A68B4
:101470005B0309D4D20509D40A6822F008020A6085
:10148000016C29B907E000BF110341D4016C11B10F
:10149000044688472046C26D202101FA02F33B42F0
:1014A00043D001680F68FF063FD5B36090F83570F0
:1014B0000B68052F1CD123F016030B604B6923F03A
:1014C00080034B61036C0BB9836C1BB10B6823F079
:1014D00008030B603F219140B160012180F8351075
:1014E000016D0022002980F8342054D158E000BF5B
:1014F0000A685B0310D4D20512D40A6822F01002E5
:101500000A60012180F83510002180F8341007E0CE
:10151000816C0029BCD1BEE7110301D4416C00E00D
:10152000C16B11B1044688472046416DC1B3416D7E
:10153000C9072ED0052180F835100168AA0A0B686A
:1015400023F001030B60009B0133934200931AD8F0
:101550000B68DB0717D0009B01339342009312D82E
:101560000B68DB070FD0009B0133934200930AD82E
:101570000B68DB0707D0009B01339342009302D82E
:101580000B68DB07DFD1012180F83510002180F8DE
:101590003410C16C21B101B0BDE8F040084700BF74
:1015A00001B0F0BD2DE9F041044600F021FAECB1A4
:1015B0000546022084F835000020216884F83400B4
:1015C000086820F00100086021680868C00711D091
:1015D00000F00EFA401B0528F6D90325202303202E
:1015E000636584F83550BDE8F08100BF0120BDE897
:1015F000F08100BF086848F23F02CFF21002D4E940
:10160000013500EA020C04F10C0898E8C10143EA34
:101610000C032B431843D4E9072E304338431043BF
:10162000626A40EA0E00042A40EA08031CD1206BDB
:10163000D4E90A2E40EA0E00184308604869BEF15A
:10164000000F20F0030040EA020040F0040C11D02B
:10165000B8F5005F36D0B8F1000F45D1022A46D068
:10166000012A3BD032B942E00B60486920F0070004
:1016700040EA020C01F0F8004AF6AB221038CAF634
:10168000AA22A0FB02231A0947F2EC13C1F814C0E6
:10169000C0F600039A5C40F2FF335F284FF03F0032
:1016A00021EA030100FA02F088BF0431C4E91612EE
:1016B0008860002301250020636584F83550BDE86B
:1016C000F08100BF032AD5D8012540230120DFE89F
:1016D00002F0030E030500BF82E700BFAEF1C07049
:1016E000B0FA80F0400904E0032A04D3C2D1CEF35B
:1016F00000600028BED0012540230120636584F8E6
:101700003550BDE8F081000090F834C0BCF1010F05
:1017100004BF0220704770B54FF0010C80F834C050
:10172000D0F858E090F835C0BCF1010F38D14FF037
:10173000020C80F835C04FF0000CC0F854C0D0F84F
:1017400000C08468056CC06DDCF80060402C26F495
:101750008026CCF80060CCF804300B4604BF13465A
:101760000A463F2101FA00F0CCF80830CCF80C20F2
:10177000CEF80800DCF8000040F01600CCF80000BD
:101780002DB1DCF8000040F00800CCF80000DCF8D7
:10179000000040F00100CCF80000002070BD00BF48
:1017A000002180F83410022070BD0000B0F5805F89
:1017B00018BF704780B582B040F23010C2F200000E
:1017C000016848F219630131016041F20401CEF26F
:1017D000000109684268C1F661038A1AD208A2FBB7
:1017E00003235A088260416040F24C10C2F20000AC
:1017F00000210068019101A904F054FB019850B147
:101800004EF60450CEF200004FF080510160BFF35D
:101810004F8FBFF36F8F02B0BDE88040704700006C
:1018200043F61441C4F201010A68024214BF086081
:101830007047FFF7BBBF00002DE9F04F83B000F108
:10184000200200F13E4741F60045009207F1FF7784
:10185000C4F2020508224FEAB726A84208BF0722B1
:1018600000254FF000084FF00009072E38BF4FEA5F
:10187000B72201920AE000BF09F1010908F102084C
:10188000B9F1100F05F1040500F0A2800F680122E4
:1018900002FA09FE17EA0E0AEED0D1F804C00322BC
:1018A0000CF003077E1E02FA08F4012E6FEA040B07
:1018B00012D88468CE6804EA0B0406FA08F63443AA
:1018C0008460446824EA0E06CCF3001404FA09F498
:1018D0002643466004E000BF032F01D103271EE02A
:1018E000C6688C6806EA0B0604FA08F42643022F41
:1018F000C66014D16FF00302009E02EA590756F841
:1019000007C005F01C040F220B69A2402CEA02025A
:10191000A3401A43F251D1F804C00CF00307026847
:1019200007FA08F302EA0B021A431CF4403F026074
:10193000A2D0002243F644030292C4F202031A68C2
:1019400043F6004442F480421A601A68C4F201046B
:1019500002F480420292029A29F003024FF6084CE8
:101960002244CFF6FF7C52F80C3005F00C070F260E
:10197000BE40B343019E06FA07F73B4342F80C30E2
:10198000A2684B6842EA0A0743F60C4CDE0258BFD5
:1019900022EA0A07A760C4F2010CDCF800209E02CC
:1019A00042EA0A0758BF22EA0A07CCF800706268C8
:1019B0009E0342EA0A0758BF22EA0A0767602268C4
:1019C000DB0342EA0A0758BF22EA0A07276053E707
:1019D00003B0BDE8F08F00000069084018BF012087
:1019E00070470000002A08BF0904816170470000A9
:1019F00044F65460C2F200000068704740F20000F4
:101A000044F65461C2F20000C2F2000100780A6894
:101A1000104408607047000080B543F60040C4F2EF
:101A20000200016841F400710160016841F48061C5
:101A30000160016841F480710160032000F0C0F88A
:101A40000F2000F005F800F05BF8002080BD0000DA
:101A500070B586B0002543F640010195C4F202013D
:101A60000A68044642F001020A60096801A801F010
:101A7000010101910199694600F064F9049E002E6C
:101A800018BF012600F07EF94DF68361B040C4F224
:101A90001B31A0FB01014FF0FF3000EB914140F6FC
:101AA0008430C2F200004FF0804240F2E733C0E9D8
:101AB0000021C0E902530561856100F0FBFB08B11C
:101AC00006B070BD40F68430C2F2000000F044FC65
:101AD0000028F5D11C2000F035F80F2C0CD81C2064
:101AE0002146002200F040F840F204010020C2F23A
:101AF00000010C6006B070BD012006B070BD000092
:101B000082B0002043F640010190C4F202014A680D
:101B100042F480424A604A6802F480420192019A8B
:101B200000900868002240F08050086008680F218B
:101B300000F08050009000986FF0010002B000F0BB
:101B400013B80000002848BF704700F01F010122B1
:101B500002FA01F11C2202EAD0004EF20012CEF28B
:101B6000000281507047000010B54EF60C5CCEF2BA
:101B7000000CDCF80030C3F3022E8EF00704042CB6
:101B800028BF0424BEF103034FF0FF3E0EFA04F415
:101B900038BF0023A14399400EFA03F39A4311433F
:101BA00000F00F0200F160430901043A03F56443B9
:101BB0006244002848BF02F10C03197010BD0000F8
:101BC0004EF60C51CEF200010A684FF6FF031A40A0
:101BD00060F30A2242F0806040F0FD7008607047B8
:101BE000002804BF012070472DE9F04143F60808A2
:101BF000C4F202080446D8F8F8030D4600F00700C6
:101C0000814207D988F8F853D8F8F80300F00700A4
:101C1000A84277D12068810717D5410705D5D8F8A4
:101C2000001041F4E051C8F80010010705D5D8F8BC
:101C3000001041F46041C8F80010D8F80010A26804
:101C400021F0F0011143C8F80010C00740D1D8F8C6
:101C5000F80300F00700854207D288F8F853D8F857
:101C6000F80300F00700A8424CD12068410707D5CF
:101C7000D8F80010E26821F4E0511143C8F80010D0
:101C8000000708D5D8F80000216920F4604040EA38
:101C9000C100C8F8000000F09DF8D8F8001047F225
:101CA0001E02C1F30311C0F60002515C40F2C802EB
:101CB00020FA01F140F20400C2F200000068C2F212
:101CC00000021160FFF7C4FE0020BDE8F08100BFF4
:101CD0006068811E022907D258F8081C89015CBF80
:101CE0000120BDE8F08111E0012807D158F8081C57
:101CF00089035CBF0120BDE8F08107E058F8081CAB
:101D0000890703D40120BDE8F08100BFD8F8001096
:101D100021F003010843C8F80000FFF769FE0646FA
:101D200041F28837D8F80000616800F00C00B0EB91
:101D3000810F8CD0FFF75CFE801BB842F2D90320E4
:101D4000BDE8F0810F22026043F60802C4F20202ED
:101D5000136803F003034360136803F0F003836028
:101D6000136803F4E053C360D2F800C04FF4E053AB
:101D700003EADC030361D2F8F80300F0070008600F
:101D80007047000040F2C80043F60801C2F20000AC
:101D9000C4F202010068096847F22E02C1F38221F1
:101DA000C0F60002515CC8407047000040F2C80015
:101DB00043F60801C2F20000C4F20201006809689B
:101DC00047F22E02C1F34231C0F60002515CC84016
:101DD0007047000010B543F60404C4F202046168C1
:101DE000C1F3810142F20040C0F2F400DFE801F0EB
:101DF00002040A0210BD00BF41F20020C0F27A00C6
:101E000010BD00BF216801F03F022168236849022C
:101E1000C3F3881106D4A1FB00010023FEF73AFAB0
:101E200007E000BF41F20020C0F27A004843B0FB57
:101E3000F2F021680222C1F3014102EB4101B0FB43
:101E4000F1F010BD002804BF012070472DE9F041DA
:101E500082B00446007843F60006C007C4F20206CA
:101E60000CD0B06800F00C00042840F0818030688D
:101E7000800303D56068002800F06881207880071F
:101E80001BD5B06810F00C0F09D0B06800F00C0042
:101E9000082840F087807068400200F18380306835
:101EA000800703D5E068012840F05081306821693F
:101EB00020F0F80040EAC10030602078000713D419
:101EC000207840072AD4A569002D00F03A81B06837
:101ED00000F00C00082840F0A580012D40F00E8194
:101EE000012002B0BDE8F0816069002800F0828026
:101EF0000020C4F247200121C0F8801EFFF778FDC2
:101F0000054600BF706F8007DAD4FFF771FD401BF4
:101F10000228F7D9032002B0BDE8F081306C5FEAF7
:101F2000C0080AD400200190306C40F0805030642A
:101F3000306C00F080500190019847F20007C4F225
:101F400000073868C00547D4386840F480703860AE
:101F5000FFF74EFD054600BF3868C0053CD4FFF7CB
:101F600047FD401B0228F7D9032002B0BDE8F081ED
:101F7000B06800F00C00082803D1706840023FF5FB
:101F800076AF61683068B1F5803F07D0B1F5A02F1A
:101F900040F09A8040F480203060306840F4803017
:101FA00030609AE0E068002840F20000C4F2472068
:101FB0005CD001210160FFF71BFD054630688007FA
:101FC0003FF574AFFFF714FD401B0228F6D903203C
:101FD00002B0BDE8F08100BFA168306F012905D0D3
:101FE000052955D140F004003067306F40F0010002
:101FF000306756E00020C4F247200021C0F8801E60
:10200000FFF7F6FC054600BF706F80077FF558AFFD
:10201000FFF7EEFC401B0228F6D9032002B0BDE812
:10202000F08100BF0027C4F2472700203866FFF781
:10203000DFFC022D05460DD13068800140F18A8019
:10204000FFF7D6FC401B02284FF00300F4D902B082
:10205000BDE8F0813068800173D5FFF7C9FC401BF3
:1020600002284FF00300F5D9F1E700BF002101601D
:10207000FFF7BEFC054600BF306880077FF51DAF47
:10208000FFF7B6FC401B02284FF00300F4D9DEE74F
:1020900020F001003067306F002920F00400306725
:1020A0007AD0FFF7A5FC054641F28837306F8007EC
:1020B00000F18480FFF79CFC401BB842F6D9032056
:1020C00002B0BDE8F08100BF20F48030306030689D
:1020D000002920F4802030607AD0FFF789FC054683
:1020E000306880033FF5CAAEFFF782FC401B6428CE
:1020F000F6D9032002B0BDE8F08100BF7068E16945
:1021000000F480028A4221D1216A00F03F028A4213
:102110001CD147F6C071626A0140B1EB821F15D134
:10212000A16A4FF6FF73C903994300F44032A1F549
:1021300080318A420AD1E16A00F07060B0EB016F31
:1021400004D1002002B0BDE8F08100BF012002B040
:10215000BDE8F08104F11C052FCD084340EA821050
:10216000D9034FF6FF729143A1F5803140EA056033
:102170000843706001203866FFF73AFC044600BF50
:1021800030688001DDD4FFF733FC001B02284FF0DC
:102190000300F5D95BE700BFFFF72AFC054641F2D3
:1021A000883700BF306F800708D5FFF721FC401B40
:1021B000B8424FF00300F5D949E700BFB8F1000F6E
:1021C0003FF581AE306C20F0805030647BE600BF7C
:1021D000FFF70EFC054600BF306880037FF54EAE6A
:1021E000FFF706FC401B64284FF00300F4D92EE7EC
:1021F000704700007047000090F83C20012A4FF023
:10220000020254D010B580F83D200268D2F804E0F4
:10221000D2F808C00C682EF07003234341F2FF741B
:10222000C4F20004A24253600EDC40F2FF73C4F219
:1022300000039A4216DCB2F1804F2BD040F20043EB
:10224000C4F2000324E000BF40F2FF33C4F20103F4
:102250009A4213DC41F60003C4F200039A4219D0FB
:10226000002313E040F60003C4F200039A4211D0A9
:1022700040F60043C4F200030AE000BF44F200034A
:10228000C4F201039A4205D040F20043C4F20103B4
:102290009A4204D149682CF08003194391600121CE
:1022A000002280F83D1080F83C20BDE81040104628
:1022B00070470000002804BF0120704710B5044695
:1022C00090F83D0028B9002084F83C00204600F03A
:1022D0001FF8022084F83D002068211D02F0E0F87C
:1022E000012084F8460084F83E0084F83F0084F81A
:1022F000400084F8410084F8420084F8430084F8E8
:10230000440084F8450084F83D00002010BD000022
:1023100000680021C4F20101884218BF704780B5EF
:1023200082B00020019043F64400C4F2020001682C
:10233000002241F0010101600068052100F0010068
:10234000019001981920FFF70FFC192002B0BDE899
:102350008040FFF7F7BB000090F83D1001291CBF3B
:1023600001207047022180F83D10006841F2FF72A1
:10237000C168C4F20002904241F00101C1600DDC6D
:1023800040F2FF71C4F20001884215DCB0F1804FC9
:102390002AD040F20041C4F2000123E040F2FF31B4
:1023A000C4F20101884213DC41F60001C4F20001CD
:1023B000884219D0002113E040F60001C4F2000168
:1023C000884211D040F60041C4F200010AE000BF8B
:1023D00044F20001C4F20101884205D040F20041FC
:1023E000C4F20101884206D1816801F00701062983
:1023F00004BF00207047016841F001010160002026
:102400007047000090F83C20012A4FF002026CD087
:1024100080B580F83D20D0F800C04FF67772DCF828
:10242000083023EA0202CCF808200B684F2B29DC85
:102430001F2B45DD202B46D0302B44D0402B40F0C5
:10244000AF80D1F804E0C968DCF82030DCF8202047
:1024500022F00102CCF82020DCF8182022F0F00253
:1024600042EA011123F00A0242EA0E02CCF81810E7
:10247000CCF82020DCF8081041F0470121F03001B1
:1024800028E000BF6F2B33DDB3F5005F74D0B3F5E8
:10249000805F21D0702B40F08380D1E901E3C968CF
:1024A000DCF8082043EA0E0322F47F4243EA0121CC
:1024B0001143CCF80810DCF8081041F0770109E06E
:1024C0000BB1102B6CD1DCF8081021F0700119430E
:1024D00041F00701CCF808100022012180F83D10DE
:1024E000002180F83C10BDE880401046704700BFD6
:1024F000502B21D0602B53D1D1F804E0C968DCF80F
:102500002030DCF8202022F01002CCF82020DCF86B
:10251000182022F4704242EA013123F0A00242EA7C
:102520000E12CCF81810CCF82020DCF8081041F07E
:10253000670121F01001CDE7D1F804E0C968DCF8AB
:102540002030DCF8202022F00102CCF82020DCF83A
:10255000182022F0F00242EA011123F00A0242EAB6
:102560000E02CCF81810CCF82020DCF8081041F04E
:10257000570121F02001ADE7D1E901E3C968DCF89A
:10258000082043EA0E0322F47F4243EA012111436B
:10259000CCF80810DCF8081041F480419AE700BF3D
:1025A00001229AE77047000070B504460068C568CC
:1025B0000669B10716D515F0020113D06FF00201BC
:1025C0000161012121778069800703D02046FFF750
:1025D000E9FF05E0204600F08FF8204600F0E6F91C
:1025E00000202077700719D515F0040016D0206858
:1025F0006FF00401016102212177806910F4407FAE
:1026000004D02046FFF7CEFF06E000BF204600F0D2
:1026100073F8204600F0CAF900202077300717D55C
:1026200015F0080014D020686FF008010161042142
:102630002177C069800703D02046FFF7B3FF05E08C
:10264000204600F059F8204600F0B0F9002020772D
:10265000F00619D515F0100016D020686FF01001A3
:10266000016108212177C06910F4407F04D0204621
:10267000FFF798FF06E000BF204600F03DF8204637
:1026800000F094F900202077F00718BF15F0010042
:1026900002D1300609D412E020686FF00101016117
:1026A000204600F00DFA300609D515F0800006D05E
:1026B00020686FF0800101612046FFF799FD7006E8
:1026C00009D515F0400006D020686FF04001016187
:1026D000204600F003FAB00658BF70BD15F0200088
:1026E00008D021686FF0200220460A61BDE87040E2
:1026F000FFF780BD70BD00007047000090F83C30CF
:10270000012B04BF022070474FEAB202032A00F2F5
:10271000FF802DE9F043DFE802F003B13F7F00BF07
:10272000036840F200461C6A1A6A24F0020422F090
:1027300001021A621A46D3F804C052F818EF8F68E3
:1027400043F48065C4F20106B54244EA070405D1AA
:10275000CF6824F00C0427F004073C430F68B5420F
:1027600006D1D1E905582CF440762E4346EA080CF0
:102770002EF073063743C3F804C09F614F680969A0
:102780005F631C629F6947F008079F619F6927F09C
:1027900004079F61B1E000BF036840F200481C6A73
:1027A0001A6A24F4007422F480721A621A46D3F86A
:1027B00004C052F81CEF8F6843F48065C4F201082E
:1027C000454544EA072408D1CF6840F2FF463F025E
:1027D00024F4406427EA06063443D1F800904545C6
:1027E00006D1D1E905562CF440572E4347EA061C82
:1027F0002EF0730747EA0907C3F804C0DF614F688A
:102800000969DF631C62DF6947F00807DF61DF6980
:1028100027F00407DF6170E0036840F20045D3F859
:1028200020C01A6A43F4806722F480521A621A4662
:102830005C6852F81C8FD1F800E08E68C4F2010584
:10284000AF4204D14D6924F4804444EA85142CF449
:10285000005747EA063728F4E64646EA0E265C604B
:10286000DE614E6809691E641F62DF6947F4006714
:10287000DF61DF6927F48067DF613DE0036840F2D4
:1028800000481C6A1A6A24F0200422F010021A621E
:102890001A46D3F804C052F818EF8F6843F48065E5
:1028A000C4F20108454544EA071407D1CF686FF028
:1028B000400624F0C00406EA07163443D1F800901D
:1028C000454506D1D1E905562CF440672E4347EA29
:1028D000860C2EF4E64747EA0927C3F804C09F6137
:1028E0004F6809699F631C629F6947F400679F6195
:1028F0009F6927F480679F6109021368194311607B
:102900000021BDE8F043002280F83C2008467047D3
:102910000121002280F83C2008467047002804BFAF
:102920000120704710B5044690F83D0028B90020FA
:1029300084F83C00204600F01FF8022084F83D0097
:102940002068211D01F0ACFD012084F8460084F8C8
:102950003E0084F83F0084F8400084F8410084F889
:10296000420084F8430084F8440084F8450084F869
:102970003D00002010BD0000006840F20041C4F29C
:102980000001884218BF704781B00020009043F6D4
:102990004000C4F20200016841F0020101600068D9
:1029A00000F002000090009801B0704770470000EE
:1029B000C1B1042908D0082914BF41224022825CF9
:1029C000012A05D016E000BF3F22825C012A11D106
:1029D0000222082910D0042914BF80F8412080F871
:1029E0003F200BE090F83E20012A03D1022280F81C
:1029F0003E2003E00120704780F84020006801F08D
:102A00001F010122036A02FA01F123EA01020262B4
:102A1000026A114341F2FF72C4F200029042016265
:102A20000CDC40F2FF71C4F20001884214DCB0F10A
:102A3000804F37D040F2004116E000BF40F2FF3136
:102A4000C4F20101884215DC41F60001C4F2000124
:102A5000884227D0002115E040F60001C4F20001B1
:102A600088421FD040F60041C4F20001884219D0CC
:102A70001FE000BF44F20001C4F20101884211D0FE
:102A800040F20041C4F20101884212D1416C40F28F
:102A9000004340F48062C4F2010341F400419A42D1
:102AA000416406D1816801F00701062904BF0020B6
:102AB0007047016841F0010101600020704700008B
:102AC00000680021C4F20101884205D0B0F1804FB6
:102AD00018BF7047FEF792BFFDF730BE7047000089
:102AE00070B582B090F84250202D0BD113460A46A3
:102AF0000146002A4FF0010018BF002B06D102B09A
:102B000070BD00BF022002B070BD00BF0863002688
:102B100022204E638A628B854E6481F842000C68E5
:102B20000D46C86B44F6911C44F6F121C0F6000C2A
:102B3000C0F60001C0E90FC144F61501C0F600015E
:102B4000C0E91316211DFEF7DFFDE8B3102068640D
:102B50002020294685F8420001200A6B012A40F016
:102B6000B380002200920A681368009352680092B2
:102B7000009A00BF0A6852E8032F0B6842F0100267
:102B800043E80326002EBAD00A6852E8032F0B68E8
:102B900042F0100243E80326002EB0D00A6852E843
:102BA000032F0B6842F0100243E80326002EA6D044
:102BB0000A6852E8032F0B6842F0100243E803262C
:102BC000002ED7D19BE700BF0196286829460268EE
:102BD0000192406801900198286928B3086850E87C
:102BE000030F0A6840F4807042E80303E3B1086809
:102BF00050E8030F0A6840F4807042E803039BB179
:102C0000086850E8030F0A6840F4807042E8030344
:102C100053B1086850E8030F0A6840F4807042E836
:102C20000303002BDAD100BF086850E8050F0A68DB
:102C300040F0010042E80503BBB3086850E8050F07
:102C40000A6840F0010042E8050373B3086850E8E1
:102C5000050F0A6840F0010042E805032BB308683D
:102C600050E8050F0A6840F0010042E80503002B18
:102C7000DAD11AE0086850E8050F0A6840F0400011
:102C800042E80503DBB1086850E8050F0A6840F028
:102C9000400042E8050393B1086850E8050F0A6850
:102CA00040F0400042E805034BB1086850E8050FCA
:102CB0000A6840F0400042E80503002BDAD100200A
:102CC0000A6B012A3FF44DAF012002B070BD000035
:102CD000B0B50C460546FDF79FFE28462146BDE8E7
:102CE000B04000F02DBE000010B50446FDF780FE98
:102CF0002046BDE8104000F0BFBE0000B0B582B075
:102D000001680A68CC684B6902F02F05202D04F099
:102D1000200505D125B102B0BDE8B04001F050BF9B
:102D20005FEA027C1EBF03F0010E04F4907313EB04
:102D30000E0341D1036BD50618D5012B16D114F023
:102D4000100313D0002201920A6801924A6801928E
:102D5000019A496949064BD4818DC28DC38D002BE0
:102D600018BF914240F0068202B0B0BD13062DD5C7
:102D700014F080032AD090F84120212AF4D18268EF
:102D8000B2F5805F03D10269002A00F07982026AFD
:102D9000531C036212784A60C28C013A1304C28445
:102DA000E2D1C86820F08000C860C86840F04000E8
:102DB000C86002B0B0BD00BFD30718BF14F4807361
:102DC00040F0E280530700F1E580EAE05206CBD5FF
:102DD00014F04002C8D0CA6822F04002CA60202124
:102DE00080F8411002B0BDE8B04000F04DBC00BF1B
:102DF000C26B11684B68858D99B2002900F0B480D0
:102E0000A94280F0B180C385D169B1F5807F00F01F
:102E1000A080016851E8031F026821F4807142E834
:102E20000313DBB1016851E8031F026821F48071CC
:102E300042E8031393B1016851E8031F026821F4CB
:102E4000807142E803134BB1016851E8031F026827
:102E500021F4807142E80313002BDAD1016851E8B4
:102E6000051F026821F0010142E80513BBB30168A8
:102E700051E8051F026821F0010142E8051373B310
:102E8000016851E8051F026821F0010142E80513BD
:102E90002BB3016851E8051F026821F0010142E8E7
:102EA0000513002BDAD11AE0016851E8051F02680A
:102EB00021F0400142E80513DBB1016851E8051F2C
:102EC000026821F0400142E8051393B1016851E81E
:102ED000051F026821F0400142E805134BB101686B
:102EE00051E8051F026821F0400142E80513002B5C
:102EF000DAD1202180F8421000210163016851E8F5
:102F0000031F026821F0100142E80313DBB10168DE
:102F100051E8031F026821F0100142E8031393B146
:102F2000016851E8031F026821F0100142E8031311
:102F30004BB1016851E8031F026821F0100142E81B
:102F40000313002BDAD1C16B04460846FEF7EEF9F5
:102F5000204602214163818DC28D891A89B202B057
:102F6000BDE8B040FFF7B4BE8D427FF4FDAED2693C
:102F7000B2F5807F7FF4F8AE0222426302B0BDE872
:102F8000B040FFF7A5BE00BF436C43F001034364AC
:102F9000530706D5BEF1000F03D0436C43F0020384
:102FA0004364930706D5BEF1000F03D0436C43F092
:102FB00004034364BCF1000F06D55EEA050303D0A9
:102FC000436C43F008034364436C002B3FF4CCAEE6
:102FD000920605D525B1044601F0F2FD2168204690
:102FE0004969426C01F0400102F00802891800F0C2
:102FF000B98000BF016851E8031F026821F4907195
:1030000042E80313BBB3016851E8031F026821F4CF
:10301000907142E8031373B3016851E8031F02681B
:1030200021F4907142E803132BB3016851E8031FA8
:10303000026821F4907142E80313002BDAD11AE000
:10304000016851E8051F026821F0010142E80513FB
:10305000DBB1016851E8051F026821F0010142E877
:10306000051393B1016851E8051F026821F00101C1
:1030700042E805134BB1016851E8051F026821F0D1
:10308000010142E80513002BDAD1016B012924D19B
:10309000016851E8031F026821F0100142E80313A0
:1030A000DBB1016851E8031F026821F0100142E81A
:1030B000031393B1016851E8031F026821F0100166
:1030C00042E803134BB1016851E8031F026821F085
:1030D000100142E80313002BDAD1202180F84210BE
:1030E0000021016301684969490640F1C380016814
:1030F00051E8051F026821F0400142E80513DBB1E9
:10310000016851E8051F026821F0400142E80513FB
:1031100093B1016851E8051F026821F0400142E8BF
:1031200005134BB1016851E8051F026821F0400109
:1031300042E80513002BDAD1C16B002900F09A8018
:1031400044F60902C0F60002044608460A65FEF786
:1031500035F900283FF408AEE06B016D02B0BDE820
:10316000B04008470446FFF7BFFD0020606402B08E
:10317000B0BD00BF891A00BF026852E8032F036880
:1031800022F4907243E80325BDB3026852E8032F8E
:10319000036822F4907243E8032575B3026852E88D
:1031A000032F036822F4907243E803252DB30268CD
:1031B00052E8032F036822F4907243E80325002DA0
:1031C000DAD11AE0026852E8052F036822F0010202
:1031D00043E80525DDB1026852E8052F036822F0B7
:1031E000010243E8052595B1026852E8052F0368FE
:1031F00022F0010243E805254DB1026852E8052F8F
:10320000036822F0010243E80525002DDAD12022CF
:1032100080F8422000220263026852E8032F03680C
:1032200022F0100243E80325DDB1026852E8032FC3
:10323000036822F0100243E8032595B1026852E8C2
:10324000032F036822F0100243E803254DB1026802
:1032500052E8032F036822F0100243E80325002DF3
:10326000DAD1022289B2426302B0BDE8B040FFF772
:103270002FBD00BF02B0BDE8B040FFF735BD00BFB5
:10328000026A32F8023B6FF35F234B60026283E510
:10329000002804BF0120704710B5044690F8410093
:1032A00028B9002084F84000204600F021F82420AE
:1032B00084F841002068C16821F40051C1602046B3
:1032C00001F0FEFC2068016921F49041016141692F
:1032D00021F02A014161C16841F40051C160002020
:1032E0002021606484F8411084F84210606310BDAE
:1032F0002DE9F04387B00446006841F20041C4F272
:10330000010100268842CDE90566CDE903660296F3
:1033100000F0D88044F60001C4F2000188426DD06C
:1033200044F20041C4F20001884240F03B8143F680
:1033300030000196C4F20200016946F2280841F407
:10334000003101610169C4F2020801F40031019108
:1033500001990196016841F008010160006802A925
:1033600000F0080001900198602002900220CDE951
:103370000306032005900720069040F20040C4F2A7
:10338000020000F50060FEF757FA40F6FC0508F170
:103390006000C2F200054FF000674FF48069C5E994
:1033A00000072846C5E90266C5E90496C5E9066630
:1033B000C5E90866FEF7F6F8002818BFFDF7E8FC37
:1033C000E563AC6340F65C1508F17800C2F20005D5
:1033D0004021C5E9000705F1080080E842022846BF
:1033E000C5E90566C5E907666E62FEF7DBF80028E9
:1033F0004FF0260640F0CA80CAE000BF43F6300016
:103400000196C4F20200016946F2280841F48021C5
:1034100001610169C4F2020801F48021019101995E
:103420000196016841F002010160006802A900F004
:103430000200019001984FF4406002900220CDE913
:103440000306032005900720069040F20040C4F2D6
:103450000200FEF7F1F940F6BC15C2F200054FF08C
:1034600000674FF480692846C5E90087C5E9026610
:10347000C5E90496C5E90666C5E90866FEF792F84F
:10348000002818BFFDF784FCE563AC6340F61C25FB
:1034900008F13000C2F200054021C5E9000705F13E
:1034A000080080E842022846C5E90566C5E90766C6
:1034B0006E62FEF777F800284FF0270618BFFDF779
:1034C00067FC65E043F630000196C4F202004169F2
:1034D00046F2280841F0200141614169C4F2020826
:1034E00001F02001019101990196016841F0040168
:1034F0000160006802A900F0040001900198C0205A
:1035000002900220CDE903060320059008200690D2
:1035100040F20040C4F2020000F58060FEF78CF932
:1035200040F67C2508F58060C2F200054FF0206768
:103530004FF48069C5E900072846C5E90266C5E978
:103540000496C5E90666C5E90866FEF72BF800286B
:1035500018BFFDF71DFCE563AC6340F6DC2508F5FC
:103560008F60C2F200054021C5E9000705F108009F
:10357000002280E806022846C5E90522C5E907229F
:103580006A62FEF70FF84FF0470608B1FDF700FC3E
:10359000304605210022A563AC63FEF7E5FA30460C
:1035A000FEF7D0FA07B0BDE8F083000070470000D6
:1035B00070470000B0B590F84140202C1CBF02209D
:1035C000B0BD1346024600294FF0010018BF002B82
:1035D00000D1B0BD4FF0000C212011629384D38440
:1035E000C2F844C082F8410014681546906B44F656
:1035F000093E44F6B932C0F6000EC0F60002C0E93A
:103600000FE244F61502C0F60002C0E9132C221D99
:10361000FEF77AF830B110206864202085F8410068
:103620000120B0BD286829466FF04002026000BF4B
:10363000086850E8050F0A6840F0800042E805037A
:1036400003B3086850E8050F0A6840F0800042E8BC
:103650000503BBB1086850E8050F0A6840F0800018
:1036600042E8050373B1086850E8050F0A6840F0A6
:10367000800042E80503002B4FF0000008BFB0BDFA
:10368000D6E700BF0020B0BD00F04CB97047000085
:1036900040F21853C2F200030021186083F88C1224
:1036A0004FF0FF3C191D4022C3F88DC2A3F891C210
:1036B000FFF716BAB0B540F21854C2F2000494F8FD
:1036C0008C0200284AD0B4F88601B4F88411401A5C
:1036D00000F5807000EB106121F0FF01401A062810
:1036E00038BFB0BD04F1840014E000BFB4F8841109
:1036F0004A1CD1B2A4F88411B4F88611B4F884211C
:10370000891A01F5807101EB116222F0FF02891A1A
:10371000052921D9B4F88411425C552AE6D14A1C06
:10372000D2B2825CAA2AE1D14A1D54FA82F292F8FE
:103730008420ED2ADAD18A1D0B1DCD1C0231DBB2AB
:10374000EDB2C9B2C35C415C455D84F8901284F867
:10375000915284F89232CCE7B0BD00BFB4F88A022F
:10376000B4F88812401A0006ADD02068B4F88A1266
:10377000B4F88822891A01F58071CA1701EB126228
:1037800022F0FF02891A5DD08AB2402A28BF402267
:10379000012A134698BF0123042903F0030C55D2D4
:1037A0000021BCF1000F45D0B4F888E2B4F88A32A9
:1037B0009E450DD0B4F88832234493F888E163180D
:1037C00083F844E0B4F888320133DBB2A4F88832DD
:1037D000BCF1010F2ED0B4F888E2B4F88A329E45CD
:1037E00010D0B4F8883201F1010E234493F88851C7
:1037F00004EB0E0383F84450B4F888320133DBB293
:10380000A4F88832BCF1020F14D0B4F88832B4F8AE
:103810008A52AB420ED0B4F888320231234493F876
:103820008831214481F84430B4F888120131C9B29A
:10383000A4F88812012184F88C1204F14401FFF7E6
:10384000B9FE40E7002084F88C023CE703F07C0ED0
:10385000002102E004318E45A3D0B4F88852B4F8B8
:103860008A329D4212D1B4F88832B4F88A52AB42FF
:1038700020D1B4F88832B4F88A52AB422ED1B4F8D1
:103880008832B4F88A52AB42E4D03BE0B4F88832D4
:103890006518234493F8883185F84430B4F88832A9
:1038A0000133DBB2A4F88832B4F88832B4F88A5213
:1038B000AB42DED0B4F888326518234493F88831DF
:1038C00085F84530B4F888320133DBB2A4F8883289
:1038D000B4F88832B4F88A52AB42D0D0B4F8883207
:1038E0006518234493F8883185F84630B4F8883257
:1038F0000133DBB2A4F88832B4F88832B4F88A52C3
:10390000AB42A7D0B4F888326518234493F88831C5
:1039100085F84730B4F888320133DBB2A4F8883236
:1039200098E7000040F21851C2F200010A68824292
:1039300018BF7047043110464022FFF7D1B800008D
:1039400070B540F21853C2F20003D3F800E0864588
:1039500018BF70BD00293ED0042901F0030C41D2EC
:103960000021BCF1000F36D058180179B3F8862138
:10397000B3F884410132D2B2A24206D0B3F88641F4
:103980001C4484F88410A3F88621BCF1010F22D0D6
:103990004179B3F88621B3F884410132D2B2A24210
:1039A00006D0B3F886411C4484F88410A3F886211D
:1039B000BCF1020F0FD08079B3F88611B3F88421DF
:1039C0000131C9B2914206D0B3F886211A4482F877
:1039D0008400A3F88611191D70464022BDE870408E
:1039E000FFF77EB821F00300002102E00431884295
:1039F000B7D05A181479B3F88651B3F884610135F9
:103A0000EDB2B54206D0B3F886611E4486F8844014
:103A1000A3F886515479B3F88651B3F8846101351F
:103A2000EDB2B54206D0B3F886611E4486F88440F4
:103A3000A3F886519479B3F88651B3F884610135BF
:103A4000EDB2B54206D0B3F886611E4486F88440D4
:103A5000A3F88651D279B3F88641B3F88451013482
:103A6000E4B2AC42C2D0B3F886511D4485F884203C
:103A7000A3F88641BAE7000040F21853C2F20003EF
:103A8000D3F800C0604518BF7047B3F88A02B3F896
:103A90008812401A00F58070C11700EB116121F007
:103AA000FF01401A5ED0B0B582B2402A28BF402242
:103AB000012A114698BF0121042801F0030E55D2B6
:103AC0000020BEF1000F43D0B3F88812B3F88A4249
:103AD000A1420DD0B3F888121C18194491F888112E
:103AE00084F84410B3F888120131C9B2A3F88812DF
:103AF000BEF1010F2CD0B3F88812B3F88A42A1426C
:103B00000ED0B3F88812441C194491F888111C4453
:103B100084F84410B3F888120131C9B2A3F88812AE
:103B2000BEF1020F14D0B3F88812B3F88A42A14252
:103B30000ED0B3F888120230194491F88811184455
:103B400080F84410B3F888020130C0B2A3F88802AC
:103B5000012403F14401604683F88C42BDE8B04083
:103B6000FFF728BD002083F88C02704701F07C012C
:103B7000002002E004308142A3D0B3F88842B3F8B9
:103B80008A52AC4212D1B3F88842B3F88A52AC429E
:103B900020D1B3F88842B3F88A52AC422ED1B3F8A0
:103BA0008842B3F88A52AC42E4D03BE0B3F8884292
:103BB0001D181C4494F8884185F84440B3F88842A5
:103BC0000134E4B2A3F88842B3F88842B3F88A52C9
:103BD000AC42DED0B3F888421D181C4494F88841EA
:103BE00085F84540B3F888420134E4B2A3F888422E
:103BF000B3F88842B3F88A52AC42D0D0B3F88842C6
:103C00001D181C4494F8884185F84640B3F8884252
:103C10000134E4B2A3F88842B3F88842B3F88A5278
:103C2000AC42A7D0B3F888421D181C4494F88841D0
:103C300085F84740B3F888420134E4B2A3F88842DB
:103C400098E70000FEE7000040F23021C2F20001D8
:103C50000A68904218BF7047D1E9010140F6EC4272
:103C6000C2F20002106051607047000010B540F2CF
:103C70003021C2F2000141F8040B0422FDF786FA5C
:103C800040F6CC34C2F2000420460C21FEF790FE30
:103C900020685A21016410BD7047000040F23C22A8
:103CA000C2F200021168884218BF7047918840F63E
:103CB000F440D288C2F200000180428040F6676082
:103CC00040F2702C8142C2F2000C13D3BCF80010F9
:103CD000022363F3830140F66760824216D25008E4
:103CE0000022CC2821F0030088BF01228118ACF803
:103CF00000107047BCF80030480823F00C01CC28B5
:103D000088BF043140F667608242E8D3022060F346
:103D10000101ACF80010704740F23C21C2F20001F2
:103D200041F8040B0222FDF731BA00007047000091
:103D3000B0B584B040F2AC70C2F2000042F2000CA8
:103D40004FF080534FF000610024C4F2010C4FF497
:103D500080320125C0E90A1302210394047680F819
:103D60002040C16180F83050C0E900C2C0E902447F
:103D7000C0E90455FDF7BCF8002818BFFDF708F8A6
:103D800040F2AC70C2F200006946CDE900550294E1
:103D9000FDF702F8002818BFFCF7FAFF0220CDE972
:103DA000000040F2AC70C2F200006946FCF7F4FF7C
:103DB000002818BFFCF7ECFF04B0B0BDB0B584B06C
:103DC00040F2F470C2F2000042F2001C4FF0805347
:103DD0004FF000610024C4F2010C4FF48032012541
:103DE000C0E90A1304210394047680F82040C161DD
:103DF00080F83050C0E900C2C0E90244C0E904556F
:103E0000FDF776F8002818BFFCF7C2FF0320CDE9C4
:103E1000000540F2F470C2F2000069460294FCF71B
:103E2000BBFF002818BFFCF7B3FF0420009002205E
:103E3000019040F2F470C2F200006946FCF7ACFF5A
:103E4000002818BFFCF7A4FF052000900320019074
:103E500040F2F470C2F200006946FCF79DFF0028B2
:103E600018BFFCF795FF062000900420019040F257
:103E7000F470C2F200006946FCF78EFF002818BFFC
:103E8000FCF786FF04B0B0BD80B582B0002043F6D9
:103E900030010190C4F202010A6842F400120A6083
:103EA0000A6802F400120192019A00900868002248
:103EB00040F4800008600868052100F4800000904C
:103EC00000980C20FDF750FE0C20FDF73BFE0E2065
:103ED00005210022FDF748FE0E20FDF733FE1020DD
:103EE00005210022FDF740FE1020FDF72BFE1120DA
:103EF00005210022FDF738FE1120FDF723FE3820B2
:103F000005210022FDF730FE3820FDF71BFE392089
:103F100005210022FDF728FE3920FDF713FE3A2087
:103F200005210022FDF720FE3A20FDF70BFE45207B
:103F300005210022FDF718FE452002B0BDE88040B3
:103F4000FDF700BE10B544F2A53047F2F412C0F6FA
:103F50000000C0F60002002100F0A0FF40F23C1477
:103F6000C2F20004206040F6615047F25C02C0F6E5
:103F70000000C0F60002002100F090FF606040F2F7
:103F80000D7047F23802C0F60000C0F600020021B2
:103F900000F084FFA06044F2553047F28002C0F682
:103FA0000000C0F60002002100F078FFE06044F25B
:103FB000A97047F2A402C0F60000C0F6000200217A
:103FC00000F06CFF206144F6010047F2C802C0F621
:103FD0000000C0F60002002100F060FF606110BD2B
:103FE0002DE9F04F87B0002743F630000697CDE962
:103FF0000477CDE902770197C4F20200016840F628
:10400000000441F0800101600168C4F2020401F083
:1040100080010191019901970168A4F5806541F043
:10402000040101600168002201F00401019101997D
:10403000019701684FF4405A41F0010101600168A5
:1040400001F00101019101990197016841F010010E
:104050000160016801F01001019101990197016867
:1040600041F002010160016801F002010191019932
:104070000197016841F00801016000684FF4405168
:1040800000F00800019001982846FDF7ABFC20469F
:104090004FF4406100224FF44069FDF7A3FC0F206C
:1040A00002AECDE902074FF0020820463146CDF8B6
:1040B0001080FDF7C1FB4FF4FF4002A981E88101A8
:1040C00004F500603146FDF7B7FBCDF808A04FF0CE
:1040D000010A28463146CDE903A70597FDF7ACFB59
:1040E0004FF4804002904FF4881B28463146CDE9BA
:1040F00003B8FDF7A1FB20463146CDE9029ACDE990
:104100000477FDF799FB4FF48050CDE9020B204670
:104110003146CDF81080FDF78FFB282005210022C5
:10412000FDF722FD2820FDF70DFD07B0BDE8F08F5B
:1041300080B586B040F63C3000220021C2F200007B
:10414000C4F2010244F29F134FF0630C0591CDE9D4
:104150000311CDE90011C0E90023C0E9021CC0E948
:1041600004118161FEF7A6F8002818BFFCF710FEC5
:104170004FF48050029040F63C30C2F2000002A999
:10418000FEF740F9002818BFFCF702FE40F63C306D
:10419000C2F200006946FEF72FF8002818BFFCF7AE
:1041A000F7FD06B080BD000080B58AB020200890E1
:1041B00040F6CC3040F200420021C2F20000C4F2CE
:1041C00000024FF6FF730991CDE90611CDE9041104
:1041D000C0E90021C0E9021301618161FEF79EFB85
:1041E000002818BFFCF7D4FD40F6CC30C2F2000026
:1041F00008A9FEF701F8002818BFFCF7C9FD6020E8
:1042000001900020CDE90200059040F6CC30C2F2CA
:10421000000001A90C22FEF771FA002818BFFCF774
:10422000B7FD0AB080BD000080B540F6144044F2EE
:104230000041C2F20000C4F2000100234FF00C0C58
:104240004FF4E13280E80E00C0E90333C0E905C352
:10425000C361FFF71DF8002808BF80BDBDE880409E
:10426000FCF796BD80B540F65C4044F60001C2F212
:104270000000C4F2000100234FF00C0C4FF4E132B7
:1042800080E80E00C0E90333C0E905C3C361FEF74F
:10429000FFFF002808BF80BDBDE88040FCF778BD67
:1042A00080B540F6A44041F20041C2F20000C4F2E1
:1042B000010100234FF00C0C4FF4E13280E80E00B6
:1042C000C0E90333C0E905C3C361FEF7E1FF00287D
:1042D00008BF80BDBDE88040FCF75ABDFEE7000086
:1042E000FEE70000000000000000000000000000E9
:1042F000EFF30980BFF36F8F154B1A681EF0100F94
:1043000008BF20ED108A20E9F04F10602DE9090068
:104310004FF0500080F31188BFF34F8FBFF36F8FC2
:1043200001F01AFF4FF0000080F31188BDE809008A
:1043300019680868B0E8F04F1EF0100F08BFB0EC25
:10434000108A80F30988BFF36F8F704700BF00BFEA
:104350005401002040F6A44040F65C41C2F2000047
:10436000C2F20001FCF7FCFBFCF732FC012000F07C
:1043700053FDF9E70000000000000000000000000D
:10438000074B19680868B0E8F04F80F30988BFF35D
:104390006F8F4FF0000080F31188704700BF00BF9F
:1043A00054010020012000F037FDFBE780B54EF2FC
:1043B0001000CEF20000006802F038FC012808BFAF
:1043C00080BDBDE8804001F0F1BF000070B592B043
:1043D00006AC20463021FCF722F8002543F64000C9
:1043E0000595CDE90355CDE901550095C4F20200CC
:1043F0000168022641F080510160006800F08050A1
:104400000090009847F200000095C4F20000016897
:1044100041F4804101600068A82100F480400090D0
:104420000098012006904FF4803007904FF48000F0
:104430000D9004200E90119020460C96CDE90F1699
:10444000FDF700FD10B172B6FEE700BF0F20CDE909
:1044500001064FF4A05004904FF48050059001A83D
:1044600005210395FDF7BCFB10B172B6FEE700BF56
:1044700012B070BD4EF68850CEF20000016841F4D3
:10448000700101607047000040F63C30C2F200004D
:10449000FEF78AB840F68430C2F20000FEF784B816
:1044A000B0B540F6FF3E0568C4F2000E40F2004C85
:1044B0007045C4F2010C25DCB0F1804F2FD040F2E2
:1044C0000043C4F20003984229D040F60003C4F22E
:1044D0000003984223D041F6FF73C4F200039842D0
:1044E00028DC70453ADCB0F1804F5BD040F20043ED
:1044F000C4F20003984255D040F60003C4F2000312
:104500004EE000BF40F60043C4F20003984206D0DC
:10451000604504D00023C4F201039842DBD14B680C
:1045200025F0700243EA020541F6FF73C4F200036E
:104530009842D6DD43F6FF73C4F2010398421FDCB4
:1045400042F20003C4F2000398422BD00023C4F2CD
:104550000103984226D0604524D028E040F600436D
:10456000C4F2000398421DD041F60003C4F20003D8
:10457000984217D041F60043C4F2000310E000BF98
:1045800044F20003C4F2010398420BD044F6000346
:10459000C4F20103984205D044F20043C4F201037F
:1045A000984204D1CB6825F4407243EA02050A68B8
:1045B0008C684B69C46240F480648262644504BFC5
:1045C00009690163026825F0800142F00402194381
:1045D0000260012242610160B0BD000040F274231C
:1045E000C2F20003D3F800C0604518BF7047B3F8AB
:1045F0008E02B3F88C12401A00F58070C11700EBE0
:10460000116121F0FF01401A5ED0B0B582B2402A9C
:1046100028BF4022012A114698BF0121042801F039
:10462000030E55D20020BEF1000F43D0B3F88C1218
:10463000B3F88E42A1420DD0B3F88C121C18194465
:1046400091F88C1184F84810B3F88C120131C9B27A
:10465000A3F88C12BEF1010F2CD0B3F88C12B3F872
:104660008E42A1420ED0B3F88C12441C194491F82A
:104670008C111C4484F84810B3F88C120131C9B273
:10468000A3F88C12BEF1020F14D0B3F88C12B3F859
:104690008E42A1420ED0B3F88C120230194491F828
:1046A0008C11184480F84810B3F88C020130C0B265
:1046B000A3F88C02012403F14801604683F890427C
:1046C000BDE8B040FEF776BF002083F89002704747
:1046D00001F07C01002002E004308142A3D0B3F855
:1046E0008C42B3F88E52AC4212D1B3F88C42B3F87C
:1046F0008E52AC4220D1B3F88C42B3F88E52AC4209
:104700002ED1B3F88C42B3F88E52AC42E4D03BE0E9
:10471000B3F88C421D181C4494F88C4185F848402D
:10472000B3F88C420134E4B2A3F88C42B3F88C4263
:10473000B3F88E52AC42DED0B3F88C421D181C4444
:1047400094F88C4185F84940B3F88C420134E4B2C6
:10475000A3F88C42B3F88C42B3F88E52AC42D0D05E
:10476000B3F88C421D181C4494F88C4185F84A40DB
:10477000B3F88C420134E4B2A3F88C42B3F88C4213
:10478000B3F88E52AC42A7D0B3F88C421D181C442B
:1047900094F88C4185F84B40B3F88C420134E4B274
:1047A000A3F88C4298E700004EF6FC50CEF20000D1
:1047B000016841F08071016041F20000CEF200001A
:1047C00000214160016841F001010160FBF7B6FF83
:1047D00040F6A444C2F200042046FFF7FFFE41F277
:1047E0005025C2F2000500BF01204FF0FF3101F05B
:1047F000DDF82046FFF7F2FE288801302880F3E735
:10480000012000F009FBFBE7806B0021C185FEF76A
:104810006BBA0000806B01684A6990F84130212B27
:104820002DD112F080022AD00021C184016851E804
:10483000031F026821F0C00142E80313DBB10168E5
:1048400051E8031F026821F0C00142E8031393B14D
:10485000016851E8031F026821F0C00142E8031318
:104860004BB1016851E8031F026821F0C00142E822
:104870000313002BDAD1202180F841100168496927
:1048800090F84220222A40F07D8011F0400179D03A
:104890000021C185016851E8031F026821F490716D
:1048A00042E80313BBB3016851E8031F026821F417
:1048B000907142E8031373B3016851E8031F026863
:1048C00021F4907142E803132BB3016851E8031FF0
:1048D000026821F4907142E80313002BDAD11AE048
:1048E000016851E8051F026821F0010142E8051343
:1048F000DBB1016851E8051F026821F0010142E8BF
:10490000051393B1016851E8051F026821F0010108
:1049100042E805134BB1016851E8051F026821F018
:10492000010142E80513002BDAD1016B012924D1E2
:10493000016851E8031F026821F0100142E80313E7
:10494000DBB1016851E8031F026821F0100142E861
:10495000031393B1016851E8031F026821F01001AD
:1049600042E803134BB1016851E8031F026821F0CC
:10497000100142E80313002BDAD1202180F8421005
:1049800000210163416C41F010014164FEF7ACB9B4
:104990000168806B0968C90500F19F800021C1850D
:1049A000016851E8031F026821F4807142E8031393
:1049B000E3B1016851E8031F026821F4807142E805
:1049C00003139BB1016851E8031F026821F4807151
:1049D00042E8031353B1016851E8031F026821F450
:1049E000807142E80313002BDAD100BF016851E85F
:1049F000051F026821F0010142E80513BBB30168FD
:104A000051E8051F026821F0010142E8051373B364
:104A1000016851E8051F026821F0010142E8051311
:104A20002BB3016851E8051F026821F0010142E83B
:104A30000513002BDAD11AE0016851E8051F02685E
:104A400021F0400142E80513DBB1016851E8051F80
:104A5000026821F0400142E8051393B1016851E872
:104A6000051F026821F0400142E805134BB10168BF
:104A700051E8051F026821F0400142E80513002BB0
:104A8000DAD1202180F84210016B012925D100BF25
:104A9000016851E8031F026821F0100142E8031386
:104AA000DBB1016851E8031F026821F0100142E800
:104AB000031393B1016851E8031F026821F010014C
:104AC00042E803134BB1016851E8031F026821F06B
:104AD000100142E80313002BDAD100214163016B7E
:104AE000012918BFFEF762BD818DFEF7F1B8000005
:104AF000806B01214163016B012918BFFEF758BD8E
:104B0000818D4908FEF7E4B80168806B0968C90522
:104B100048BFFEF7B9BD0021C18400BF016851E85C
:104B2000051F026821F0800142E8051383B3016884
:104B300051E8051F026821F0800142E805133BB3EC
:104B4000016851E8051F026821F0800142E8051361
:104B5000F3B1016851E8051F026821F0800142E8C5
:104B60000513002BDAD113E0016851E8031F026836
:104B700041F0400142E80313002B08BF7047016871
:104B800051E8031F026841F0400142E8031393B16A
:104B9000016851E8031F026841F0400142E8031335
:104BA0004BB1016851E8031F026841F0400142E83F
:104BB0000313002BD8D17047806BFEF767BD000050
:104BC00081B090F84210222921D183680246B3F5C2
:104BD000805F09D152F8281F52F8183C002B63D08F
:104BE00003685B680AE000BF52F8281F13B9036925
:104BF000002BF5D003685B6803F07F030B7011682E
:104C000001311160C18D01390A04C18502D001B0A2
:104C1000704700BF0168CA6822F02002CA60CA68F3
:104C200022F48072CA604A6922F001024A6120219E
:104C300080F8421000214163026B012A3CD10163DC
:104C4000016851E8031F026821F0100142E80313D4
:104C5000DBB1016851E8031F026821F0100142E84E
:104C6000031393B1016851E8031F026821F010019A
:104C700042E803134BB1016851E8031F026821F0B9
:104C8000100142E80313002BDAD101680A68D2064A
:104C900006D5002200920A680092496800910099A6
:104CA000818D01B0FEF714B8026852686FF35F227D
:104CB00021F8022B8162A5E701B0FEF777BC000066
:104CC000B0B50446006804F108030ECB056919432A
:104CD00025F440552A4302616269E3691143C268C1
:104CE000194349F20C639A431143C1604169A269B7
:104CF00021F4407141F20043114340F48062C4F258
:104D000001039A42416103D1FDF750F802E000BF70
:104D1000FDF738F8E1694FF69C7563681922C0F613
:104D2000FF75B1F5004FA0FB02011FD15A00DB0F48
:104D3000FBF7B0FA48F21F51C5F2EB11A0FB0123BB
:104D40005A0905F1805302FB0300322303EBC00034
:104D5000A0FB01014FF4F87000EA111000EB021003
:104D6000C1F34211084421688860B0BD9A009B0FCE
:104D7000FBF790FA48F21F51C5F2EB11A0FB01239B
:104D80005A0902FB0500322303EB0010A0FB0101CE
:104D9000F02000EA511000EB0210C1F34311084467
:104DA00021688860B0BD000040F61440C2F20000E7
:104DB000FDF7A4BF40F65C40C2F20000FDF79EBFC5
:104DC00040F6A440C2F20000FDF798BFFEE70000E5
:104DD000FCF722FEFFF7FAFAFFF702F9FFF754F8A3
:104DE000FFF7A6F9FFF720FAFFF73CFAFEF7A0FF5E
:104DF000FEF7E4FFFFF7D8F9FFF752FA40F63C3030
:104E0000C2F20000FDF7A8FA00F016F8FFF79AF8D2
:104E100000F026F8FEE70000EFF3058100291CBF33
:104E20006FF005007047002804BF0020704780B570
:104E300000F0E6FF002080BDEFF3058000281CBFD6
:104E40006FF00500704740F26C20C2F2000001686C
:104E5000002911BF4FF0FF30012101600020704791
:104E6000EFF3058000281CBF6FF00500704740F28B
:104E70006C20C2F20000016801291CBF4FF0FF3016
:104E8000704780B54EF61F51CEF2000100220A7025
:104E90000221016001F0E0F8002080BDF0B585B08E
:104EA0008C4600230493EFF30581B0B3A9BB2AB36A
:104EB0009469002C08BF1824382C2ED81179C90702
:104EC0002BD15669D2E902574FEA960E1168002E8F
:104ED000734608BF80231DB35C2F25D312690023BE
:104EE000002A18BF002E18D0CDE900427246634652
:104EF000029501F0DFFD05B0F0BD00BF802318244E
:104F0000002104AF9AB26346CDE9004701F0A2FD4B
:104F100000230499012808BF0B46184605B0F0BDD0
:104F200017B91269002AECD00023184605B0F0BD6D
:104F30002DE9F041044600F017FE40F25416C2F28B
:104F40000006F06840F6E8550130F0603068C2F2C3
:104F5000000558B13069002840F007813068E16AE7
:104F6000C06A884298BF3460FFE000BF3460F068D8
:104F7000012840F0FA80284600F09CFD05F114005D
:104F800000F098FD05F1280000F094FD05F13C00CB
:104F900000F090FD05F1500000F08CFD05F164007B
:104FA00000F088FD05F1780000F084FD05F18C002B
:104FB00000F080FD05F1A00000F07CFD05F1B400DB
:104FC00000F078FD05F1C80000F074FD05F1DC008B
:104FD00000F070FD05F1F00000F06CFD05F5827049
:104FE00000F068FD05F58C7000F064FD05F5967025
:104FF00000F060FD05F5A07000F05CFD05F5AA70FD
:1050000000F058FD05F5B47000F054FD05F5BE70D4
:1050100000F050FD05F5C87000F04CFD05F5D270AC
:1050200000F048FD05F5DC7000F044FD05F5E67084
:1050300000F040FD05F5F07000F03CFD05F5FA705C
:1050400000F038FD05F5027000F034FD05F507703D
:1050500000F030FD05F50C7000F02CFD05F5117029
:1050600000F028FD05F5167000F024FD05F51B7015
:1050700000F020FD05F5207000F01CFD05F5257001
:1050800000F018FD05F52A7000F014FD05F52F70ED
:1050900000F010FD05F5347000F00CFD05F53970D9
:1050A00000F008FD05F53E7000F004FD05F54370C5
:1050B00000F000FD05F5487000F0FCFC05F54D70B2
:1050C00000F0F8FC05F5527000F0F4FC05F557709F
:1050D00000F0F0FC05F55C7000F0ECFC05F561708B
:1050E00000F0E8FC05F5667000F0E4FC05F56B7077
:1050F00000F0E0FC05F5707000F0DCFC05F5757063
:1051000000F0D8FC05F57A7000F0D4FC05F57F704E
:1051100000F0D0FC05F5826000F0CCFC05F22440E4
:1051200000F0C8FC05F5876000F0C4FC05F24C40B7
:1051300000F0C0FC40F24428C2F20008404600F0F3
:10514000B9FC08F11407384600F0B4FC06F164001D
:1051500000F0B0FC06F13C0000F0ACFC06F15000A1
:1051600000F0A8FCC6F81C8037627068716A421CA7
:10517000E06A72608842626488BF706200EB8000FF
:1051800005EB8000211D00F0D7FC00F011FD306917
:1051900088B13068E16AC06A884228BFBDE8F08102
:1051A0004EF60450CEF200004FF080510160BFF384
:1051B0004F8FBFF36F8FBDE8F081000040F25415B0
:1051C00040F6E8564EF60458C2F20005C2F2000658
:1051D000CEF200084FF0805703E000BF204600F0F9
:1051E000FFFCA868D0B100F0BFFCA86CC468201D0B
:1051F00000F032FCE8680138E860A8680138A8606F
:1052000000F0D6FC94F859000228EAD00128E5D035
:1052100070B9206B00F0E4FCE0E700BF30680228C2
:10522000DFD3C8F80070BFF34F8FBFF36F8FD8E79D
:105230004FF0500080F31188BFF36F8FBFF34F8F93
:10524000FEE700002DE9F0470A9C8246206B1646D7
:105250000F46DDE908599100A5229846FBF7D7F8DB
:10526000206B002F00EB8600A0F1040020F0070661
:1052700044D0387884F83400D8B3787884F835008E
:10528000B8B3B87884F8360098B3F87884F8370063
:1052900078B3387984F8380058B3787984F83900CD
:1052A00038B3B87984F83A0018B3F87984F83B0039
:1052B000F8B1387A84F83C00D8B1787A84F83D00A7
:1052C000B8B1B87A84F83E0098B1F87A84F83F0013
:1052D00078B1387B84F8400058B1787B84F841007D
:1052E00038B1B87B84F8420000281CBFF87B84F8F2
:1052F0004300002084F8430003E000BF002084F84E
:1053000034000027201D372D28BF3725E562C4E96A
:10531000135700F0DBFB04F1180000F0D7FBC5F1D8
:105320003800A06130465146424624616462676598
:1053300084F8587000F028FBB9F1000F206018BF06
:10534000C9F80040BDE8F08708480068006880F3AD
:1053500008884FF0000080F3148862B661B6BFF38E
:105360004F8FBFF36F8F00DF00BF000008ED00E03C
:1053700081B00020009040F2CC00C2F20000006832
:105380004FF0500181F31188BFF36F8FBFF34F8F40
:10539000013007D0FEE700BF009830B9009820B96F
:1053A000009810B900980028F6D001B070470000AE
:1053B00088B040F2CC1AC2F2000A0DF11009EB4697
:1053C000DAF8080005681DB1C068046801E000BF94
:1053D000002400F0B9FE01F039FCDAF8101006469E
:1053E000884220D3002DCAF8106051D0B4424FD863
:1053F00001F036FDDAF80800C068C7683D1D284690
:1054000000F02AFB97F82800410745D400F0FA0085
:1054100087F8280082E000BF7860DAF808002946A3
:105420003F6100F057FBDAF80800016831B3C0684B
:10543000C76804683D1D284600F00EFB396A3846EF
:10544000884797F828004007EDD5B8692044A04266
:10545000E2D8DAF80000002800F04081002004A91A
:1054600091C101F0E3FBDAF8000049460022002375
:1054700001F022F80028D6D130E100BFDAF80C1094
:10548000CAF81060CAE9021001F0EAFC4FE000BF60
:1054900065B1002210E000BFB8693F610119B14257
:1054A00079601DD90AF108001FE000BFDAF80C008E
:1054B0000068B0FA80F04209DAF80000A11B00F0A1
:1054C00075FC01F0CDFC90BB4EF60450CEF200000E
:1054D0004FF080510160BFF34F8FBFF36F8F26E015
:1054E000311B814206D20AF10C000068294600F007
:1054F000F1FA13E0DAF80000002800F00D81002036
:1055000004A991C101F092FBDAF80000494600229B
:10551000002300F0D1FF002800F0FE80396A3846F1
:10552000884704E00AF10C02106800F0D3FADAF8B8
:1055300000005946002201F01FF900283FF440AF57
:105540000098B0F1FF3F06DCDDE9012003999047A8
:1055500000980028EBD4029E706910B1301D00F055
:105560007BFA01F073FBDAF81010074688420CD37F
:105570000098CAF8107009283DD9D8E76860DAF8B1
:10558000080021462D6100F0A5FADAF8080001684C
:1055900041B3C068C568D0F800802C1D204600F0DB
:1055A0005BFA296A2846884795F828004007ECD519
:1055B000A86940444045E1D8DAF80000002800F02E
:1055C00083800020CDE90408069501F02FFBDAF86E
:1055D000000049460022002300F06EFF0028D4D1CD
:1055E00072E000BFDAF80C10CAE902100098CAF89D
:1055F000107009289BD8DFE800F005050557415FCA
:105600000505574196F82800B26940F0010101985C
:1056100086F828101318314641F8043FBB42366122
:1056200008D987420AF10802BFF47EAF834205D24F
:105630007AE700BF381A9042FFF474AF316A3046FF
:10564000884796F8280040077FF571AFDAF8000028
:1056500000284DD00198B169069608440021CDE993
:10566000041001F0E3FADAF80000494600220023B2
:1056700000F022FF00287FF45AAF39E096F82800A6
:1056800040F00101019886F828100028B06139D057
:10569000384431460AF10C0241F8040F3661B84231
:1056A00088BF0AF108023FE796F8280000F0FE00E4
:1056B00086F828003BE700BF96F828008107F5D45C
:1056C000304600F08DFA32E74FF0500080F3118839
:1056D000BFF36F8FBFF34F8FFEE700BF4FF0500057
:1056E00080F31188BFF36F8FBFF34F8FFEE700BFCA
:1056F0004FF0500080F31188BFF36F8FBFF34F8FCF
:10570000FEE700BF4FF0500080F31188BFF36F8FAA
:10571000BFF34F8FFEE700BF4FF0500080F31188BA
:10572000BFF36F8FBFF34F8FFEE70000F0B581B07E
:10573000044600F019FA94F94560012E0FDB04F1DC
:10574000240500BF286850B1284601F04FFB00280F
:1057500018BF00F09FFBF0B2013E0128F2D8FF26EF
:1057600084F8456000F024FA00F0FEF994F94470E2
:10577000012F0EDB04F11005286850B1284601F016
:1057800035FB002818BF00F085FBF8B2013F012867
:10579000F2D884F8446001B0BDE8F04000F008BAE7
:1057A00070B5044600F0D0FC40F2082CC2F2000CA8
:1057B000DCF8042012B19CF8000020E041F25220F5
:1057C000C2F20000420700F5705200F1070122F01A
:1057D000070218BF21F007000021A2F10803CCE95D
:1057E0000601CCF8043042E90211DCF80420191A51
:1057F000C0E900210120CCE902118CF8000000254D
:10580000002C4FF0000148BF01215AD0084058D168
:1058100024F0070000F11003600708BF04F108033B
:10582000DCF80800591E81424BD2604650F818EF50
:10583000DEF804509D422CD2DEF80010C1B174464F
:105840004D689D4218D20E68B6B175689D4217D258
:105850003068A8B145689D4216D20468A4B1656855
:105860009D4215D22168A6460029E9D111E000BF6A
:105870000CF118000DE000BF8E46204609E000BF85
:10588000B646084605E000BF8646304601E000BF48
:10589000A646964514D00268DEF80040E91A1129A0
:1058A00004604FD30EEB0305680719D04FF050008A
:1058B00080F31188BFF36F8FBFF34F8FFEE700BFF8
:1058C000002501F0CDFA68075CD04FF0500080F35E
:1058D0001188BFF36F8FBFF34F8F00BFFEE700BF8C
:1058E0000CF118006960CEF8043000BF0168A942CD
:1058F0000AD20868A8420BD20168A94204D20868FB
:105900000B46A842F2D304E00346084601E000BF7C
:105910000B465C6869681E19AE4202D121441D46DF
:1059200059606C18844201D0044607E0DCF804405A
:10593000A04203D0D0E9004008446860AB422C602C
:1059400018BF1D60DEF80400DCE9021302F108054F
:10595000091A9942CCF8081038BFCCF80C109CF802
:10596000001000294FF0000118BF40F00040CEE9C0
:105970000010DCF810000130CCF8100001F070FAD3
:105980006807A2D1284670BD034645F2713021F068
:105990000101C0F600004FF0807C03E903106FF0B6
:1059A0000201A3F1440043E909127047F0B581B048
:1059B0000D46044600F0D8F840F25416C2F2000634
:1059C0003068406D90BB3068012180F858106DB38D
:1059D000B7693068043000F03FF8681C0AD03068BE
:1059E000ED1945600ED3306A3168043100F072F869
:1059F00011E000BF304650F8501B043100F09CF815
:105A000009E000BFF0693168043100F063F8F06A22
:105A1000854238BFF5624EF60450CEF200004FF0DA
:105A200080510160BFF34F8FBFF36F8F00F0C0F85C
:105A300000F09AF83068456D2DB131680020002CD7
:105A400008BF681E48653068002180F8581000F0D3
:105A5000AFF8284601B0F0BD0169D0E90132D1F8B4
:105A600004C09A608445536008BF4A600022026106
:105A700008680138086008687047000045F258035C
:105A8000C2F20003036044F65860C2F200000860EE
:105A9000802010607047000045F2B443C2F200035A
:105AA000036045F2B400C2F2000008604FF4807059
:105AB000106070474FF0FF31024642F8081F002186
:105AC0004260C0E9032201607047000000210161CB
:105AD0007047000010B5D1F800C01CF1010213D0CE
